:100000000C945D000C9485000C9485000C94C61330
:100010000C94C6130C94C6130C9485000C948500A4
:100020000C9485000C9485000C9485000C94EF14BE
:100030000C9485000C9485000C9485000C9485002C
:100040000C9424130C9485000C9494130C946E134C
:100050000C9485000C9485000C9485000C9485000C
:100060000C94D0130C94850000000000240027009D
:100070002A0000000000250028002B0004040404CE
:100080000404040402020202020203030303030342
:10009000010204081020408001020408102001021F
:1000A00004081020000000080002010000030407FB
:1000B0000000000000000000AB1511241FBECFEFB0
:1000C000D8E0DEBFCDBF12E0A0E0B1E0E6EDF8E39E
:1000D00002C005900D92A232B107D9F725E0A2E245
:1000E000B2E001C01D92A63BB207E1F710E0CDE5FA
:1000F000D0E004C02197FE010E940D1BCC35D10732
:10010000C9F70E94CB160C94691C0C940000862F32
:10011000E0912503F0912603309711F0BA0109947C
:100120000895862FE0912303F0912403309711F076
:10013000BA0109940895862FE0912103F0912203DA
:10014000309711F0BA0109940895862FE0911F03AA
:10015000F0912003309711F0BA0109940895862F89
:10016000E0911D03F0911E03309711F0BA0109943C
:100170000895862FE0911B03F0911C03309711F036
:10018000BA01099408950895862F642FE0912703FA
:10019000F0912803309711F0A90109940895E09196
:1001A0002903F0912A03309709F009940895CF9319
:1001B000DF93FC01A081B181109701F1EC01ED9179
:1001C000FC9111970190F081E02D69EFCD01099527
:1001D00088819981DC01ED91FC910190F081E02D05
:1001E00062E0099588819981DC01ED91FC91019093
:1001F000F081E02D65E0DF91CF910994DF91CF91FF
:100200000895A091D304B091D404ED91FC9111977D
:100210000190F081E02D682FCD0109941F93CF93B9
:10022000DF93182FEB0180919A0490919B0468173B
:10023000790760F48091980490919904C80FD91FB0
:10024000188380E0DF91CF911F910895E091C7045A
:10025000F091C804309711F481E0F4CF81E08093ED
:1002600097048091B3049091B404099580919A0405
:1002700090919B04C817D90778F7DCCFCF93DF9311
:10028000EC01FB0130E020E0C901880F991F8C17B9
:100290009D0778F44081DB014D93BD011197918159
:1002A000979599279795942B9C932F5F3F4F329664
:1002B000EBCFC901DF91CF91089590E0FC01EC559F
:1002C000FF4F2491FC01E057FF4F3491FC01E458AB
:1002D000FF4FE491EE23C9F0222339F0233001F1DE
:1002E000A8F4213019F1223029F1F0E0EE0FFF1FC0
:1002F000EE58FF4FA591B4918FB7F894EC9161112E
:1003000026C030953E233C938FBF08952730A9F037
:100310002830C9F0243049F7809180008F7D03C0D8
:10032000809180008F7780938000DFCF84B58F77B6
:1003300084BDDBCF84B58F7DFBCF8091B0008F77FC
:100340008093B000D2CF8091B0008F7DF9CF3E2B4B
:10035000DACFCF93DF9390E0FC01E057FF4F249179
:1003600084589F4FFC0184918823C9F090E0880F46
:10037000991FFC01E859FF4FA591B491FC01EE587B
:10038000FF4FC591D49161110DC09FB7F8948C9126
:10039000209582238C938881282328839FBFDF9117
:1003A000CF910895623051F49FB7F8943C91822F19
:1003B000809583238C93E8812E2BEFCF8FB7F89411
:1003C000EC912E2B2C938FBFEACF8E3008F08E50FD
:1003D0008770806480937C0080917A008064809331
:1003E0007A0080917A0086FDFCCF80917800909110
:1003F000790008953FB7F894809164039091650364
:10040000A0916603B091670326B5A89B05C02F3F56
:1004100019F00196A11DB11D3FBFBA2FA92F982F2A
:100420008827BC01CD01620F711D811D911D42E025
:10043000660F771F881F991F4A95D1F708958F92ED
:100440009F92AF92BF92CF92DF92EF92FF926B0199
:100450007C010E94FA014B015C01C114D104E1044A
:10046000F104B9F00E94FA01681979098A099B0917
:10047000683E73408105910580F321E0C21AD108DE
:10048000E108F10888EE880E83E0981EA11CB11CDB
:10049000E4CFFF90EF90DF90CF90BF90AF909F9010
:1004A0008F900895009721F0805C9F4F0C94D700A7
:1004B0000895AF92BF92CF92DF92EF92FF920F9387
:1004C0001F93CF93DF936C017B018B01040F151FEA
:1004D000EB015E01AE18BF08C017D10759F0699152
:1004E000D601ED91FC910190F081E02DC6010995B6
:1004F000892B79F7C501DF91CF911F910F91FF9063
:10050000EF90DF90CF90BF90AF900895FC01538D96
:10051000448D252F30E0842F90E0821B930B5417DD
:1005200010F0CF96089501970895FC01918D828D6A
:10053000981761F0A28DAE0FBF2FB11D5D968C9103
:10054000928D9F5F9F73928F90E008958FEF9FEF42
:100550000895FC01918D828D981731F0828DE80FFE
:10056000F11D858D90E008958FEF9FEF0895FC01B8
:10057000918D228D892F90E0805C9F4F821B910985
:100580008F739927089588EB93E00E94B70221E0CA
:10059000892B09F420E0822F089580E090E0892BD8
:1005A00029F00E94C30281110C9400000895FC01FF
:1005B000A48DA80FB92FB11DA35ABF4F2C91848DC4
:1005C00090E001968F739927848FA689B7892C9321
:1005D000A089B1898C91837080648C93938D848D74
:1005E000981306C00288F389E02D80818F7D808377
:1005F0000895EF92FF920F931F93CF93DF93EC0137
:1006000081E0888F9B8D8C8D98131AC0E889F989B9
:10061000808185FF15C09FB7F894EE89FF896083BC
:10062000E889F98980818370806480839FBF81E03D
:1006300090E0DF91CF911F910F91FF90EF9008957F
:10064000F62E0B8D10E00F5F1F4F0F731127E02E5A
:100650008C8D8E110CC00FB607FCFACFE889F98992
:10066000808185FFF5CFCE010E94D702F1CFEB8DBF
:10067000EC0FFD2FF11DE35AFF4FF0829FB7F89466
:100680000B8FEA89FB8980818062CFCFCF93DF9384
:10069000EC01888D8823B9F0AA89BB89E889F9899A
:1006A0008C9185FD03C0808186FD0DC00FB607FCCF
:1006B000F7CF8C9185FFF2CF808185FFEDCFCE0102
:1006C0000E94D702E9CFDF91CF9108955F926F9298
:1006D0007F928F929F92AF92BF92CF92DF92EF92D2
:1006E000FF920F931F93CF93DF935C016901DA01AF
:1006F0005C90232B19F4CC24CA94DC2C8A013A0197
:10070000660E771ED0E0C0E0F12CE12C87E0882E49
:10071000912CF50180819181D8016C910C2E01C042
:10072000660F0A94EAF765296F77DC01ED91FC9179
:100730000190F081E02D0995BFEFEB1AFB0AF8015B
:10074000608170E0C4018C1B9D0B02C0759567959C
:100750008A95E2F7562E2196C730D10558F1CE146E
:10076000DF0441F1D5018D919C91652D6F77DC01FE
:10077000ED91FC910190F081E02D0995BFEFEB1A0E
:10078000FB0A551C5524551C2797E6CFEC14FD0495
:1007900008F4BFCFDF91CF911F910F91FF90EF90A1
:1007A000DF90CF90BF90AF909F908F907F906F9091
:1007B0005F9008950F5F1F4F6016710639F72097FD
:1007C00049F3EC14FD0430F7F5018081918161E07B
:1007D00070E001C0660FCA95EAF761506521DC013F
:1007E000ED91FC910190F081E02DDF91CF911F916F
:1007F0000F91FF90EF90DF90CF90BF90AF909F90C0
:100800008F907F906F905F9009941F93CF93DF93A9
:1008100000D0CDB7DEB7182F7A8369838091950415
:10082000909196040097C9F0DC01ED91FC91019044
:10083000F081E02D1031B8F461157044A0F4612FFF
:10084000606E099522E030E0AE014F5F5F4F62E0DD
:1008500070E085E994E00E9466030F900F90DF91AD
:10086000CF911F91089560EF099580919504909123
:100870009604DC01ED91FC910190F081E02D6FE692
:1008800009958091950490919604DC01ED91FC917D
:100890000190F081E02D612F099522E030E0AE015A
:1008A0004F5F5F4F62E070E085E994E00E9466036D
:1008B0008091950490919604DC01ED91FC9101905A
:1008C000F081E02D67EF0995C8CFEF92FF920F936B
:1008D0001F93CF93DF93C82F809195049091960436
:1008E0000097C9F17A018B01DC01ED91FC91019037
:1008F000F081E02D60EF0995809195049091960428
:10090000DC01ED91FC910190F081E02D6C2F0995B7
:10091000E7010E0D1F1DC017D10759F030E020E090
:10092000AE0161E070E085E994E00E9466032196E3
:10093000F2CF8091950490919604DC01ED91FC91A9
:100940000190F081E02D67EFDF91CF911F910F9122
:10095000FF90EF900994DF91CF911F910F91FF903D
:10096000EF900895CF92DF92EF92FF920F931F9333
:10097000CF93DF93FC01E058FF4FE080EE2009F4B5
:100980005CC0EC01C05CDF4FA881B981109709F40D
:1009900054C0FC01EF57FF4FC080D180F601118198
:1009A0000081ED91FC9111970190F081E02D60EFB5
:1009B000CD01099588819981DC01ED91FC9101902F
:1009C000F081E02D69E7099588819981DC01ED913D
:1009D000FC910190F081E02D602F0995888199812B
:1009E000DC01ED91FC910190F081E02D612F0995E2
:1009F000F12C01E010E00F5F1F4FE016F10659F0F7
:100A000030E020E0A601400F511F61E070E0CE0110
:100A10000E946603F0CF88819981DC01ED91FC9101
:100A20000190F081E02D67EFDF91CF911F910F9141
:100A3000FF90EF90DF90CF900994DF91CF911F91BD
:100A40000F91FF90EF90DF90CF900895009711F0F5
:100A50000C94B20408952091F402260F3327331F1B
:100A600021323105ECF420918E03FC0190E080E00E
:100A7000243069F082E00895A091F4022191AC0144
:100A80004E525D4FA40FB52FB11D2C9301968617C2
:100A900098F38091F402680F6093F40280E0089567
:100AA00081E0089510928E0381E080938D0310926F
:100AB000680361E082E10E945D0161E083E10E94E0
:100AC0005D01E9EBF0E080818E7F808380818D7F06
:100AD000808388E48093B80085E48093BC00089507
:100AE000CF93DF9391E09093D1028823B9F0C09126
:100AF000B800D091BA008091BC008A7B8093BC0082
:100B000060E082E10E945D0160E083E10E945D019E
:100B10000E945205D093BA00C093B800DF91CF91E4
:100B200008958F929F92AF92BF92CF92DF92EF92F1
:100B3000FF920F931F93CF93DF93D091B703D132DE
:100B400008F0D7C0182FC091B6030E94FA016B01BC
:100B50007C0180918E0381116BC082E080938E03B3
:100B600010938D038FEF80938C0310928B03D0939F
:100B70008A03A6E9B3E0EAE6F3E080E0D81391C087
:100B80001092690380916903CC0FC82BC09369034D
:100B900080916803813009F088C0109268030E9438
:100BA000FA016B017C01809169038093BB00809105
:100BB000900390919103A0919203B0919303892B9C
:100BC0008A2B8B2BA1F00E94FA01009190031091C7
:100BD000910320919203309193036C197D098E0942
:100BE0009F09061717072807390708F442C08091A4
:100BF000BC0083FDD8CF85EC8093BC000E94FA0135
:100C00006B017C0180918E03823009F450C0809189
:100C10008C038F3F09F46FC080918C03803209F4FC
:100C20006CC080918C03803309F469C084E026C0D5
:100C30008091900390919103A0919203B0919303BE
:100C4000892B8A2B8B2B09F484CF0E94FA01809088
:100C5000900390909103A0909203B09093036C192D
:100C60007D098E099F0986169706A806B90608F021
:100C700070CF80918F030E94700585E010929503DC
:100C80001092B70310929403DF91CF911F910F91AF
:100C9000FF90EF90DF90CF90BF90AF909F908F909C
:100CA00008959D9191938F5F69CF85EEA5CF809137
:100CB000900390919103A0919203B0919303892B9B
:100CC0008A2B8B2B09F49ECF0E94FA01009190038E
:100CD0001091910320919203309193036C197D0937
:100CE0008E099F09061717072807390708F08ACFCA
:100CF000C0CF81E0C3CF80E0C1CF82E0BFCF83E02F
:100D0000BDCF089508950895E091D0028091CF025B
:100D1000E81730F4F0E0E155FD4F808190E0089550
:100D20008FEF9FEF08959091D0028091CF022FEF27
:100D30003FEF981748F4E92FF0E0E155FD4F20818F
:100D400030E09F5F9093D002C90108958091CF0257
:100D50009091D002891B990B0895CF92DF92EF9268
:100D6000FF920F931F93CF93DF937C01CB018A01F6
:100D700020919403222389F0EB016B01C40ED51E50
:100D8000CC15DD0569F06991D701ED91FC910190D9
:100D9000F081E02DC7010995F3CF642F0E942B0548
:100DA000C801DF91CF911F910F91FF90EF90DF90DD
:100DB000CF900895CF93DF931F92CDB7DEB76983AD
:100DC000209194032223F9F02091B703203258F0A8
:100DD00021E030E0FC013383228390E080E00F903B
:100DE000DF91CF91089580919503E82FF0E0EA56C6
:100DF000FC4F998190838F5F809395038093B70315
:100E000081E090E0ECCF61E0CE0101960E942B05DD
:100E1000F7CF90E080E00895DF92EF92FF920F937A
:100E20001F93CF93DF93EC01D62E7A01890188813D
:100E30008C3008F067C061E08D2D0E94A901888187
:100E4000282F30E0F901EE0FFF1FE20FF31FE759E3
:100E5000FA4F9D2D9F736081607C692B608320E237
:100E600032E02E193F0937FF02C02D5F3F4F359505
:100E7000279535952795298320E639E0201B310BEE
:100E800037FF02C02D5F3F4F359527953595279544
:100E90002A832CE0622F0E94011B829FB001112443
:100EA00030E020E0AB01420F531FFA01EE0FFF1FAD
:100EB000E40FF51FE759FA4F908196FD16C02F5F9A
:100EC0003F4F2C30310571F781110FC01092800017
:100ED00082E0809381001092850010928400B19A84
:100EE00080916F00826080936F00E8818E2F90E088
:100EF000FC01EE0FFF1FE80FF91FE759FA4F808141
:100F0000806480838881DF91CF911F910F91FF9042
:100F1000EF90DF9008952091AC023091AD028217DE
:100F20009307F8F49C01220F331F280F391F80917B
:100F3000AA029091AB02E091A902820F931FE80FE1
:100F4000F92FF11D6083E091A802E80FF92FF11D40
:100F500050832091A702820F911DFC01408380E005
:100F6000089581E008951092A6021092AD021092A9
:100F7000AC02E6E9F2E0AEE8B2E0119211921D9205
:100F800082E0E63AF807C9F70895DC0170E0FB015A
:100F9000E057FF4FE4911896EC93189764587F4FF1
:100FA000FB018491E82FF0E0EE0FFF1FEE58FF4F9A
:100FB0008591949115969C938E931497FB0164915F
:100FC000E62FF0E0EE0FFF1FE859FF4F8591949157
:100FD00017969C938E9316970895CF938630B0F40E
:100FE00021E030E0082E02C0220F331F0A94E2F7FE
:100FF0004091590350915A03672B51F42095309535
:101000002423352330935A0320935903CF91089515
:10101000242B352B30935A032093590390918D0242
:101020009111F4CFC82F0E94E501BC018C2FCF9104
:101030000C9405045F926F927F928F929F92AF9271
:10104000BF92CF92DF92EF92FF920F931F93CF93B5
:10105000DF93833008F061C0D1E0D80FDD0FDD0FE2
:10106000DD0F5D2ED53110F044E1542EC62F082F30
:10107000D8508D2E912CC401880F991F9C012B5A9A
:101080003B4F5901D12CC12C10E077247394D51516
:10109000C8F58EEF8D0F8231F8F4F601E80DF91DD9
:1010A000E852FB4F90819230B8F48C2F8721662450
:1010B0006394811101C0612C7601EE0CFF1C91300C
:1010C00089F4172937E9E30EF11CF501EE0DFF1D38
:1010D000862D90E091838083770CDF5F8FEFC81AB5
:1010E000D80AD5CF882371F3F701E956FF4FEA0DEF
:1010F000FB1D80819181019729F362E08D2F0E9471
:10110000A901E0CF011119C0F8948BB16C2F6827A9
:101110006C7F612368276BB97894DF91CF911F9121
:101120000F91FF90EF90DF90CF90BF90AF909F9086
:101130008F907F906F905F9008950130D1F4C1231C
:10114000F89495B1812F8F73809589239C2F9F737D
:10115000892B85B988B1612F629566956695637014
:1011600060956823C295C695C695C370C62BC8B94D
:10117000D3CF1F70F89498B1812F880F880F809576
:101180008923C123CC0FCC0FC82BF1CF8F929F9214
:10119000AF92BF92CF92DF92EF92FF920F931F9385
:1011A000CF93DF93EB01843108F098C0082F10E053
:1011B000F801E852FB4F9081933009F49CC09430C1
:1011C00009F08CC08250823108F081C0F801EB58E0
:1011D000FD4FC080D12C7601EE0CFF1C4B0160321C
:1011E00082E078070CF03EC0F701EC0DFD1DE257E0
:1011F000FA4F8181A8E88A2E912C881A910887FDE0
:101200009394880C991C880C991C092C000CAA0832
:10121000BB08828128E532E0281B310987FD339520
:10122000220F331F220F331F032E000C440B550BCC
:10123000281939094A095B09DB01653B710514F07E
:10124000A4EBB0E0B7FF02C0B0E0A0E00E94C81A73
:1012500024EB30E040E050E00E949E1A820E931E84
:10126000A41EB51EF701EC0DFD1DE257FA4F2081BB
:101270002C3068F5318188E890E0831B910937FDB7
:101280009395880F991F880F991F881699067CF0EF
:10129000328188E592E0831B910937FD9395880F91
:1012A000991F880F991F881699060CF4C40102979C
:1012B000880F991F4FB7F89430E0F901EE0FFF1F28
:1012C000E20FF31FE759FA4F928381834FBF000F5C
:1012D000111FF801E451FB4FD183C083DF91CF91FF
:1012E0001F910F91FF90EF90DF90CF90BF90AF9044
:1012F0009F908F9008957B01D82F833041F08BEF22
:10130000800F823020F087EF800F833058F461E047
:101310008D2F0E94A901E114F10461F460E08D2F8A
:101320000E945D01000F111FF801E451FB4FF18293
:10133000E082D4CF8FEFE816F10411F461E0EFCF33
:10134000F801EC55FF4FE491E33021F148F4E1302E
:10135000B9F0E230D1F080E8E816F1047CF7DECF96
:10136000E73011F1E83041F1E430A9F780918000D5
:10137000806280938000F0928B00E0928A00D2CF4E
:1013800084B5806884BDE7BCCDCF84B5806284BD60
:10139000E8BCC8CF80918000806880938000F09284
:1013A0008900E0928800BECF8091B0008068809371
:1013B000B000E092B300B6CF8091B000806280931D
:1013C000B000E092B400AECF9EEF980F923180F45F
:1013D000E82FF0E0DF01A852BB4F9C91913041F41F
:1013E000EE0FFF1FE451FB4F608371830C945D018E
:1013F0000895FF920F931F93CF93DF9300D0CDB743
:10140000DEB7082F10E0F801E55DFC4F9081F62E65
:10141000F92207571D4F411104C0F80190819F1513
:1014200011F12F2D30E03A832983A0919504B091DA
:1014300096041097B1F0682F6F706069ED91FC9180
:1014400011970190F081E02DCD01099522E030E067
:10145000AE014F5F5F4F62E070E085E994E00E946B
:101460006603F801F0820F900F90DF91CF911F91EA
:101470000F91FF900895833040F5282F30E0F90157
:10148000E25DFC4F6083672B01F1255D3C4FF90164
:101490006081811106C099B19C7F692341E00C9461
:1014A000F909813049F493B126B19F73F0E42F9F7D
:1014B00090011124922BF1CF26B130E0359527957C
:1014C000359527952F706223E9CF0895A82FB0E0B6
:1014D000AB58BD4F9C91292F30E0F901EE0FFF1F53
:1014E000E20FF31FE257FA4FE0812E2F30E0F901AF
:1014F000EE0FFF1FE20FF31FE759FA4F80818F7B3A
:10150000808380917302981308C0992319F0915039
:10151000909373028FEF8C9308958823D9F3E09111
:101520007402EF5FE0937402F0E0EF5DFD4F908393
:10153000F1CFFC0101900020E9F73197BF01681B52
:10154000790BAC0181E70C9465044F925F926F9226
:101550007F928F929F92AF92BF92FF920F931F93B1
:10156000CF93DF93F82E8B01D42FC22F6F3F7607D6
:1015700009F490C081E080939403F092B603109236
:1015800095031092B70385E195E00E94DA068C2F4F
:101590000E949105809171029091720282309105B2
:1015A00038F0880F991F880F991F05970197F1F759
:1015B0000E94FA014B015C0180918E0381116CC085
:1015C000CD2FD13208F0C0E281E080938E0380936A
:1015D0008D039FEF90938C0310928B039C0F90933D
:1015E0008A0380936903909169038F2D880F892B5B
:1015F0008093690380916803813009F0A1C0109243
:1016000068030E94FA014B015C0180916903809399
:10161000BB008091900390919103A0919203B091AF
:101620009303892B8A2B8B2BA1F00E94FA01409007
:101630009003509091036090920370909303681907
:1016400079098A099B09461657066806790608F43F
:1016500044C08091BC0083FDD8CF85EC8093BC0052
:101660000E94FA014B015C0180918E03813009F4E4
:1016700069C080918B038C1710F4C0918B03EAE64C
:10168000F3E0AFEAB2E080E08C1761F191919D93B5
:101690008F5FFACF00E08CCF8091900390919103FF
:1016A000A0919203B0919303892B8A2B8B2B09F481
:1016B00083CF0E94FA014090900350909103609074
:1016C000920370909303681979098A099B09461659
:1016D00057066806790608F06FCF80918F030E9445
:1016E0007005C0E01092D002C093CF022D2F30E0E1
:1016F0008C2F90E0281739070CF046C08DE291E05E
:101700000E94990AF0922E0200932F020EE212E03C
:10171000AD2EB12CC8018E5292408A159B050CF05B
:1017200041C00F5F1F4F9091CF028091D002981758
:10173000C9F185E195E00E949306F8018183EACF23
:1017400085EE8CCF8091900390919103A0919203AC
:10175000B0919303892B8A2B8B2B09F485CF0E94A0
:10176000FA01409090035090910360909203709022
:101770009303681979098A099B0946165706680672
:10178000790608F071CFA9CF821793070CF0BACF72
:101790008AE491E00E94990AD091CF028091D00210
:1017A000D81BB0CFDE5F6D2F70E04EE252E087E7CE
:1017B000DF91CF911F910F91FF90BF90AF909F90BD
:1017C0008F907F906F905F904F900C946504CF93B3
:1017D000DF93DB01909173029C3078F530917402B5
:1017E000682F70E0FB01EB58FD4F3323E1F0C32F6E
:1017F000D0E0CF5DDD4F888180833150309374021B
:10180000808123E0829FC001112482579A4F1A16CB
:101810001B0674F4141615065CF49A01AD01DF91F1
:10182000CF910C940C0790839F5F90937302E8CF45
:1018300020E639E040E252E0F2CF86E691E0DF9127
:10184000CF910C94990A9F92AF92BF92CF92DF9260
:10185000EF92FF920F931F93CF93DF93C82ED12C5B
:10186000E601CB5ADB4FFE01ED57FF4F90819F37CA
:1018700009F49FC0963061F490918C02992341F055
:101880006630710529F010928C029FEF9093000151
:101890007B01182F0EEF080F023108F56430710537
:1018A000F1F0F601EB58FD4F80818C30C0F490E0F0
:1018B000FC01EE0FFF1FE80FF91FE257FA4FE0811E
:1018C0008E2F90E0FC01EE0FFF1FE80FF91FE75984
:1018D000FA4F808186FF03C0812F0E94660A52EF73
:1018E000952E910E85E0891558F061E070E032E0A8
:1018F000E316F10411F070E060E0892D0E94ED071D
:101900000231C8F4E12FE695E695E695F0E0E55D55
:10191000FC4F2081312F377081E090E001C0880FAB
:101920003A95EAF7E114F10421F03BE0E316F10403
:1019300001F5822B80835601AA0CBB1CF501E451F2
:10194000FB4F118210828CE0E816F10408F0CBC046
:10195000F701E355F34F0C940D1BCD0CFA0CBC0CA6
:10196000110D300D730D670D730D730D730DD90CC3
:10197000E50C80958223DECF35E03915D0F00231B9
:1019800020F460E0812F0E94A901CD57DF4F8881AC
:101990008F3779F082E088830CC0023150F460E028
:1019A000812F0E94A901CD57DF4F88818F3709F021
:1019B0001882DF91CF911F910F91FF90EF90DF90F0
:1019C000CF90BF90AF909F900895023190F762E062
:1019D000812F0E94A901CD57DF4F88818F3711F0E9
:1019E0008BE08883F501E451FB4F81E090E0918327
:1019F0008083DFCF0231E8F6FE01ED57FF4F808193
:101A0000833021F460E0812F0E945D0161E0812F2D
:101A10000E94A901CD57DF4F88818F3751F281E0B5
:101A2000BACF133049F08BEF810F823028F087EF67
:101A3000810F833008F0BDCF61E0812F0E94A901A2
:101A400061E0812F0E94A90160E0812F0E945D0169
:101A5000CD57DF4F88818F3709F4ABCF83E09BCF21
:101A6000023108F0A6CFCD57DF4F88818F3711F0B4
:101A700084E08883F601EB58FD4F80818F3FA9F009
:101A800090E0FC01EE0FFF1FE80FF91FE257FA4F3D
:101A9000E0818E2F90E0FC01EE0FFF1FE80FF91F91
:101AA000E759FA4F808186FD84CF4FEF5FEF6FEFEC
:101AB0007FEF812FDF91CF911F910F91FF90EF90DA
:101AC000DF90CF90BF90AF909F900C94E70B125196
:101AD000123008F06ECFCD57DF4F88818F3709F471
:101AE00068CF86E058CF8AE791E0DF91CF911F91D0
:101AF0000F91FF90EF90DF90CF90BF90AF909F90AD
:101B00000C94990A0F931F93CF93DF9381E08093F6
:101B10008D0280918C02882329F010928C028FEF25
:101B20008093000110922E0310922B0310928902D1
:101B300010922F0310922C0310928A0210923003FD
:101B400010922D0310928B0205E712E0C0E0DFEF48
:101B500082EF8C0F62E070E0863030F08EEF8C0FF9
:101B6000823128F461E070E08C2F0E94230CF80190
:101B7000D1938F01CF5FC43159F710925A0310925D
:101B80005903109274021092730210928D02DF9129
:101B9000CF911F910F91089585ED8093BC008091A6
:101BA000900390919103A0919203B09193030796B3
:101BB000A11DB11D23E0B695A795979587952A9508
:101BC000D1F72091BC0024FD03C010928E0308952C
:101BD000409190035091910360919203709193030F
:101BE000452B462B472B69F30097A105B10541F022
:101BF0002AE22A95F1F700C00197A109B109E1CFC6
:101C000080918F030C9470056F927F928F929F92B8
:101C1000AF92BF92CF92DF92EF92FF920F931F93FA
:101C2000CF93DF93EA018F3609F4F9C1162F80377D
:101C300008F05CC0893609F483C290F4813509F458
:101C400090C2DF91CF911F910F91FF90EF90DF90A5
:101C5000CF90BF90AF909F908F907F906F9008959E
:101C60008B3609F407C28D3661F7662351F3C881BC
:101C700080EF0E9401018EE60E9401018C2F0E94DC
:101C80000101C43108F04BC2D0E0FE01E852FB4F25
:101C900080810E940101CC0FDD1F8E0104511B4F7A
:101CA000F80180818F770E940101F8018081918184
:101CB0009C012078232B39F0880F892F881F990BDE
:101CC0008F770E940101C451DB4F888199819C016B
:101CD0002227307C232B09F422C2990F880B990FFD
:101CE000982F881F8F770E94010119C2863709F447
:101CF0006DC008F051C0803709F0A3CF653008F4FB
:101D0000A0CF18818EEF810F823108F09ACF098120
:101D1000EA80FB80CC81E12FF0E0EB58FD4F808121
:101D20008C30C0F490E0FC01EE0FFF1FE80FF91FAC
:101D3000E257FA4FE0818E2F90E0FC01EE0FFF1F7B
:101D4000E80FF91FE759FA4F808186FF03C0812F02
:101D50000E94660A60E8C69FA00111244F0D511D24
:101D600080E8E89EB0011124600F711D812F0E9450
:101D7000E70B64E070E0812FDF91CF911F910F910D
:101D8000FF90EF90DF90CF90BF90AF909F908F909B
:101D90007F906F900C94230C883709F401C18A3727
:101DA00009F04FCF623008F44CCF898190E8899FC9
:101DB000900111248881820F932F911D009709F4BF
:101DC0002BC190930201809301013BCF998195FF34
:101DD00012C08BE891E0DF91CF911F910F91FF909E
:101DE000EF90DF90CF90BF90AF909F908F907F90BB
:101DF0006F900C94990A888131E096FB222720F994
:101E000023279871983099F1E0F491111ACF30930B
:101E100094038093B603109295031092B70302E0E7
:101E20000117E8F4FE01E00FF11D61816795662757
:101E300067958081680F85E195E00E94DA060E5F64
:101E4000EFCF9031D9F1983109F0FBCE209100010C
:101E500012160CF460C08FEF80930001F2CE81E087
:101E60000E94910583E191E00197F1F7EACE9A8112
:101E70004B816630E1F430E8439FB0011124690FD3
:101E8000711D4D814795442747959C81490FDF91EE
:101E9000CF911F910F91FF90EF90DF90CF90BF9067
:101EA000AF909F908F907F906F900C94A50A47956C
:101EB00044274795490F6FEF7FEFE9CFE09100018D
:101EC000E7301CF08BEA91E086CF3A819B81663047
:101ED000D9F460E8969FA0011124430F511D9D8104
:101EE0009795992797953C81930FEF5FE0930001B9
:101EF00035E0E302F0011124EF5CFC4F8083528354
:101F00004183938324839DCE979599279795930F2B
:101F10004FEF5FEFEACF90E0622F022E000C770BBD
:101F200035E0492F50E06417750764F0349FF001E5
:101F3000359FF00D1124EF5CFC4F4081481719F0DC
:101F40009F5FEFCF90E085E0492F50E06417750761
:101F50001CF19830F8F4FA0131968E9FD0018F9FD2
:101F6000B00D1124AF5CBC4F3C91849FF001859F64
:101F7000F00D1124EF5CFC4F308311964D915C9174
:101F800012975283418313963C911397338314968F
:101F90003C9134839F5FD8CF21502093000151CED4
:101FA000623078F0898140E8849F90011124888113
:101FB000820F932F911D009721F0909372028093CE
:101FC000710280918C0281113CCEC0E08EEE8C0FAC
:101FD000823028F466E070E08C2F0E94230CCF5FE3
:101FE000C431A1F781E080938C021092D00210924C
:101FF000CF02109295031092B7030E94520581E818
:1020000096E09093F3028093F20282E896E0909338
:10201000F7028093F60215CE81E090E0D2CE6230D6
:1020200008F40FCE898190E0623091F02A81E0E8D7
:102030002E9F90011124822B932B633049F02B812A
:1020400030E030E4239F302D22271124822B932B64
:10205000BC018881DF91CF911F910F91FF90EF908C
:10206000DF90CF90BF90AF909F908F907F906F90B8
:102070000C94C60880EF0E9401018CE60E940101C9
:10208000CEEF84EF8C0F863050F582E00E94010184
:102090008AE00E9401018DEF8C0F823010F189EFF0
:1020A0008C0F833020F51DC0C23158F780E00E94AC
:1020B000010181E00E9401018BE00E94010181E0A9
:1020C0000E94010181E00E94010181E00E94010162
:1020D00081E50E94010181E00E940101D2CFC1305F
:1020E000D1F683E00E94010188E00E940101C23123
:1020F00030F484E00E9401018EE00E94010180EF33
:102100008C0F823030F486E00E94010181E00E9451
:1021100001018FE70E940101CF5FC23129F687EFED
:10212000DF91CF911F910F91FF90EF90DF90CF90B3
:10213000BF90AF909F908F907F906F900C94010113
:1021400080EF0E9401018AE60E940101C2EF8FE741
:10215000C63008F48C2F0E940101CF5FC630B9F75A
:10216000DECF662309F46DCD9881892F8F7083307F
:1021700009F43EC108F064C0813009F48EC1823098
:1021800009F05FCD8091700281115BCD80916F026B
:10219000811157CD81E08093700280E019E0909129
:1021A000A602891708F0B4C0282F30E0B9016257A1
:1021B0007D4FFB019081992309F4A6C0E091AA020A
:1021C000F091AB02129FE001139FD00D1124CF5D5F
:1021D000DA4FAE81BF819C912885922B9C93AC8174
:1021E000BD81988528813981A901440F551F420F6F
:1021F000531F0A80DB81C02D9E01220F331F2C0F3D
:102200003D1FE20FF31F3C91292F20952323932B91
:102210003FB7F8944E0F5F1F4E175F0709F472C067
:10222000C191D8E09C9300C0C7FF2C93CC0F00C095
:1022300000C000C008F42C9300C0DA9599F7ECCFE9
:10224000843009F468C0853009F0FBCC9981292FCE
:102250002F7109F4ACC0392F3072732E81E0809356
:102260006F02022F000F020F10E0C091AC02D0915C
:10227000AD02C21BD1096E01CC0CDD1CCC0EDD1EE3
:10228000E090AA02F090AB024701800E911E492F08
:102290004074642E96FFB9C1C8010E94131B5C01F3
:1022A000009729F0A80170E060E00E94531CCE0165
:1022B000711002C090E080E0BC01660F771F680FCC
:1022C000791F6E0D7F1DA801C5010E94381C711079
:1022D000B3C1A601B401C7010E94411C662009F4E4
:1022E0009EC1CE01880F991F8C0F9D1FA801B501BB
:1022F0008E0D9F1D0E94381CC5010E94AF1B1092BD
:102300006F0255C03FBF7894FB0110828F5F47CFAB
:102310001092700296CC80916F02811192CCCB808A
:10232000D12CF12CE12C7EE0CC0CDD1CEE1CFF1C32
:102330007A95D1F78C8190E0B0E0A0E0E5E1880FDC
:10234000991FAA1FBB1FEA95D1F78C0D9D1DAE1DCD
:10235000BF1D29816C017D01C20ED11CE11CF11C45
:102360008A8190E0B0E0A0E0F7E0880F991FAA1FF3
:10237000BB1FFA95D1F7C80ED91EEA1EFB1E0091AD
:10238000AC021091AD02D0E0C0E0C114D104E10470
:10239000F10421F5A801440F551F400F511F70E0B3
:1023A00060E08091AA029091AB020E94531C409180
:1023B000A60250E061E070E08EE892E0DF91CF91FC
:1023C0001F910F91FF90EF90DF90CF90BF90AF9053
:1023D0009F908F907F906F900C94531CC017D107E3
:1023E00031F3B701A601CE010E948B072196F6CFEB
:1023F00080916F02811125CC0A81F0E80F9FC00106
:1024000011240981080F192F111D4D8150E070E032
:1024100060E08EE0440F551F661F771F8A95D1F745
:102420008E8190E0B0E0A0E025E1880F991FAA1FFF
:10243000BB1F2A95D1F7840F951FA61FB71F2B81AD
:10244000AC01BD01420F511D611D711D8C8190E0D9
:10245000B0E0A0E037E0880F991FAA1FBB1F3A9594
:10246000D1F7480F591F6A1F7B1FC8010E948B07B5
:102470004091A602A6E9B2E090E080E0841708F05F
:10248000E0CBFC012D913D91019602171307B0F7A7
:10249000E257FD4F81E08083D4CB913009F0D1CB5E
:1024A000633008F4CECB00916E020E94B307002384
:1024B00081F0B1E2CB2EB5E0DB2EF12C6F2DC60101
:1024C0000E94C507F39429E0C20ED11C38E0F31234
:1024D000F5CF6BEA169F112D11241695E6E9AE2E65
:1024E000E2E0BE2EF1E2CF2EF5E0DF2E912C882423
:1024F0008394A2E07A2E011105C069816F71C60133
:102500000E94C507898190E075E0959587957A9539
:10251000E1F78130910509F467C08230910509F433
:1025200068C0892B31F41092A8028092A90270929F
:10253000A702EB8040E8E49E700111248A81E80E36
:10254000F11CF601F182E08290E080E0992021F018
:10255000F5013297808191819701280F391FF5018C
:10256000219331935F01F601938382838091AC02C2
:102570009091AD02E80EF91EF092AD02E092AC022D
:102580008091A6028F5F8093A6029394F9E0CF0E0C
:10259000D11C23961911AFCF8091AA029091AB0262
:1025A000009731F00E94AF1B1092AD021092AC0266
:1025B000E114F10409F445CBE701CC0FDD1FCE0D8A
:1025C000DF1DCE010E94131B9093AB028093AA02E1
:1025D0000097B1F0AE0170E060E00E94531CF092F1
:1025E000AD02E092AC022DCB1092A9028092A8021B
:1025F0009ECF1092A7028092A9027092A80299CF52
:102600001092AD021092AC021CCB332309F461CEC0
:10261000A601B701C4010E94411CD0E0C0E0CE0178
:10262000880F991F8C0F9D1FA80170E060E08E0D30
:102630009F1D0E94531C63CEA601B701C4010E94D6
:10264000411CD0E0C0E04DCE1F920F920FB60F920A
:1026500011242F933F938F939F93AF93BF938091B8
:10266000600390916103A0916203B0916303309184
:102670005F0323E0230F2D3758F50196A11DB11DEF
:1026800020935F038093600390936103A0936203A0
:10269000B09363038091640390916503A0916603F6
:1026A000B09167030196A11DB11D809364039093BF
:1026B0006503A0936603B0936703BF91AF919F91A9
:1026C0008F913F912F910F900FBE0F901F901895F3
:1026D00026E8230F0296A11DB11DD2CF1F920F92A3
:1026E0000FB60F9211242F933F934F935F936F93E5
:1026F0007F938F939F93AF93BF93EF93FF9388EB59
:1027000093E00E94D702FF91EF91BF91AF919F910B
:102710008F917F916F915F914F913F912F910F908A
:102720000FBE0F901F9018951F920F920FB60F9229
:1027300011242F938F939F93EF93FF93E091C803FE
:10274000F091C9038081E091CE03F091CF0382FD27
:102750001BC090818091D1038F5F8F732091D20332
:10276000821741F0E091D103F0E0E854FC4F958FDF
:102770008093D103FF91EF919F918F912F910F90B3
:102780000FBE0F901F9018958081F4CF1F920F926B
:102790000FB60F9211240F900FBE0F901F90189537
:1027A0001F920F920FB60F9211242F933F934F93C6
:1027B0005F936F937F938F939F93AF93BF93EF93A9
:1027C000FF938091B900887F803609F44AC0F0F504
:1027D000883209F4A7C018F5803109F49BC0B8F419
:1027E000882309F4F9C0883009F494C0FF91EF916F
:1027F000BF91AF919F918F917F916F915F914F9119
:102800003F912F910F900FBE0F901F901895883118
:1028100009F488C0803251F780938C0314C080344F
:1028200009F49DC040F48033B9F38833F9F68093FE
:102830008C0385ECB0C0803509F485C0883509F477
:1028400096C0883499F60E94CC0DD0CF883909F40F
:102850008CC038F5883729F050F4883611F080376D
:1028600029F683E080938E031092180357C08838AE
:1028700009F47BC0803919F0803809F0B7CF809116
:102880001803803208F071C0E091180381E08E0FC8
:10289000809318038091BB00F0E0E850FD4F8083E7
:1028A0003DC0803B39F0E0F4803A09F479C0883AC1
:1028B00009F09CCF84E080938E031092F502109271
:1028C000F402E091F202F091F30209958091F40292
:1028D00081110FC081E08093F4021092D20209C0EE
:1028E000803C09F4A6CF883C09F4A3CF883B09F0CB
:1028F0007DCFE091F50281E08E0F8093F502F0E04C
:10290000EE52FD4F80818093BB009091F502809143
:10291000F40229C0809169038093BB0085EC809309
:10292000BC0064CF90918B0380918A03981758F56F
:10293000E0918B0381E08E0F80938B03F0E0E659EA
:10294000FC4F8081E9CFE0918B0381E08E0F809373
:102950008B038091BB00F0E0E659FC4F808390919F
:102960008B0380918A039817C8F285E8D8CFE0914D
:102970008B0381E08E0F80938B038091BB00F0E08E
:10298000E659FC4F808380918D0381115CCF81E0FB
:102990008093680384EA8093BC0010928E0326CF54
:1029A00085EC8093BC0010928E03809118038032D6
:1029B00030F4E0911803F0E0E850FD4F1082609190
:1029C000180370E0E091F602F091F70288EF92E0D0
:1029D0000995109218030ACF10928C0334CF1F92DE
:1029E0000F920FB60F9211242F933F934F935F9343
:1029F0006F937F938F939F93AF93BF93CF93DF9307
:102A0000EF93FF938091AE02C0918D05D0E087FFD8
:102A100024C010928500109284008091AE028F5FD6
:102A20008093AE028091AE02082E000C990B8C1799
:102A30009D0724F48091AE028C30C4F18091840013
:102A400090918500049680349C4908F47AC0809166
:102A5000840090918500049676C08091AE02082E85
:102A6000000C990B8C179D07C4F6E091AE028E2FD7
:102A7000EE0F990BFC01EE0FFF1FE80FF91FE7594E
:102A8000FA4F808186FFC9CFE091AE028E2FEE0F04
:102A9000990BFC01EE0FFF1FE80FF91FE759FA4FE2
:102AA000808160E08F730E945D01B7CF2091840028
:102AB00030918500E091AE028E2FEE0F990BFC0154
:102AC000EE0FFF1FE80FF91FE759FA4F818192813E
:102AD000820F931F9093890080938800E091AE024B
:102AE0008E2FEE0F990BFC01EE0FFF1FE80FF91F61
:102AF000E759FA4F808186FF11C0E091AE028E2F18
:102B0000EE0F990BFC01EE0FFF1FE80FF91FE759BD
:102B1000FA4F808161E08F730E945D01FF91EF9118
:102B2000DF91CF91BF91AF919F918F917F916F91E5
:102B30005F914F913F912F910F900FBE0F901F907B
:102B4000189580E49CE990938900809388008FEF2A
:102B50008093AE02E3CF1092BB031092BA0348EE0B
:102B600053E060E070E04093BC035093BD0360937A
:102B7000BE037093BF038DE091E09093B9038093FF
:102B8000B80385EC90E09093C5038093C40384EC74
:102B900090E09093C7038093C60380EC90E09093FD
:102BA000C9038093C80381EC90E09093CB0380939A
:102BB000CA0382EC90E09093CD038093CC0386EC23
:102BC00090E09093CF038093CE031092D1031092A4
:102BD000D2031092D3031092D40385E594E01092AF
:102BE000960410929504909399048093980420E49D
:102BF00030E030939B0420939A0410929C0410922E
:102C00009D0410929F0410929E041092A0041092B2
:102C1000A2041092A1041092A4041092A304109292
:102C2000A6041092A5041092A8041092A704109272
:102C3000AA041092A9041092AC041092AB04109252
:102C4000AE041092AD041092B4041092B30410922A
:102C5000B6041092B5041092B8041092B704109202
:102C6000BA041092B9041092C8041092C7041092CA
:102C700097041092D5041092D7041092D6041092A3
:102C8000140527E830E03093BC042093BB0421E90D
:102C900030E03093BE042093BD042BE930E0309344
:102CA000C0042093BF0425EA30E03093C20420938F
:102CB000C1042FEA30E03093C4042093C30429EB0D
:102CC00030E03093C6042093C50423EC30E0309309
:102CD000CA042093C90424EC30E03093CC04209340
:102CE000CB0426E235E03093CE042093CD049093BC
:102CF000B0048093AF0422E532E03093D0042093F7
:102D0000CF049093B2048093B1048FEC90E0909341
:102D1000D2048093D10410921805109217054093A5
:102D2000190550931A0560931B0570931C058FE1DC
:102D300091E09093160580931505E1E2F5E089E6B0
:102D400095E0118210821382128239968E179F07A6
:102D5000C1F7EEE8F5E02FEF48EB5BE080918D05E1
:102D60008C30B8F491E0980F90938D05808390E0BB
:102D7000DC01AA0FBB1FA80FB91FA759BA4F1296A3
:102D80005C934E931197339685E0E23BF80731F759
:102D900008952083F8CF789484B5826084BD84B58B
:102DA000816084BD85B5826085BD85B5816085BD46
:102DB00080916E00816080936E00109281008091FE
:102DC0008100826080938100809181008160809386
:102DD0008100809180008160809380008091B100AB
:102DE00084608093B1008091B00081608093B000D6
:102DF00080917A00846080937A0080917A0082606A
:102E000080937A0080917A00816080937A0080912B
:102E10007A00806880937A001092C10085E18093E7
:102E2000D5048091D6049091D7040E94AF1BC09125
:102E3000D504D0E0CE0101960E94131B9093D704D5
:102E40008093D604FC01EC0FFD1F108212E0DC0120
:102E50001C9325E011962C93AE01425051096DE070
:102E600072E002960E945A1C86EC98E0909326032A
:102E7000809325038AE198E09093240380932303B1
:102E80008DEE97E090932203809321038BE39AE0E9
:102E90009093200380931F0383E29CE090931E0392
:102EA00080931D0384EE99E090931C0380931B0391
:102EB00084E09EE0909328038093270382E89DE0BE
:102EC00090932A0380932903E091C803F091C903EA
:102ED0001083E091C803F091C9031082E091C4030C
:102EE000F091C5031082E091C603F091C70380E121
:102EF00080831092D003E091CC03F091CD0386E063
:102F00008083E091CA03F091CB038081806180834C
:102F1000E091CA03F091CB03808188608083E091C7
:102F2000CA03F091CB03808180688083E091CA035B
:102F3000F091CB0380818F7D808380911405811176
:102F40004FC061E08DE00E94A90162ED70E080E079
:102F500090E00E941F0261E08DE00E945D0168E246
:102F600070E080E090E00E941F0260E08DE00E942F
:102F70005D0162ED70E080E090E00E941F0261E080
:102F80008DE00E945D0168E270E080E090E00E94C8
:102F90001F0260E08DE00E945D016AEF70E080E05A
:102FA00090E00E941F02C5E062ED70E080E090E0DA
:102FB0000E941F0261E08DE00E945D0168E270E006
:102FC00080E090E00E941F0260E08DE00E945D01C1
:102FD000C15051F76DE770E080E090E00E941F0261
:102FE00088EB93E09093D4048093D3049093960459
:102FF0008093950485E994E00E94D70085E594E0EC
:103000000E94B2040E94820D0E94B30725E0D22ED6
:10301000C0E0D0E0CC24C39402E010E0EE24E394BE
:10302000F12C80912E03882349F069B180912B0304
:1030300068236C7F40E080E00E94F90980912F03B3
:10304000882379F063B186B16F73B0E48B9FC001C0
:103050001124682B80912C03682340E081E00E94BA
:10306000F90980913003882359F066B180912D03CE
:103070008F7066956695682340E082E00E94F909AA
:103080008091D3049091D404DC01ED91FC910084F3
:10309000F185E02D0995892B09F4CEC18091D304E7
:1030A0009091D404DC01ED91FC910284F385E02D34
:1030B00009959C018F3F980719F3982F8091A004E0
:1030C000882309F492C0973F09F07EC01092A004B3
:1030D000A0919804B09199046C916137C1F169375E
:1030E00009F05CC0E091CD04F091CE04309741F23C
:1030F0008091A1049091A2048330910560F430E0A6
:1031000020E050E040E070E060E08091AF049091FA
:10311000B0040995B5CFBD016D5F7F4F03970E9445
:103120003E01BC016D5F7F4F80E00E940E01E09187
:103130009804F09199049F012D5F3F4F428150E028
:10314000618170E0E091CD04F091CE04DECF8091FA
:10315000C9049091CA04892B09F492CFBD016F5F15
:103160007F4F8091A1049091A20401970E943E019B
:10317000BC016F5F7F4F80E00E940E016091980458
:10318000709199046F5F7F4FE091C904F091CA0478
:103190008091B5049091B604099572CFE091CB046B
:1031A000F091CC04309709F46BCF9D012F5F3F4F16
:1031B0004091A1045091A204415051098091B7045B
:1031C0009091B80409955CCF6091A1047091A2041C
:1031D000822F0E940E018091A1049091A204019679
:1031E0009093A2048093A1044BCF60919E047091B0
:1031F0009F046115710509F4B1C027FDAFC061508E
:10320000710970939F0460939E04822F0E940E01A7
:1032100080919E0490919F04892B09F031CF809179
:103220009C04882309F42CCF803D09F483C040F42A
:10323000803949F1803C09F469C010929C0420CF88
:10324000843FE1F1853F09F44DC0803EB1F7E09144
:10325000BB04F091BC04309781F3A0919804B09125
:1032600099044C9120E8429FC001112411964C9181
:10327000480F592F511D60919D048091A304909196
:10328000A4040995DACFE091BD04F091BE04309713
:10329000A1F2A0919804B09199044C9120E8429F2A
:1032A000C001112411964C91480F592F511D609166
:1032B0009D048091A5049091A604E3CFE091C304FE
:1032C000F091C404309709F4B8CFA0919804B0915C
:1032D00099044C9150E011966C918091AB049091BF
:1032E000AC04CFCFE091C504F091C604309709F447
:1032F000A4CFA0919804B09199044C9150E01196FC
:103300006C918091AD049091AE04BBCFE091BF046D
:10331000F091C004309709F490CFA0919804B09137
:1033200099044C9150E060919D048091A704909184
:10333000A804A7CFE091C104F091C204309709F42A
:103340007CCFA0919804B09199044C9150E0609189
:103350009D048091A9049091AA0493CF903F30F4EA
:10336000822F8F7080939D04922F907F903FF1F178
:1033700090F4903CB1F150F4903909F081CE109363
:103380009F0400939E0490939C047ACE903D49F153
:10339000903EA9F375CE993F09F442C028F48CE021
:1033A000890F823060F36CCE9F3F09F069CE109296
:1033B0009F0410929E0410929C0410929D0490E031
:1033C00080E020919A0430919B0482179307A8F41F
:1033D000E0919804F0919904E80FF91F108201968A
:1033E000F0CFF0929F04E0929E04CDCFC092A00453
:1033F0001092A2041092A10443CE1092A004109245
:10340000A2041092A104E091D104F091D204809121
:10341000B9049091BA04309709F432CE099530CEB0
:10342000E091CF04F091D004309709F429CE809137
:10343000B1049091B204F2CF8FB7F89480906003FA
:1034400090906103A0906203B09063038FBF80915E
:103450005B0390915C03A0915D03B0915E0340918A
:1034600001015091020170E060E0881A990AAA0AED
:10347000BB0A481559056A057B0508F054C0840F3E
:10348000951FA61FB71F80935B0390935C03A093C7
:103490005D03B0935E0385E5882E84E0982E92EF5D
:1034A000B92E85E08B15C8F0F401ED57FF4F8081F0
:1034B000823099F48091590390915A030B2C02C0E9
:1034C000959587950A94E2F780FF07C08B2D0E949F
:1034D000E501BC018B2D0E940504B394AFEF8A1A5D
:1034E0009A0AB6E0BB12DDCF8091000187FD1BC0B8
:1034F000B12C2B2D30E080910001082E000C990B8F
:103500008217930784F0D29EF001D39EF00D112410
:10351000EF5CFC4F618172812481438180810E9434
:10352000A50AB394E6CF209709F47BCD0E94C3028D
:10353000882309F476CD0E94000073CD052E97FBF9
:103540001EF400940E94B51A57FD07D00E94D01AAD
:1035500007FC03D04EF40C94B51A50954095309565
:1035600021953F4F4F4F5F4F0895909580957095EF
:1035700061957F4F8F4F9F4F08950E94F21AA59F2C
:10358000900DB49F900DA49F800D911D112408955E
:10359000B7FF0C94BD1A0E94BD1A821B930B0895AD
:1035A000A1E21A2EAA1BBB1BFD010DC0AA1FBB1F47
:1035B000EE1FFF1FA217B307E407F50720F0A21BB9
:1035C000B30BE40BF50B661F771F881F991F1A9426
:1035D00069F760957095809590959B01AC01BD0150
:1035E000CF010895A29FB001B39FC001A39F700DAA
:1035F000811D1124911DB29F700D811D1124911DFB
:103600000895991B79E004C0991F961708F0961B3E
:10361000881F7A95C9F780950895EE0FFF1F0590D2
:10362000F491E02D09940F931F93CF93DF93823091
:10363000910510F482E090E0E091B405F091B505B9
:1036400030E020E0B0E0A0E0309799F4211531059A
:1036500009F44AC0281B390B24303105D8F58A817A
:103660009B816115710589F1FB0193838283FE01C2
:1036700011C0408151810281138148175907E0F040
:103680004817590799F4109761F012960C93129706
:1036900013961C933296CF01DF91CF911F910F911A
:1036A00008950093B4051093B505F4CF21153105A5
:1036B00051F04217530738F0A901DB019A01BD010F
:1036C000DF01F801C1CFEF01F9CF9093B5058093E9
:1036D000B405CDCFFE01E20FF31F819391932250E9
:1036E000310939832883D7CF2091B2053091B305B2
:1036F000232B41F420910501309106013093B3054D
:103700002093B20520910301309104012115310568
:1037100041F42DB73EB74091070150910801241B99
:10372000350BE091B205F091B305E217F307A0F471
:103730002E1B3F0B2817390778F0AC014E5F5F4F07
:103740002417350748F04E0F5F1F5093B305409381
:10375000B205819391939FCFF0E0E0E09CCFCF93AF
:10376000DF930097E9F0FC01329713821282A09157
:10377000B405B091B505ED0130E020E01097A1F45B
:1037800020813181820F931F2091B2053091B305C2
:103790002817390709F061C0F093B305E093B2052B
:1037A000DF91CF910895EA01CE17DF07E8F54A814E
:1037B0005B819E0141155105B1F7E901FB83EA8365
:1037C00049915991C40FD51FEC17FD0761F4808111
:1037D00091810296840F951FE901998388838281E4
:1037E00093819B838A83F0E0E0E012968D919C9117
:1037F00013970097B9F52D913C911197CD01029641
:10380000820F931F2091B2053091B3052817390715
:1038100039F6309751F51092B5051092B405B09372
:10382000B305A093B205BCCFD383C283408151813D
:10383000840F951FC817D90761F44E5F5F4F8881C9
:103840009981480F591F518340838A819B819383BB
:1038500082832115310509F0B0CFF093B505E093CF
:10386000B4059ECFFD01DC01C0CF13821282D7CFF9
:10387000FB01DC0102C001900D9241505040D8F78D
:1038800008956817790768F4FB01DC01E40FF51F60
:10389000A40FB51F02C002900E9241505040D8F7BD
:1038A00008950C94381CDC0101C06D9341505040C8
:1038B000E0F70895FB01DC014150504048F00190D1
:1038C0000D920020C9F701C01D9241505040E0F711
:0638D0000895F894FFCFFB
:1038D600FF13000000B605800000000000F9025941
:1038E6000286024603B7029502A90200000000DA2A
:1038F60006AD0609078306A60693068406493243E3
:103906003A20546F6F206D616E7920627974657309
:10391600207265636569766564004932433A2054CE
:103926006F6F2066657720627974657320726563B0
:103936006569766564004D617820736572766F738C
:1039460020617474616368656400556E6B6E6F7791
:103956006E2070696E206D6F64650031302D62696E
:10396600742061646472657373696E67206E6F7428
:1039760020737570706F7274656400746F6F206D5C
:10398600616E792071756572696573002F5573656F
:1039960072732F73616E6465722E626F65722F4447
:1039A6006F63756D656E74732F706572736F6E617C
:1039B6006C2F6D6963726F666C6F772F7061636BC6
:1039C600616765732F666C61736865722F537461E6
:1039D6006E646172644669726D6174612F537461BD
:1039E6006E646172644669726D6174612E696E6F90
:0239F6000000CF
:00000001FF
