:100000000C94DB000C9403010C9403010C94030189
:100010000C9403010C9403010C9403010C94030150
:100020000C9403010C94A6160C94AD130C941C14A0
:100030000C9403010C9403010C9403010C94030130
:100040000C9403010C94CF170C9403010C9403013E
:100050000C9403010C9403010C9403010C9463139E
:100060000C9403010C9474160C944E160C9403011A
:100070000C9403010C9403010C9403010C940301F0
:100080000C9403010C9403010C9403010C940301E0
:100090000C94B0160C9403010C9403010C9403010E
:1000A0000C9403010C9403010C940301080B00024F
:1000B0000202000009040000010202000005240001
:1000C0001001052401010104240206052406000193
:1000D0000705810310004009040100020A00000026
:1000E00007050202400000070583024000000403E8
:1000F000090412010002EF02014041233680000191
:100100000102030141726475696E6F204C4C43001B
:1001100041726475696E6F204C656F6E6172646FB9
:1001200000070605040100080A0B0C0D0900000079
:1001300000240027002A002D0030000000000025C8
:100140000028002B002E00310000000000230026B4
:100150000029002C002F00040404040403040502F9
:100160000202020403020202020606060606060452
:10017000040202020404040802011040804010201E
:10018000408040800802040180402010020110805D
:1001900010204040200000000200090F000003046E
:1001A00001000C0000000000000000000000000042
:1001B00000000000BE1811241FBECFEFDAE0DEBF42
:1001C000CDBF12E0A0E0B1E0E4E1F1E402C00590AF
:1001D0000D92AE36B107D9F726E0AEE6B2E001C027
:1001E0001D92A832B207E1F710E0CBEDD0E004C0D9
:1001F0002197FE010E944E1FCA3DD107C9F70E94F8
:10020000EA190C9488200C940000862FE091610379
:10021000F0916203309711F0BA0109940895862F86
:10022000E0915F03F0916003309711F0BA010994F7
:100230000895862FE0915D03F0915E03309711F0F1
:10024000BA0109940895862FE0915B03F0915C0355
:10025000309711F0BA0109940895862FE09159035F
:10026000F0915A03309711F0BA0109940895862F3E
:10027000E0915703F0915803309711F0BA010994B7
:1002800008950895862F642FE0916303F09164032D
:10029000309711F0A90109940895E0916503F09158
:1002A0006603309709F009940895CF93DF93FC011A
:1002B000A081B181109701F1EC01ED91FC911197B2
:1002C0000190F081E02D69EFCD0109958881998138
:1002D000DC01ED91FC910190F081E02D62E0099547
:1002E00088819981DC01ED91FC910190F081E02DF4
:1002F00065E0DF91CF910994DF91CF910895A091AE
:100300006F05B0917005ED91FC9111970190F0810E
:10031000E02D682FCD0109941F93CF93DF93182F01
:10032000EB0180913605909137056817790760F4E5
:100330008091340590913505C80FD91F188380E04E
:10034000DF91CF911F910895E0916305F0916405CD
:10035000309711F481E0F4CF81E0809333058091F0
:100360004F0590915005099580913605909137057C
:10037000C817D90778F7DCCFCF93DF93EC01FB01E7
:1003800030E020E0C901880F991F8C179D0778F491
:100390004081DB014D93BD0111979181979599277C
:1003A0009795942B9C932F5F3F4F3296EBCFC901CB
:1003B000DF91CF910895FC018091B303882311F15F
:1003C0003FB7F89482E08093E9002091F200822FF9
:1003D00090E01816190614F481E090E0882339F0B3
:1003E000289844E64093B2034091F10040832223D1
:1003F00039F02091F200211103C02BE62093E80090
:100400003FBF08958FEF9FEF08952FB7F89483E0D3
:100410008093E9009091E800892F807295FF04C0D5
:100420009091F20080E4891B2FBF08958091AA0368
:1004300081110DC082E08093A60384E08093A7031E
:100440001092A9031092A80381E08093AA0386EA80
:1004500093E0089581508F3008F047C0E82FF0E016
:10046000EC5CFD4F0C944E1F5102550243024902B1
:100470004D0275027502750258025E026202660242
:100480006C0275027002809180008F7780938000EB
:100490000895809180008F7DF9CF80918000877FC3
:1004A000F5CF84B58F7784BD089584B58F7DFBCF5C
:1004B000809190008F7780939000089580919000B4
:1004C0008F7DF9CF80919000877FF5CF8091C0001C
:1004D0008F778093C00008958091C0008F7DF9CF01
:1004E0008091C200877F8093C2000895CF93DF93ED
:1004F000282F30E0F901EB56FE4F8491F901EA58BC
:10050000FE4FD491F901E95AFE4FC491CC23A1F0DA
:1005100081110E942A02EC2FF0E0EE0FFF1FE75B33
:10052000FE4FA591B491EC91ED2381E090E009F4A8
:1005300080E0DF91CF91089580E090E0FACF1F93A3
:10054000CF93DF93282F30E0F901EB56FE4F8491D3
:10055000F901EA58FE4FD491F901E95AFE4FC491CE
:10056000CC23A9F0162F81110E942A02EC2FF0E073
:10057000EE0FFF1FE55CFE4FA591B4918FB7F89485
:10058000EC91111108C0D095DE23DC938FBFDF9171
:10059000CF911F910895DE2BF8CFCF93DF9390E09A
:1005A000FC01EA58FE4F2491895A9E4FFC01849128
:1005B0008823C9F090E0880F991FFC01E35DFE4F8E
:1005C000A591B491FC01E55CFE4FC591D4916111F8
:1005D0000DC09FB7F8948C91209582238C938881CD
:1005E000282328839FBFDF91CF910895623051F473
:1005F0009FB7F8943C91822F809583238C93E88158
:100600002E2BEFCF8FB7F894EC912E2B2C938FBF1E
:10061000EACF823108F08251E82FF0E0EF5DFE4F23
:10062000E49190917B008E2F880F880F80729F7DC0
:10063000892B80937B00E770E064E0937C008091DD
:100640007A00806480937A0080917A0086FDFCCFE6
:10065000809178009091790008953FB7F894809147
:10066000A2039091A303A091A403B091A50326B582
:10067000A89B05C02F3F19F00196A11DB11D3FBFDA
:10068000BA2FA92F982F8827BC01CD01620F711DA9
:10069000811D911D42E0660F771F881F991F4A95A3
:1006A000D1F708958F929F92AF92BF92CF92DF922F
:1006B000EF92FF926B017C010E942D034B015C01C4
:1006C000C114D104E104F104B9F00E942D036819AA
:1006D00079098A099B09683E73408105910580F379
:1006E00021E0C21AD108E108F10888EE880E83E003
:1006F000981EA11CB11CE4CFFF90EF90DF90CF902B
:10070000BF90AF909F908F900895009721F0805CEC
:100710009F4F0C94550108954091510350915203FD
:1007200020914F033091500342175307B4F4909136
:10073000E8009570E1F39091E80092FD19C0809374
:10074000F100809151039091520301968F73992784
:10075000892B19F48EEF8093E800809151039091DA
:1007600052030196909352038093510381E00895C0
:1007700080E00895DF92EF92FF920F931F93CF9343
:10078000DF93D82E8A01EB017B01E40EF51ECE1516
:10079000DF0559F0D7FE12C0FE0184910E948C0340
:1007A00021968111F4CF0FEF1FEFC801DF91CF9198
:1007B0001F910F91FF90EF90DF9008958881EECF09
:1007C0000F931F93CF93DF931F92CDB7DEB782E0D5
:1007D000898342E450E06CEA70E080E80E94BA034A
:1007E0000E941602DC0112960D911C910115110553
:1007F00089F0D801ED91FC910280F381E02DBE01DA
:100800006F5F7F4FC801099597FD04C0F80100850F
:100810001185ECCF89810F90DF91CF911F910F91BE
:100820000895615030F02091F100FC012083019681
:10083000F8CF289884E68093B2030895AF92BF92D0
:10084000CF92DF92EF92FF920F931F93CF93DF939C
:100850006C017B018B01040F151FEB015E01AE18CB
:10086000BF08C017D10759F06991D601ED91FC91ED
:100870000190F081E02DC6010995892B79F7C5011A
:10088000DF91CF911F910F91FF90EF90DF90CF906C
:10089000BF90AF900895FC01538D448D252F30E01B
:1008A000842F90E0821B930B541710F0CF9608957D
:1008B00001970895FC01918D828D981761F0A28DAA
:1008C000AE0FBF2FB11D5D968C91928D9F5F9F7370
:1008D000928F90E008958FEF9FEF0895FC01918D26
:1008E000828D981731F0828DE80FF11D858D90E093
:1008F00008958FEF9FEF0895FC01918D228D892F30
:1009000090E0805C9F4F821B91098F739927089517
:1009100084E094E00E947C0421E0892B09F420E02B
:10092000822F089580E090E0892B29F00E948804AE
:1009300081110C9400000895FC01A48DA80FB92F1B
:10094000B11DA35ABF4F2C91848D90E001968F73F7
:100950009927848FA689B7892C93A089B1898C9116
:1009600082748C93938D848D981306C00288F389CA
:10097000E02D80818F7D80830895EF92FF920F9309
:100980001F93CF93DF93EC0181E0888F9B8D8C8D3B
:10099000981319C0E889F989808185FF14C09FB731
:1009A000F894EE89FF896083E889F98980818274EF
:1009B00080839FBF81E090E0DF91CF911F910F91E5
:1009C000FF90EF900895F62E0B8D10E00F5F1F4FF4
:1009D0000F731127E02E8C8D8E110CC00FB607FC03
:1009E000FACFE889F989808185FFF5CFCE010E9491
:1009F0009C04F1CFEB8DEC0FFD2FF11DE35AFF4F5F
:100A0000F0829FB7F8940B8FEA89FB89808180621E
:100A1000CFCFCF93DF93EC01888D8823B9F0AA89DB
:100A2000BB89E889F9898C9185FD03C0808186FDA9
:100A30000DC00FB607FCF7CF8C9185FFF2CF8081F8
:100A400085FFEDCFCE010E949C04E9CFDF91CF91CD
:100A500008958F929F92AF92BF92CF92DF92EF92C2
:100A6000FF920F931F93CF93DF936C017B018A0159
:100A700080910B01882309F45CC08091B303882323
:100A800009F457C08091550380FF05C08091E000B4
:100A900082608093E000E801B12C8AEFA82E93E0F9
:100AA000892E2AE3922E209711F4BB20D9F10E94BF
:100AB000050281110AC0AA94AA20D9F161E070E070
:100AC00080E090E00E945203EECF8C171D0611F0DB
:100AD0000CF08C2F9FB7F8948092E9002091E800E9
:100AE00025FD02C09FBFDFCF282F30E0C21BD30BF4
:100AF000F701815020F041914093F100FACFE20ECE
:100B0000F31EBB2021F09092E800B12CEBCF809136
:100B1000E80085FDE7CF9092E800BB24B3942097CE
:100B200009F3F3CF5D9884E6809354031016110601
:100B30003CF081E090E0F6019383828310E000E0D6
:100B4000C801DF91CF911F910F91FF90EF90DF903F
:100B5000CF90BF90AF909F908F900895CF93DF93E9
:100B60001F92CDB7DEB76983DC01ED91FC91028065
:100B7000F381E02D41E050E0BE016F5F7F4F0995AA
:100B80000F90DF91CF91089583E08093E9008091E9
:100B9000F200882319F08AE38093E80008950E9408
:100BA000050290E00895CF93DF931F92CDB7DEB793
:100BB000FC018485958597FD08C02FEF3FEF3587B1
:100BC00024870F90DF91CF910895CE0101960E9466
:100BD000DB01019719F4898190E0F3CF8FEF9FEF4C
:100BE000F0CF0F931F93CF93DF931F92CDB7DEB754
:100BF0008C01FC018485958597FF0BC0CE01019681
:100C00000E94DB01019771F4898190E0F8019587DA
:100C10008487F801848595850F90DF91CF911F918E
:100C20000F9108958FEF9FEFF1CFFC01848595859B
:100C300097FD0BC09FB7F89482E08093E900809104
:100C4000F2009FBF90E0019608959FB7F89482E06C
:100C50008093E9008091F2009FBF90E008955F9239
:100C60006F927F928F929F92AF92BF92CF92DF92BC
:100C7000EF92FF920F931F93CF93DF935C01690173
:100C8000DA015C90232B19F4CC24CA94DC2C8A0161
:100C90003A01660E771ED0E0C0E0F12CE12C87E02F
:100CA000882E912CF50180819181D8016C910C2EB8
:100CB00001C0660F0A94EAF765296F77DC01ED91B0
:100CC000FC910190F081E02D0995BFEFEB1AFB0A32
:100CD000F801608170E0C4018C1B9D0B02C075950A
:100CE00067958A95E2F7562E2196C730D10558F1BF
:100CF000CE14DF0441F1D5018D919C91652D6F7764
:100D0000DC01ED91FC910190F081E02D0995BFEFA0
:100D1000EB1AFB0A551C5524551C2797E6CFEC14FB
:100D2000FD0408F4BFCFDF91CF911F910F91FF9089
:100D3000EF90DF90CF90BF90AF909F908F907F907B
:100D40006F905F9008950F5F1F4F6016710639F71F
:100D5000209749F3EC14FD0430F7F501808191816F
:100D600061E070E001C0660FCA95EAF76150652145
:100D7000DC01ED91FC910190F081E02DDF91CF91AC
:100D80001F910F91FF90EF90DF90CF90BF90AF90A9
:100D90009F908F907F906F905F9009941F93CF9357
:100DA000DF9300D0CDB7DEB7182F7A8369838091A7
:100DB0003105909132050097C9F0DC01ED91FC916D
:100DC0000190F081E02D1031B8F461157044A0F469
:100DD000612F606E099522E030E0AE014F5F5F4FFA
:100DE00062E070E081E395E00E942F060F900F9083
:100DF000DF91CF911F91089560EF099580913105A2
:100E000090913205DC01ED91FC910190F081E02D93
:100E10006FE609958091310590913205DC01ED91E5
:100E2000FC910190F081E02D612F099522E030E0E6
:100E3000AE014F5F5F4F62E070E081E395E00E949A
:100E40002F068091310590913205DC01ED91FC91E6
:100E50000190F081E02D67EF0995C8CFEF92FF92E6
:100E60000F931F93CF93DF93C82F809131059091FB
:100E700032050097C9F17A018B01DC01ED91FC91FB
:100E80000190F081E02D60EF0995809131059091FE
:100E90003205DC01ED91FC910190F081E02D6C2F89
:100EA0000995E7010E0D1F1DC017D10759F030E05D
:100EB00020E0AE0161E070E081E395E00E942F0642
:100EC0002196F2CF8091310590913205DC01ED91B0
:100ED000FC910190F081E02D67EFDF91CF911F91A0
:100EE0000F91FF90EF900994DF91CF911F910F9197
:100EF000FF90EF900895CF92DF92EF92FF920F93C1
:100F00001F93CF93DF93FC01E058FF4FE080EE206A
:100F100009F45CC0EC01C05CDF4FA881B981109777
:100F200009F454C0FC01EF57FF4FC080D180F60197
:100F300011810081ED91FC9111970190F081E02DDC
:100F400060EFCD01099588819981DC01ED91FC91DB
:100F50000190F081E02D69E7099588819981DC0194
:100F6000ED91FC910190F081E02D602F0995888131
:100F70009981DC01ED91FC910190F081E02D612FD0
:100F80000995F12C01E010E00F5F1F4FE016F1060C
:100F900059F030E020E0A601400F511F61E070E001
:100FA000CE010E942F06F0CF88819981DC01ED915E
:100FB000FC910190F081E02D67EFDF91CF911F91BF
:100FC0000F91FF90EF90DF90CF900994DF91CF9138
:100FD0001F910F91FF90EF90DF90CF9008950097B1
:100FE00011F00C947B07089520912803260F3327D6
:100FF000331F21323105ECF42091DA03FC0190E03B
:1010000080E0243069F082E00895A09128032191C6
:10101000AC014A5F5C4FA40FB52FB11D2C93019614
:10102000861798F380912803680F6093280380E067
:10103000089581E008951092DA0381E08093D90346
:101040001092B40361E082E00E949F0261E083E0BD
:101050000E949F02E9EBF0E080818E7F8083808197
:101060008D7F808388E48093B80085E48093BC0002
:101070000895CF93DF9391E0909305038823B9F00F
:10108000C091B800D091BA008091BC008A7B809357
:10109000BC0060E082E00E949F0260E083E00E946A
:1010A0009F020E941B08D093BA00C093B800DF9142
:1010B000CF9108958F929F92AF92BF92CF92DF927D
:1010C000EF92FF920F931F93CF93DF93D09103047E
:1010D000D13208F0D7C0182FC09102040E942D030E
:1010E0006B017C018091DA0381116BC082E08093F7
:1010F000DA031093D9038FEF8093D8031092D703AC
:10110000D093D603A2EEB3E0E6EBF3E080E0D81391
:1011100091C01092B5038091B503CC0FC82BC0933A
:10112000B5038091B403813009F088C01092B403F4
:101130000E942D036B017C018091B5038093BB005D
:101140008091DC039091DD03A091DE03B091DF0379
:10115000892B8A2B8B2BA1F00E942D030091DC039D
:101160001091DD032091DE033091DF036C197D09BE
:101170008E099F09061717072807390708F442C088
:101180008091BC0083FDD8CF85EC8093BC000E9489
:101190002D036B017C018091DA03823009F450C089
:1011A0008091D8038F3F09F46FC08091D8038032BB
:1011B00009F46CC08091D803803309F469C084E0DD
:1011C00026C08091DC039091DD03A091DE03B091F5
:1011D000DF03892B8A2B8B2B09F484CF0E942D03EC
:1011E0008090DC039090DD03A090DE03B090DF03DD
:1011F0006C197D098E099F0986169706A806B906FF
:1012000008F070CF8091DB030E94390885E01092CE
:10121000E103109203041092E003DF91CF911F913C
:101220000F91FF90EF90DF90CF90BF90AF909F9085
:101230008F9008959D9191938F5F69CF85EEA5CF93
:101240008091DC039091DD03A091DE03B091DF0378
:10125000892B8A2B8B2B09F49ECF0E942D030091A2
:10126000DC031091DD032091DE033091DF036C1964
:101270007D098E099F09061717072807390708F007
:101280008ACFC0CF81E0C3CF80E0C1CF82E0BFCFA3
:1012900083E0BDCF089508950895E09104038091FF
:1012A0000303E81730F4F0E0ED51FD4F808190E04A
:1012B00008958FEF9FEF08959091040380910303A9
:1012C0002FEF3FEF981748F4E92FF0E0ED51FD4F75
:1012D000208130E09F5F90930403C90108958091BD
:1012E000030390910403891B990B0895CF92DF9219
:1012F000EF92FF920F931F93CF93DF937C01CB016B
:101300008A012091E003222389F0EB016B01C40ED6
:10131000D51ECC15DD0569F06991D701ED91FC91E1
:101320000190F081E02DC7010995F3CF642F0E9451
:10133000F407C801DF91CF911F910F91FF90EF90BB
:10134000DF90CF900895CF93DF931F92CDB7DEB794
:1013500069832091E0032223F9F0209103042032D5
:1013600058F021E030E0FC013383228390E080E0FC
:101370000F90DF91CF9108958091E103E82FF0E085
:10138000EE51FC4F998190838F5F8093E1038093AE
:10139000030481E090E0ECCF61E0CE0101960E9471
:1013A000F407F7CF90E080E00895DF92EF92FF928C
:1013B0000F931F93CF93DF93EC01D62E7A0189010F
:1013C00088818C3008F067C061E08D2D0E94CD02CD
:1013D0008881282F30E0F901EE0FFF1FE20FF31F85
:1013E000E552FA4F9D2D9F736081607C692B60836D
:1013F00020E232E02E193F0937FF02C02D5F3F4F38
:101400003595279535952795298320E639E0201BCA
:10141000310B37FF02C02D5F3F4F3595279535952E
:1014200027952A832CE0622F0E94421F829FB001E1
:10143000112430E020E0AB01420F531FFA01EE0F00
:10144000FF1FE40FF51FE552FA4F908196FD16C07D
:101450002F5F3F4F2C30310571F781110FC0109273
:10146000800082E0809381001092850010928400B9
:10147000B19A80916F00826080936F00E8818E2F17
:1014800090E0FC01EE0FFF1FE80FF91FE552FA4F45
:101490008081806480838881DF91CF911F910F913B
:1014A000FF90EF90DF900895CF938C30B0F421E05F
:1014B00030E0082E02C0220F331F0A94E2F7409159
:1014C000970350919803672B51F42095309524236E
:1014D00035233093980320939703CF910895242BBD
:1014E000352B30939803209397039091E10291114B
:1014F000F4CFC82F0E940903BC018C2FCF910C940C
:10150000CE064F925F926F927F928F929F92AF9290
:10151000BF92CF92DF92EF92FF920F931F93CF93E0
:10152000DF93843008F0A3C08F5FC82FCC0FCC0F9F
:10153000CC0F4C2ECF3110F05EE1452ED62F38EF78
:10154000532E5C0E852C912CC401880F991F9C0191
:101550002F503B4F5901052DD12CC12C10E0772481
:1015600073940415A8F5F601E80DF91DEC58FA4F2F
:1015700090819230B8F48D2F872166246394811175
:1015800001C0612C7601EE0CFF1C913089F4172903
:1015900031EAE30EF11CF501EE0DFF1D862D90E002
:1015A00091838083770C0F5F8FEFC81AD80AD9CF49
:1015B000882371F3F701EF55FF4FEA0DFB1D808182
:1015C0009181019729F362E0802F0E94CD02E0CF44
:1015D00010FF05C06D2F6170852D0E949F0211FFC5
:1015E00006C06D2F627089EF8C0F0E949F0212FF60
:1015F00006C06D2F64708AEF8C0F0E949F0213FF4C
:1016000006C06D2F68708BEF8C0F0E949F0214FF35
:1016100006C06D2F60718CEF8C0F0E949F0215FF2A
:1016200006C06D2F60728DEF8C0F0E949F0216FF17
:1016300006C06D2F60748EEF8C0F0E949F0217FF03
:1016400016C06D2F60788FEF8C0FDF91CF911F91B7
:101650000F91FF90EF90DF90CF90BF90AF909F9051
:101660008F907F906F905F904F900C949F02DF91CE
:10167000CF911F910F91FF90EF90DF90CF90BF908F
:10168000AF909F908F907F906F905F904F90089554
:101690008F929F92AF92BF92CF92DF92EF92FF9282
:1016A0000F931F93CF93DF93EB018E3108F094C01B
:1016B000082F10E0F801EC58FA4F9081933009F4AC
:1016C00098C0943009F088C0F801E254FD4FC08002
:1016D000D12C7601EE0CFF1C4B01603282E07807C2
:1016E0000CF03EC0F701EC0DFD1DE050FA4F81817A
:1016F000A8E88A2E912C881A910887FD9394880C6B
:10170000991C880C991C092C000CAA08BB08828122
:1017100028E532E0281B310987FD3395220F331F5E
:10172000220F331F032E000C440B550B28193909C7
:101730004A095B09DB01653B710514F0A4EBB0E0DD
:10174000B7FF02C0B0E0A0E00E94091F24EB30E028
:1017500040E050E00E94DF1E820E931EA41EB51EC4
:10176000F701EC0DFD1DE050FA4F20812C3068F59B
:10177000318188E890E0831B910937FD9395880FAC
:10178000991F880F991F881699067CF0328188E589
:1017900092E0831B910937FD9395880F991F880F5D
:1017A000991F881699060CF4C4010297880F991F97
:1017B0004FB7F89430E0F901EE0FFF1FE20FF31F6F
:1017C000E552FA4F928381834FBF000F111FF8013A
:1017D000EE56FA4FD183C083DF91CF911F910F91C5
:1017E000FF90EF90DF90CF90BF90AF909F908F9041
:1017F0000895F82E83E0081759F08BEF800F8230A0
:1018000038F087EF800F833018F08DE00813DDCFBC
:1018100061E08F2D0E94CD02209729F460E08F2D8A
:101820000E949F02D2CFCF3FD10511F461E0F7CFE4
:10183000F801EB56FE4FE491E150EF3008F07CC028
:10184000F0E0EB5DF34F0C944E1F340C390C3E0C62
:10185000480C520C9C0C9C0C9C0C5C0C660C700C88
:101860007A0C870C9C0C8F0C84B5806884BDC7BD36
:10187000ACCF84B5806284BDC8BDA7CF8091800005
:10188000806880938000D0938900C09388009DCFAA
:1018900080918000806280938000D0938B00C09301
:1018A0008A0093CF80918000886080938000D093DD
:1018B0008D00C0938C0089CF8091900080688093C8
:1018C0009000D0939900C09398007FCF80919000B2
:1018D000806280939000D0939B00C0939A0075CF54
:1018E00080919000886080939000D0939D00C09379
:1018F0009C006BCF8091C00080688093C000809175
:10190000C0008F7B8093C000C093CF005ECF8091DA
:10191000C00080628093C000C093D00056CF8091F9
:10192000C20088608093C2008091C2008B7F809348
:10193000C200C093D20049CFC038D1050CF076CF99
:101940006DCF8E3180F4E82FF0E0DF01AC58BA4F54
:101950009C91913041F4EE0FFF1FEE56FA4F6083D9
:1019600071830C949F020895FF920F931F93CF935E
:10197000DF9300D0CDB7DEB7082F10E0F801E959AA
:10198000FC4F9081F62EF92204521D4F411104C0E4
:10199000F80190819F1511F12F2D30E03A832983B2
:1019A000A0913105B09132051097B1F0682F6F709A
:1019B0006069ED91FC9111970190F081E02DCD01CE
:1019C000099522E030E0AE014F5F5F4F62E070E0CA
:1019D00081E395E00E942F06F801F0820F900F90AE
:1019E000DF91CF911F910F91FF9008950F931F9357
:1019F000CF93DF93843008F069C0282F30E0F901DD
:101A0000E559FC4F6083672B09F460C0082F295902
:101A10003C4FF9011081D82FDD0FDD0FDD0FC12FF5
:101A2000C17010FF07C08D2F0E947602C1E0892B84
:101A300009F4C0E011FF07C081E08D0F0E9476021B
:101A4000892B09F0C26012FF07C082E08D0F0E944F
:101A50007602892B09F0C46013FF07C083E08D0F65
:101A60000E947602892B09F0C86014FF07C084E049
:101A70008D0F0E947602892B09F0C06115FF07C007
:101A800085E08D0F0E947602892B09F0C062D83163
:101A9000A1F016FF07C086E08D0F0E947602892B09
:101AA00009F0C064D73149F017FF07C087E08D0FF8
:101AB0000E947602892B09F0C06841E06C2F802FCC
:101AC000DF91CF911F910F910C94B40CDF91CF91C6
:101AD0001F910F910895A82FB0E0A254BD4F9C9183
:101AE000292F30E0F901EE0FFF1FE20FF31FE05046
:101AF000FA4FE0812E2F30E0F901EE0FFF1FE20FC9
:101B0000F31FE552FA4F80818F7B80838091BC0266
:101B1000981308C0992319F091509093BC028FEF4D
:101B20008C9308958823D9F3E091BD02EF5FE09391
:101B3000BD02F0E0E359FD4F9083F1CFFC0101902D
:101B40000020E9F73197BF01681B790BAC0181E7F1
:101B50000C942E07CF93DF93DB019091BC029C3055
:101B600078F53091BD02682F70E0FB01E254FD4F23
:101B70003323E1F0C32FD0E0C359DD4F8881808348
:101B800031503093BD02808123E0829FC001112437
:101B900080509A4F1A161B0674F4141615065CF43E
:101BA0009A01AD01DF91CF910C94D50990839F5F8D
:101BB0009093BC02E8CF20E639E040E252E0F2CF59
:101BC00082E591E0DF91CF910C949E0D85ED80939D
:101BD000BC008091DC039091DD03A091DE03B09105
:101BE000DF030796A11DB11D23E0B695A795979534
:101BF00087952A95D1F72091BC0024FD03C010924F
:101C0000DA0308954091DC035091DD036091DE0317
:101C10007091DF03452B462B472B69F30097A105F5
:101C2000B10541F02AE22A95F1F700C00197A10918
:101C3000B109E1CF8091DB030C943908AF92BF92D8
:101C4000CF92DF92EF92FF920F931F93CF93DF9388
:101C5000C82ED12CE601CF50DB4FFE01ED57FF4FD0
:101C600090819F3709F49BC07B01182F963069F44F
:101C70008091E002882349F06630710509F437C18C
:101C80001092E0028FEF80930C011E3110F584E07A
:101C9000E816F104F1F0F601E254FD4F80818C303A
:101CA000C0F490E0FC01EE0FFF1FE80FF91FE050B9
:101CB000FA4FE0818E2F90E0FC01EE0FFF1FE80F3E
:101CC000F91FE552FA4F808186FF03C0812F0E94E1
:101CD0006B0D0EEE010F0C3028F561E070E032E084
:101CE000E316F10411F070E060E0802F0E94540AC6
:101CF000E12FE695E695E695F0E0E959FC4F208165
:101D0000312F377081E090E001C0880F3A95EAF7F3
:101D1000E114F10421F03BE0E316F10419F5822B04
:101D2000808302C01E3120F35601AA0CBB1CF501B2
:101D3000EE56FA4F118210828CE0E816F10408F09A
:101D4000C8C0F701EA55F14F0C944E1FC30EEF0EB9
:101D5000B50E060F270F690F5D0F690F690F690F29
:101D6000CF0EDA0E80958223DBCF0C30C0F460E01A
:101D7000812F0E94CD02CD57DF4F88818F3779F0B8
:101D800082E088830CC01E3150F460E0812F0E94F5
:101D9000CD02CD57DF4F88818F3709F01882DF9150
:101DA000CF911F910F91FF90EF90DF90CF90BF9058
:101DB000AF9008951E3198F762E0812F0E94CD0206
:101DC000CD57DF4F88818F3711F08BE08883F50185
:101DD000EE56FA4F81E090E091838083E0CF1E3190
:101DE000F0F6FE01ED57FF4F8081833021F460E073
:101DF000812F0E949F0261E0812F0E94CD02CD576A
:101E0000DF4F88818F3759F281E0BBCF133059F013
:101E10008BEF810F823038F087EF810F833018F01D
:101E20001D3009F0BCCF61E0812F0E94CD0261E03E
:101E3000812F0E94CD0260E0812F0E949F02CD572A
:101E4000DF4F88818F3709F4AACF83E09ACF1E3104
:101E500008F0A5CFCD57DF4F88818F3711F084E090
:101E60008883F601E254FD4F80818F3FA9F090E016
:101E7000FC01EE0FFF1FE80FF91FE050FA4FE08161
:101E80008E2F90E0FC01EE0FFF1FE80FF91FE552C7
:101E9000FA4F808186FD83CF4FEF5FEF6FEF7FEFCB
:101EA000812FDF91CF911F910F91FF90EF90DF90E5
:101EB000CF90BF90AF900C94AA0D1250123008F042
:101EC0006ECFCD57DF4F88818F3709F468CF86E01A
:101ED00058CF86E691E0DF91CF911F910F91FF904F
:101EE000EF90DF90CF90BF90AF900C949E0D1E317D
:101EF00008F4D1CEEECE0F931F93CF93DF9381E002
:101F00008093E1028091E002882329F01092E002A0
:101F10008FEF80930C01EBE6F3E0C7E6D3E0ACED86
:101F2000B2E0119219921D9283E0EF36F807C9F7DB
:101F30000EEB12E0C0E0DFEF8EEE8C0F62E070E09F
:101F40008C3010F061E070E08C2F0E941E0EF801C2
:101F5000D1938F01CF5FCE3179F710929803109211
:101F600097031092BD021092BC021092E102DF9121
:101F7000CF911F910F9108954F925F926F927F9230
:101F80008F929F92AF92BF92FF920F931F93CF9326
:101F9000DF93F82E8B01D42FC22F6F3F760709F401
:101FA00090C081E08093E003F09202041092E1037C
:101FB000109203048FEC95E00E94A3098C2F0E94DD
:101FC0005A088091BA029091BB028230910538F094
:101FD000880F991F880F991F05970197F1F70E94A5
:101FE0002D034B015C018091DA0381116CC0CD2F70
:101FF000D13208F0C0E281E08093DA038093D90304
:102000009FEF9093D8031092D7039C0F9093D60321
:102010008093B5039091B5038F2D880F892B809302
:10202000B5038091B403813009F0A1C01092B403CC
:102030000E942D034B015C018091B5038093BB008E
:102040008091DC039091DD03A091DE03B091DF036A
:10205000892B8A2B8B2BA1F00E942D034090DC034F
:102060005090DD036090DE037090DF0368197909FA
:102070008A099B09461657066806790608F444C083
:102080008091BC0083FDD8CF85EC8093BC000E947A
:102090002D034B015C018091DA03813009F469C0A2
:1020A0008091D7038C1710F4C091D703E6EBF3E0CF
:1020B000A3EEB2E080E08C1761F191919D938F5F68
:1020C000FACF00E08CCF8091DC039091DD03A091EA
:1020D000DE03B091DF03892B8A2B8B2B09F483CF8E
:1020E0000E942D034090DC035090DD036090DE03DE
:1020F0007090DF03681979098A099B09461657060B
:102100006806790608F06FCF8091DB030E943908DA
:10211000C0E010920403C09303032D2F30E08C2FF6
:1021200090E0281739070CF046C087E791E00E943D
:102130009E0DF0927A0200937B020AE712E0AD2E28
:10214000B12CC8018A5792408A159B050CF041C0FA
:102150000F5F1F4F90910303809104039817C9F1FB
:102160008FEC95E00E945C09F8018183EACF85EE4F
:102170008CCF8091DC039091DD03A091DE03B091C0
:10218000DF03892B8A2B8B2B09F485CF0E942D032B
:102190004090DC035090DD036090DE037090DF031D
:1021A000681979098A099B0946165706680679064F
:1021B00008F071CFA9CF821793070CF0BACF84E94A
:1021C00091E00E949E0DD091030380910403D81BDF
:1021D000B0CFDE5F6D2F70E04AE752E087E7DF9116
:1021E000CF911F910F91FF90BF90AF909F908F90D4
:1021F0007F906F905F904F900C942E07EF92FF921C
:102200000F931F93CF93DF938956823108F033C029
:10221000EA01162FE82FF0E0E05FFE4E0C944E1F0F
:1022200052133B11BB123B1111133B1199123F1278
:102230003B113B113B113B113B1122113B1103128E
:102240003B118312998195FF0AC080EB91E0DF91E9
:10225000CF911F910F91FF90EF900C949E0D88816C
:1022600031E096FB222720F9232798719830D1F18D
:1022700048F49923A9F0DF91CF911F910F91FF901E
:10228000EF900895903109F44CC09831A1F7209156
:102290000C0112160CF472C08FEF80930C01EBCF7F
:1022A0003093E003809302041092E1031092030440
:1022B00002E0011778F4FE01E00FF11D61816795DE
:1022C000662767958081680F8FEC95E00E94A309CF
:1022D0000E5FEFCF81E00E945A0883E191E0019701
:1022E000F1F7C9CF9A814B816630A1F430E8439F62
:1022F000B0011124690F711D4D8147954427479501
:102300009C81490FDF91CF911F910F91FF90EF902A
:102310000C94BC0F479544274795490F6FEF7FEF0B
:10232000F1CFE0910C01E7301CF080ED91E08FCF10
:102330003A819B816630D9F460E8969FA001112410
:10234000430F511D9D819795992797953C81930F38
:10235000EF5FE0930C0135E0E302F0011124E15955
:10236000FC4F8083528341839383248384CF97954A
:1023700099279795930F4FEF5FEFEACF90E0622F89
:10238000022E000C770B35E0492F50E064177507DB
:1023900064F0349FF001359FF00D1124E159FC4F9A
:1023A0004081481719F09F5FEFCF90E085E0492FFB
:1023B00050E0641775071CF19830F8F4FA01319673
:1023C0008E9FD0018F9FB00D1124A159BC4F3C911D
:1023D000849FF001859FF00D1124E159FC4F30835B
:1023E00011964D915C9112975283418313963C91C3
:1023F0001397338314963C9134839F5FD8CF215039
:1024000020930C0138CF623078F0898160E8869F94
:10241000900111248881820F932F911D009721F044
:102420009093BB028093BA028091E002811123CF86
:10243000C0E08EEF8C0F823028F466E070E08C2FC5
:102440000E941E0ECF5FCE31A1F781E08093E002A3
:1024500010920403109203031092E10310920304FC
:102460000E941B088AE499E0909327038093260337
:102470008BE499E090932B0380932A03FCCE653084
:1024800008F4F9CE18811E3108F0F5CE0981EA80F2
:10249000FB80CC81E12FF0E0E254FD4F80818C3055
:1024A000C0F490E0FC01EE0FFF1FE80FF91FE050B1
:1024B000FA4FE0818E2F90E0FC01EE0FFF1FE80F36
:1024C000F91FE552FA4F808186FF03C0812F0E94D9
:1024D0006B0D80E8C89FA00111244F0D511D90E89D
:1024E000E99EB0011124600F711D812F0E94AA0D79
:1024F00064E070E0812FDF91CF911F910F91FF90E9
:10250000EF900C941E0E623008F4B5CE8981E0E89D
:102510008E9F900111248881820F932F911D009727
:1025200029F090930E0180930D01A5CE81E090E0FB
:10253000F8CF623008F49FCE698170E0123091F0DC
:102540008A81F0E88F9FC0011124682B792B13300A
:1025500049F08B8190E090E4899F902D8827112489
:10256000682B792B8881DF91CF911F910F91FF907C
:10257000EF900C94480B80EF0E947F018CE60E9444
:102580007F01C0E080E00E947F0181E00E947F0126
:102590008BE00E947F0181E00E947F0181E00E9428
:1025A0007F0181E00E947F018EEE8C0F8C3088F4D9
:1025B00082E00E947F018AE00E947F018BEF8C0FF6
:1025C000823048F087EF8C0F833028F0CD3049F40B
:1025D00002C0C33099F783E00E947F0188E00E9427
:1025E0007F0184E00E947F018EE00E947F018EEFD8
:1025F0008C0F823030F486E00E947F0181E00E94DF
:102600007F018FE70E947F01CF5FCE3109F0BACF03
:1026100087EFDF91CF911F910F91FF90EF900C9476
:102620007F01662309F427CEC88180EF0E947F01D5
:102630008EE60E947F018C2F0E947F01CE3140F7F1
:10264000D0E0FE01EC58FA4F80810E947F01CC0F50
:10265000DD1F8E010E561A4FF80180818F770E9480
:102660007F01F801808191819C012078232B39F032
:10267000880F892F881F990B8F770E947F01CE5674
:10268000DA4F888199819C012227307C232B09F421
:10269000BFCF990F880B990F982F881F8F770E94B3
:1026A0007F01B6CF80EF0E947F018AE60E947F0102
:1026B000CEEE8FE7CC3008F48C2F0E947F01CF5FE5
:1026C000CC30B9F7A5CF1F920F920FB60F921124FD
:1026D0002F933F938F939F93AF93BF9380919E03CC
:1026E00090919F03A091A003B091A10330919D030D
:1026F00023E0230F2D3758F50196A11DB11D20931E
:102700009D0380939E0390939F03A093A003B09397
:10271000A1038091A2039091A303A091A403B0917F
:10272000A5030196A11DB11D8093A2039093A3035D
:10273000A093A403B093A503BF91AF919F918F91F4
:102740003F912F910F900FBE0F901F90189526E884
:10275000230F0296A11DB11DD2CF1F920F920FB66B
:102760000F9211248F939F938091E1009091E1004B
:10277000937F9093E10083FF0FC01092E90091E0F6
:102780009093EB001092EC0092E39093ED00109286
:10279000B30398E09093F00082FF22C093E09093FF
:1027A000E9009091F200992319F09AE39093E800E0
:1027B00090915403992341F0909154039150909338
:1027C0005403911101C05D9A9091B203992341F095
:1027D0009091B20391509093B203911101C0289A45
:1027E00084FF18C08091E2008E7E81608093E200B9
:1027F0008091E1008F7E8093E100809155038E7E71
:102800008061809355039F918F910F900FBE0F9021
:102810001F90189580FFF7CF8091E2008E7E806137
:102820008093E2008091E1008E7E8093E1008091B0
:1028300055038E7E8160E5CF1F920F920FB60F92E7
:102840001124CF92DF92EF92FF920F931F932F9359
:102850003F934F935F936F937F938F939F93AF9328
:10286000BF93EF93FF93CF93DF93CDB7DEB76C9712
:10287000DEBFCDBF1092E9008091E80083FF25C044
:1028800068E0CE0145960E94110482EF8093E80033
:102890008D8987FF39C09091E80090FFFCCF982F79
:1028A000907609F034C19E894F89588D2F89F88C14
:1028B000911131C0803861F5809156038093F10009
:1028C0001092F1008EEF8093E8006C960FB6F894AA
:1028D000DEBF0FBECDBFDF91CF91FF91EF91BF91D2
:1028E000AF919F918F917F916F915F914F913F91A8
:1028F0002F911F910F91FF90EF90DF90CF900F904D
:102900000FBE0F901F9018959EEF9093E800C7CFD1
:102910001092F100D5CF913059F48111D3CF4130CD
:10292000510581F6809156038D7F80935603CACF5F
:10293000933049F48111C6CF4130510519F6809189
:1029400056038260F2CF953041F48091E80080FF19
:10295000FCCF20682093E300B5CF963009F0A9C0E2
:102960000B8D1C8D22E01092E90010925203109200
:102970005103F2122EC01092500310924F030E9486
:10298000E0031F8299E09983FA8291E09E8390EAA6
:1029900098879AEF99872091510330915203275FCE
:1029A0003F4F3C832B838D831092E900109252039A
:1029B000109251031093500300934F0349E050E0ED
:1029C000BE016F5F7F4F80E00E94BA030E94E00368
:1029D00079CF1093500300934F030E941602DC013D
:1029E00012960D911C910115110509F451C1D801E0
:1029F000ED91FC910480F581E02DBE016B5E7F4F6F
:102A0000C8010995009709F03EC1F80100851185BC
:102A1000EACFF3E0FF120EC08F89882309F440C08B
:102A2000823061F440E860E180E191E00E948B181F
:102A3000811148CF81E28093EB0047CF813029F4A8
:102A400040E86BE084E091E0F1CF833099F70E9499
:102A50001602DC011296ED90FC908E010F5F1F4F65
:102A60006801E114F10479F0D701ED91FC91068041
:102A7000F781E02DB801C7010995080F111DF70175
:102A8000E084F184EECFD8011C92F6010190002081
:102A9000E9F73197BF016C197D0940E0C601C6CF47
:102AA0006EEE70E0FB01449150E080E80E94BA03B2
:102AB00009CF973009F4BECF983021F481E080939C
:102AC000F10000CF993009F0FDCE837009F0B2CF4C
:102AD000E6E1F1E081E031E096E32191222371F01B
:102AE0008093E9003093EB00DF0111972C91209344
:102AF000EC009093ED008F5F873079F78EE780933D
:102B0000EA001092EA008F898093B303DBCE8B8DAD
:102B10009C8D1092E90010925203109251039093F1
:102B2000500380934F03898D811192C08E899D89B6
:102B3000913A49F4813209F07DCF47E050E064E0FA
:102B400071E080E0B3CF913209F074CF833269F441
:102B50008F89988DB0E0A0E08093000190930101EF
:102B6000A0930201B0930301ADCE803269F480914D
:102B7000E80082FFFCCF67E084E091E00E9411044E
:102B80008BEF8093E8009ECE823209F09BCE8F8936
:102B900080930B01EEEFFFE7859194918B3F9C4D65
:102BA00051F1E0E0F8E08091040190910501A091DD
:102BB0000601B0910701803B9440A105B105F1F4F5
:102BC00080910B0180FD1AC0EE3F8AE0F80789F57D
:102BD00087E797E791838083809160008093530318
:102BE00088E19BE00FB6F894A895809360000FBE33
:102BF0009093600067CEEEEFFAE0D5CF80819181AF
:102C00008737974709F05ECEA8958091600088616C
:102C1000809360008091530380936000EE3F2AE030
:102C2000F20789F08091FE0A9091FF0A91838083D8
:102C300049CE808191818737980751F29093FF0A9E
:102C40008093FE0AC5CF1092FF0A1092FE0A3ACE78
:102C50000E941602DC0112960D911C9101151105BE
:102C600009F4E8CED801ED91FC910190F081E02DBE
:102C7000BE016B5E7F4FC8010995811123CEF8011B
:102C800000851185EBCF181619060CF41BCED2CE99
:102C9000F1E0FF12BECE62EF70E004CF1F920F9200
:102CA0000FB60F9211242F933F934F935F936F931F
:102CB0007F938F939F93AF93BF93EF93FF9384E0A2
:102CC00094E00E949C04FF91EF91BF91AF919F917E
:102CD0008F917F916F915F914F913F912F910F90C5
:102CE0000FBE0F901F9018951F920F920FB60F9264
:102CF00011242F938F939F93EF93FF93E0911404EC
:102D0000F09115048081E0911A04F0911B0482FD7A
:102D10001BC0908180911D048F5F8F7320911E04D2
:102D2000821741F0E0911D04F0E0EC5FFB4F958FBE
:102D300080931D04FF91EF919F918F912F910F90A0
:102D40000FBE0F901F9018958081F4CF1F920F92A5
:102D50000FB60F9211240F900FBE0F901F90189571
:102D60001F920F920FB60F9211242F933F934F9300
:102D70005F936F937F938F939F93AF93BF93EF93E3
:102D8000FF938091B900887F803609F44AC0F0F53E
:102D9000883209F4A7C018F5803109F49BC0B8F453
:102DA000882309F4F9C0883009F494C0FF91EF91A9
:102DB000BF91AF919F918F917F916F915F914F9153
:102DC0003F912F910F900FBE0F901F901895883153
:102DD00009F488C0803251F78093D80314C080343E
:102DE00009F49DC040F48033B9F38833F9F6809339
:102DF000D80385ECB0C0803509F485C0883509F466
:102E000096C0883499F60E94E60DD0CF883909F42F
:102E10008CC038F5883729F050F4883611F08037A7
:102E200029F683E08093DA0310924C0357C0883868
:102E300009F47BC0803919F0803809F0B7CF809150
:102E40004C03803208F071C0E0914C0381E08E0F9A
:102E500080934C038091BB00F0E0E45DFC4F8083E5
:102E60003DC0803B39F0E0F4803A09F479C0883AFB
:102E700009F09CCF84E08093DA031092290310922A
:102E80002803E0912603F0912703099580912803F8
:102E900081110FC081E0809328031092060309C0BE
:102EA000803C09F4A6CF883C09F4A3CF883B09F005
:102EB0007DCFE091290381E08E0F80932903F0E01C
:102EC000EA5FFC4F80818093BB0090912903809141
:102ED000280329C08091B5038093BB0085EC8093C3
:102EE000BC0064CF9091D7038091D603981758F512
:102EF000E091D70381E08E0F8093D703F0E0EA548E
:102F0000FC4F8081E9CFE091D70381E08E0F809361
:102F1000D7038091BB00F0E0EA54FC4F808390918E
:102F2000D7038091D6039817C8F285E8D8CFE091EF
:102F3000D70381E08E0F8093D7038091BB00F0E030
:102F4000EA54FC4F80838091D90381115CCF81E0EA
:102F50008093B40384EA8093BC001092DA0326CFF6
:102F600085EC8093BC001092DA0380914C03803290
:102F700030F4E0914C03F0E0E45DFC4F108260918E
:102F80004C0370E0E0912A03F0912B038CE293E074
:102F9000099510924C030ACF1092D80334CF1F9298
:102FA0000F920FB60F9211242F933F934F935F937D
:102FB0006F937F938F939F93AF93BF93CF93DF9341
:102FC000EF93FF938091E202C091FF05D0E087FF6D
:102FD00024C010928500109284008091E2028F5FDD
:102FE0008093E2028091E202082E000C990B8C176C
:102FF0009D0724F48091E2028C30C4F1809184001A
:1030000090918500049680349C4908F47AC08091A0
:10301000840090918500049676C08091E202082E8B
:10302000000C990B8C179D07C4F6E091E2028E2FDD
:10303000EE0F990BFC01EE0FFF1FE80FF91FE55291
:10304000FA4F808186FFC9CFE091E2028E2FEE0F0A
:10305000990BFC01EE0FFF1FE80FF91FE552FA4F25
:10306000808160E08F730E949F02B7CF209184001F
:1030700030918500E091E2028E2FEE0F990BFC015A
:10308000EE0FFF1FE80FF91FE552FA4F8181928181
:10309000820F931F9093890080938800E091E20251
:1030A0008E2FEE0F990BFC01EE0FFF1FE80FF91F9B
:1030B000E552FA4F808186FF11C0E091E2028E2F27
:1030C000EE0F990BFC01EE0FFF1FE80FF91FE55201
:1030D000FA4F808161E08F730E949F02FF91EF9110
:1030E000DF91CF91BF91AF919F918F917F916F9120
:1030F0005F914F913F912F910F900FBE0F901F90B6
:10310000189580E49CE990938900809388008FEF64
:103110008093E202E3CFEF92FF920F931F93CF933E
:10312000DF93F82E192FE62E042F81E0860F880FEB
:103130000E948C0383E00E948C03CF2DD12FEC0ED4
:10314000FD2EF11CCE15DF05B9F007FF13C0FE01FF
:1031500084910E948C03182F80E00E948C038123AD
:1031600021968111EFCFDF91CF911F910F91FF90A9
:10317000EF9008958881EDCF81E0F5CF109207049C
:103180001092060488EE93E0A0E0B0E0809308047B
:1031900090930904A0930A04B0930B0420E231E059
:1031A00030930504209304042DEC30E03093110497
:1031B000209310042CEC30E030931304209312047D
:1031C00028EC30E0309315042093140429EC30E00F
:1031D00030931704209316042AEC30E0309319043E
:1031E000209318042EEC30E030931B0420931A0433
:1031F00010921D0410921E0410921F0410922004BD
:103200001092A4041092A3048093A5049093A604A2
:10321000A093A704B093A80422E331E03093A20462
:103220002093A1042FEF3FEF3093AE042093AD0421
:1032300021EF34E0109232051092310530933505BC
:103240002093340540E450E0509337054093360511
:10325000109238051092390510923B0510923A05EC
:1032600010923C0510923E0510923D0510924005CB
:1032700010923F05109242051092410510924405AC
:10328000109243051092460510924505109248058C
:103290001092470510924A05109249051092500568
:1032A00010924F051092520510925105109254053C
:1032B0001092530510925605109255051092640510
:1032C00010926305109233051092710510927305E8
:1032D000109272051092CE0545E051E050935805CA
:1032E000409357054FE051E050935A0540935905DC
:1032F00049E151E050935C0540935B0543E251E0A6
:1033000050935E0540935D054DE251E0509360059A
:1033100040935F0547E351E0509362054093610598
:1033200041E451E0509366054093650542E451E065
:1033300050936805409367054FEE57E050936A0538
:103340004093690530934C0520934B0545E853E0C5
:1033500050936C0540936B0530934E0520934D05BB
:103360002DE431E030936E0520936D051092D20567
:103370001092D1058093D3059093D405A093D505E1
:10338000B093D60584E491E09093D0058093CF0567
:10339000E0E0F6E02FEF48EB5BE08091FF058C303A
:1033A000B8F491E0980F9093FF05808390E0DC01E2
:1033B000AA0FBB1FA80FB91FA552BA4F12965C9354
:1033C0004E931197339686E0E432F80731F708956B
:1033D0002083F8CF789484B5826084BD84B5816001
:1033E00084BD85B5826085BD85B5816085BD8091D0
:1033F0006E00816080936E00109281008091810048
:10340000826080938100809181008160809381003F
:103410008091800081608093800080919100826023
:1034200080939100809191008160809391008091C0
:1034300090008160809390008091C10084608093AF
:10344000C1008091C10082608093C1008091C10061
:1034500081608093C1008091C30081608093C3002C
:103460008091C00082608093C0008091C200816022
:103470008093C20080917A00846080937A0080916A
:103480007A00826080937A0080917A0081608093D4
:103490007A0080917A00806880937A001092B3035A
:1034A00010925603109255038091D700816080934B
:1034B000D70080EA8093D80089B5806189BD89B53D
:1034C000826089BD09B400FEFDCF61E070E080E05C
:1034D00090E00E9452038091D8008F7C806180939D
:1034E000D8008091E000807F8093E0008091E1002F
:1034F0008E7E8093E1008DE08093E200559A209AC1
:1035000085E18093710580917205909173050E9409
:10351000F01FC0917105D0E0CE0101960E94541FAA
:103520009093730580937205FC01EC0FFD1F1082D0
:1035300022E0DC012C9325E011962C93AE01425041
:1035400051096AE572E002960E94792088E49BE0C6
:10355000909362038093610381E89AE09093600303
:1035600080935F0384E59AE090935E0380935D030C
:1035700086EF9CE090935C0380935B038EE19EE07A
:1035800090935A038093590381EA9CE090935803E7
:10359000809357038EEF90E19093640380936303CD
:1035A0008BE79FE090936603809365038FEF9FEF17
:1035B0009093AE048093AD048091CE0581114FC0ED
:1035C00061E08DE00E94CD0262ED70E080E090E06D
:1035D0000E94520361E08DE00E949F0268E270E069
:1035E00080E090E00E94520360E08DE00E949F0224
:1035F00062ED70E080E090E00E94520361E08DE0B7
:103600000E949F0268E270E080E090E00E94520316
:1036100060E08DE00E949F026AEF70E080E090E041
:103620000E945203C5E062ED70E080E090E00E94ED
:10363000520361E08DE00E949F0268E270E080E04A
:1036400090E00E94520360E08DE00E949F02C15012
:1036500051F76DE770E080E090E00E94520381EA4C
:1036600094E09093700580936F059093320580935A
:10367000310581E395E00E94550181EF94E00E94BD
:103680007B07C0910B016AE070E080E090E00E944F
:103690005203CC23B1F30E947B0FD5E000E010E091
:1036A000BB24B39492E0E92EF12CCC24C394D12C0A
:1036B00080916B03882309F44AC0A0906703CA2D48
:1036C000C170A0FE07C080E00E947602C1E0892B95
:1036D00009F4C0E0A1FE06C081E00E947602892BB9
:1036E00009F0C260A2FE06C082E00E947602892B29
:1036F00009F0C460A3FE06C083E00E947602892B15
:1037000009F0C860A4FE06C084E00E947602892BFE
:1037100009F0C061A5FE06C085E00E947602892BF3
:1037200009F0C062A6FE06C086E00E947602892BE0
:1037300009F0C064A7FE06C087E00E947602892BCC
:1037400009F0C06840E06C2F80E00E94B40C8091CA
:103750006C03882309F44AC0A0906803CA2DC17085
:10376000A0FE07C088E00E947602C1E0892B09F420
:10377000C0E0A1FE06C089E00E947602892B09F014
:10378000C260A2FE06C08AE00E947602892B09F080
:10379000C460A3FE06C08BE00E947602892B09F06C
:1037A000C860A4FE06C08CE00E947602892B09F056
:1037B000C061A5FE06C08DE00E947602892B09F04B
:1037C000C062A6FE06C08EE00E947602892B09F038
:1037D000C064A7FE06C08FE00E947602892B09F024
:1037E000C06840E06C2F81E00E94B40C80916D03B2
:1037F000882309F44AC0A0906903CA2DC170A0FEB5
:1038000007C080E10E947602C1E0892B09F4C0E084
:10381000A1FE06C081E10E947602892B09F0C260F8
:10382000A2FE06C082E10E947602892B09F0C460E4
:10383000A3FE06C083E10E947602892B09F0C860CE
:10384000A4FE06C084E10E947602892B09F0C061C3
:10385000A5FE06C085E10E947602892B09F0C062B0
:10386000A6FE06C086E10E947602892B09F0C0649C
:10387000A7FE06C087E10E947602892B09F0C06886
:1038800040E06C2F82E00E94B40C80916E0388238C
:10389000D1F1A0906A03CA2DC170A0FE07C088E1D3
:1038A0000E947602C1E0892B09F4C0E0A1FE06C0A7
:1038B00089E10E947602892B09F0C260A2FE06C04F
:1038C0008AE10E947602892B09F0C460A3FE06C03B
:1038D0008BE10E947602892B09F0C860A4FE06C025
:1038E0008CE10E947602892B09F0C061A5FE06C01A
:1038F0008DE10E947602892B09F0C06240E06C2FB6
:1039000083E00E94B40C80916F0590917005DC01FA
:10391000ED91FC910084F185E02D0995892B09F446
:10392000CEC180916F0590917005DC01ED91FC9105
:103930000284F385E02D09959C018F3F980719F3C8
:10394000982F80913C05882309F492C0973F09F095
:103950007EC010923C05A0913405B09135056C9164
:103960006137C1F1693709F05CC0E0916905F091F8
:103970006A05309741F280913D0590913E05833074
:10398000910560F430E020E050E040E070E060E05D
:1039900080914B0590914C050995B5CFBD016D5FA8
:1039A0007F4F03970E94BC01BC016D5F7F4F80E099
:1039B0000E948C01E0913405F09135059F012D5F47
:1039C0003F4F428150E0618170E0E0916905F091E4
:1039D0006A05DECF8091650590916605892B09F413
:1039E00092CFBD016F5F7F4F80913D0590913E0565
:1039F00001970E94BC01BC016F5F7F4F80E00E9475
:103A00008C0160913405709135056F5F7F4FE091B7
:103A10006505F091660580915105909152050995D3
:103A200072CFE0916705F0916805309709F46BCF8C
:103A30009D012F5F3F4F40913D0550913E05415004
:103A40005109809153059091540509955CCF60917F
:103A50003D0570913E05822F0E948C0180913D05AD
:103A600090913E05019690933E0580933D054BCF86
:103A700060913A0570913B056115710509F4B1C07B
:103A800027FDAFC06150710970933B0560933A0503
:103A9000822F0E948C0180913A0590913B05892BE1
:103AA00009F031CF80913805882309F42CCF803D6F
:103AB00009F483C040F4803949F1803C09F469C0BD
:103AC0001092380520CF843FE1F1853F09F44DC0C5
:103AD000803EB1F7E0915705F0915805309781F39A
:103AE000A0913405B09135054C9120E8429FC0016A
:103AF000112411964C91480F592F511D6091390591
:103B000080913F05909140050995DACFE0915905E4
:103B1000F0915A053097A1F2A0913405B091350586
:103B20004C9120E8429FC001112411964C91480FFE
:103B3000592F511D609139058091410590914205A1
:103B4000E3CFE0915F05F0916005309709F4B8CFBD
:103B5000A0913405B09135054C9150E011966C91CF
:103B60008091470590914805CFCFE0916105F09194
:103B70006205309709F4A4CFA0913405B0913505C2
:103B80004C9150E011966C918091490590914A05B5
:103B9000BBCFE0915B05F0915C05309709F490CFC5
:103BA000A0913405B09135054C9150E060913905F4
:103BB0008091430590914405A7CFE0915D05F09178
:103BC0005E05309709F47CCFA0913405B09135059E
:103BD0004C9150E0609139058091450590914605E2
:103BE00093CF903F30F4822F8F7080933905922FBE
:103BF000907F903FF1F190F4903CB1F150F4903906
:103C000009F081CEF0923B05E0923A059093380599
:103C10007ACE903D49F1903EA9F375CE993F09F4D3
:103C200042C028F48CE0890F823060F36CCE9F3F55
:103C300009F069CE10923B0510923A0510923805B2
:103C40001092390590E080E02091360530913705DB
:103C500082179307A8F4E0913405F0913505E80F39
:103C6000F91F10820196F0CFD0923B05C0923A0521
:103C7000CDCFB0923C0510923E0510923D0543CE4B
:103C800010923C0510923E0510923D05E0916D05A5
:103C9000F0916E058091550590915605309709F485
:103CA00032CE099530CEE0916B05F0916C053097DE
:103CB00009F429CE80914D0590914E05F2CF8FB732
:103CC000F89440909E0350909F036090A0037090E2
:103CD000A1038FBF8091990390919A03A0919B03B8
:103CE000B0919C0340910D0150910E0170E060E095
:103CF000481A590A6A0A7B0A44155505660577056C
:103D000008F051C0840F951FA61FB71F8093990319
:103D100090939A03A0939B03B0939C0381EF882E0A
:103D200084E0982ECEEECC30C8F4F401ED57FF4F6E
:103D30008081823099F480919703909198030C2EA2
:103D400002C0959587950A94E2F780FF07C08C2FF3
:103D50000E940903BC018C2F0E94CE06CF5F8FEF1B
:103D6000881A980ACC30F9F680910C0187FD1BC0A7
:103D7000C0E02C2F30E080910C01082E000C990B34
:103D80008217930784F0D29FF001D39FF00D112486
:103D9000E159FC4F618172812481438180810E94BD
:103DA000BC0FCF5FE6CF0115110509F481CC0E944D
:103DB0008804882309F47CCC0E94000079CC052E6D
:103DC00097FB1EF400940E94F61E57FD07D00E9438
:103DD000111F07FC03D04EF40C94F61E509540952D
:103DE000309521953F4F4F4F5F4F089590958095A7
:103DF000709561957F4F8F4F9F4F08950E94331F9D
:103E0000A59F900DB49F900DA49F800D911D11242E
:103E10000895B7FF0C94FE1E0E94FE1E821B930B9A
:103E20000895A1E21A2EAA1BBB1BFD010DC0AA1FFB
:103E3000BB1FEE1FFF1FA217B307E407F50720F013
:103E4000A21BB30BE40BF50B661F771F881F991F8E
:103E50001A9469F760957095809590959B01AC01D7
:103E6000BD01CF010895A29FB001B39FC001A39FE0
:103E7000700D811D1124911DB29F700D811D1124A3
:103E8000911D0895991B79E004C0991F961708F0B9
:103E9000961B881F7A95C9F780950895EE0FFF1F2E
:103EA0000590F491E02D09940F931F93CF93DF9326
:103EB0008230910510F482E090E0E0912606F091C6
:103EC000270630E020E0B0E0A0E0309799F421151B
:103ED000310509F44AC0281B390B24303105D8F5C7
:103EE0008A819B816115710589F1FB01938382832E
:103EF000FE0111C040815181028113814817590789
:103F0000E0F04817590799F4109761F012960C9356
:103F1000129713961C933296CF01DF91CF911F9188
:103F20000F9108950093260610932706F4CF2115CC
:103F3000310551F04217530738F0A901DB019A010E
:103F4000BD01DF01F801C1CFEF01F9CF9093270642
:103F500080932606CDCFFE01E20FF31F819391934C
:103F60002250310939832883D7CF209124063091FC
:103F70002506232B41F42091110130911201309339
:103F800025062093240620910F0130911001211560
:103F9000310541F42DB73EB7409113015091140102
:103FA000241B350BE0912406F0912506E217F30758
:103FB000A0F42E1B3F0B2817390778F0AC014E5F99
:103FC0005F4F2417350748F04E0F5F1F50932506AB
:103FD00040932406819391939FCFF0E0E0E09CCF43
:103FE000CF93DF930097E9F0FC013297138212829E
:103FF000A0912606B0912706ED0130E020E0109751
:10400000A1F420813181820F931F209124063091E9
:1040100025062817390709F061C0F0932506E093BB
:104020002406DF91CF910895EA01CE17DF07E8F566
:104030004A815B819E0141155105B1F7E901FB837E
:10404000EA8349915991C40FD51FEC17FD0761F41C
:10405000808191810296840F951FE901998388835D
:10406000828193819B838A83F0E0E0E012968D91B8
:104070009C9113970097B9F52D913C911197CD0123
:104080000296820F931F209124063091250628174F
:10409000390739F6309751F5109227061092260607
:1040A000B0932506A0932406BCCFD383C28340815E
:1040B0005181840F951FC817D90761F44E5F5F4F78
:1040C00088819981480F591F518340838A819B8140
:1040D000938382832115310509F0B0CFF093270631
:1040E000E09326069ECFFD01DC01C0CF1382128231
:1040F000D7CFFB01DC014150504048F001900D92B8
:104100000020C9F701C01D9241505040E0F70895CA
:04411000F894FFCF51
:10411400FFFFFFFF00E1000000000000FF130000AC
:10412400002806800000C18081000000000000001B
:10413400BD041E044B0409057C045A046E040000EB
:104144000000AE052905CF05C4051506D305F10504
:1041540000000000A3097609D2094C096F095C0923
:104164004D094D617820736572766F7320617474A4
:10417400616368656400556E6B6E6F776E2070695D
:104184006E206D6F6465004932433A20546F6F208E
:104194006D616E79206279746573207265636569F7
:1041A400766564004932433A20546F6F2066657720
:1041B400206279746573207265636569766564004D
:1041C40031302D6269742061646472657373696E41
:1041D40067206E6F7420737570706F7274656400FD
:1041E400746F6F206D616E79207175657269657386
:1041F400002F707269766174652F7661722F666F15
:104204006C646572732F6C6A2F3766706C38335F19
:1042140073377778336436646A6C675F77327967AB
:104224006D3030303067702F542F2E617264756991
:104234006E6F4944452D756E736176656432303214
:1042440034313131392D31353738332D316F376EC3
:104254007834372E39636A686A2F5374616E6461E7
:1042640072644669726D6174612F5374616E646126
:0E42740072644669726D6174612E696E6F002E
:00000001FF
