:100000000C945D000C9485000C9485000C94AD104C
:100010000C94AD100C94AD100C9485000C948500DC
:100020000C9485000C9485000C9485000C94D611DA
:100030000C9485000C9485000C9485000C9485002C
:100040000C940B100C9485000C947B100C945510A0
:100050000C9485000C9485000C9485000C9485000C
:100060000C94B7100C9485000000000024002700B9
:100070002A0000000000250028002B0004040404CE
:100080000404040402020202020203030303030342
:10009000010204081020408001020408102001021F
:1000A00004081020000000080002010000030407FB
:1000B0000000000000000000921211241FBECFEFCC
:1000C000D8E0DEBFCDBF12E0A0E0B1E0E4E4F2E3AF
:1000D00002C005900D92A834B107D9F725E0A8E435
:1000E000B2E001C01D92A137B207E1F710E0CDE503
:1000F000D0E004C02197FE010E94E617CC35D1075D
:10010000C9F70E94A6130C9420190C940000862FA6
:10011000E0912803F0912903309711F0BA01099476
:100120000895862FE0912603F0912703309711F070
:10013000BA0109940895862FE0912403F0912503D4
:10014000309711F0BA0109940895862FE0912203A7
:10015000F0912303309711F0BA0109940895862F86
:10016000E0912003F0912103309711F0BA01099436
:100170000895862FE0911E03F0911F03309711F030
:10018000BA01099408950895862F642FE0912A03F7
:10019000F0912B03309711F0A90109940895E09193
:1001A0002C03F0912D03309709F009940895CF9313
:1001B000DF93FC01A081B181109701F1EC01ED9179
:1001C000FC9111970190F081E02D69EFCD01099527
:1001D00088819981DC01ED91FC910190F081E02D05
:1001E00062E0099588819981DC01ED91FC91019093
:1001F000F081E02D65E0DF91CF910994DF91CF91FF
:100200000895A091D604B091D704ED91FC91119777
:100210000190F081E02D682FCD0109941F93CF93B9
:10022000DF93182FEB0180919D0490919E04681735
:10023000790760F480919B0490919C04C80FD91FAA
:10024000188380E0DF91CF911F910895E091CA0457
:10025000F091CB04309711F481E0F4CF81E08093EA
:100260009A048091B6049091B704099580919D04F9
:1002700090919E04C817D90778F7DCCFCF93DF930E
:10028000EC01FB0130E020E0C901880F991F8C17B9
:100290009D0778F44081DB014D93BD011197918159
:1002A000979599279795942B9C932F5F3F4F329664
:1002B000EBCFC901DF91CF91089590E0FC01EC559F
:1002C000FF4F2491FC01E057FF4F3491FC01E458AB
:1002D000FF4FE491EE23C9F0222339F0233001F1DE
:1002E000A8F4213019F1223029F1F0E0EE0FFF1FC0
:1002F000EE58FF4FA591B4918FB7F894EC9161112E
:1003000026C030953E233C938FBF08952730A9F037
:100310002830C9F0243049F7809180008F7D03C0D8
:10032000809180008F7780938000DFCF84B58F77B6
:1003300084BDDBCF84B58F7DFBCF8091B0008F77FC
:100340008093B000D2CF8091B0008F7DF9CF3E2B4B
:10035000DACFCF93DF9390E0FC01E057FF4F249179
:1003600084589F4FFC0184918823C9F090E0880F46
:10037000991FFC01E859FF4FA591B491FC01EE587B
:10038000FF4FC591D49161110DC09FB7F8948C9126
:10039000209582238C938881282328839FBFDF9117
:1003A000CF910895623051F49FB7F8943C91822F19
:1003B000809583238C93E8812E2BEFCF8FB7F89411
:1003C000EC912E2B2C938FBFEACF8E3008F08E50FD
:1003D0008770806480937C0080917A008064809331
:1003E0007A0080917A0086FDFCCF80917800909110
:1003F000790008953FB7F89480916703909168035E
:10040000A0916903B0916A0326B5A89B05C02F3F50
:1004100019F00196A11DB11D3FBFBA2FA92F982F2A
:100420008827BC01CD01620F711D811D911D42E025
:10043000660F771F881F991F4A95D1F708958F92ED
:100440009F92AF92BF92CF92DF92EF92FF926B0199
:100450007C010E94FA014B015C01C114D104E1044A
:10046000F104B9F00E94FA01681979098A099B0917
:10047000683E73408105910580F321E0C21AD108DE
:10048000E108F10888EE880E83E0981EA11CB11CDB
:10049000E4CFFF90EF90DF90CF90BF90AF909F9010
:1004A0008F900895009721F0805C9F4F0C94D700A7
:1004B0000895AF92BF92CF92DF92EF92FF920F9387
:1004C0001F93CF93DF936C017B018B01040F151FEA
:1004D000EB015E01AE18BF08C017D10759F0699152
:1004E000D601ED91FC910190F081E02DC6010995B6
:1004F000892B79F7C501DF91CF911F910F91FF9063
:10050000EF90DF90CF90BF90AF900895FC01538D96
:10051000448D252F30E0842F90E0821B930B5417DD
:1005200010F0CF96089501970895FC01918D828D6A
:10053000981761F0A28DAE0FBF2FB11D5D968C9103
:10054000928D9F5F9F73928F90E008958FEF9FEF42
:100550000895FC01918D828D981731F0828DE80FFE
:10056000F11D858D90E008958FEF9FEF0895FC01B8
:10057000918D228D892F90E0805C9F4F821B910985
:100580008F73992708958BEB93E00E94B70221E0C7
:10059000892B09F420E0822F089580E090E0892BD8
:1005A00029F00E94C30281110C9400000895FC01FF
:1005B000A48DA80FB92FB11DA35ABF4F2C91848DC4
:1005C00090E001968F739927848FA689B7892C9321
:1005D000A089B1898C91837080648C93938D848D74
:1005E000981306C00288F389E02D80818F7D808377
:1005F0000895EF92FF920F931F93CF93DF93EC0137
:1006000081E0888F9B8D8C8D98131AC0E889F989B9
:10061000808185FF15C09FB7F894EE89FF896083BC
:10062000E889F98980818370806480839FBF81E03D
:1006300090E0DF91CF911F910F91FF90EF9008957F
:10064000F62E0B8D10E00F5F1F4F0F731127E02E5A
:100650008C8D8E110CC00FB607FCFACFE889F98992
:10066000808185FFF5CFCE010E94D702F1CFEB8DBF
:10067000EC0FFD2FF11DE35AFF4FF0829FB7F89466
:100680000B8FEA89FB8980818062CFCFCF93DF9384
:10069000EC01888D8823B9F0AA89BB89E889F9899A
:1006A0008C9185FD03C0808186FD0DC00FB607FCCF
:1006B000F7CF8C9185FFF2CF808185FFEDCFCE0102
:1006C0000E94D702E9CFDF91CF9108955F926F9298
:1006D0007F928F929F92AF92BF92CF92DF92EF92D2
:1006E000FF920F931F93CF93DF935C016901DA01AF
:1006F0005C90232B19F4CC24CA94DC2C8A013A0197
:10070000660E771ED0E0C0E0F12CE12C87E0882E49
:10071000912CF50180819181D8016C910C2E01C042
:10072000660F0A94EAF765296F77DC01ED91FC9179
:100730000190F081E02D0995BFEFEB1AFB0AF8015B
:10074000608170E0C4018C1B9D0B02C0759567959C
:100750008A95E2F7562E2196C730D10558F1CE146E
:10076000DF0441F1D5018D919C91652D6F77DC01FE
:10077000ED91FC910190F081E02D0995BFEFEB1A0E
:10078000FB0A551C5524551C2797E6CFEC14FD0495
:1007900008F4BFCFDF91CF911F910F91FF90EF90A1
:1007A000DF90CF90BF90AF909F908F907F906F9091
:1007B0005F9008950F5F1F4F6016710639F72097FD
:1007C00049F3EC14FD0430F7F5018081918161E07B
:1007D00070E001C0660FCA95EAF761506521DC013F
:1007E000ED91FC910190F081E02DDF91CF911F916F
:1007F0000F91FF90EF90DF90CF90BF90AF909F90C0
:100800008F907F906F905F9009941F93CF93DF93A9
:1008100000D0CDB7DEB7182F7A8369838091980412
:10082000909199040097C9F0DC01ED91FC91019041
:10083000F081E02D1031B8F461157044A0F4612FFF
:10084000606E099522E030E0AE014F5F5F4F62E0DD
:1008500070E088E994E00E9466030F900F90DF91AA
:10086000CF911F91089560EF099580919804909120
:100870009904DC01ED91FC910190F081E02D6FE68F
:1008800009958091980490919904DC01ED91FC9177
:100890000190F081E02D612F099522E030E0AE015A
:1008A0004F5F5F4F62E070E088E994E00E9466036A
:1008B0008091980490919904DC01ED91FC91019054
:1008C000F081E02D67EF0995C8CFEF92FF920F936B
:1008D0001F93CF93DF93C82F809198049091990430
:1008E0000097C9F17A018B01DC01ED91FC91019037
:1008F000F081E02D60EF0995809198049091990422
:10090000DC01ED91FC910190F081E02D6C2F0995B7
:10091000E7010E0D1F1DC017D10759F030E020E090
:10092000AE0161E070E088E994E00E9466032196E0
:10093000F2CF8091980490919904DC01ED91FC91A3
:100940000190F081E02D67EFDF91CF911F910F9122
:10095000FF90EF900994DF91CF911F910F91FF903D
:10096000EF900895CF92DF92EF92FF920F931F9333
:10097000CF93DF93FC01E058FF4FE080EE2009F4B5
:100980005CC0EC01C05CDF4FA881B981109709F40D
:1009900054C0FC01EF57FF4FC080D180F601118198
:1009A0000081ED91FC9111970190F081E02D60EFB5
:1009B000CD01099588819981DC01ED91FC9101902F
:1009C000F081E02D69E7099588819981DC01ED913D
:1009D000FC910190F081E02D602F0995888199812B
:1009E000DC01ED91FC910190F081E02D612F0995E2
:1009F000F12C01E010E00F5F1F4FE016F10659F0F7
:100A000030E020E0A601400F511F61E070E0CE0110
:100A10000E946603F0CF88819981DC01ED91FC9101
:100A20000190F081E02D67EFDF91CF911F910F9141
:100A3000FF90EF90DF90CF900994DF91CF911F91BD
:100A40000F91FF90EF90DF90CF900895009711F0F5
:100A50000C94B20408952091F702260F3327331F18
:100A600021323105ECF420919103FC0190E080E00B
:100A7000243069F082E00895A091F7022191AC0141
:100A80004B525D4FA40FB52FB11D2C9301968617C5
:100A900098F38091F702680F6093F70280E0089561
:100AA00081E008951092910381E080939003109269
:100AB0006B0361E082E10E945D0161E083E10E94DD
:100AC0005D01E9EBF0E080818E7F808380818D7F06
:100AD000808388E48093B80085E48093BC00089507
:100AE000CF93DF9391E09093D4028823B9F0C09123
:100AF000B800D091BA008091BC008A7B8093BC0082
:100B000060E082E10E945D0160E083E10E945D019E
:100B10000E945205D093BA00C093B800DF91CF91E4
:100B200008958F929F92AF92BF92CF92DF92EF92F1
:100B3000FF920F931F93CF93DF93D091BA03D132DB
:100B400008F0D7C0182FC091B9030E94FA016B01B9
:100B50007C018091910381116BC082E080939103AD
:100B6000109390038FEF80938F0310928E03D09396
:100B70008D03A9E9B3E0EDE6F3E080E0D81391C07E
:100B800010926C0380916C03CC0FC82BC0936C0344
:100B900080916B03813009F088C010926B030E9432
:100BA000FA016B017C0180916C038093BB00809102
:100BB000930390919403A0919503B0919603892B90
:100BC0008A2B8B2BA1F00E94FA01009193031091C4
:100BD000940320919503309196036C197D098E0939
:100BE0009F09061717072807390708F442C08091A4
:100BF000BC0083FDD8CF85EC8093BC000E94FA0135
:100C00006B017C0180919103823009F450C0809186
:100C10008F038F3F09F46FC080918F03803209F4F6
:100C20006CC080918F03803309F469C084E026C0D2
:100C30008091930390919403A0919503B0919603B2
:100C4000892B8A2B8B2B09F484CF0E94FA01809088
:100C5000930390909403A0909503B09096036C1921
:100C60007D098E099F0986169706A806B90608F021
:100C700070CF809192030E94700585E010929803D6
:100C80001092BA0310929703DF91CF911F910F91A9
:100C9000FF90EF90DF90CF90BF90AF909F908F909C
:100CA00008959D9191938F5F69CF85EEA5CF809137
:100CB000930390919403A0919503B0919603892B8F
:100CC0008A2B8B2B09F49ECF0E94FA01009193038B
:100CD0001091940320919503309196036C197D092E
:100CE0008E099F09061717072807390708F08ACFCA
:100CF000C0CF81E0C3CF80E0C1CF82E0BFCF83E02F
:100D0000BDCF089508950895E091D3028091D20255
:100D1000E81730F4F0E0EE54FD4F808190E0089544
:100D20008FEF9FEF08959091D3028091D2022FEF21
:100D30003FEF981748F4E92FF0E0EE54FD4F208183
:100D400030E09F5F9093D302C90108958091D20251
:100D50009091D302891B990B0895CF92DF92EF9265
:100D6000FF920F931F93CF93DF937C01CB018A01F6
:100D700020919703222389F0EB016B01C40ED51E4D
:100D8000CC15DD0569F06991D701ED91FC910190D9
:100D9000F081E02DC7010995F3CF642F0E942B0548
:100DA000C801DF91CF911F910F91FF90EF90DF90DD
:100DB000CF900895CF93DF931F92CDB7DEB76983AD
:100DC000209197032223F9F02091BA03203258F0A2
:100DD00021E030E0FC013383228390E080E00F903B
:100DE000DF91CF91089580919803E82FF0E0E756C6
:100DF000FC4F998190838F5F809398038093BA030F
:100E000081E090E0ECCF61E0CE0101960E942B05DD
:100E1000F7CF90E080E00895DF92EF92FF920F937A
:100E20001F93CF93DF93EC01D62E7A01890188813D
:100E30008C3008F067C061E08D2D0E94A901888187
:100E4000282F30E0F901EE0FFF1FE20FF31FEC5DDA
:100E5000FA4F9D2D9F736081607C692B608320E237
:100E600032E02E193F0937FF02C02D5F3F4F359505
:100E7000279535952795298320E639E0201B310BEE
:100E800037FF02C02D5F3F4F359527953595279544
:100E90002A832CE0622F0E94DA17829FB00111246E
:100EA00030E020E0AB01420F531FFA01EE0FFF1FAD
:100EB000E40FF51FEC5DFA4F908196FD16C02F5F91
:100EC0003F4F2C30310571F781110FC01092800017
:100ED00082E0809381001092850010928400B19A84
:100EE00080916F00826080936F00E8818E2F90E088
:100EF000FC01EE0FFF1FE80FF91FEC5DFA4F808138
:100F0000806480838881DF91CF911F910F91FF9042
:100F1000EF90DF900895CF938630B0F421E030E079
:100F2000082E02C0220F331F0A94E2F740915C039F
:100F300050915D03672B51F4209530952423352380
:100F400030935D0320935C03CF910895242B352BC0
:100F500030935D0320935C039091B0029111F4CF24
:100F6000C82F0E94E501BC018C2FCF910C94050481
:100F70005F926F927F928F929F92AF92BF92CF9229
:100F8000DF92EF92FF920F931F93CF93DF93833003
:100F900008F061C0D1E0D80FDD0FDD0FDD0F5D2E51
:100FA000D53110F044E1542EC62F082FD8508D2E85
:100FB000912CC401880F991F9C01285A3B4F59015D
:100FC000D12CC12C10E077247394D515C8F58EEF81
:100FD0008D0F8231F8F4F601E80DF91DE552FB4F53
:100FE00090819230B8F48C2F87216624639481110C
:100FF00001C0612C7601EE0CFF1C913089F4172999
:1010000037E9E30EF11CF501EE0DFF1D862D90E092
:1010100091838083770CDF5F8FEFC81AD80AD5CF12
:10102000882371F3F701E956FF4FEA0DFB1D80811C
:101030009181019729F362E08D2F0E94A901E0CFF1
:10104000011119C0F8948BB16C2F68276C7F612354
:1010500068276BB97894DF91CF911F910F91FF9022
:10106000EF90DF90CF90BF90AF909F908F907F9048
:101070006F905F9008950130D1F4C123F89495B139
:10108000812F8F73809589239C2F9F73892B85B91E
:1010900088B1612F62956695669563706095682347
:1010A000C295C695C695C370C62BC8B9D3CF1F705D
:1010B000F89498B1812F880F880F80958923C123D8
:1010C000CC0FCC0FC82BF1CF8F929F92AF92BF92D3
:1010D000CF92DF92EF92FF920F931F93CF93DF9304
:1010E000EB01843108F098C0082F10E0F801E552B8
:1010F000FB4F9081933009F49CC0943009F08CC070
:101100008250823108F081C0F801E856FD4FC0805E
:10111000D12C7601EE0CFF1C4B01603282E0780787
:101120000CF03EC0F701EC0DFD1DE75BFA4F81812D
:10113000A8E88A2E912C881A910887FD9394880C30
:10114000991C880C991C092C000CAA08BB088281E8
:1011500028E532E0281B310987FD3395220F331F24
:10116000220F331F032E000C440B550B281939098D
:101170004A095B09DB01653B710514F0A4EBB0E0A3
:10118000B7FF02C0B0E0A0E00E94A11724EB30E05E
:1011900040E050E00E947717820E931EA41EB51EF9
:1011A000F701EC0DFD1DE75BFA4F20812C3068F54F
:1011B000318188E890E0831B910937FD9395880F72
:1011C000991F880F991F881699067CF0328188E54F
:1011D00092E0831B910937FD9395880F991F880F23
:1011E000991F881699060CF4C4010297880F991F5D
:1011F0004FB7F89430E0F901EE0FFF1FE20FF31F35
:10120000EC5DFA4F928381834FBF000F111FF801ED
:10121000E151FB4FD183C083DF91CF911F910F919B
:10122000FF90EF90DF90CF90BF90AF909F908F9006
:1012300008957B01D82F833041F08BEF800F8230EF
:1012400020F087EF800F833058F461E08D2F0E94EB
:10125000A901E114F10461F460E08D2F0E945D01A9
:10126000000F111FF801E151FB4FF182E082D4CF52
:101270008FEFE816F10411F461E0EFCFF801EC55BF
:10128000FF4FE491E33021F148F4E130B9F0E2306E
:10129000D1F080E8E816F1047CF7DECFE73011F1F9
:1012A000E83041F1E430A9F78091800080628093BA
:1012B0008000F0928B00E0928A00D2CF84B58068E3
:1012C00084BDE7BCCDCF84B5806284BDE8BCC8CF07
:1012D00080918000806880938000F0928900E09285
:1012E0008800BECF8091B00080688093B000E0920B
:1012F000B300B6CF8091B00080628093B000E092DE
:10130000B400AECF9EEF980F923180F4E82FF0E05A
:10131000DF01A552BB4F9C91913041F4EE0FFF1FAE
:10132000E151FB4F608371830C945D010895FF923E
:101330000F931F93CF93DF9300D0CDB7DEB7082F65
:1013400010E0F801E25DFC4F9081F62EF922045581
:101350001D4F411104C0F80190819F1511F12F2DEF
:1013600030E03A832983A0919804B09199041097B2
:10137000B1F0682F6F706069ED91FC911197019049
:10138000F081E02DCD01099522E030E0AE014F5F04
:101390005F4F62E070E088E994E00E946603F80124
:1013A000F0820F900F90DF91CF911F910F91FF90DE
:1013B0000895833040F5282F30E0F901EF5CFC4FB1
:1013C0006083672B01F1225D3C4FF901608181113F
:1013D00006C099B19C7F692341E00C949709813044
:1013E00049F493B126B19F73F0E42F9F900111242B
:1013F000922BF1CF26B130E035952795359527957D
:101400002F706223E9CF0895A82FB0E0A856BD4FF2
:101410009C91292F30E0F901EE0FFF1FE20FF31F1F
:10142000E75BFA4FE0812E2F30E0F901EE0FFF1F4E
:10143000E20FF31FEC5DFA4F80818F7B80838091F8
:101440009602981308C0992319F091509093960230
:101450008FEF8C9308958823D9F3E0919702EF5F83
:10146000E0939702F0E0E95BFD4F9083F1CFFC0140
:1014700001900020E9F73197BF01681B790BAC019F
:1014800081E70C946504CF93DF93DB019091960282
:101490009C3078F530919702682F70E0FB01E85698
:1014A000FD4F3323E1F0C32FD0E0C95BDD4F8881CE
:1014B0008083315030939702808123E0829FC00166
:1014C0001124875B9A4F1A161B0674F4141615061E
:1014D0005CF49A01AD01DF91CF910C940C079083DD
:1014E0009F5F90939602E8CF20E639E040E252E019
:1014F000F2CF8DE291E0DF91CF910C94370A85ED28
:101500008093BC008091930390919403A0919503E4
:10151000B09196030796A11DB11D23E0B695A7953E
:10152000979587952A95D1F72091BC0024FD03C09B
:101530001092910308954091930350919403609108
:10154000950370919603452B462B472B69F3009723
:10155000A105B10541F02AE22A95F1F700C00197F3
:10156000A109B109E1CF809192030C9470059F927B
:10157000AF92BF92CF92DF92EF92FF920F931F93A1
:10158000CF93DF93C82ED12CE601C85ADB4FFE0162
:10159000ED57FF4F90819F3709F49FC0963061F45B
:1015A0009091AF02992341F06630710529F01092B5
:1015B000AF029FEF909300017B01182F0EEF080FF1
:1015C000023108F564307105F1F0F601E856FD4F7F
:1015D00080818C30C0F490E0FC01EE0FFF1FE80F1B
:1015E000F91FE75BFA4FE0818E2F90E0FC01EE0FD0
:1015F000FF1FE80FF91FEC5DFA4F808186FF03C0E3
:10160000812F0E94040A52EF952E910E85E08915D4
:1016100058F061E070E032E0E316F10411F070E0A0
:1016200060E0892D0E948B070231C8F4E12FE69516
:10163000E695E695F0E0E25DFC4F2081312F3770B2
:1016400081E090E001C0880F3A95EAF7E114F104D7
:1016500021F03BE0E316F10401F5822B8083560173
:10166000AA0CBB1CF501E151FB4F118210828CE0EA
:10167000E816F10408F0CBC0F701EF5BF44F0C94CF
:10168000E617610B8E0B500BA50BC40B070CFB0B65
:10169000070C070C070C6D0B790B80958223DECFAE
:1016A00035E03915D0F0023120F460E0812F0E943E
:1016B000A901CD57DF4F88818F3779F082E0888389
:1016C0000CC0023150F460E0812F0E94A901CD5777
:1016D000DF4F88818F3709F01882DF91CF911F91FA
:1016E0000F91FF90EF90DF90CF90BF90AF909F90C1
:1016F0000895023190F762E0812F0E94A901CD5731
:10170000DF4F88818F3711F08BE08883F501E1513D
:10171000FB4F81E090E091838083DFCF0231E8F6D8
:10172000FE01ED57FF4F8081833021F460E0812F6F
:101730000E945D0161E0812F0E94A901CD57DF4F1A
:1017400088818F3751F281E0BACF133049F08BEFA7
:10175000810F823028F087EF810F833008F0BDCFF2
:1017600061E0812F0E94A90161E0812F0E94A901FF
:1017700060E0812F0E945D01CD57DF4F88818F3758
:1017800009F4ABCF83E09BCF023108F0A6CFCD5751
:10179000DF4F88818F3711F084E08883F601E856A7
:1017A000FD4F80818F3FA9F090E0FC01EE0FFF1FFD
:1017B000E80FF91FE75BFA4FE0818E2F90E0FC0104
:1017C000EE0FFF1FE80FF91FEC5DFA4F808186FDD9
:1017D00084CF4FEF5FEF6FEF7FEF812FDF91CF91DE
:1017E0001F910F91FF90EF90DF90CF90BF90AF903F
:1017F0009F900C94430A1251123008F06ECFCD57CF
:10180000DF4F88818F3709F468CF86E058CF81E4B5
:1018100091E0DF91CF911F910F91FF90EF90DF90BA
:10182000CF90BF90AF909F900C94370A0F931F9367
:10183000CF93DF9381E08093B0028091AF02882341
:1018400029F01092AF028FEF8093000110923103C4
:1018500010922E031092AC021092320310922F03BA
:101860001092AD0210923303109230031092AE0228
:1018700008E912E0C0E0DFEF82EF8C0F62E070E079
:10188000863030F08EEF8C0F823128F461E070E00A
:101890008C2F0E94B70AF801D1938F01CF5FC4311A
:1018A00059F710925D0310925C0310929702109208
:1018B00096021092B002DF91CF911F910F9108957F
:1018C0004F925F926F927F928F929F92AF92BF9250
:1018D000FF920F931F93CF93DF93F82E8B01D42F9A
:1018E000C22F6F3F760709F490C081E08093970381
:1018F000F092B903109298031092BA0388E195E030
:101900000E94DA068C2F0E9491058091940290919A
:1019100095028230910538F0880F991F880F991F22
:1019200005970197F1F70E94FA014B015C01809144
:10193000910381116CC0CD2FD13208F0C0E281E05B
:1019400080939103809390039FEF90938F03109265
:101950008E039C0F90938D0380936C0390916C0386
:101960008F2D880F892B80936C0380916B038130BE
:1019700009F0A1C010926B030E94FA014B015C01B7
:1019800080916C038093BB008091930390919403AA
:10199000A0919503B0919603892B8A2B8B2BA1F0F4
:1019A0000E94FA0140909303509094036090950335
:1019B00070909603681979098A099B09461657069B
:1019C0006806790608F444C08091BC0083FDD8CF36
:1019D00085EC8093BC000E94FA014B015C01809170
:1019E0009103813009F469C080918E038C1710F443
:1019F000C0918E03EDE6F3E0A2EBB2E080E08C173D
:101A000061F191919D938F5FFACF00E08CCF80912F
:101A1000930390919403A0919503B0919603892B21
:101A20008A2B8B2B09F483CF0E94FA0140909303F9
:101A3000509094036090950370909603681979090B
:101A40008A099B09461657066806790608F06FCF83
:101A5000809192030E947005C0E01092D302C0935F
:101A6000D2022D2F30E08C2F90E0281739070CF090
:101A700046C082E591E00E94370AF092540200933A
:101A8000550204E512E0AD2EB12CC80184559240F8
:101A90008A159B050CF041C00F5F1F4F9091D20239
:101AA0008091D3029817C9F188E195E00E949306CE
:101AB000F8018183EACF85EE8CCF809193039091DA
:101AC0009403A0919503B0919603892B8A2B8B2BBD
:101AD00009F485CF0E94FA0140909303509094033B
:101AE0006090950370909603681979098A099B099B
:101AF000461657066806790608F071CFA9CF8217F7
:101B000093070CF0BACF8FE691E00E94370AD0918C
:101B1000D2028091D302D81BB0CFDE5F6D2F70E070
:101B200044E552E087E7DF91CF911F910F91FF903D
:101B3000BF90AF909F908F907F906F905F904F90ED
:101B40000C946504EF92FF920F931F93CF93DF9352
:101B50008956823108F033C0EA01162FE82FF0E0F1
:101B6000EC54F24F0C94E617FA0FDF0D610FDF0D06
:101B7000B90FDF0D3F0FE30EDF0DDF0DDF0DDF0DC2
:101B8000DF0DC60DDF0DA70EDF0D290F998195FF23
:101B90000AC08BE891E0DF91CF911F910F91FF90E8
:101BA000EF900C94370A888131E096FB222720F9C8
:101BB000232798719830D1F148F49923A9F0DF9147
:101BC000CF911F910F91FF90EF900895903109F4FC
:101BD0004CC09831A1F72091000112160CF472C08C
:101BE0008FEF80930001EBCF309397038093B9037D
:101BF000109298031092BA0302E0011778F4FE01E4
:101C0000E00FF11D61816795662767958081680FF8
:101C100088E195E00E94DA060E5FEFCF81E00E9436
:101C2000910583E191E00197F1F7C9CF9A814B814A
:101C30006630A1F430E8439FB0011124690F711D93
:101C40004D814795442747959C81490FDF91CF915E
:101C50001F910F91FF90EF900C94600C47954427D3
:101C60004795490F6FEF7FEFF1CFE0910001E7302B
:101C70001CF08BEA91E08FCF3A819B816630D9F4DA
:101C800060E8969FA0011124430F511D9D819795F7
:101C9000992797953C81930FEF5FE093000135E022
:101CA000E302F0011124EC5CFC4F808352834183FA
:101CB0009383248384CF979599279795930F4FEF1C
:101CC0005FEFEACF90E0622F022E000C770B35E039
:101CD000492F50E06417750764F0349FF001359F79
:101CE000F00D1124EC5CFC4F4081481719F09F5F08
:101CF000EFCF90E085E0492F50E0641775071CF1A5
:101D00009830F8F4FA0131968E9FD0018F9FB00D74
:101D10001124AC5CBC4F3C91849FF001859FF00D79
:101D20001124EC5CFC4F308311964D915C9112971D
:101D30005283418313963C911397338314963C91BD
:101D400034839F5FD8CF21502093000138CF623079
:101D500078F0898160E8869F900111248881820F44
:101D6000932F911D009721F09093950280939402F8
:101D70008091AF02811123CFC0E08EEE8C0F8230B4
:101D800028F466E070E08C2F0E94B70ACF5FC43160
:101D9000A1F781E08093AF021092D3021092D20299
:101DA000109298031092BA030E94520581E896E0BF
:101DB0009093F6028093F50282E896E09093FA02FF
:101DC0008093F902FCCE653008F4F9CE18818EEFCD
:101DD000810F823108F0F3CE0981EA80FB80CC814B
:101DE000E12FF0E0E856FD4F80818C30C0F490E0A8
:101DF000FC01EE0FFF1FE80FF91FE75BFA4FE081D0
:101E00008E2F90E0FC01EE0FFF1FE80FF91FEC5D35
:101E1000FA4F808186FF03C0812F0E94040A80E868
:101E2000C89FA00111244F0D511D90E8E99EB001FB
:101E30001124600F711D812F0E94430A64E070E03D
:101E4000812FDF91CF911F910F91FF90EF900C9414
:101E5000B70A623008F4B3CE8981E0E88E9F900122
:101E600011248881820F932F911D009729F0909360
:101E7000020180930101A3CE81E090E0F8CF6230AF
:101E800008F49DCE698170E0123091F08A81F0E80B
:101E90008F9FC0011124682B792B133049F08B815F
:101EA00090E090E4899F902D88271124682B792B4E
:101EB0008881DF91CF911F910F91FF90EF900C944B
:101EC000640880EF0E9401018CE60E940101CEEFC0
:101ED00084EF8C0F863020F582E00E9401018AE0B9
:101EE0000E9401018DEF8C0F8230E0F089EF8C0FA2
:101EF0008330F0F417C0C23158F780E00E9401012E
:101F000081E00E9401018BE00E94010181E00E94BA
:101F1000010181E00E94010181E00E940101D8CF0E
:101F2000C13001F783E00E94010188E00E940101B5
:101F3000C23130F484E00E9401018EE00E94010170
:101F400080EF8C0F823030F486E00E94010181E046
:101F50000E9401018FE70E940101CF5FC23159F653
:101F600087EFDF91CF911F910F91FF90EF900C942D
:101F70000101662309F423CEC88180EF0E9401018C
:101F80008EE60E9401018C2F0E940101C43140F7AE
:101F9000D0E0FE01E552FB4F80810E940101CC0F91
:101FA000DD1F8E0101511B4FF80180818F770E9448
:101FB0000101F801808191819C012078232B39F067
:101FC000880F892F881F990B8F770E940101C151BB
:101FD000DB4F888199819C012227307C232B09F4D7
:101FE000BFCF990F880B990F982F881F8F770E946A
:101FF0000101B6CF80EF0E9401018AE60E94010133
:10200000C2EF8FE7C63008F48C2F0E940101CF5F2A
:10201000C630B9F7A5CF1F920F920FB60F921124B9
:102020002F933F938F939F93AF93BF9380916303BD
:1020300090916403A0916503B091660330916203AF
:1020400023E0230F2D3758F50196A11DB11D2093D4
:1020500062038093630390936403A0936503B0933A
:1020600066038091670390916803A0916903B09122
:102070006A030196A11DB11D8093670390936803C5
:10208000A0936903B0936A03BF91AF919F918F9121
:102090003F912F910F900FBE0F901F90189526E83B
:1020A000230F0296A11DB11DD2CF1F920F920FB622
:1020B0000F9211242F933F934F935F936F937F93CE
:1020C0008F939F93AF93BF93EF93FF938BEB93E02B
:1020D0000E94D702FF91EF91BF91AF919F918F9195
:1020E0007F916F915F914F913F912F910F900FBE14
:1020F0000F901F9018951F920F920FB60F921124F8
:102100002F938F939F93EF93FF93E091CB03F091E5
:10211000CC038081E091D103F091D20382FD1BC0FA
:1021200090818091D4038F5F8F732091D5038217A4
:1021300041F0E091D403F0E0E554FC4F958F80939B
:10214000D403FF91EF919F918F912F910F900FBE2C
:102150000F901F9018958081F4CF1F920F920FB6A9
:102160000F9211240F900FBE0F901F9018951F9281
:102170000F920FB60F9211242F933F934F935F93BB
:102180006F937F938F939F93AF93BF93EF93FF933F
:102190008091B900887F803609F44AC0F0F5883212
:1021A00009F4A7C018F5803109F49BC0B8F488235E
:1021B00009F4F9C0883009F494C0FF91EF91BF9100
:1021C000AF919F918F917F916F915F914F913F91CF
:1021D0002F910F900FBE0F901F901895883109F422
:1021E00088C0803251F780938F0314C0803409F483
:1021F0009DC040F48033B9F38833F9F680938F03A0
:1022000085ECB0C0803509F485C0883509F496C0E6
:10221000883499F60E947F0AD0CF883909F48CC09F
:1022200038F5883729F050F4883611F0803729F6D0
:1022300083E08093910310921B0357C0883809F400
:102240007BC0803919F0803809F0B7CF80911B032B
:10225000803208F071C0E0911B0381E08E0F809303
:102260001B038091BB00F0E0E550FD4F80833DC033
:10227000803B39F0E0F4803A09F479C0883A09F0FB
:102280009CCF84E0809391031092F8021092F702A1
:10229000E091F502F091F60209958091F702811123
:1022A0000FC081E08093F7021092D50209C0803CF4
:1022B00009F4A6CF883C09F4A3CF883B09F07DCF71
:1022C000E091F80281E08E0F8093F802F0E0EB528B
:1022D000FD4F80818093BB009091F8028091F702BE
:1022E00029C080916C038093BB0085EC8093BC0077
:1022F00064CF90918E0380918D03981758F5E091EB
:102300008E0381E08E0F80938E03F0E0E359FC4F43
:102310008081E9CFE0918E0381E08E0F80938E0360
:102320008091BB00F0E0E359FC4F808390918E03D5
:1023300080918D039817C8F285E8D8CFE0918E037D
:1023400081E08E0F80938E038091BB00F0E0E35913
:10235000FC4F80838091900381115CCF81E080935A
:102360006B0384EA8093BC001092910326CF85EC26
:102370008093BC001092910380911B03803230F453
:10238000E0911B03F0E0E550FD4F108260911B03CC
:1023900070E0E091F902F091FA028BEF92E009957A
:1023A00010921B030ACF10928F0334CF1F920F920B
:1023B0000FB60F9211242F933F934F935F936F9318
:1023C0007F938F939F93AF93BF93CF93DF93EF93BD
:1023D000FF938091B102C0914805D0E087FF24C0EF
:1023E00010928500109284008091B1028F5F8093DB
:1023F000B1028091B102082E000C990B8C179D0739
:1024000024F48091B1028C30C4F1809184009091C9
:102410008500049680349C4908F47AC08091840039
:1024200090918500049676C08091B102082E000C30
:10243000990B8C179D07C4F6E091B1028E2FEE0F19
:10244000990BFC01EE0FFF1FE80FF91FEC5DFA4F2F
:10245000808186FFC9CFE091B1028E2FEE0F990BDC
:10246000FC01EE0FFF1FE80FF91FEC5DFA4F8081B2
:1024700060E08F730E945D01B7CF2091840030919E
:102480008500E091B1028E2FEE0F990BFC01EE0F4B
:10249000FF1FE80FF91FEC5DFA4F81819281820FD7
:1024A000931F9093890080938800E091B1028E2F52
:1024B000EE0F990BFC01EE0FFF1FE80FF91FEC5D0B
:1024C000FA4F808186FF11C0E091B1028E2FEE0F8E
:1024D000990BFC01EE0FFF1FE80FF91FEC5DFA4F9F
:1024E000808161E08F730E945D01FF91EF91DF9128
:1024F000CF91BF91AF919F918F917F916F915F919C
:102500004F913F912F910F900FBE0F901F901895F4
:1025100080E49CE990938900809388008FEF8093FA
:10252000B102E3CF1092BE031092BD0348EE53E018
:1025300060E070E04093BF035093C0036093C10319
:102540007093C2038DE091E09093BC038093BB0332
:1025500085EC90E09093C8038093C70384EC90E0EF
:102560009093CA038093C90380EC90E09093CC03CE
:102570008093CB0381EC90E09093CE038093CD03C6
:1025800082EC90E09093D0038093CF0386EC90E0B0
:102590009093D2038093D1031092D4031092D50369
:1025A0001092D6031092D70388E594E01092990414
:1025B0001092980490939C0480939B0420E430E054
:1025C00030939E0420939D0410929F041092A004C7
:1025D0001092A2041092A1041092A3041092A504D8
:1025E0001092A4041092A7041092A6041092A904B9
:1025F0001092A8041092AB041092AA041092AD0499
:102600001092AC041092AF041092AE041092B10478
:102610001092B0041092B7041092B6041092B9044C
:102620001092B8041092BB041092BA041092BD0428
:102630001092BC041092CB041092CA0410929A0417
:102640001092D8041092DA041092D904109217054F
:1026500027E830E03093BF042093BE0421E930E046
:102660003093C1042093C0042BE930E03093C304BD
:102670002093C20425EA30E03093C5042093C404BB
:102680002FEA30E03093C7042093C60429EB30E0F2
:102690003093C9042093C80423EC30E03093CD0478
:1026A0002093CC0424EC30E03093CF042093CE046C
:1026B00026E235E03093D1042093D0049093B30404
:1026C0008093B20422E532E03093D3042093D20405
:1026D0009093B5048093B4048FEC90E09093D5046C
:1026E0008093D40410921B0510921A0540931C0588
:1026F00050931D0560931E0570931F058FE191E0B7
:102700009093190580931805E9E4F5E02FEF48EB65
:102710005BE0809148058C30B8F491E0980F90937D
:102720004805808390E0DC01AA0FBB1FA80FB91FEA
:10273000AC5DBA4F12965C934E931197339685E039
:10274000ED36F80731F708952083F8CF789484B5F3
:10275000826084BD84B5816084BD85B5826085BD9D
:1027600085B5816085BD80916E00816080936E002B
:10277000109281008091810082608093810080911D
:1027800081008160809381008091800081608093CE
:1027900080008091B10084608093B1008091B0008E
:1027A00081608093B00080917A00846080937A0089
:1027B00080917A00826080937A0080917A008160B3
:1027C00080937A0080917A00806880937A001092DA
:1027D000C10085E18093D8048091D9049091DA04F6
:1027E0000E948818C091D804D0E0CE0101960E94C2
:1027F000EC179093DA048093D904FC01EC0FFD1FD1
:10280000108212E0DC011C9325E011962C93AE019E
:102810004250510964E372E002960E94111984E665
:1028200098E0909329038093280388EB97E0909396
:102830002703809326038BE897E0909325038093EA
:10284000240389ED99E0909323038093220387EB7F
:102850009AE0909321038093200382E899E090937B
:102860001F0380931E0382EA9DE090932B038093C5
:102870002A0386E19CE090932D0380932C03E09142
:10288000CB03F091CC031083E091CB03F091CC0308
:102890001082E091C703F091C8031082E091C90350
:1028A000F091CA0380E180831092D303E091CF03BB
:1028B000F091D00386E08083E091CD03F091CE03C8
:1028C000808180618083E091CD03F091CE0380818F
:1028D00088608083E091CD03F091CE038081806891
:1028E0008083E091CD03F091CE0380818F7D808342
:1028F0008091170581114FC061E08DE00E94A90110
:1029000062ED70E080E090E00E941F0261E08DE0E7
:102910000E945D0168E270E080E090E00E941F028A
:1029200060E08DE00E945D0162ED70E080E090E08B
:102930000E941F0261E08DE00E945D0168E270E08C
:1029400080E090E00E941F0260E08DE00E945D0147
:102950006AEF70E080E090E00E941F02C5E062ED47
:1029600070E080E090E00E941F0261E08DE00E9434
:102970005D0168E270E080E090E00E941F0260E08C
:102980008DE00E945D01C15051F76DE770E080E07D
:1029900090E00E941F028BEB93E09093D70480930A
:1029A000D604909399048093980488E994E00E9457
:1029B000D70088E594E00E94B2040E94160C25E03E
:1029C000D22EC0E0D0E0CC24C39402E010E0EE248C
:1029D000E394F12C80913103882349F069B180910F
:1029E0002E0368236C7F40E080E00E94970980916D
:1029F0003203882379F063B186B16F73B0E48B9FA3
:102A0000C0011124682B80912F03682340E081E0EE
:102A10000E94970980913303882359F066B1809111
:102A200030038F7066956695682340E082E00E94CF
:102A300097098091D6049091D704DC01ED91FC9127
:102A40000084F185E02D0995892B09F4CEC1809190
:102A5000D6049091D704DC01ED91FC910284F385BA
:102A6000E02D09959C018F3F980719F3982F8091CD
:102A7000A304882309F492C0973F09F07EC0109206
:102A8000A304A0919B04B0919C046C916137C1F1A7
:102A9000693709F05CC0E091D004F091D10430971F
:102AA00041F28091A4049091A5048330910560F4D3
:102AB00030E020E050E040E070E060E08091B2045F
:102AC0009091B3040995B5CFBD016D5F7F4F03971A
:102AD0000E943E01BC016D5F7F4F80E00E940E01AD
:102AE000E0919B04F0919C049F012D5F3F4F428138
:102AF00050E0618170E0E091D004F091D104DECF2C
:102B00008091CC049091CD04892B09F492CFBD0122
:102B10006F5F7F4F8091A4049091A50401970E945C
:102B20003E01BC016F5F7F4F80E00E940E0160910B
:102B30009B0470919C046F5F7F4FE091CC04F091F7
:102B4000CD048091B8049091B904099572CFE091B9
:102B5000CE04F091CF04309709F46BCF9D012F5F25
:102B60003F4F4091A4045091A504415051098091D8
:102B7000BA049091BB0409955CCF6091A404709154
:102B8000A504822F0E940E018091A4049091A504B7
:102B900001969093A5048093A4044BCF6091A10467
:102BA0007091A2046115710509F4B1C027FDAFC091
:102BB000615071097093A2046093A104822F0E9456
:102BC0000E018091A1049091A204892B09F031CFCC
:102BD00080919F04882309F42CCF803D09F483C0A1
:102BE00040F4803949F1803C09F469C010929F0497
:102BF00020CF843FE1F1853F09F44DC0803EB1F71D
:102C0000E091BE04F091BF04309781F3A0919B0442
:102C1000B0919C044C9120E8429FC0011124119670
:102C20004C91480F592F511D6091A0048091A6042A
:102C30009091A7040995DACFE091C004F091C10406
:102C40003097A1F2A0919B04B0919C044C9120E894
:102C5000429FC001112411964C91480F592F511DCC
:102C60006091A0048091A8049091A904E3CFE09121
:102C7000C604F091C704309709F4B8CFA0919B0423
:102C8000B0919C044C9150E011966C918091AE04EF
:102C90009091AF04CFCFE091C804F091C904309770
:102CA00009F4A4CFA0919B04B0919C044C9150E0F6
:102CB00011966C918091B0049091B104BBCFE091DA
:102CC000C204F091C304309709F490CFA0919B0403
:102CD000B0919C044C9150E06091A0048091AA04B2
:102CE0009091AB04A7CFE091C404F091C504309754
:102CF00009F47CCFA0919B04B0919C044C9150E0CE
:102D00006091A0048091AC049091AD0493CF903F6A
:102D100030F4822F8F708093A004922F907F903F89
:102D2000F1F190F4903CB1F150F4903909F081CE7A
:102D30001093A2040093A10490939F047ACE903D37
:102D400049F1903EA9F375CE993F09F442C028F4A9
:102D50008CE0890F823060F36CCE9F3F09F069CE22
:102D60001092A2041092A10410929F041092A00449
:102D700090E080E020919D0430919E04821793079B
:102D8000A8F4E0919B04F0919C04E80FF91F1082D5
:102D90000196F0CFF092A204E092A104CDCFC092B0
:102DA000A3041092A5041092A40443CE1092A3048D
:102DB0001092A5041092A404E091D404F091D504DB
:102DC0008091BC049091BD04309709F432CE0995EE
:102DD00030CEE091D204F091D304309709F429CE9B
:102DE0008091B4049091B504F2CF8FB7F89480909D
:102DF000630390906403A0906503B09066038FBF57
:102E000080915E0390915F03A0916003B091610394
:102E1000409101015091020170E060E0881A990A26
:102E2000AA0ABB0A481559056A057B0508F054C073
:102E3000840F951FA61FB71F80935E0390935F03B7
:102E4000A0936003B093610388E5882E84E0982EF8
:102E500092EFB92E85E08B15C8F0F401ED57FF4FC6
:102E60008081823099F480915C0390915D030B2CFA
:102E700002C0959587950A94E2F780FF07C08B2DD5
:102E80000E94E501BC018B2D0E940504B394AFEFB5
:102E90008A1A9A0AB6E0BB12DDCF8091000187FD45
:102EA0001BC0B12C2B2D30E080910001082E000CAE
:102EB000990B8217930784F0D29EF001D39EF00DF8
:102EC0001124EC5CFC4F61817281248143818081FB
:102ED0000E94600CB394E6CF209709F47BCD0E944A
:102EE000C302882309F476CD0E94000073CD052E1D
:102EF00097FB1EF400940E948E1757FD07D00E9486
:102F0000A91707FC03D04EF40C948E1750954095EA
:102F1000309521953F4F4F4F5F4F08959095809585
:102F2000709561957F4F8F4F9F4F08950E94CB17EB
:102F3000A59F900DB49F900DA49F800D911D11240D
:102F40000895B7FF0C9496170E949617821B930B57
:102F50000895A1E21A2EAA1BBB1BFD010DC0AA1FDA
:102F6000BB1FEE1FFF1FA217B307E407F50720F0F2
:102F7000A21BB30BE40BF50B661F771F881F991F6D
:102F80001A9469F760957095809590959B01AC01B6
:102F9000BD01CF010895A29FB001B39FC001A39FBF
:102FA000700D811D1124911DB29F700D811D112482
:102FB000911D0895991B79E004C0991F961708F098
:102FC000961B881F7A95C9F780950895EE0FFF1F0D
:102FD0000590F491E02D09940F931F93CF93DF9305
:102FE0008230910510F482E090E0E0916F05F0915D
:102FF000700530E020E0B0E0A0E0309799F42115B2
:10300000310509F44AC0281B390B24303105D8F5A5
:103010008A819B816115710589F1FB01938382830C
:10302000FE0111C040815181028113814817590767
:10303000E0F04817590799F4109761F012960C9335
:10304000129713961C933296CF01DF91CF911F9167
:103050000F91089500936F0510937005F4CF21151B
:10306000310551F04217530738F0A901DB019A01ED
:10307000BD01DF01F801C1CFEF01F9CF90937005D9
:1030800080936F05CDCFFE01E20FF31F81939193E3
:103090002250310939832883D7CF20916D05309193
:1030A0006E05232B41F420910501309106013093E8
:1030B0006E0520936D0520910301309104012115C7
:1030C000310541F42DB73EB74091070150910801F9
:1030D000241B350BE0916D05F0916E05E217F307A7
:1030E000A0F42E1B3F0B2817390778F0AC014E5F78
:1030F0005F4F2417350748F04E0F5F1F50936E0542
:1031000040936D05819391939FCFF0E0E0E09CCFD9
:10311000CF93DF930097E9F0FC013297138212827C
:10312000A0916F05B0917005ED0130E020E010979F
:10313000A1F420813181820F931F20916D05309180
:103140006E052817390709F061C0F0936E05E0930A
:103150006D05DF91CF910895EA01CE17DF07E8F5FD
:103160004A815B819E0141155105B1F7E901FB835D
:10317000EA8349915991C40FD51FEC17FD0761F4FB
:10318000808191810296840F951FE901998388833C
:10319000828193819B838A83F0E0E0E012968D9197
:1031A0009C9113970097B9F52D913C911197CD0102
:1031B0000296820F931F20916D0530916E0528179E
:1031C000390739F6309751F51092700510926F0556
:1031D000B0936E05A0936D05BCCFD383C2834081AD
:1031E0005181840F951FC817D90761F44E5F5F4F57
:1031F00088819981480F591F518340838A819B811F
:10320000938382832115310509F0B0CFF0937005C7
:10321000E0936F059ECFFD01DC01C0CF13821282C7
:10322000D7CFFB01DC014150504048F001900D9296
:103230000020C9F701C01D9241505040E0F70895A9
:04324000F894FFCF30
:10324400FF130000007105800000000000F902591E
:103254000286024603B7029502A90200000000DAC2
:1032640006AD0609078306A606930684064D617813
:1032740020736572766F732061747461636865642A
:1032840000556E6B6E6F776E2070696E206D6F6483
:1032940065004932433A20546F6F206D616E792086
:1032A4006279746573207265636569766564004943
:1032B40032433A20546F6F206665772062797465D3
:1032C400732072656365697665640031302D6269C7
:1032D400742061646472657373696E67206E6F74C1
:1032E40020737570706F7274656400746F6F206DF5
:1032F400616E792071756572696573002F707269EA
:10330400766174652F7661722F666F6C6465727373
:103314002F735F2F5F627763796C6E6A355F675FC7
:10332400796B31706B353336687A397730303030B9
:10333400676E2F542F2E61726475696E6F49444510
:103344002D756E73617665643230323431313139C2
:103354002D35343339392D636D713133722E363452
:103364006B77752F5374616E646172644669726D14
:103374006174612F5374616E646172644669726D25
:083384006174612E696E6F0097
:00000001FF
