:100000000C94A1010C94D2010C94D2010C94D20155
:100010000C94D2010C94D2010C94D2010C94D20114
:100020000C94D2010C9494180C9494180C94941879
:100030000C94D2010C94D2010C94D2010C94D201F4
:100040000C94D2010C944C1A0C94D2010C94D20151
:100050000C94D2010C94D2010C94D2010C94FA1697
:100060000C94D2010C946A180C9440180C94D20190
:100070000C94D2010C94D2010C94D2010C94D201B4
:100080000C941E1A0C94D2010C94D2010C94D2013F
:100090000C9416180C94EC170C94D2010C949E1826
:1000A0000C94D2010C94D2010C94F0190C94D2014E
:1000B0000C94D2010C94D2010C94D2010C94C2196C
:1000C0000C94D2010C94D2010C94D2010C94C2175E
:1000D0000C9498170C94D2010C946E170C9444173E
:1000E0000C94D2010C9497040C94C80D0C94D90C68
:1000F0000C944F110C94D4010C9489040C94C708EF
:100100000C94ED040C949D100C94DE010C94660488
:100110000C9409030C94FF020C944D0D0C941904DB
:100120000C949B080C9408030C94DD020C94E702D9
:100130000C94D2020C9406020C94E80C0C94200D42
:100140000C94F2010C9410020C9443110C941A0BB1
:100150000C9403030C949D080C942A0D0C94DB1052
:100160000C94160D0C94E8010C9420040C94FC0CD7
:100170000C94F1020C94E3020C94AD080C94700DF5
:100180000C94040D0C94F20C0C943A050C94230975
:100190000C940C0D0C94390D0C94DB110C94AE10D6
:1001A0000C94E50B0C9402100C94C8020C940C11E6
:1001B0000C9411020C94430D0C94ED020C94F2106B
:1001C0000C9440070C94D40C0C946B0D0C94D60238
:1001D0000C949E080C94DE0C0C94ED0A0C945E11A9
:1001E0000C94BA100C94570D0C947A1A0C949C0829
:1001F0000C94DA020C94610D0C94FB020C940D0328
:100200000C94FC010C941C020C9475040C94F502E3
:100210000C94C0080C94C6100C94CE020C94F408F4
:1002200000002100240027002A002D0030003300A8
:1002300001010000040107010A010000220025005D
:1002400028002B002E0031003400020100000501BF
:1002500008010B01000020002300260029002C00CB
:100260002F0032000001000003010601090105050D
:100270000505070508080808020202020A0A08081C
:10028000040404040101010101010101030303034A
:1002900003030303040707070C0C0C0C0C0C0C0CD9
:1002A0000202020206060606060606060B0B0B0BEA
:1002B0000B0B0B0B0102102020080810204010200F
:1002C000408002010201080402010102040810201A
:1002D0004080804020100804020180040201804018
:1002E0002010080402010804020101020408102081
:1002F0004080010204081020408000000A0B02091F
:100300000C0D0E08070304010000000000000000AF
:1003100000000000000000000000000000000000DD
:10032000000000000000121110000000000000009A
:1003300000000000000000000000000000000000BD
:100340007A1A11241FBECFEFD1E2DEBFCDBF00E08D
:100350000CBF13E0A0E0B2E0ECE0F9E400E00BBF7A
:1003600002C007900D92A232B107D9F72AE0A2E2AB
:10037000B3E001C01D92A636B207E1F711E0C1EA71
:10038000D1E000E006C021970109802FFE010E9404
:100390002623C03AD10780E00807A9F70E944E1C27
:1003A0000C9484240C940000862FE0918404F09136
:1003B0008504309711F0BA0119940895862FE091C1
:1003C0008204F0918304309711F0BA0119940895D2
:1003D000862FE0918004F0918104309711F0BA01EA
:1003E00019940895862FE0917E04F0917F04309750
:1003F00011F0BA0119940895862FE0917C04F091D0
:100400007D04309711F0BA0119940895862FE09178
:100410007A04F0917B04309711F0BA011994089591
:100420000895862F642FE0918604F0918704309719
:1004300011F0A90119940895E0918804F0918904BC
:10044000309709F019940895CF93DF93FC01A081B0
:10045000B181109701F1EC01ED91FC9111970190A0
:10046000F081E02D69EFCD01199588819981DC013A
:10047000ED91FC910190F081E02D62E01995888169
:100480009981DC01ED91FC910190F081E02D65E016
:10049000DF91CF911994DF91CF910895A091150824
:1004A000B0911608ED91FC9111970190F081E02D2B
:1004B000682FCD0119941F93CF93DF93182FEB0171
:1004C0008091DC079091DD076817790760F48091CF
:1004D000DA079091DB07C80FD91F188380E0DF91FE
:1004E000CF911F910895E0910908F0910A08309783
:1004F00011F481E0F4CF81E08093D9078091F50772
:100500009091F60719958091DC079091DD07C81747
:10051000D90778F7DCCFCF93DF93EC01FB0130E014
:1005200020E0C901880F991F8C179D0778F440813E
:10053000DB014D93BD01119791819795992797956F
:10054000942B9C932F5F3F4F3296EBCFC901DF91E5
:10055000CF9108958150823108F05AC0E82FF0E021
:100560008827EA54FD4F8F4F0C942623D602DA02D7
:10057000C802CE02D2020803DD02E302E702ED0266
:10058000F102F502FB02FF020803030309030D0356
:10059000809180008F778093800008958091800003
:1005A0008F7DF9CF80918000877FF5CF84B58F77DD
:1005B00084BD089584B58F7DFBCF8091B0008F7787
:1005C0008093B00008958091B0008F7DF9CF809125
:1005D00090008F77809390000895809190008F7D98
:1005E000F9CF80919000877FF5CF8091A0008F7721
:1005F0008093A00008958091A0008F7DF9CF809115
:10060000A000877FF5CF809120018F778093200114
:100610000895809120018F7DF9CF80912001877FFF
:10062000F5CFCF93DF93282F30E0F901E650FD4F4F
:100630008491F901EC54FD4FD491F901E259FD4F39
:10064000C491CC23A1F081110E94AA02EC2FF0E00A
:10065000EE0FFF1FEC5AFD4FA591B491EC91ED23E5
:1006600081E090E009F480E0DF91CF91089580E08F
:1006700090E0FACF1F93CF93DF93282F30E0F9015A
:10068000E650FD4F8491F901EC54FD4FD491F901EE
:10069000E259FD4FC491CC23A9F0162F81110E947D
:1006A000AA02EC2FF0E0EE0FFF1FE65CFD4FA591D4
:1006B000B4918FB7F894EC91111108C0D095DE2356
:1006C000DC938FBFDF91CF911F910895DE2BF8CF80
:1006D000CF93DF9390E0FC01EC54FD4F24918259BD
:1006E0009D4FFC0184918823C9F090E0880F991FE9
:1006F000FC01E05EFD4FA591B491FC01E65CFD4F6D
:10070000C591D49161110DC09FB7F8948C9120953B
:1007100082238C938881282328839FBFDF91CF91E8
:100720000895623051F49FB7F8943C91822F8095E0
:1007300083238C93E8812E2BEFCF8FB7F894EC9125
:100740002E2B2C938FBFEACF863308F0865320914F
:100750007B00982F9870277F922B90937B00877057
:10076000806480937C0080917A00806480937A001A
:1007700080917A0086FDFCCF80917800909179007D
:1007800008953FB7F8948091CF049091D004A09140
:10079000D104B091D20426B5A89B05C02F3F19F013
:1007A0000196A11DB11D3FBFBA2FA92F982F8827F1
:1007B000BC01CD01620F711D811D911D42E0660FCC
:1007C000771F881F991F4A95D1F708958F929F929E
:1007D000AF92BF92CF92DF92EF92FF926B017C01BA
:1007E0000E94C1034B015C01C114D104E104F10476
:1007F000B9F00E94C103681979098A099B09683E0A
:1008000073408105910580F321E0C21AD108E10807
:10081000F10888EE880E83E0981EA11CB11CE4CF7D
:10082000FF90EF90DF90CF90BF90AF909F908F9010
:100830000895009721F0805C9F4F0C942402089546
:10084000AF92BF92CF92DF92EF92FF920F931F93DE
:10085000CF93DF936C017B018B01040F151FEB011C
:100860005E01AE18BF08C017D10759F06991D601D3
:10087000ED91FC910190F081E02DC6011995892B35
:1008800079F7C501DF91CF911F910F91FF90EF9004
:10089000DF90CF90BF90AF900895FC01A089B189FF
:1008A0008C91A689B78982FD0FC09C91818D8F5F45
:1008B0008F73228D821749F0A18DAE0FBF2FB11D0E
:1008C0005D969C93818F08958C910895FC01538DC2
:1008D000448D252F30E0842F90E0821B930B54171A
:1008E00010F0CF96089501970895FC01918D828DA7
:1008F000981761F0A28DAE0FBF2FB11D5D968C9140
:10090000928D9F5F9F73928F90E008958FEF9FEF7E
:100910000895FC01918D828D981731F0828DE80F3A
:10092000F11D858D90E008958FEF9FEF0895FC01F4
:10093000918D228D892F90E0805C9F4F821B9109C1
:100940008F739927089583E295E00E94970421E030
:10095000892B09F420E0822F089580EC95E00E9415
:10096000970421E0892B09F420E0822F08958DE57A
:1009700096E00E94970421E0892B09F420E0822F61
:1009800008958AEF96E00E94970421E0892B09F4EC
:1009900020E0822F0895FC01A48DA80FB92FB11D6E
:1009A000A35ABF4F2C91848D90E001968F739927A5
:1009B000848FA689B7892C93A089B1898C91837083
:1009C00080648C93938D848D981306C00288F3897C
:1009D000E02D80818F7D80830895EF92FF920F93A9
:1009E0001F93CF93DF93EC0181E0888F9B8D8C8DDB
:1009F00098131AC0E889F989808185FF15C09FB7CF
:100A0000F894EE89FF896083E889F9898081837091
:100A1000806480839FBF81E090E0DF91CF911F9140
:100A20000F91FF90EF900895F62E0B8D10E00F5F61
:100A30001F4F0F731127E02E8C8D8E110CC00FB637
:100A400007FCFACFE889F989808185FFF5CFCE01CF
:100A50000E94CB04F1CFEB8DEC0FFD2FF11DE35A7B
:100A6000FF4FF0829FB7F8940B8FEA89FB89808152
:100A70008062CFCFCF93DF93EC01888D8823B9F0CC
:100A8000AA89BB89E889F9898C9185FD03C0808199
:100A900086FD0DC00FB607FCF7CF8C9185FFF2CF16
:100AA000808185FFEDCFCE010E94CB04E9CFDF919D
:100AB000CF91089580E090E0892B29F00E94C10435
:100AC00081110E94000080E090E0892B29F00E94B3
:100AD000B70481110E94000080E090E0892B29F08A
:100AE0000E94AD0481110E94000080E090E0892BFB
:100AF00029F00E94A30481110C94000008955F92D4
:100B00006F927F928F929F92AF92BF92CF92DF921D
:100B1000EF92FF920F931F93CF93DF935C016901D4
:100B2000DA015C90232B19F4CC24CA94DC2C8A01C2
:100B30003A01660E771ED0E0C0E0F12CE12C87E090
:100B4000882E912CF50180819181D8016C910C2E19
:100B500001C0660F0A94EAF765296F77DC01ED9111
:100B6000FC910190F081E02D1995BFEFEB1AFB0A83
:100B7000F801608170E0C4018C1B9D0B02C075956B
:100B800067958A95E2F7562E2196C730D10558F120
:100B9000CE14DF0441F1D5018D919C91652D6F77C5
:100BA000DC01ED91FC910190F081E02D1995BFEFF2
:100BB000EB1AFB0A551C5524551C2797E6CFEC145D
:100BC000FD0408F4BFCFDF91CF911F910F91FF90EB
:100BD000EF90DF90CF90BF90AF909F908F907F90DD
:100BE0006F905F9008950F5F1F4F6016710639F781
:100BF000209749F3EC14FD0430F7F50180819181D1
:100C000061E070E001C0660FCA95EAF761506521A6
:100C1000DC01ED91FC910190F081E02DDF91CF910D
:100C20001F910F91FF90EF90DF90CF90BF90AF900A
:100C30009F908F907F906F905F9019941F93CF93A8
:100C4000DF931F921F92CDB7DEB7182F7A83698387
:100C50008091D7079091D8070097C9F0DC01ED91FA
:100C6000FC910190F081E02D1031B8F461157044D1
:100C7000A0F4612F606E199522E030E0AE014F5F65
:100C80005F4F62E070E087ED97E00E947F050F9074
:100C90000F90DF91CF911F91089560EF199580918A
:100CA000D7079091D807DC01ED91FC910190F0817C
:100CB000E02D6FE619958091D7079091D807DC0158
:100CC000ED91FC910190F081E02D612F199522E0CA
:100CD00030E0AE014F5F5F4F62E070E087ED97E07C
:100CE0000E947F058091D7079091D807DC01ED9194
:100CF000FC910190F081E02D67EF1995C8CFEF923C
:100D0000FF920F931F93CF93DF93C82F8091D70744
:100D10009091D8070097C9F17A018B01DC01ED9120
:100D2000FC910190F081E02D60EF19958091D7073B
:100D30009091D807DC01ED91FC910190F081E02DBC
:100D40006C2F1995E7010E0D1F1DC017D10759F023
:100D500030E020E0AE0161E070E087ED97E00E94B6
:100D60007F052196F2CF8091D7079091D807DC01BB
:100D7000ED91FC910190F081E02D67EFDF91CF9133
:100D80001F910F91FF90EF901994DF91CF911F91D8
:100D90000F91FF90EF900895CF92DF92EF92FF9224
:100DA0000F931F93CF93DF93FC01E058FF4FE08038
:100DB000EE2009F45CC0EC01C05CDF4FA881B98172
:100DC000109709F454C0FC01EF57FF4FC080D18049
:100DD000F60111810081ED91FC9111970190F08154
:100DE000E02D60EFCD01199588819981DC01ED91AD
:100DF000FC910190F081E02D69E719958881998136
:100E0000DC01ED91FC910190F081E02D602F1995AE
:100E100088819981DC01ED91FC910190F081E02DB8
:100E2000612F1995F12C01E010E00F5F1F4FE016C4
:100E3000F10659F030E020E0A601400F511F61E0BB
:100E400070E0CE010E947F05F0CF88819981DC019E
:100E5000ED91FC910190F081E02D67EFDF91CF9152
:100E60001F910F91FF90EF90DF90CF901994DF9139
:100E7000CF911F910F91FF90EF90DF90CF90089549
:100E8000009711F00C94CC06089520915304260F7E
:100E90003327331F21323105ECF42091F904FC0192
:100EA00090E080E0243069F082E00895A09153043E
:100EB0002191AC014F5C5B4FA40FB52FB11D2C935A
:100EC0000196861798F380915304680F609353043A
:100ED00080E0089581E008951092F90481E0809304
:100EE000F8041092D30461E084E10E943A0361E0C7
:100EF00085E10E943A03E9EBF0E080818E7F8083F8
:100F000080818D7F808388E48093B80085E480931E
:100F1000BC000895CF93DF9391E090933004882331
:100F2000B9F0C091B800D091BA008091BC008A7B22
:100F30008093BC0060E084E10E943A0360E085E1B8
:100F40000E943A030E946C07D093BA00C093B80085
:100F5000DF91CF9108958F929F92AF92BF92CF92DF
:100F6000DF92EF92FF920F931F93CF93DF93D09175
:100F70002205D13208F0D7C0182FC09121050E9458
:100F8000C1036B017C018091F90481116BC082E087
:100F90008093F9041093F8048FEF8093F704109274
:100FA000F604D093F504A1E0B5E0E5EDF4E080E0CF
:100FB000D81391C01092D4048091D404CC0FC82BC4
:100FC000C093D4048091D304813009F088C010927A
:100FD000D3040E94C1036B017C018091D4048093EF
:100FE000BB008091FB049091FC04A091FD04B091A2
:100FF000FE04892B8A2B8B2BA1F00E94C103009148
:10100000FB041091FC042091FD043091FE046C1946
:101010007D098E099F09061717072807390708F465
:1010200042C08091BC0083FDD8CF85EC8093BC008A
:101030000E94C1036B017C018091F904823009F4A4
:1010400050C08091F7048F3F09F46FC08091F7047E
:10105000803209F46CC08091F704803309F469C0D0
:1010600084E026C08091FB049091FC04A091FD04D3
:10107000B091FE04892B8A2B8B2B09F484CF0E941C
:10108000C1038090FB049090FC04A090FD04B090FC
:10109000FE046C197D098E099F0986169706A8061D
:1010A000B90608F070CF8091FA040E948A0785E0A3
:1010B00010920005109222051092FF04DF91CF914B
:1010C0001F910F91FF90EF90DF90CF90BF90AF9066
:1010D0009F908F9008959D9191938F5F69CF85EE3A
:1010E000A5CF8091FB049091FC04A091FD04B091E8
:1010F000FE04892B8A2B8B2B09F49ECF0E94C103FF
:101100000091FB041091FC042091FD043091FE0439
:101110006C197D098E099F090617170728073907DB
:1011200008F08ACFC0CF81E0C3CF80E0C1CF82E09A
:10113000BFCF83E0BDCF089508950895E0912F04B7
:1011400080912E04E81730F4F0E0E25FFB4F8081DD
:1011500090E008958FEF9FEF089590912F04809174
:101160002E042FEF3FEF981748F4E92FF0E0E25FED
:10117000FB4F208130E09F5F90932F04C9010895B9
:1011800080912E0490912F04891B990B0895CF9282
:10119000DF92EF92FF920F931F93CF93DF937C0127
:1011A000CB018A012091FF04222389F0EB016B011E
:1011B000C40ED51ECC15DD0569F06991D701ED91FE
:1011C000FC910190F081E02DC7011995F3CF642FB8
:1011D0000E944507C801DF91CF911F910F91FF90A9
:1011E000EF90DF90CF900895CF93DF931F92CDB70C
:1011F000DEB769832091FF042223F9F020912205B4
:10120000203258F021E030E0FC013383228390E06B
:1012100080E00F90DF91CF91089580910005E82F35
:10122000F0E0EF5FFA4F998190838F5F8093000524
:101230008093220581E090E0ECCF61E0CE01019641
:101240000E944507F7CF90E080E00895DF92EF928B
:10125000FF920F931F93CF93DF93EC01D62E7A0169
:1012600089018881803308F067C061E08D2D0E947C
:1012700068038881282F30E0F901EE0FFF1FE20F8D
:10128000F31FEF5BF64F9D2D9F736081607C692B90
:10129000608320E232E02E193F0937FF02C02D5F44
:1012A0003F4F3595279535952795298320E639E0D9
:1012B000201B310B37FF02C02D5F3F4F359527951F
:1012C000359527952A832CE0622F0E941A23829F4E
:1012D000B001112430E020E0AB01420F531FFA01AE
:1012E000EE0FFF1FE40FF51FEF5BF64F908196FDA9
:1012F00016C02F5F3F4F2C30310571F7813029F533
:101300001092800082E080938100109285001092FC
:101310008400B19A80916F00826080936F00E881B1
:101320008E2F90E0FC01EE0FFF1FE80FF91FEF5B1F
:10133000F64F8081806480838881DF91CF911F91F7
:101340000F91FF90EF90DF900895823061F410923A
:10135000900080939100109295001092940088BBA9
:1013600080937100DCCF833069F41092A00082E09A
:101370008093A1001092A5001092A40089BB8093D5
:101380007200CDCF8111CBCF1092200182E08093EB
:10139000210110922501109224018ABB80937300D1
:1013A000BECFAF92BF92CF92DF92EF92FF920F9398
:1013B0001F93CF93DF936B017A01EC01C65FDB4F84
:1013C00028813CE0389F8001399F100D1124A090A6
:1013D000D109B12C27FF1FC0FB0111821082888127
:1013E0008F5F888388819801280F311D87FD3A958A
:1013F000F6012A153B051CF488818C30C4F18081EC
:101400009181049680349C4908F473C0F601808170
:101410009181049670C088819801280F311D87FD45
:101420003A952A153B05DCF68881A801480F511D25
:1014300087FD5A95FA01EE0FFF1FE40FF51FEF5BD2
:10144000F64F808186FFCBCF8881F801E80FF11D30
:1014500087FDFA95CF01EE0FFF1FE80FF91FEF5B35
:10146000F64F808160E08F730E943A03B8CF80818D
:1014700091812881A801420F511D27FD5A959A019B
:10148000FA01EE0FFF1FE20FF31FEF5BF64F218112
:101490003281820F931FF7019183808388819801A5
:1014A000280F311D87FD3A95F901EE0FFF1FE20F5E
:1014B000F31FEF5BF64F808186FF22C08881080F03
:1014C000111D87FD1A95F801EE0FFF1FE00FF11FA8
:1014D000EF5BF64F808161E08F73DF91CF911F91B9
:1014E0000F91FF90EF90DF90CF90BF90AF900C9452
:1014F0003A0380E49CE9F701918380838FEF88832E
:10150000DF91CF911F910F91FF90EF90DF90CF90DF
:10151000BF90AF900895209108043091090482177C
:101520009307F8F49C01220F331F280F391F809175
:10153000060490910704E0910504820F931FE80FC1
:10154000F92FF11D6083E0910404E80FF92FF11DDC
:10155000508320910304820F911DFC01408380E0A1
:10156000089581E0089510920204109209041092E7
:101570000804E2EFF3E0AAEEB3E0119211921D929B
:1015800084E0E230F807C9F70895DC0170E0FB0160
:10159000EC54FD4FE4911896EC93189762597D4FE7
:1015A000FB018491E82FF0E0EE0FFF1FE65CFD4F9A
:1015B0008591949115969C938E931497FB01649159
:1015C000E62FF0E0EE0FFF1FE05EFD4F8591949156
:1015D00017969C938E9316970895CF938031B0F40D
:1015E00021E030E0082E02C0220F331F0A94E2F7F8
:1015F0004091C4045091C504672B51F42095309557
:10160000242335233093C5042093C404CF91089537
:10161000242B352B3093C5042093C4049091E90307
:101620009111F4CFC82F0E94A403BC018C2FCF913D
:101630000C941E064F925F926F927F928F929F92B0
:10164000AF92BF92CF92DF92EF92FF920F931F93D0
:10165000CF93DF93893008F0A7C08F5FC82FCC0FDE
:10166000CC0FCC0F4C2EC73410F056E4452ED62F9D
:1016700038EF532E5C0E852C912CC401880F991FD6
:101680009C012956384F5901052DD12CC12C10E051
:10169000772473940415C8F58EEF800F8434F8F422
:1016A000F601E80DF91DE65EF74F90819230B8F42F
:1016B000872D8D2366246394811101C0612C7601EE
:1016C000EE0CFF1C913089F4172939ECE30EF11C64
:1016D000F501EE0DFF1D862D90E091838083770C40
:1016E0000F5F8FEFC81AD80AD5CF882371F3F7019F
:1016F000E753FF4FEA0DFB1D80819181019729F38C
:1017000062E0802F0E946803E0CF10FF05C06D2FBC
:101710006170852D0E943A0311FF06C06D2F627023
:1017200089EF8C0F0E943A0312FF06C06D2F647080
:101730008AEF8C0F0E943A0313FF06C06D2F68706A
:101740008BEF8C0F0E943A0314FF06C06D2F60715F
:101750008CEF8C0F0E943A0315FF06C06D2F60724C
:101760008DEF8C0F0E943A0316FF06C06D2F607438
:101770008EEF8C0F0E943A0317FF16C06D2F607812
:101780008FEF8C0FDF91CF911F910F91FF90EF9012
:10179000DF90CF90BF90AF909F908F907F906F9091
:1017A0005F904F900C943A03DF91CF911F910F916E
:1017B000FF90EF90DF90CF90BF90AF909F908F9071
:1017C0007F906F905F904F9008958F929F92AF920D
:1017D000BF92CF92DF92EF92FF920F931F93CF931E
:1017E000DF93EB01863408F098C0082F10E0F80171
:1017F000E65EF74F9081933009F49CC0943009F075
:101800008CC08250843408F081C0F801E756FC4F48
:10181000C080D12C7601EE0CFF1C4B01603282E0BF
:1018200078070CF03EC0F701EC0DFD1DEE52F64FAF
:101830008181A8E88A2E912C881A910887FD9394BB
:10184000880C991C880C991C092C000CAA08BB0850
:10185000828128E532E0281B310987FD3395220F6C
:10186000331F220F331F032E000C440B550B281976
:1018700039094A095B09DB01653B710514F0A4EBEA
:10188000B0E0B7FF02C0B0E0A0E00E94E12224EB8C
:1018900030E040E050E00E94B722820E931EA41E6A
:1018A000B51EF701EC0DFD1DEE52F64F20812033E1
:1018B00068F5318188E890E0831B910937FD9395A5
:1018C000880F991F880F991F881699067CF032811E
:1018D00088E592E0831B910937FD9395880F991F46
:1018E000880F991F881699060CF4C4010297880F77
:1018F000991F4FB7F89430E0F901EE0FFF1FE20F88
:10190000F31FEF5BF64F928381834FBF000F111FD0
:10191000F801E05AF74FD183C083DF91CF911F9137
:101920000F91FF90EF90DF90CF90BF90AF909F907E
:101930008F900895F82E8EEF800F8C3020F084ED7C
:10194000800F833018F761E08F2D0E946803209785
:1019500029F460E08F2D0E943A03D8CFCF3FD10504
:1019600011F461E0F7CFF801E650FD4FE491E1504A
:10197000E23108F0B0C0F0E08827EE53F34F8F4F0C
:101980000C942623D40CD90CDE0CE80CF20C6B0D55
:10199000FC0C040D0C0D160D200D2A0D390D430DF8
:1019A0006B0D4D0D570D610D84B5806884BDC7BDAD
:1019B000ADCF84B5806284BDC8BDA8CF80918000C2
:1019C000806880938000D0938900C09388009ECF68
:1019D00080918000806280938000D0938B00C093C0
:1019E0008A0094CF80918000886080938000D0939B
:1019F0008D00C0938C008ACF8091B0008068809366
:101A0000B000C093B30082CF8091B0008062809319
:101A1000B000C093B4007ACF80919000806880932A
:101A20009000D0939900C093980070CF809190005F
:101A3000806280939000D0939B00C0939A0066CF01
:101A400080919000886080939000D0939D00C09317
:101A50009C005CCF8091A00080688093A000809162
:101A6000A0008F7B8093A000D093A900C093A80012
:101A70004DCF8091A00080628093A000D093AB00F6
:101A8000C093AA0043CF8091A00088608093A000FB
:101A9000D093AD00C093AC0039CF80912001806815
:101AA00080932001D0932901C09328012FCF8091EA
:101AB0002001806280932001D0932B01C0932A01E2
:101AC00025CF80912001886080932001D0932D0143
:101AD000C0932C011BCFC038D1050CF042CF39CFB9
:101AE0009EEF980F943480F4E82FF0E0DF01A65EBB
:101AF000B74F9C91913041F4EE0FFF1FE05AF74F22
:101B0000608371830C943A030895FF920F931F939F
:101B1000CF93DF931F921F92CDB7DEB7082F10E04F
:101B2000F801E657FB4F9081F62EF92201521C4F27
:101B3000411104C0F80190819F1511F12F2D30E063
:101B40003A832983A091D707B091D8071097B1F0B5
:101B5000682F6F706069ED91FC9111970190F08191
:101B6000E02DCD01199522E030E0AE014F5F5F4FCF
:101B700062E070E087ED97E00E947F05F801F08257
:101B80000F900F90DF91CF911F910F91FF900895CB
:101B90000F931F93CF93DF93893008F071C0282FE4
:101BA00030E0F901ED56FB4F6083672B09F468C004
:101BB000082F26573B4FF9011081D82FDD0FDD0F7D
:101BC000DD0F8EEF8D0F843450F4C12FC17010FFE4
:101BD00007C08D2F0E941103C1E0892B09F4C0E0DA
:101BE0008FEF8D0F843448F411FF07C081E08D0F13
:101BF0000E941103892B09F0C26012FF07C082E026
:101C00008D0F0E941103892B09F0C46013FF07C0D8
:101C100083E08D0F0E941103892B09F0C86014FF27
:101C200007C084E08D0F0E941103892B09F0C06169
:101C300015FF07C085E08D0F0E941103892B09F065
:101C4000C062D034A1F016FF07C086E08D0F0E945D
:101C50001103892B09F0C064DF3349F017FF07C077
:101C600087E08D0F0E941103892B09F0C06841E0C5
:101C70006C2F802FDF91CF911F910F910C94850DC8
:101C8000DF91CF911F910F910895A82FB0E0A75633
:101C9000BC4F9C91292F30E0F901EE0FFF1FE20F9E
:101CA000F31FEE52F64FE0812E2F30E0F901EE0FD8
:101CB000FF1FE20FF31FEF5BF64F80818F7B808366
:101CC00080919703981308C0992319F0915090932D
:101CD00097038FEF8C9308958823D9F3E0919803AD
:101CE000EF5FE0939803F0E0EF5DFC4F9083F1CF5E
:101CF000FC0101900020E9F73197BF01681B790BC7
:101D0000AC0181E70C947F064F925F926F927F92B5
:101D10008F929F92AF92BF92FF920F931F93CF9398
:101D2000DF93F82E8B01D42FC22F6F3F760709F473
:101D300090C081E08093FF04F0922105109200058D
:101D4000109222058DEE98E00E94F4088C2F0E94DC
:101D5000AB0780919503909196038230910538F0FE
:101D6000880F991F880F991F05970197F1F70E9417
:101D7000C1034B015C018091F90481116CC0CD2F2E
:101D8000D13208F0C0E281E08093F9048093F80436
:101D90009FEF9093F7041092F6049C0F9093F50434
:101DA0008093D4049091D4048F2D880F892B809335
:101DB000D4048091D304813009F0A1C01092D304DF
:101DC0000E94C1034B015C018091D4048093BB004D
:101DD0008091FB049091FC04A091FD04B091FE045D
:101DE000892B8A2B8B2BA1F00E94C1034090FB040E
:101DF0005090FC046090FD047090FE04681979090D
:101E00008A099B09461657066806790608F444C0F5
:101E10008091BC0083FDD8CF85EC8093BC000E94EC
:101E2000C1034B015C018091F904813009F469C060
:101E30008091F6048C1710F4C091F604E5EDF4E0FF
:101E4000AEE0B4E080E08C1761F191919D938F5FDB
:101E5000FACF00E08CCF8091FB049091FC04A0911C
:101E6000FD04B091FE04892B8A2B8B2B09F483CFC0
:101E70000E94C1034090FB045090FC046090FD045C
:101E80007090FE04681979098A099B09461657065D
:101E90006806790608F06FCF8091FA040E948A07DD
:101EA000C0E010922F04C0932E042D2F30E08C2F11
:101EB00090E0281739070CF046C08DE292E00E94AE
:101EC000780EF09252030093530302E513E0AD2E17
:101ED000B12CC801825593408A159B050CF041C076
:101EE0000F5F1F4F90912E0480912F049817C9F116
:101EF0008DEE98E00E94AD08F8018183EACF85EE6F
:101F00008CCF8091FB049091FC04A091FD04B091D2
:101F1000FE04892B8A2B8B2B09F485CF0E94C103E9
:101F20004090FB045090FC046090FD047090FE040F
:101F3000681979098A099B094616570668067906C1
:101F400008F071CFA9CF821793070CF0BACF8AE4BB
:101F500092E00E94780ED0912E0480912F04D81B1D
:101F6000B0CFDE5F6D2F70E042E553E087E7DF9191
:101F7000CF911F910F91FF90BF90AF909F908F9046
:101F80007F906F905F904F900C947F06CF93DF937C
:101F9000DB0190919703903378F530919803682F87
:101FA00070E0FB01E756FC4F3323E1F0C32FD0E094
:101FB000CF5DDC4F888180833150309398038081DE
:101FC00023E0829FC00111248E52964F1A161B06E1
:101FD00074F4141615065CF49A01AD01DF91CF91EB
:101FE0000C94260990839F5F90939703E8CF20E697
:101FF00039E040E252E0F2CF86E692E0DF91CF9105
:102000000C94780E8F929F92BF92CF92DF92EF92B4
:10201000FF920F931F93CF93DF93C82ED12CE6012D
:10202000C956D84FFE01ED57FF4F90819F3709F4F5
:10203000A1C0963061F49091E803992341F0663095
:10204000710529F01092E8039FEF909300027B0145
:10205000182F0EEF080F043408F564307105F1F005
:10206000F601E756FC4F80818033C0F490E0FC011C
:10207000EE0FFF1FE80FF91FEE52F64FE0818E2F93
:1020800090E0FC01EE0FFF1FE80FF91FEF5BF64F2A
:10209000808186FF03C0812F0E94450E5AECB52E29
:1020A000B10E8FE08B1558F061E070E032E0E3167E
:1020B000F10411F070E060E08B2D0E94ED0A043411
:1020C000C8F4E12FE695E695E695F0E0E657FB4F7C
:1020D0002081312F377081E090E001C0880F3A9560
:1020E000EAF7E114F10421F03BE0E316F10411F505
:1020F000822B80834601880C991CF401E05AF74F2B
:10210000118210828CE0E816F10408F0C8C0F701D3
:102110008827E257FF4E8F4F0C942623AE10DB101A
:102120009D10F2100C114F1143114F114F114F110F
:10213000BA10C61080958223DCCF3FE03B15D0F06B
:10214000043420F460E0812F0E946803CD57DF4FF4
:1021500088818F3779F082E088830CC0043450F492
:1021600060E0812F0E946803CD57DF4F88818F3751
:1021700009F01882DF91CF911F910F91FF90EF909E
:10218000DF90CF90BF909F908F900895043490F788
:1021900062E0812F0E946803CD57DF4F88818F371F
:1021A00011F08BE08883F401E05AF74F81E090E072
:1021B00091838083DFCF0434E8F6FE01ED57FF4FB3
:1021C0008081833021F460E0812F0E943A0361E036
:1021D000812F0E946803CD57DF4F88818F3751F2DE
:1021E00081E0BACF0C3020F084ED810F833010F6FF
:1021F00061E0812F0E94680361E0812F0E946803E3
:1022000060E0812F0E943A03CD57DF4F88818F37DE
:1022100009F4B0CF83E0A0CF043408F0ABCFCD57A2
:10222000DF4F88818F3711F084E08883F601E7560D
:10223000FC4F80818F3FA9F090E0FC01EE0FFF1F63
:10224000E80FF91FEE52F64FE0818E2F90E0FC016F
:10225000EE0FFF1FE80FF91FEF5BF64F808186FD41
:1022600089CF4FEF5FEF6FEF7FEF812FDF91CF913E
:102270001F910F91FF90EF90DF90CF90BF909F90B4
:102280008F900C94C60F1451123008F073CFCD57B5
:10229000DF4F88818F3709F46DCF86E05DCF8AE705
:1022A00092E0DF91CF911F910F91FF90EF90DF901F
:1022B000CF90BF909F908F900C94780E0F931F93A8
:1022C000CF93DF9381E08093E9038091E803882333
:1022D00029F01092E8038FEF80930002E3E9F4E025
:1022E000CAE8D4E0AFEDB3E0119219921D9284E0F8
:1022F000EC39F807C9F709E913E0C0E0DFEF8AEC31
:102300008C0F62E070E0803130F08EEF8C0F8434FF
:1023100028F461E070E08C2F0E940210F801D19344
:102320008F01CF5FC63459F71092C5041092C404D0
:1023300010929803109297031092E903DF91CF91C6
:102340001F910F91089585ED8093BC008091FB044F
:102350009091FC04A091FD04B091FE040796A11D8C
:10236000B11D23E0B695A795979587952A95D1F746
:102370002091BC0024FD03C01092F90408954091FF
:10238000FB045091FC046091FD047091FE04452B08
:10239000462B472B69F30097A105B10541F02AE2CE
:1023A0002A95F1F700C00197A109B109E1CF809109
:1023B000FA040C948A076F927F928F929F92AF9249
:1023C000BF92CF92DF92EF92FF920F931F93CF9322
:1023D000DF93EA018F3609F4F9C1162F803708F030
:1023E0005CC0893609F482C290F4813509F48FC249
:1023F000DF91CF911F910F91FF90EF90DF90CF90E1
:10240000BF90AF909F908F907F906F9008958B3684
:1024100009F407C28D3661F7662351F3C88180EF56
:102420000E944E028EE60E944E028C2F0E944E02A7
:10243000C63408F025C2D0E0FE01E65EF74F808189
:102440000E944E02CC0FDD1F8E01005A174FF8017B
:1024500080818F770E944E02F801808191819C01DA
:102460002078232B39F0880F892F881F990B8F77BD
:102470000E944E02C05AD74F888199819C01222721
:10248000307C232B09F4FCC1990F880B990F982FEE
:10249000881F8F770E944E02F3C1863709F46DC002
:1024A00008F051C0803709F0A3CF653008F4A0CF01
:1024B00018818EEF810F843408F09ACF0981EA8069
:1024C000FB80CC81E12FF0E0E756FC4F8081803328
:1024D000C0F490E0FC01EE0FFF1FE80FF91FEE5271
:1024E000F64FE0818E2F90E0FC01EE0FFF1FE80F0A
:1024F000F91FEF5BF64F808186FF03C0812F0E949A
:10250000450E60E8C69FA00111244F0D511D80E8C3
:10251000E89EB0011124600F711D812F0E94C60F2B
:1025200064E070E0812FDF91CF911F910F91FF90B8
:10253000EF90DF90CF90BF90AF909F908F907F9063
:102540006F900C940210883709F401C18A3709F0A2
:102550004FCF623008F44CCF898190E8899F900179
:1025600011248881820F932F911D009709F42BC1AC
:1025700090930202809301023BCF998195FF12C094
:102580008BE892E0DF91CF911F910F91FF90EF9038
:10259000DF90CF90BF90AF909F908F907F906F9083
:1025A0000C94780E888131E096FB222720F92327AE
:1025B0009871983099F1E0F491111ACF3093FF049B
:1025C00080932105109200051092220502E0011768
:1025D000E8F4FE01E00FF11D6181679566276795BC
:1025E0008081680F8DEE98E00E94F4080E5FEFCFB7
:1025F0009031D9F1983109F0FBCE209100021216EA
:102600000CF460C08FEF80930002F2CE81E00E9454
:10261000AB0783E191E00197F1F7EACE9A814B8114
:102620006630E1F430E8439FB0011124690F711D59
:102630004D814795442747959C81490FDF91CF9164
:102640001F910F91FF90EF90DF90CF90BF90AF90D0
:102650009F908F907F906F900C94840E47954427A5
:102660004795490F6FEF7FEFE9CFE0910002E73028
:102670001CF08BEA92E086CF3A819B816630D9F4D8
:1026800060E8969FA0011124430F511D9D819795ED
:10269000992797953C81930FEF5FE093000235E017
:1026A000E302F0011124E456FB4F808352834183FF
:1026B000938324839DCE979599279795930F4FEFFA
:1026C0005FEFEACF90E0622F022E000C770B35E02F
:1026D000492F50E06417750764F0349FF001359F6F
:1026E000F00D1124E456FB4F4081481719F09F5F0D
:1026F000EFCF90E085E0492F50E0641775071CF19B
:102700009830F8F4FA0131968E9FD0018F9FB00D6A
:102710001124A456BB4F3C91849FF001859FF00D7E
:102720001124E456FB4F308311964D915C91129722
:102730005283418313963C911397338314963C91B3
:1027400034839F5FD8CF21502093000251CE623056
:1027500078F0898140E8849F900111248881820F5C
:10276000932F911D009721F09093960380939503EA
:102770008091E80381113CCEC0E08CEE8C0F82305A
:1027800028F466E070E08C2F0E940210CF5FC63400
:10279000A1F781E08093E80310922F0410922E0499
:1027A00010920005109222050E946C078BE998E0B8
:1027B00090935204809351048CE998E090935604CE
:1027C0008093550415CE81E090E0D2CE623008F4BB
:1027D0000FCE898190E0623091F02A81E0E82E9F4F
:1027E00090011124822B932B633049F02B8130E030
:1027F00030E4239F302D22271124822B932BBC0100
:102800008881DF91CF911F910F91FF90EF90DF9022
:10281000CF90BF90AF909F908F907F906F900C94CF
:10282000E50B80EF0E944E028CE60E944E02CEEF36
:102830008CEC8C0F803108F04FC082E00E944E0279
:102840008AE00E944E0286ED8C0F833008F447C068
:10285000C43430F484E00E944E028EE00E944E02A6
:102860008EEE8C0F823030F486E00E944E0281E0C2
:102870000E944E028FE70E944E02CF5FC43489F45B
:1028800087EFDF91CF911F910F91FF90EF90DF9035
:10289000CF90BF90AF909F908F907F906F900C944F
:1028A0004E02C43428F680E00E944E0281E00E946D
:1028B0004E028BE00E944E0281E00E944E0281E0B7
:1028C0000E944E0281E00E944E0281E50E944E026B
:1028D00081E00E944E02ACCFCC3008F0B4CF83E050
:1028E0000E944E0288E00E944E02B2CF80EF0E940A
:1028F0004E028AE60E944E02CAEC8FE7C03108F40D
:102900008C2F0E944E02CF5FC031B9F7B9CF66233A
:1029100009F46ECD9881892F8F70833009F43EC100
:1029200008F064C0813009F48EC1823009F060CDB6
:102930008091940381115CCD80919303811158CDD6
:1029400081E08093940380E019E09091020489175C
:1029500008F0B4C0282F30E0B90166517C4FFB016C
:102960009081992309F4A6C0E0910604F091070430
:10297000129FE001139FD00D1124C750D74FAE8195
:10298000BF819C912885922B9C93AC81BD819885B9
:1029900028813981A901440F551F420F531F0A8016
:1029A000DB81C02D9E01220F331F2C0F3D1FE20F34
:1029B000F31F3C91292F20952323932B3FB7F894A5
:1029C0004E0F5F1F4E175F0709F472C0C191D8E028
:1029D0009C9300C0C7FF2C93CC0F00C000C000C068
:1029E00008F42C9300C0DA9599F7ECCF843009F401
:1029F00068C0853009F0FCCC9981292F2F7109F42A
:102A0000ACC0392F3072732E81E080939303022F74
:102A1000000F020F10E0C0910804D0910904C21BFE
:102A2000D1096E01CC0CDD1CCC0EDD1EE09006043D
:102A3000F09007044701800E911E492F4074642EC8
:102A400096FFB9C1C8010E942E235C01009729F0AE
:102A5000A80170E060E00E946E24CE01711002C0F7
:102A600090E080E0BC01660F771F680F791F6E0D44
:102A70007F1DA801C5010E9453247110B3C1A60196
:102A8000B401C7010E945C24662009F49EC1CE01F6
:102A9000880F991F8C0F9D1FA801B5018E0D9F1DDA
:102AA0000E945324C5010E94CA231092930355C06B
:102AB0003FBF7894FB0110828F5F47CF1092940341
:102AC00097CC80919303811193CCCB80D12CF12CA6
:102AD000E12C7EE0CC0CDD1CEE1CFF1C7A95D1F7BE
:102AE0008C8190E0B0E0A0E0E5E1880F991FAA1F7B
:102AF000BB1FEA95D1F78C0D9D1DAE1DBF1D298111
:102B00006C017D01C20ED11CE11CF11C8A8190E098
:102B1000B0E0A0E0F7E0880F991FAA1FBB1FFA954D
:102B2000D1F7C80ED91EEA1EFB1E009108041091B1
:102B30000904D0E0C0E0C114D104E104F10421F59E
:102B4000A801440F551F400F511F70E060E08091B5
:102B50000604909107040E946E244091020450E004
:102B600061E070E08AEE93E0DF91CF911F910F91C9
:102B7000FF90EF90DF90CF90BF90AF909F908F909D
:102B80007F906F900C946E24C017D10731F3B7017A
:102B9000A601CE010E948B0A2196F6CF8091930365
:102BA000811126CC0A81F0E80F9FC0011124098110
:102BB000080F192F111D4D8150E070E060E08EE08C
:102BC000440F551F661F771F8A95D1F78E8190E0BD
:102BD000B0E0A0E025E1880F991FAA1FBB1F2A952E
:102BE000D1F7840F951FA61FB71F2B81AC01BD0124
:102BF000420F511D611D711D8C8190E0B0E0A0E07D
:102C000037E0880F991FAA1FBB1F3A95D1F7480FCD
:102C1000591F6A1F7B1FC8010E948B0A4091020442
:102C2000A2EFB3E090E080E0841708F0E1CBFC0174
:102C30002D913D91019602171307B0F7E651FC4F15
:102C400081E08083D5CB913009F0D2CB633008F49A
:102C5000CFCB009192030E94B30A002381F0B9EF19
:102C6000CB2EB8E0DB2EF12C6F2DC6010E94C50AD9
:102C7000F39429E0C20ED11C38E0F312F5CF6BEAD1
:102C8000169F112D11241695E2EFAE2EE3E0BE2E15
:102C9000F9EFCF2EF8E0DF2E912C88248394A2E068
:102CA0007A2E011105C069816F71C6010E94C50AA3
:102CB000898190E075E0959587957A95E1F7813067
:102CC000910509F467C08230910509F468C0892B29
:102CD00031F4109204048092050470920304EB8096
:102CE00040E8E49E700111248A81E80EF11CF6018F
:102CF000F182E08290E080E0992021F0F5013297A6
:102D0000808191819701280F391FF501219331931B
:102D10005F01F601938382838091080490910904F6
:102D2000E80EF91EF0920904E09208048091020472
:102D30008F5F809302049394F9E0CF0ED11C239609
:102D40001911AFCF8091060490910704009731F0DC
:102D50000E94CA231092090410920804E114F1049D
:102D600009F446CBE701CC0FDD1FCE0DDF1DCE01F0
:102D70000E942E2390930704809306040097B1F0DD
:102D8000AE0170E060E00E946E24F0920904E092CF
:102D900008042ECB10920504809204049ECF10925A
:102DA0000304809205047092040499CF10920904E0
:102DB000109208041DCB332309F461CEA601B7019C
:102DC000C4010E945C24D0E0C0E0CE01880F991FAE
:102DD0008C0F9D1FA80170E060E08E0D9F1D0E946A
:102DE0006E2463CEA601B701C4010E945C24D0E02A
:102DF000C0E04DCE1F920F920FB60F9211242F9369
:102E00003F938F939F93AF93BF938091CB04909107
:102E1000CC04A091CD04B091CE043091CA0423E03B
:102E2000230F2D3758F50196A11DB11D2093CA041B
:102E30008093CB049093CC04A093CD04B093CE04A4
:102E40008091CF049091D004A091D104B091D2048C
:102E50000196A11DB11D8093CF049093D004A0933F
:102E6000D104B093D204BF91AF919F918F913F91C4
:102E70002F910F900FBE0F901F90189526E8230FEB
:102E80000296A11DB11DD2CF1F920F920FB60F92C5
:102E900011240BB60F922F933F934F935F936F9331
:102EA0007F938F939F93AF93BF93EF93FF9383E2AF
:102EB00095E00E94CB04FF91EF91BF91AF919F915C
:102EC0008F917F916F915F914F913F912F910F90D3
:102ED0000BBE0F900FBE0F901F9018951F920F9270
:102EE0000FB60F9211240BB60F922F933F934F936F
:102EF0005F936F937F938F939F93AF93BF93EF9362
:102F0000FF9383E295E00E944D04FF91EF91BF9102
:102F1000AF919F918F917F916F915F914F913F9171
:102F20002F910F900BBE0F900FBE0F901F90189512
:102F30001F920F920FB60F9211240BB60F922F9380
:102F40003F934F935F936F937F938F939F93AF9331
:102F5000BF93EF93FF9380EC95E00E94CB04FF9129
:102F6000EF91BF91AF919F918F917F916F915F9101
:102F70004F913F912F910F900BBE0F900FBE0F906E
:102F80001F9018951F920F920FB60F9211240BB637
:102F90000F922F933F934F935F936F937F938F93F2
:102FA0009F93AF93BF93EF93FF9380EC95E00E94C4
:102FB0004D04FF91EF91BF91AF919F918F917F91C0
:102FC0006F915F914F913F912F910F900BBE0F909A
:102FD0000FBE0F901F9018951F920F920FB60F9271
:102FE00011240BB60F922F933F934F935F936F93E0
:102FF0007F938F939F93AF93BF93EF93FF938DE551
:1030000096E00E94CB04FF91EF91BF91AF919F9109
:103010008F917F916F915F914F913F912F910F9081
:103020000BBE0F900FBE0F901F9018951F920F921E
:103030000FB60F9211240BB60F922F933F934F931D
:103040005F936F937F938F939F93AF93BF93EF9310
:10305000FF938DE596E00E944D04FF91EF91BF91A3
:10306000AF919F918F917F916F915F914F913F9120
:103070002F910F900BBE0F900FBE0F901F901895C1
:103080001F920F920FB60F9211240BB60F922F932F
:103090003F934F935F936F937F938F939F93AF93E0
:1030A000BF93EF93FF938AEF96E00E94CB04FF91CA
:1030B000EF91BF91AF919F918F917F916F915F91B0
:1030C0004F913F912F910F900BBE0F900FBE0F901D
:1030D0001F9018951F920F920FB60F9211240BB6E6
:1030E0000F922F933F934F935F936F937F938F93A1
:1030F0009F93AF93BF93EF93FF938AEF96E00E9465
:103100004D04FF91EF91BF91AF919F918F917F916E
:103110006F915F914F913F912F910F900BBE0F9048
:103120000FBE0F901F9018951F920F920FB60F921F
:1031300011240F900FBE0F901F9018951F920F92A1
:103140000FB60F9211240BB60F922F933F934F930C
:103150005F936F937F938F939F93AF93BF93EF93FF
:10316000FF938091B900887F803609F44DC008F044
:1031700040C0883209F4A9C028F5803109F49DC007
:10318000C8F4882309F4FBC0883009F496C0FF9185
:10319000EF91BF91AF919F918F917F916F915F91CF
:1031A0004F913F912F910F900BBE0F900FBE0F903C
:1031B0001F901895883109F488C0803241F78093B8
:1031C000F70414C0803409F49DC040F48033B9F38F
:1031D0008833E9F68093F70485ECB0C0803509F4B4
:1031E00085C0883509F496C0883489F60E94A311F9
:1031F000CECF883909F48CC038F5883729F050F4DF
:10320000883611F0803719F683E08093F904109224
:10321000770457C0883809F47BC0803919F08038AA
:1032200009F0B5CF80917704803208F071C0E09149
:10323000770481E08E0F809377048091BB00F0E0EB
:10324000E95AFB4F80833DC0803B39F0E0F4803A7F
:1032500009F479C0883A09F09ACF84E08093F904A0
:103260001092540410925304E0915104F0915204CE
:1032700019958091530481110FC081E0809353040C
:103280001092310409C0803C09F4A6CF883C09F4AF
:10329000A3CF883B09F07BCFE091540481E08E0FEF
:1032A00080935404F0E0EF5CFB4F80818093BB007F
:1032B000909154048091530429C08091D404809348
:1032C000BB0085EC8093BC0062CF9091F6048091A6
:1032D000F504981758F5E091F60481E08E0F80937D
:1032E000F604F0E0EB52FB4F8081E9CFE091F60469
:1032F00081E08E0F8093F6048091BB00F0E0EB52EA
:10330000FB4F80839091F6048091F5049817C8F2E2
:1033100085E8D8CFE091F60481E08E0F8093F60423
:103320008091BB00F0E0EB52FB4F80838091F8046A
:1033300081115CCF81E08093D30484EA8093BC0048
:103340001092F90424CF85EC8093BC001092F9040C
:1033500080917704803230F4E0917704F0E0E95A0C
:10336000FB4F10826091770470E0E0915504F0917A
:10337000560487E594E019951092770408CF1092CF
:10338000F70434CF1F920F920FB60F9211240BB691
:103390000F922F933F934F935F936F937F938F93EE
:1033A0009F93AF93BF93EF93FF9348E251E064E2A2
:1033B00071E090E080E00E94D109FF91EF91BF9110
:1033C000AF919F918F917F916F915F914F913F91BD
:1033D0002F910F900BBE0F900FBE0F901F9018955E
:1033E0001F920F920FB60F9211240BB60F922F93CC
:1033F0003F934F935F936F937F938F939F93AF937D
:10340000BF93EF93FF9348EA50E064EA70E083E0F3
:1034100090E00E94D109FF91EF91BF91AF919F91F0
:103420008F917F916F915F914F913F912F910F906D
:103430000BBE0F900FBE0F901F9018951F920F920A
:103440000FB60F9211240BB60F922F933F934F9309
:103450005F936F937F938F939F93AF93BF93EF93FC
:10346000FF9348E950E064E970E082E090E00E9458
:10347000D109FF91EF91BF91AF919F918F917F9172
:103480006F915F914F913F912F910F900BBE0F90D5
:103490000FBE0F901F9018951F920F920FB60F92AC
:1034A00011240BB60F922F933F934F935F936F931B
:1034B0007F938F939F93AF93BF93EF93FF9348E8CE
:1034C00050E064E870E081E090E00E94D109FF9153
:1034D000EF91BF91AF919F918F917F916F915F918C
:1034E0004F913F912F910F900BBE0F900FBE0F90F9
:1034F0001F901895109226051092250588EE93E0EE
:10350000A0E0B0E08093270590932805A0932905BB
:10351000B0932A052DE032E0309324052093230553
:1035200045E351E05093300540932F0544E351E0CB
:10353000509332054093310540E351E050933405F8
:103540004093330541E351E05093360540933505F0
:1035500042E351E0509338054093370546E351E08C
:1035600050933A054093390510923C0510923D0561
:1035700010923E0510923F051092C3051092C205AD
:103580008093C4059093C505A093C605B093C70565
:103590003093C1052093C00545ED50E05093CD0513
:1035A0004093CC0544ED50E05093CF054093CE05B9
:1035B00040ED50E05093D1054093D00541ED50E0EF
:1035C0005093D3054093D20542ED50E05093D5057A
:1035D0004093D40546ED50E05093D7054093D6056F
:1035E0001092D9051092DA051092DB051092DC05D5
:1035F0001092600610925F068093610690936206B7
:10360000A0936306B093640630935E0620935D0634
:103610004DEC50E050936A06409369064CEC50E044
:1036200050936C0640936B0648EC50E050936E0646
:1036300040936D0649EC50E05093700640936F063E
:103640004AEC50E050937206409371064EEC50E005
:103650005093740640937306109276061092770684
:1036600010927806109279061092FD061092FC06D0
:103670008093FE069093FF06A0930007B093010786
:103680003093FB062093FA0625EC30E030930707D1
:103690002093060724EC30E03093090720930807B5
:1036A00020EC30E030930B0720930A0721EC30E048
:1036B00030930D0720930C0722EC30E030930F0776
:1036C00020930E0726EC30E030931107209310076B
:1036D00010921307109214071092150710921607F4
:1036E00027E937E01092D8071092D7073093DB070D
:1036F0002093DA0740E450E05093DD074093DC0765
:103700001092DE071092DF071092E1071092E00797
:103710001092E2071092E4071092E3071092E60776
:103720001092E5071092E8071092E7071092EA0757
:103730001092E9071092EC071092EB071092EE0737
:103740001092ED071092F0071092EF071092F60713
:103750001092F5071092F8071092F7071092FA07E7
:103760001092F9071092FC071092FB0710920A08BA
:10377000109209081092D907109217081092190890
:10378000109218081092EC0844ED51E05093FE0797
:103790004093FD074EED51E0509300084093FF0722
:1037A00048EE51E0509302084093010842EF51E087
:1037B00050930408409303084CEF51E050930608DF
:1037C0004093050846E052E05093080840930708EC
:1037D00040E152E050930C0840930B0841E152E065
:1037E00050930E0840930D0840E457E050931008A2
:1037F00040930F083093F2072093F10749E154E01A
:1038000050931208409311083093F4072093F30764
:103810002CE132E030931408209313081092F00842
:103820001092EF088093F1089093F208A093F308A8
:10383000B093F4088FE192E09093EE088093ED0846
:10384000E9EFF8E081E499E011821082138212829C
:1038500039968E179F07C1F7E2EDF9E02FEF48EB9D
:103860005BE08091D1098033B8F491E0980F909398
:10387000D109808390E0DC01AA0FBB1FA80FB91FFC
:10388000AF5BB64F12965C934E93119733968AE0D6
:10389000E236F80731F708952083F8CF789484B59D
:1038A000826084BD84B5816084BD85B5826085BD3C
:1038B00085B5816085BD80916E00816080936E00CA
:1038C00010928100809181008260809381008091BC
:1038D000810081608093810080918000816080936D
:1038E00080008091B10084608093B1008091B0002D
:1038F00081608093B00080919100826080939100FC
:10390000809191008160809391008091900081600E
:10391000809390008091A10082608093A1008091AB
:10392000A10081608093A1008091A00081608093BC
:10393000A00080912101826080932101809121016A
:10394000816080932101809120018160809320011A
:1039500080917A00846080937A0080917A008260FE
:1039600080937A0080917A00816080937A008091C0
:103970007A00806880937A001092C10085E180937C
:10398000170880911808909119080E94CA23C091C5
:103990001708D0E0CE0101960E942E2390931908BB
:1039A00080931808FC01EC0FFD1F108212E0DC016F
:1039B0001C9325E011962C93AE01425051096DE005
:1039C00073E002960E94752485EE9BE09093850437
:1039D000809384048AE19BE0909383048093820423
:1039E0008DEE9AE0909381048093800488EC9DE0B2
:1039F00090937F0480937E0482E090E190937D0415
:103A000080937C0480E79DE090937B0480937A040C
:103A10008BED91E190938704809386048EE591E18C
:103A20009093890480938804E0910A07F0910B0732
:103A30001083E0910A07F0910B071082E0910607CE
:103A4000F09107071082E0910807F091090780E1E3
:103A5000808310921207E0910E07F0910F0786E025
:103A60008083E0910C07F0910D0780818061808355
:103A7000E0910C07F0910D07808188608083E091D0
:103A80000C07F0910D07808180688083E0910C071E
:103A9000F0910D0780818F7D80838091EC088111EA
:103AA0004FC061E08DE00E94680362ED70E080E04D
:103AB00090E00E94E60361E08DE00E943A0368E234
:103AC00070E080E090E00E94E60360E08DE00E94FC
:103AD0003A0362ED70E080E090E00E94E60361E06E
:103AE0008DE00E943A0368E270E080E090E00E947E
:103AF000E60360E08DE00E943A036AEF70E080E048
:103B000090E00E94E603C5E062ED70E080E090E0A6
:103B10000E94E60361E08DE00E943A0368E270E0F3
:103B200080E090E00E94E60360E08DE00E943A03AE
:103B3000C15051F76DE770E080E090E00E94E6032D
:103B40008AEF96E090931608809315089093D80713
:103B50008093D70787ED97E00E94240287E997E0DA
:103B60000E94CC060E945E110E94B30AD5E0DD24BB
:103B7000D39402E010E0EE24E394F12C80919304BE
:103B8000882391F1C0908A04C2FCE1C2C0E0C3FE68
:103B900006C083E00E941103892B09F0C860C4FEAF
:103BA00006C084E00E941103892B09F0C061C5FEA4
:103BB00006C085E00E941103892B09F0C062C6FE91
:103BC00006C086E00E941103892B09F0C064C7FE7D
:103BD00006C087E00E941103892B09F0C06840E00D
:103BE0006C2F80E00E94850D80919404882309F455
:103BF0004AC0C0908B04CC2DC170C0FE07C088E0C5
:103C00000E941103C1E0892B09F4C0E0C1FE06C087
:103C100089E00E941103892B09F0C260C2FE06C030
:103C20008AE00E941103892B09F0C460C3FE06C01C
:103C30008BE00E941103892B09F0C860C4FE06C006
:103C40008CE00E941103892B09F0C061C5FE06C0FB
:103C50008DE00E941103892B09F0C062C6FE06C0E8
:103C60008EE00E941103892B09F0C064C7FE06C0D4
:103C70008FE00E941103892B09F0C06840E06C2F8F
:103C800081E00E94850D80919504882309F44AC043
:103C9000C0908C04CC2DC170C0FE07C080E10E9492
:103CA0001103C1E0892B09F4C0E0C1FE06C081E127
:103CB0000E941103892B09F0C260C2FE06C082E196
:103CC0000E941103892B09F0C460C3FE06C083E182
:103CD0000E941103892B09F0C860C4FE06C084E16C
:103CE0000E941103892B09F0C061C5FE06C085E161
:103CF0000E941103892B09F0C062C6FE06C086E14E
:103D00000E941103892B09F0C064C7FE06C087E139
:103D10000E941103892B09F0C06840E06C2F82E0FB
:103D20000E94850D80919604882309F44AC0C090B2
:103D30008D04CC2DC170C0FE07C088E10E94110324
:103D4000C1E0892B09F4C0E0C1FE06C089E10E94F0
:103D50001103892B09F0C260C2FE06C08AE10E94ED
:103D60001103892B09F0C460C3FE06C08BE10E94D9
:103D70001103892B09F0C860C4FE06C08CE10E94C3
:103D80001103892B09F0C061C5FE06C08DE10E94B8
:103D90001103892B09F0C062C6FE06C08EE10E94A5
:103DA0001103892B09F0C064C7FE06C08FE10E9491
:103DB0001103892B09F0C06840E06C2F83E00E945A
:103DC000850D80919704882309F44AC0C0908E0421
:103DD000CC2DC170C0FE07C080E20E941103C1E07B
:103DE000892B09F4C0E0C1FE06C081E20E941103E4
:103DF000892B09F0C260C2FE06C082E20E94110354
:103E0000892B09F0C460C3FE06C083E20E9411033F
:103E1000892B09F0C860C4FE06C084E20E94110329
:103E2000892B09F0C061C5FE06C085E20E9411031E
:103E3000892B09F0C062C6FE06C086E20E9411030B
:103E4000892B09F0C064C7FE06C087E20E941103F7
:103E5000892B09F0C06840E06C2F84E00E94850D3A
:103E600080919804882309F44AC0C0908F04CC2D17
:103E7000C170C0FE07C088E20E941103C1E0892B17
:103E800009F4C0E0C1FE06C089E20E941103892B3B
:103E900009F0C260C2FE06C08AE20E941103892BAB
:103EA00009F0C460C3FE06C08BE20E941103892B97
:103EB00009F0C860C4FE06C08CE20E941103892B81
:103EC00009F0C061C5FE06C08DE20E941103892B76
:103ED00009F0C062C6FE06C08EE20E941103892B63
:103EE00009F0C064C7FE06C08FE20E941103892B4F
:103EF00009F0C06840E06C2F85E00E94850D80913C
:103F00009904882309F44AC0C0909004CC2DC17054
:103F1000C0FE07C080E30E941103C1E0892B09F4B1
:103F2000C0E0C1FE06C081E30E941103892B09F0A5
:103F3000C260C2FE06C082E30E941103892B09F011
:103F4000C460C3FE06C083E30E941103892B09F0FD
:103F5000C860C4FE06C084E30E941103892B09F0E7
:103F6000C061C5FE06C085E30E941103892B09F0DC
:103F7000C062C6FE06C086E30E941103892B09F0C9
:103F8000C064C7FE06C087E30E941103892B09F0B5
:103F9000C06840E06C2F86E00E94850D80919A04F5
:103FA000882309F44AC0C0909104CC2DC170C0FE92
:103FB00007C088E30E941103C1E0892B09F4C0E027
:103FC000C1FE06C089E30E941103892B09F0C2607B
:103FD000C2FE06C08AE30E941103892B09F0C46067
:103FE000C3FE06C08BE30E941103892B09F0C86051
:103FF000C4FE06C08CE30E941103892B09F0C06146
:10400000C5FE06C08DE30E941103892B09F0C06232
:10401000C6FE06C08EE30E941103892B09F0C0641E
:10402000C7FE06C08FE30E941103892B09F0C06808
:1040300040E06C2F87E00E94850D80919B048823CF
:10404000D1F1C0909204CC2DC170C0FE07C080E4B5
:104050000E941103C1E0892B09F4C0E0C1FE06C033
:1040600081E40E941103892B09F0C260C2FE06C0E0
:1040700082E40E941103892B09F0C460C3FE06C0CC
:1040800083E40E941103892B09F0C860C4FE06C0B6
:1040900084E40E941103892B09F0C061C5FE06C0AB
:1040A00085E40E941103892B09F0C06240E06C2F67
:1040B00088E00E94850D8091150890911608DC011A
:1040C000ED91FC910084F185E02D1995892B09F47F
:1040D000D7C18091150890911608DC01ED91FC91F3
:1040E0000284F385E02D19959C018F3F980719F301
:1040F000982F8091E207882309F49BC0973F09F02D
:1041000087C01092E207A091DA07B091DB076C91AB
:10411000613709F440C0693709F064C0E0910F08C5
:10412000F0911008309739F28091E3079091E407FD
:1041300083309105A0F430E020E050E040E070E0F2
:1041400060E08091F1079091F2071995B4CF82E079
:104150000E941103892B09F419CDC4E018CDBD01CB
:104160006D5F7F4F03970E948B02BC016D5F7F4F95
:1041700080E00E945B02E091DA07F091DB079F018B
:104180002D5F3F4F428150E0618170E0E0910F0868
:10419000F0911008D6CF80910B0890910C08892BD4
:1041A00009F489CFBD016F5F7F4F8091E307909144
:1041B000E40701970E948B02BC016F5F7F4F80E094
:1041C0000E945B026091DA077091DB076F5F7F4F9F
:1041D000E0910B08F0910C088091F7079091F80797
:1041E000199569CFE0910D08F0910E08309709F408
:1041F00062CF9D012F5F3F4F4091E3075091E4074D
:10420000415051098091F9079091FA07199553CFC0
:104210006091E3077091E407822F0E945B02809116
:10422000E3079091E40701969093E4078093E307F6
:1042300042CF6091E0077091E1076115710509F4C3
:10424000B1C027FDAFC0615071097093E107609361
:10425000E007822F0E945B028091E0079091E107C6
:10426000892B09F028CF8091DE07882309F423CF1A
:10427000803D09F483C040F4803949F1803C09F461
:1042800069C01092DE0717CF843FE1F1853F09F442
:104290004DC0803EB1F7E091FD07F091FE073097E9
:1042A00081F3A091DA07B091DB074C9120E8429F9F
:1042B000C001112411964C91480F592F511D609146
:1042C000DF078091E5079091E6071995DACFE09135
:1042D000FF07F09100083097A1F2A091DA07B091A2
:1042E000DB074C9120E8429FC001112411964C91AC
:1042F000480F592F511D6091DF078091E70790917A
:10430000E807E3CFE0910508F0910608309709F43B
:10431000B8CFA091DA07B091DB074C9150E011962D
:104320006C918091ED079091EE07CFCFE091070857
:10433000F0910808309709F4A4CFA091DA07B09162
:10434000DB074C9150E011966C918091EF079091B2
:10435000F007BBCFE0910108F0910208309709F413
:1043600090CFA091DA07B091DB074C9150E06091BB
:10437000DF078091E9079091EA07A7CFE091030852
:10438000F0910408309709F47CCFA091DA07B0913E
:10439000DB074C9150E06091DF078091EB07909133
:1043A000EC0793CF903F30F4822F8F708093DF071C
:1043B000922F907F903FF1F190F4903CB1F150F446
:1043C000903909F078CE1093E1070093E0079093BD
:1043D000DE0771CE903D49F1903EA9F36CCE993F36
:1043E00009F442C028F48CE0890F823060F363CE78
:1043F0009F3F09F060CE1092E1071092E007109203
:10440000DE071092DF0790E080E02091DC0730911A
:10441000DD0782179307A8F4E091DA07F091DB0734
:10442000E80FF91F10820196F0CFF092E107E092B9
:10443000E007CDCFD092E2071092E4071092E30795
:104440003ACE1092E2071092E4071092E307E0914F
:104450001308F09114088091FB079091FC073097A6
:1044600009F429CE199527CEE0911108F091120890
:10447000309709F420CE8091F3079091F407F2CFA2
:104480008FB7F8948090CB049090CC04A090CD048A
:10449000B090CE048FBF8091C6049091C704A091C4
:1044A000C804B091C904409101025091020270E029
:1044B00060E0881A990AAA0ABB0A481559056A05D4
:1044C0007B0508F051C0840F951FA61FB71F80936E
:1044D000C6049093C704A093C804B093C90487E9A5
:1044E000A82E87E0B82ECAECC031C8F4F501ED570C
:1044F000FF4F8081823099F48091C4049091C5046B
:104500000C2E02C0959587950A94E2F780FF07C0AC
:104510008C2F0E94A403BC018C2F0E941E06CF5F2B
:104520008FEFA81AB80AC031F9F68091000287FD12
:104530001BC0C0E02C2F30E080910002082E000C40
:10454000990B8217930784F0D29FF001D39FF00D4F
:104550001124E456FB4F6181728124814381808163
:104560000E94840ECF5FE6CF0E945A0507CB052E2E
:1045700097FB1EF400940E94CE2257FD07D00E94A4
:10458000E92207FC03D04EF40C94CE2250954095BE
:10459000309521953F4F4F4F5F4F089590958095EF
:1045A000709561957F4F8F4F9F4F08950E940B2309
:1045B000A59F900DB49F900DA49F800D911D112477
:1045C0000895B7FF0C94D6220E94D622821B930B2B
:1045D0000895A1E21A2EAA1BBB1BFD010DC0AA1F44
:1045E000BB1FEE1FFF1FA217B307E407F50720F05C
:1045F000A21BB30BE40BF50B661F771F881F991FD7
:104600001A9469F760957095809590959B01AC011F
:10461000BD01CF010895A29FB001B39FC001A39F28
:10462000700D811D1124911DB29F700D811D1124EB
:10463000911D0895991B79E004C0991F961708F001
:10464000961B881F7A95C9F780950895EE0FFF1F76
:10465000881F8BBF0790F691E02D19940F931F933D
:10466000CF93DF938230910510F482E090E0E091E7
:10467000640AF091650A30E020E0B0E0A0E03097F5
:1046800099F42115310509F44AC0281B390B24304F
:104690003105D8F58A819B816115710589F1FB018E
:1046A00093838283FE0111C0408151810281138175
:1046B00048175907E0F04817590799F4109761F027
:1046C00012960C93129713961C933296CF01DF919A
:1046D000CF911F910F9108950093640A1093650A7A
:1046E000F4CF2115310551F04217530738F0A901D5
:1046F000DB019A01BD01DF01F801C1CFEF01F9CF64
:104700009093650A8093640ACDCFFE01E20FF31FF8
:10471000819391932250310939832883D7CF2091F7
:10472000620A3091630A232B41F4209105023091F3
:1047300006023093630A2093620A209103023091AB
:1047400004022115310541F42DB73EB7409107020F
:1047500050910802241B350BE091620AF091630A24
:10476000E217F307A0F42E1B3F0B2817390778F048
:10477000AC014E5F5F4F2417350748F04E0F5F1FA7
:104780005093630A4093620A819391939FCFF0E024
:10479000E0E09CCFCF93DF930097E9F0FC013297E4
:1047A00013821282A091640AB091650AED0130E093
:1047B00020E01097A1F420813181820F931F209176
:1047C000620A3091630A2817390709F061C0F09333
:1047D000630AE093620ADF91CF910895EA01CE1750
:1047E000DF07E8F54A815B819E0141155105B1F76C
:1047F000E901FB83EA8349915991C40FD51FEC1756
:10480000FD0761F4808191810296840F951FE90173
:1048100099838883828193819B838A83F0E0E0E09F
:1048200012968D919C9113970097B9F52D913C911B
:104830001197CD010296820F931F2091620A309149
:10484000630A2817390739F6309751F51092650A2F
:104850001092640AB093630AA093620ABCCFD38318
:10486000C28340815181840F951FC817D90761F415
:104870004E5F5F4F88819981480F591F5183408354
:104880008A819B81938382832115310509F0B0CF02
:10489000F093650AE093640A9ECFFD01DC01C0CF6E
:1048A00013821282D7CFFB01DC0102C001900D926E
:1048B00041505040D8F708956817790768F4FB0114
:1048C000DC01E40FF51FA40FB51F02C002900E9289
:1048D00041505040D8F708950C945324DC0101C096
:1048E0006D9341505040E0F70895FB01DC014150C9
:1048F000504048F001900D920020C9F701C01D9270
:0C49000041505040E0F70895F894FFCFBC
:10490C00FF13000000660A800000000000ED042088
:10491C000466043A0597047504890400000000F449
:10492C0008C70823099D08C008AD089E08493243F2
:10493C003A20546F6F206D616E79206279746573C3
:10494C00207265636569766564004932433A205488
:10495C006F6F20666577206279746573207265636A
:10496C006569766564004D617820736572766F7346
:10497C0020617474616368656400556E6B6E6F774B
:10498C006E2070696E206D6F64650031302D626928
:10499C00742061646472657373696E67206E6F74E2
:1049AC0020737570706F7274656400746F6F206D16
:1049BC00616E792071756572696573002F55736529
:1049CC0072732F73616E6465722E626F65722F4401
:1049DC006F63756D656E74732F706572736F6E6136
:1049EC006C2F6D6963726F666C6F772F7061636B80
:1049FC00616765732F666C61736865722F537461A0
:104A0C006E646172644669726D6174612F53746176
:104A1C006E646172644669726D6174612E696E6F49
:024A2C00000088
:00000001FF
