:100000000C94B3010C94E4010C94E4010C94E4010D
:100010000C94E4010C94E4010C94E4010C94E401CC
:100020000C94E4010C948D150C948D150C948D1585
:100030000C94E4010C94E4010C94E4010C94E401AC
:100040000C94E4010C9445170C94E4010C94E40125
:100050000C94E4010C94E4010C94E4010C94F3136B
:100060000C94E4010C9463150C9439150C94E40180
:100070000C94E4010C94E4010C94E4010C94E4016C
:100080000C9417170C94E4010C94E4010C94E40113
:100090000C940F150C94E5140C94E4010C94971532
:1000A0000C94E4010C94E4010C94E9160C94E40122
:1000B0000C94E4010C94E4010C94E4010C94BB1640
:1000C0000C94E4010C94E4010C94E4010C94BB1432
:1000D0000C9491140C94E4010C9467140C943D144A
:1000E0000C94E4010C94F0010C94BC0C0C94540F8F
:1000F0000C941B0D0C9435090C941B030C94D20822
:100100000C94CA110C94AC0C0C94840C0C94040246
:100110000C94E4020C94B1110C94AE080C946C0F86
:100120000C94600F0C9487040C941F030C9404101F
:100130000C94DA020C94A80E0C94A20C0C94E90C0A
:100140000C94B40C0C94CE120C944C050C94FA0143
:100150000C94070D0C94780D0C94890C0C944C1392
:100160000C9414130C94E8020C9473170C940D0364
:100170000C940E020C9403030C94B20F0C94230203
:100180000C948E0C0C948B110C942E020C94E21394
:100190000C94F30C0C94110D0C94E6010C94200DAE
:1001A0000C94E0020C94F9020C94E90F0C94F50FF6
:1001B0000C94AD080C94D00C0C94A9040C94EF0290
:1001C0000C94CA0A0C94B0080C9418020C94AF0852
:1001D0000C9422020C94FF020C94DA0C0C9452073B
:1001E0000C94BF080C949D0A0C94FD0C0C94110304
:1001F0000C94430F0C94EC020C942A130C943204CC
:100200000C94C60C0C949B040C94810F0C94150355
:100210000C94FF040C94950B0C94A1130C9478048B
:100220000C94980F0C941A030C94980C0C94D90805
:100230000C9407030C9406090C942B040C94F502FF
:100240000C94921200002100240027002A002D00A7
:100250003000330001010000040107010A01000021
:100260002200250028002B002E003100340002015E
:100270000000050108010B010000200023002600FA
:1002800029002C002F0032000001000003010601AC
:10029000090105050505070508080808020202020C
:1002A0000A0A080804040404010101010101010112
:1002B0000303030303030303040707070C0C0C0CDD
:1002C0000C0C0C0C020202020606060606060606C6
:1002D0000B0B0B0B0B0B0B0B010210202008081053
:1002E00020401020408002010201080402010102A6
:1002F000040810204080804020100804020180047F
:1003000002018040201008040201080402010102D9
:1003100004081020408001020408102040800000E2
:100320000A0B02090C0D0E0807030401000000006F
:1003300000000000000000000000000000000000BD
:10034000000000000000000000001211100000007A
:10035000000000000000000000000000000000009D
:1003600000000000731711241FBECFEFD1E2DEBFE3
:10037000CDBF00E00CBF13E0A0E0B2E0EEE9F2E494
:1003800000E00BBF02C007900D92AA34B107D9F765
:100390002AE0AAE4B3E001C01D92A332B207E1F75C
:1003A00011E0C3EBD1E000E006C021970109802FE6
:1003B000FE010E941120C23BD10780E00807A9F787
:1003C0000E943B190C944D210C940000862FE09163
:1003D0008904F0918A04309711F0BA0119940895B4
:1003E000862FE0918704F0918804309711F0BA01CC
:1003F00019940895862FE0918504F0918604309732
:1004000011F0BA0119940895862FE0918304F091B8
:100410008404309711F0BA0119940895862FE09161
:100420008104F0918204309711F0BA011994089573
:10043000862FE0917F04F0918004309711F0BA018B
:10044000199408950895862F642FE0918B04F091FC
:100450008C04309711F0A90119940895E0918D044E
:10046000F0918E04309709F019940895CF93DF939B
:10047000FC01A081B181109701F1EC01ED91FC919B
:1004800011970190F081E02D69EFCD0119958881D8
:100490009981DC01ED91FC910190F081E02D62E009
:1004A000199588819981DC01ED91FC910190F08191
:1004B000E02D65E0DF91CF911994DF91CF91089500
:1004C000A0911A08B0911B08ED91FC911197019031
:1004D000F081E02D682FCD0119941F93CF93DF9306
:1004E000182FEB018091E1079091E20768177907D7
:1004F00060F48091DF079091E007C80FD91F18833F
:1005000080E0DF91CF911F910895E0910E08F09166
:100510000F08309711F481E0F4CF81E08093DE077B
:100520008091FA079091FB0719958091E1079091CE
:10053000E207C817D90778F7DCCFCF93DF93EC0138
:10054000FB0130E020E0C901880F991F8C179D073F
:1005500078F44081DB014D93BD011197918197950E
:1005600099279795942B9C932F5F3F4F3296EBCF13
:10057000C901DF91CF9108958150823108F05AC0AE
:10058000E82FF0E08827E853FD4F8F4F0C9411209F
:10059000E802EC02DA02E002E4021A03EF02F502DA
:1005A000F902FF02030307030D0311031A031503E6
:1005B0001B031F03809180008F7780938000089534
:1005C000809180008F7DF9CF80918000877FF5CF6B
:1005D00084B58F7784BD089584B58F7DFBCF8091DE
:1005E000B0008F778093B00008958091B0008F7D28
:1005F000F9CF809190008F7780939000089580913B
:1006000090008F7DF9CF80919000877FF5CF80910A
:10061000A0008F778093A00008958091A0008F7D27
:10062000F9CF8091A000877FF5CF809120018F774F
:10063000809320010895809120018F7DF9CF8091D2
:100640002001877FF5CFCF93DF93282F30E0F9018A
:10065000E25EFC4F8491F901E852FD4FD491F9011B
:10066000EE56FD4FC491CC23A1F081110E94BC0233
:10067000EC2FF0E0EE0FFF1FE858FD4FA591B4916D
:10068000EC91ED2381E090E009F480E0DF91CF91DF
:10069000089580E090E0FACF1F93CF93DF93282F47
:1006A00030E0F901E25EFC4F8491F901E852FD4F20
:1006B000D491F901EE56FD4FC491CC23A9F0162F29
:1006C00081110E94BC02EC2FF0E0EE0FFF1FE25AF6
:1006D000FD4FA591B4918FB7F894EC91111108C01A
:1006E000D095DE23DC938FBFDF91CF911F910895CA
:1006F000DE2BF8CFCF93DF9390E0FC01E852FD4F63
:1007000024918E569D4FFC0184918823C9F090E07E
:10071000880F991FFC01EC5BFD4FA591B491FC0182
:10072000E25AFD4FC591D49161110DC09FB7F89465
:100730008C91209582238C938881282328839FBFC6
:10074000DF91CF910895623051F49FB7F8943C91B6
:10075000822F809583238C93E8812E2BEFCF8FB748
:10076000F894EC912E2B2C938FBFEACF863308F0B0
:10077000865320917B00982F9870277F922B90931F
:100780007B008770806480937C0080917A00806415
:1007900080937A0080917A0086FDFCCF809178006A
:1007A0009091790008953FB7F8948091D404909186
:1007B000D504A091D604B091D70426B5A89B05C056
:1007C0002F3F19F00196A11DB11D3FBFBA2FA92FD0
:1007D000982F8827BC01CD01620F711D811D911DCD
:1007E00042E0660F771F881F991F4A95D1F7089539
:1007F0008F929F92AF92BF92CF92DF92EF92FF9231
:100800006B017C010E94D3034B015C01C114D10434
:10081000E104F104B9F00E94D303681979098A0947
:100820009B09683E73408105910580F321E0C21A5F
:10083000D108E108F10888EE880E83E0981EA11C1B
:10084000B11CE4CFFF90EF90DF90CF90BF90AF90BE
:100850009F908F900895009721F0805C9F4F0C949B
:1008600036020895AF92BF92CF92DF92EF92FF923D
:100870000F931F93CF93DF936C017B018B01040FC8
:10088000151FEB015E01AE18BF08C017D10759F064
:100890006991D601ED91FC910190F081E02DC601A6
:1008A0001995892B79F7C501DF91CF911F910F9190
:1008B000FF90EF90DF90CF90BF90AF900895FC0134
:1008C000A089B1898C91A689B78982FD0FC09C91BE
:1008D000818D8F5F8F73228D821749F0A18DAE0FAE
:1008E000BF2FB11D5D969C93818F08958C910895C3
:1008F000FC01538D448D252F30E0842F90E0821B26
:10090000930B541710F0CF96089501970895FC01AA
:10091000918D828D981761F0A28DAE0FBF2FB11D02
:100920005D968C91928D9F5F9F73928F90E008955A
:100930008FEF9FEF0895FC01918D828D981731F014
:10094000828DE80FF11D858D90E008958FEF9FEF68
:100950000895FC01918D228D892F90E0805C9F4F3E
:10096000821B91098F739927089588E295E00E9470
:10097000A90421E0892B09F420E0822F089585EC59
:1009800095E00E94A90421E0892B09F420E0822F40
:10099000089582E696E00E94A90421E0892B09F4DB
:1009A00020E0822F08958FEF96E00E94A90421E0B5
:1009B000892B09F420E0822F0895FC01A48DA80F53
:1009C000B92FB11DA35ABF4F2C91848D90E0019691
:1009D0008F739927848FA689B7892C93A089B189B1
:1009E0008C91837080648C93938D848D981306C052
:1009F0000288F389E02D80818F7D80830895EF92B6
:100A0000FF920F931F93CF93DF93EC0181E0888FC8
:100A10009B8D8C8D98131AC0E889F989808185FF98
:100A200015C09FB7F894EE89FF896083E889F9893A
:100A300080818370806480839FBF81E090E0DF913C
:100A4000CF911F910F91FF90EF900895F62E0B8D8F
:100A500010E00F5F1F4F0F731127E02E8C8D8E114A
:100A60000CC00FB607FCFACFE889F989808185FFB1
:100A7000F5CFCE010E94DD04F1CFEB8DEC0FFD2F01
:100A8000F11DE35AFF4FF0829FB7F8940B8FEA896C
:100A9000FB8980818062CFCFCF93DF93EC01888D7B
:100AA0008823B9F0AA89BB89E889F9898C9185FDE9
:100AB00003C0808186FD0DC00FB607FCF7CF8C9177
:100AC00085FFF2CF808185FFEDCFCE010E94DD044E
:100AD000E9CFDF91CF91089580E090E0892B29F054
:100AE0000E94D30481110E94000080E090E0892BD5
:100AF00029F00E94C90481110E94000080E090E06A
:100B0000892B29F00E94BF0481110E94000080E01F
:100B100090E0892B29F00E94B50481110C9400000B
:100B200008955F926F927F928F929F92AF92BF9241
:100B3000CF92DF92EF92FF920F931F93CF93DF93A9
:100B40005C016901DA015C90232B19F4CC24CA946E
:100B5000DC2C8A013A01660E771ED0E0C0E0F12C51
:100B6000E12C87E0882E912CF50180819181D801BC
:100B70006C910C2E01C0660F0A94EAF765296F7715
:100B8000DC01ED91FC910190F081E02D1995BFEF12
:100B9000EB1AFB0AF801608170E0C4018C1B9D0B0D
:100BA00002C0759567958A95E2F7562E2196C73053
:100BB000D10558F1CE14DF0441F1D5018D919C91FE
:100BC000652D6F77DC01ED91FC910190F081E02DB6
:100BD0001995BFEFEB1AFB0A551C5524551C279796
:100BE000E6CFEC14FD0408F4BFCFDF91CF911F9145
:100BF0000F91FF90EF90DF90CF90BF90AF909F90BC
:100C00008F907F906F905F9008950F5F1F4F6016D9
:100C1000710639F7209749F3EC14FD0430F7F5011C
:100C20008081918161E070E001C0660FCA95EAF7AA
:100C300061506521DC01ED91FC910190F081E02D86
:100C4000DF91CF911F910F91FF90EF90DF90CF90A8
:100C5000BF90AF909F908F907F906F905F9019940E
:100C60001F93CF93DF931F921F92CDB7DEB7182F3C
:100C70007A8369838091DC079091DD070097C9F042
:100C8000DC01ED91FC910190F081E02D1031B8F480
:100C900061157044A0F4612F606E199522E030E078
:100CA000AE014F5F5F4F62E070E08CED97E00E9415
:100CB00091050F900F90DF91CF911F91089560EFF4
:100CC00019958091DC079091DD07DC01ED91FC9195
:100CD0000190F081E02D6FE619958091DC079091ED
:100CE000DD07DC01ED91FC910190F081E02D612F99
:100CF000199522E030E0AE014F5F5F4F62E070E097
:100D00008CED97E00E9491058091DC079091DD07C2
:100D1000DC01ED91FC910190F081E02D67EF1995D8
:100D2000C8CFEF92FF920F931F93CF93DF93C82FFB
:100D30008091DC079091DD070097C9F17A018B0162
:100D4000DC01ED91FC910190F081E02D60EF1995AF
:100D50008091DC079091DD07DC01ED91FC91019021
:100D6000F081E02D6C2F1995E7010E0D1F1DC017A6
:100D7000D10759F030E020E0AE0161E070E08CED89
:100D800097E00E9491052196F2CF8091DC07909127
:100D9000DD07DC01ED91FC910190F081E02D67EF22
:100DA000DF91CF911F910F91FF90EF901994DF91F8
:100DB000CF911F910F91FF90EF900895CF92DF9206
:100DC000EF92FF920F931F93CF93DF93FC01E058B4
:100DD000FF4FE080EE2009F45CC0EC01C05CDF4F07
:100DE000A881B981109709F454C0FC01EF57FF4F57
:100DF000C080D180F60111810081ED91FC911197A5
:100E00000190F081E02D60EFCD01199588819981E5
:100E1000DC01ED91FC910190F081E02D69E71995DD
:100E200088819981DC01ED91FC910190F081E02DA8
:100E3000602F199588819981DC01ED91FC910190D9
:100E4000F081E02D612F1995F12C01E010E00F5F8A
:100E50001F4FE016F10659F030E020E0A601400FE8
:100E6000511F61E070E0CE010E949105F0CF8881B2
:100E70009981DC01ED91FC910190F081E02D67EF0B
:100E8000DF91CF911F910F91FF90EF90DF90CF9066
:100E90001994DF91CF911F910F91FF90EF90DF9008
:100EA000CF900895009711F00C94DE0608952091DC
:100EB0005804260F3327331F21323105ECF42091DB
:100EC000FE04FC0190E080E0243069F082E00895A7
:100ED000A09158042191AC014A5C5B4FA40FB52F3F
:100EE000B11D2C930196861798F380915804680FD2
:100EF0006093580480E0089581E008951092FE0404
:100F000081E08093FD041092D80461E084E10E94A6
:100F10004C0361E085E10E944C03E9EBF0E0808145
:100F20008E7F808380818D7F808388E48093B8006A
:100F300085E48093BC000895CF93DF9391E0909374
:100F400035048823B9F0C091B800D091BA008091DF
:100F5000BC008A7B8093BC0060E084E10E944C036B
:100F600060E085E10E944C030E947E07D093BA00A6
:100F7000C093B800DF91CF9108958F929F92AF9266
:100F8000BF92CF92DF92EF92FF920F931F93CF9376
:100F9000DF93D0912705D13208F0D7C0182FC09128
:100FA00026050E94D3036B017C018091FE04811110
:100FB0006BC082E08093FE041093FD048FEF80935A
:100FC000FC041092FB04D093FA04A6E0B5E0EAED2D
:100FD000F4E080E0D81391C01092D9048091D90434
:100FE000CC0FC82BC093D9048091D804813009F06C
:100FF00088C01092D8040E94D3036B017C018091B9
:10100000D9048093BB008091000590910105A091C7
:101010000205B0910305892B8A2B8B2BA1F00E942E
:10102000D303009100051091010520910205309134
:1010300003056C197D098E099F09061717072807F4
:10104000390708F442C08091BC0083FDD8CF85ECFD
:101050008093BC000E94D3036B017C018091FE044D
:10106000823009F450C08091FC048F3F09F46FC0B6
:101070008091FC04803209F46CC08091FC048033C0
:1010800009F469C084E026C08091000590910105B3
:10109000A0910205B0910305892B8A2B8B2B09F4B3
:1010A00084CF0E94D3038090000590900105A0900A
:1010B0000205B09003056C197D098E099F098616FB
:1010C0009706A806B90608F070CF8091FF040E9429
:1010D0009C0785E0109205051092270510920405E3
:1010E000DF91CF911F910F91FF90EF90DF90CF9004
:1010F000BF90AF909F908F9008959D9191938F5F37
:1011000069CF85EEA5CF8091000590910105A09152
:101110000205B0910305892B8A2B8B2B09F49ECFF6
:101120000E94D30300910005109101052091020552
:10113000309103056C197D098E099F090617170761
:101140002807390708F08ACFC0CF81E0C3CF80E0FD
:10115000C1CF82E0BFCF83E0BDCF08950895089549
:10116000E091340480913304E81730F4F0E0ED5E50
:10117000FB4F808190E008958FEF9FEF089590914D
:101180003404809133042FEF3FEF981748F4E92F90
:10119000F0E0ED5EFB4F208130E09F5F90933404E0
:1011A000C90108958091330490913404891B990BEF
:1011B0000895CF92DF92EF92FF920F931F93CF93F8
:1011C000DF937C01CB018A0120910405222389F061
:1011D000EB016B01C40ED51ECC15DD0569F06991DC
:1011E000D701ED91FC910190F081E02DC701199597
:1011F000F3CF642F0E945707C801DF91CF911F9151
:101200000F91FF90EF90DF90CF900895CF93DF93F1
:101210001F92CDB7DEB76983209104052223F9F030
:1012200020912705203258F021E030E0FC01338383
:10123000228390E080E00F90DF91CF91089580911C
:101240000505E82FF0E0EA5FFA4F998190838F5F00
:10125000809305058093270581E090E0ECCF61E065
:10126000CE0101960E945707F7CF90E080E00895E5
:10127000DF92EF92FF920F931F93CF93DF93EC01D6
:10128000D62E7A0189018881803308F067C061E039
:101290008D2D0E947A038881282F30E0F901EE0F0E
:1012A000FF1FE20FF31FE250F74F9D2D9F736081E8
:1012B000607C692B608320E232E02E193F0937FF02
:1012C00002C02D5F3F4F359527953595279529838A
:1012D00020E639E0201B310B37FF02C02D5F3F4F66
:1012E00035952795359527952A832CE0622F0E9406
:1012F0000520829FB001112430E020E0AB01420FB5
:10130000531FFA01EE0FFF1FE40FF51FE250F74FD6
:10131000908196FD16C02F5F3F4F2C30310571F73D
:10132000813029F51092800082E080938100109234
:10133000850010928400B19A80916F008260809342
:101340006F00E8818E2F90E0FC01EE0FFF1FE80F89
:10135000F91FE250F74F8081806480838881DF919C
:10136000CF911F910F91FF90EF90DF900895823001
:1013700061F4109290008093910010929500109269
:10138000940088BB80937100DCCF833069F41092A5
:10139000A00082E08093A1001092A5001092A4000A
:1013A00089BB80937200CDCF8111CBCF10922001E9
:1013B00082E08093210110922501109224018ABBC2
:1013C00080937300BECFAF92BF92CF92DF92EF9225
:1013D000FF920F931F93CF93DF936B017A01EC0180
:1013E000C15FDB4F28813CE0389F8001399F100DA1
:1013F0001124A0908E09B12C27FF1FC0FB01118280
:10140000108288818F5F888388819801280F311D21
:1014100087FD3A95F6012A153B051CF488818C302E
:10142000C4F180819181049680349C4908F473C092
:10143000F60180819181049670C088819801280FFF
:10144000311D87FD3A952A153B05DCF68881A801F8
:10145000480F511D87FD5A95FA01EE0FFF1FE40F4B
:10146000F51FE250F74F808186FFCBCF8881F801CE
:10147000E80FF11D87FDFA95CF01EE0FFF1FE80F72
:10148000F91FE250F74F808160E08F730E944C0398
:10149000B8CF808191812881A801420F511D27FD7D
:1014A0005A959A01FA01EE0FFF1FE20FF31FE25067
:1014B000F74F21813281820F931FF701918380833F
:1014C00088819801280F311D87FD3A95F901EE0FAB
:1014D000FF1FE20FF31FE250F74F808186FF22C00B
:1014E0008881080F111D87FD1A95F801EE0FFF1F67
:1014F000E00FF11FE250F74F808161E08F73DF91C1
:10150000CF911F910F91FF90EF90DF90CF90BF9000
:10151000AF900C944C0380E49CE9F70191838083A5
:101520008FEF8883DF91CF911F910F91FF90EF9004
:10153000DF90CF90BF90AF900895CF938031B0F4FB
:1015400021E030E0082E02C0220F331F0A94E2F798
:101550004091C9045091CA04672B51F420953095ED
:10156000242335233093CA042093C904CF910895CE
:10157000242B352B3093CA042093C90490910E0478
:101580009111F4CFC82F0E94B603BC018C2FCF91CC
:101590000C9430064F925F926F927F928F929F923F
:1015A000AF92BF92CF92DF92EF92FF920F931F9371
:1015B000CF93DF93893008F0A7C08F5FC82FCC0F7F
:1015C000CC0FCC0F4C2EC73410F056E4452ED62F3E
:1015D00038EF532E5C0E852C912CC401880F991F77
:1015E0009C012456384F5901052DD12CC12C10E0F7
:1015F000772473940415C8F58EEF800F8434F8F4C3
:10160000F601E80DF91DE15EF74F90819230B8F4D4
:10161000872D8D2366246394811101C0612C76018E
:10162000EE0CFF1C913089F4172939ECE30EF11C04
:10163000F501EE0DFF1D862D90E091838083770CE0
:101640000F5F8FEFC81AD80AD5CF882371F3F7013F
:10165000E753FF4FEA0DFB1D80819181019729F32C
:1016600062E0802F0E947A03E0CF10FF05C06D2F4B
:101670006170852D0E944C0311FF06C06D2F6270B2
:1016800089EF8C0F0E944C0312FF06C06D2F64700F
:101690008AEF8C0F0E944C0313FF06C06D2F6870F9
:1016A0008BEF8C0F0E944C0314FF06C06D2F6071EE
:1016B0008CEF8C0F0E944C0315FF06C06D2F6072DB
:1016C0008DEF8C0F0E944C0316FF06C06D2F6074C7
:1016D0008EEF8C0F0E944C0317FF16C06D2F6078A1
:1016E0008FEF8C0FDF91CF911F910F91FF90EF90B3
:1016F000DF90CF90BF90AF909F908F907F906F9032
:101700005F904F900C944C03DF91CF911F910F91FC
:10171000FF90EF90DF90CF90BF90AF909F908F9011
:101720007F906F905F904F9008958F929F92AF92AD
:10173000BF92CF92DF92EF92FF920F931F93CF93BE
:10174000DF93EB01863408F098C0082F10E0F80111
:10175000E15EF74F9081933009F49CC0943009F01A
:101760008CC08250843408F081C0F801E254FC4FF0
:10177000C080D12C7601EE0CFF1C4B01603282E060
:1017800078070CF03EC0F701EC0DFD1DE157F64F58
:101790008181A8E88A2E912C881A910887FD93945C
:1017A000880C991C880C991C092C000CAA08BB08F1
:1017B000828128E532E0281B310987FD3395220F0D
:1017C000331F220F331F032E000C440B550B281917
:1017D00039094A095B09DB01653B710514F0A4EB8B
:1017E000B0E0B7FF02C0B0E0A0E00E94CC1F24EB45
:1017F00030E040E050E00E94A21F820E931EA41E23
:10180000B51EF701EC0DFD1DE157F64F2081203389
:1018100068F5318188E890E0831B910937FD939545
:10182000880F991F880F991F881699067CF03281BE
:1018300088E592E0831B910937FD9395880F991FE6
:10184000880F991F881699060CF4C4010297880F17
:10185000991F4FB7F89430E0F901EE0FFF1FE20F28
:10186000F31FE250F74F928381834FBF000F111F88
:10187000F801EB59F74FD183C083DF91CF911F91CE
:101880000F91FF90EF90DF90CF90BF90AF909F901F
:101890008F900895F82E8EEF800F8C3020F084ED1D
:1018A000800F833018F761E08F2D0E947A03209714
:1018B00029F460E08F2D0E944C03D8CFCF3FD10593
:1018C00011F461E0F7CFF801E25EFC4FE491E150E2
:1018D000E23108F0B0C0F0E08827EE58F34F8F4FA8
:1018E0000C941120840C890C8E0C980CA20C1B0DEE
:1018F000AC0CB40CBC0CC60CD00CDA0CE90CF30C20
:101900001B0DFD0C070D110D84B5806884BDC7BD8E
:10191000ADCF84B5806284BDC8BDA8CF8091800062
:10192000806880938000D0938900C09388009ECF08
:1019300080918000806280938000D0938B00C09360
:101940008A0094CF80918000886080938000D0933B
:101950008D00C0938C008ACF8091B0008068809306
:10196000B000C093B30082CF8091B00080628093BA
:10197000B000C093B4007ACF8091900080688093CB
:101980009000D0939900C093980070CF8091900000
:10199000806280939000D0939B00C0939A0066CFA2
:1019A00080919000886080939000D0939D00C093B8
:1019B0009C005CCF8091A00080688093A000809103
:1019C000A0008F7B8093A000D093A900C093A800B3
:1019D0004DCF8091A00080628093A000D093AB0097
:1019E000C093AA0043CF8091A00088608093A0009C
:1019F000D093AD00C093AC0039CF809120018068B6
:101A000080932001D0932901C09328012FCF80918A
:101A10002001806280932001D0932B01C0932A0182
:101A200025CF80912001886080932001D0932D01E3
:101A3000C0932C011BCFC038D1050CF042CF39CF59
:101A40009EEF980F943480F4E82FF0E0DF01A15E60
:101A5000B74F9C91913041F4EE0FFF1FEB59F74FB8
:101A6000608371830C944C030895FF920F931F932E
:101A7000CF93DF931F921F92CDB7DEB7082F10E0F0
:101A8000F801E157FB4F9081F62EF9220C5F1B4FB6
:101A9000411104C0F80190819F1511F12F2D30E004
:101AA0003A832983A091DC07B091DD071097B1F04C
:101AB000682F6F706069ED91FC9111970190F08132
:101AC000E02DCD01199522E030E0AE014F5F5F4F70
:101AD00062E070E08CED97E00E949105F801F082E1
:101AE0000F900F90DF91CF911F910F91FF9008956C
:101AF0000F931F93CF93DF93893008F071C0282F85
:101B000030E0F901E856FB4F6083672B09F468C0A9
:101B1000082F21573B4FF9011081D82FDD0FDD0F22
:101B2000DD0F8EEF8D0F843450F4C12FC17010FF84
:101B300007C08D2F0E942303C1E0892B09F4C0E068
:101B40008FEF8D0F843448F411FF07C081E08D0FB3
:101B50000E942303892B09F0C26012FF07C082E0B4
:101B60008D0F0E942303892B09F0C46013FF07C067
:101B700083E08D0F0E942303892B09F0C86014FFB6
:101B800007C084E08D0F0E942303892B09F0C061F8
:101B900015FF07C085E08D0F0E942303892B09F0F4
:101BA000C062D034A1F016FF07C086E08D0F0E94FE
:101BB0002303892B09F0C064DF3349F017FF07C006
:101BC00087E08D0F0E942303892B09F0C06841E054
:101BD0006C2F802FDF91CF911F910F910C94350DB9
:101BE000DF91CF911F910F910895A82FB0E0A254DB
:101BF000BC4F9C91292F30E0F901EE0FFF1FE20F3F
:101C0000F31FE157F64FE0812E2F30E0F901EE0F80
:101C1000FF1FE20FF31FE250F74F80818F7B80831D
:101C20008091BC03981308C0992319F091509093A8
:101C3000BC038FEF8C9308958823D9F3E091BD0303
:101C4000EF5FE093BD03F0E0E75BFC4F9083F1CFE3
:101C5000FC0101900020E9F73197BF01681B790B67
:101C6000AC0181E70C949106CF93DF93DB01909157
:101C7000BC03903378F53091BD03682F70E0FB0111
:101C8000E254FC4F3323E1F0C32FD0E0C75BDC4FBD
:101C90008881808331503093BD03808123E0829F0F
:101CA000C00111248157964F1A161B0674F414169E
:101CB00015065CF49A01AD01DF91CF910C943809BF
:101CC00090839F5F9093BC03E8CF20E639E040E229
:101CD00052E0F2CF8DE292E0DF91CF910C94280E8A
:101CE00085ED8093BC008091000590910105A09145
:101CF0000205B09103050796A11DB11D23E0B6951D
:101D0000A795979587952A95D1F72091BC0024FD3A
:101D100003C01092FE040895409100055091010502
:101D20006091020570910305452B462B472B69F303
:101D30000097A105B10541F02AE22A95F1F700C00C
:101D40000197A109B109E1CF8091FF040C949C0790
:101D50008F929F92BF92CF92DF92EF92FF920F935A
:101D60001F93CF93DF93C82ED12CE601C456D84FD2
:101D7000FE01ED57FF4F90819F3709F4A1C09630C7
:101D800061F490910D04992341F06630710529F0BA
:101D900010920D049FEF909300027B01182F0EEF1D
:101DA000080F043408F564307105F1F0F601E254CF
:101DB000FC4F80818033C0F490E0FC01EE0FFF1FE8
:101DC000E80FF91FE157F64FE0818E2F90E0FC01FC
:101DD000EE0FFF1FE80FF91FE250F74F808186FFDB
:101DE00003C0812F0E94F50D5AECB52EB10E8FE085
:101DF0008B1558F061E070E032E0E316F10411F069
:101E000070E060E08B2D0E949D0A0434C8F4E12F3D
:101E1000E695E695E695F0E0E157FB4F2081312FFE
:101E2000377081E090E001C0880F3A95EAF7E1143D
:101E3000F10421F03BE0E316F10411F5822B8083DD
:101E40004601880C991CF401EB59F74F118210825E
:101E50008CE0E816F10408F0C8C0F7018827EC5CB4
:101E6000F04F8F4F0C941120540F810F430F980F98
:101E7000B20FF50FE90FF50FF50FF50F600F6C0FAF
:101E800080958223DCCF3FE03B15D0F0043420F472
:101E900060E0812F0E947A03CD57DF4F88818F3712
:101EA00079F082E088830CC0043450F460E0812F24
:101EB0000E947A03CD57DF4F88818F3709F018824F
:101EC000DF91CF911F910F91FF90EF90DF90CF9016
:101ED000BF909F908F900895043490F762E0812F17
:101EE0000E947A03CD57DF4F88818F3711F08BE046
:101EF0008883F401EB59F74F81E090E09183808370
:101F0000DFCF0434E8F6FE01ED57FF4F80818330C8
:101F100021F460E0812F0E944C0361E0812F0E9438
:101F20007A03CD57DF4F88818F3751F281E0BACFE6
:101F30000C3020F084ED810F833010F661E0812FAA
:101F40000E947A0361E0812F0E947A0360E0812F72
:101F50000E944C03CD57DF4F88818F3709F4B0CFF3
:101F600083E0A0CF043408F0ABCFCD57DF4F88819A
:101F70008F3711F084E08883F601E254FC4F8081B2
:101F80008F3FA9F090E0FC01EE0FFF1FE80FF91F53
:101F9000E157F64FE0818E2F90E0FC01EE0FFF1F1E
:101FA000E80FF91FE250F74F808186FD89CF4FEF90
:101FB0005FEF6FEF7FEF812FDF91CF911F910F9137
:101FC000FF90EF90DF90CF90BF909F908F900C94F8
:101FD000340E1451123008F073CFCD57DF4F888183
:101FE0008F3709F46DCF86E05DCF81E492E0DF9119
:101FF000CF911F910F91FF90EF90DF90CF90BF9006
:102000009F908F900C94280E0F931F93CF93DF9384
:1020100081E080930E0480910D04882329F01092B2
:102020000D048FEF80930002E8E9F4E0CFE8D4E0FC
:10203000A4E0B4E0119219921D9284E0E13AF8070D
:10204000C9F70EEB13E0C0E0DFEF8AEC8C0F62E023
:1020500070E0803130F08EEF8C0F843428F461E032
:1020600070E08C2F0E94A80EF801D1938F01CF5FF2
:10207000C63459F71092CA041092C9041092BD03D5
:102080001092BC0310920E04DF91CF911F910F911B
:1020900008954F925F926F927F928F929F92AF922C
:1020A000BF92FF920F931F93CF93DF93F82E8B0174
:1020B000D42FC22F6F3F760709F490C081E0809340
:1020C0000405F0922605109205051092270582EF6F
:1020D00098E00E9406098C2F0E94BD078091BA03E8
:1020E0009091BB038230910538F0880F991F880FBB
:1020F000991F05970197F1F70E94D3034B015C01EB
:102100008091FE0481116CC0CD2FD13208F0C0E265
:1021100081E08093FE048093FD049FEF9093FC0484
:102120001092FB049C0F9093FA048093D904909131
:10213000D9048F2D880F892B8093D9048091D804DE
:10214000813009F0A1C01092D8040E94D3034B0142
:102150005C018091D9048093BB008091000590912F
:102160000105A0910205B0910305892B8A2B8B2BC9
:10217000A1F00E94D30340900005509001056090AB
:10218000020570900305681979098A099B094616AA
:1021900057066806790608F444C08091BC0083FDA8
:1021A000D8CF85EC8093BC000E94D3034B015C0127
:1021B0008091FE04813009F469C08091FB048C1782
:1021C00010F4C091FB04EAEDF4E0A3E1B4E080E098
:1021D0008C1761F191919D938F5FFACF00E08CCFC6
:1021E0008091000590910105A0910205B091030531
:1021F000892B8A2B8B2B09F483CF0E94D303409029
:102200000005509001056090020570900305681963
:1022100079098A099B09461657066806790608F067
:102220006FCF8091FF040E949C07C0E0109234049D
:10223000C09333042D2F30E08C2F90E028173907FE
:102240000CF046C082E592E00E94280EF0927A03DC
:1022500000937B030AE713E0AD2EB12CC8018A5727
:1022600093408A159B050CF041C00F5F1F4F909162
:102270003304809134049817C9F182EF98E00E94EA
:10228000BF08F8018183EACF85EE8CCF80910005ED
:1022900090910105A0910205B0910305892B8A2B2D
:1022A0008B2B09F485CF0E94D303409000055090FA
:1022B00001056090020570900305681979098A0983
:1022C0009B09461657066806790608F071CFA9CF14
:1022D000821793070CF0BACF8FE692E00E94280E87
:1022E000D091330480913404D81BB0CFDE5F6D2FC2
:1022F00070E04AE753E087E7DF91CF911F910F919C
:10230000FF90BF90AF909F908F907F906F905F9065
:102310004F900C949106EF92FF920F931F93CF93DF
:10232000DF938956823108F035C0EA01162FE82F75
:10233000F0E08827E156FE4E8F4F0C941120E213F7
:10234000CA114C13CA11A113CA112A13CE12CA11F1
:10235000CA11CA11CA11CA11B111CA119212CA11F5
:102360001413998195FF0AC08BE892E0DF91CF9119
:102370001F910F91FF90EF900C94280E888131E00F
:1023800096FB222720F9232798719830D1F148F441
:102390009923A9F0DF91CF911F910F91FF90EF90BA
:1023A0000895903109F44CC09831A1F720910002B2
:1023B00012160CF472C08FEF80930002EBCF3093B3
:1023C000040580932605109205051092270502E06A
:1023D000011778F4FE01E00FF11D61816795662712
:1023E00067958081680F82EF98E00E9406090E5F72
:1023F000EFCF81E00E94BD0783E191E00197F1F703
:10240000C9CF9A814B816630A1F430E8439FB00177
:102410001124690F711D4D814795442747959C8173
:10242000490FDF91CF911F910F91FF90EF900C9486
:102430004910479544274795490F6FEF7FEFF1CF3C
:10244000E0910002E7301CF08BEA92E08FCF3A81F6
:102450009B816630D9F460E8969FA0011124430F58
:10246000511D9D819795992797953C81930FEF5F1B
:10247000E093000235E0E302F0011124EF55FB4F39
:102480008083528341839383248384CF97959927B4
:102490009795930F4FEF5FEFEACF90E0622F022EF8
:1024A000000C770B35E0492F50E06417750764F096
:1024B000349FF001359FF00D1124EF55FB4F408103
:1024C000481719F09F5FEFCF90E085E0492F50E06B
:1024D000641775071CF19830F8F4FA0131968E9F55
:1024E000D0018F9FB00D1124AF55BB4F3C91849FFD
:1024F000F001859FF00D1124EF55FB4F30831196AD
:102500004D915C9112975283418313963C9113979E
:10251000338314963C9134839F5FD8CF215020930E
:10252000000238CF623078F0898160E8869F9001A0
:1025300011248881820F932F911D009721F0909391
:10254000BB038093BA0380910D04811123CFC0E0B7
:102550008CEE8C0F823028F466E070E08C2F0E94A5
:10256000A80ECF5FC634A1F781E080930D041092CE
:1025700034041092330410920505109227050E942E
:102580007E078DEA98E090935704809356048EEA74
:1025900098E090935B0480935A04FCCE653008F475
:1025A000F9CE18818EEF810F843408F0F3CE0981C3
:1025B000EA80FB80CC81E12FF0E0E254FC4F808187
:1025C0008033C0F490E0FC01EE0FFF1FE80FF91F0D
:1025D000E157F64FE0818E2F90E0FC01EE0FFF1FD8
:1025E000E80FF91FE250F74F808186FF03C0812F6B
:1025F0000E94F50D80E8C89FA00111244F0D511DC8
:1026000090E8E99EB0011124600F711D812F0E9496
:10261000340E64E070E0812FDF91CF911F910F9114
:10262000FF90EF900C94A80E623008F4B3CE89812D
:10263000E0E88E9F900111248881820F932F911DD5
:10264000009729F09093020280930102A3CE81E0CB
:1026500090E0F8CF623008F49DCE698170E01230CE
:1026600091F08A81F0E88F9FC0011124682B792BAB
:10267000133049F08B8190E090E4899F902D88275A
:102680001124682B792B8881DF91CF911F910F91B5
:10269000FF90EF900C94950B80EF0E9460028CE607
:1026A0000E946002CEEF8CEC8C0F803108F040C0AD
:1026B00082E00E9460028AE00E94600286ED8C0F38
:1026C0008330C0F1C43430F484E00E9460028EE0B4
:1026D0000E9460028EEE8C0F823030F486E00E9401
:1026E000600281E00E9460028FE70E946002CF5F7B
:1026F000C43449F487EFDF91CF911F910F91FF9080
:10270000EF900C946002C43470F680E00E94600286
:1027100081E00E9460028BE00E94600281E00E94E2
:10272000600281E00E94600281E00E946002BBCFF3
:10273000CC3020F683E00E94600288E00E946002B4
:10274000C1CF662309F426CEC88180EF0E946002C3
:102750008EE60E9460028C2F0E946002C63450F602
:10276000D0E0FE01E15EF74F80810E946002CC0F55
:10277000DD1F8E010B59174FF80180818F770E9462
:102780006002F801808191819C012078232B39F02F
:10279000880F892F881F990B8F770E946002CB5971
:1027A000D74F888199819C012227307C232B09F403
:1027B000A1CF990F880B990F982F881F8F770E94B0
:1027C000600298CF80EF0E9460028AE60E94600259
:1027D000CAEC8FE7C03108F48C2F0E946002CF5FF3
:1027E000C031B9F787CF1F920F920FB60F92112405
:1027F0002F933F938F939F93AF93BF938091D00478
:102800009091D104A091D204B091D3043091CF041F
:1028100023E0230F2D3758F50196A11DB11D2093FC
:10282000CF048093D0049093D104A093D204B093AA
:10283000D3048091D4049091D504A091D604B09192
:10284000D7040196A11DB11D8093D4049093D504A3
:10285000A093D604B093D704BF91AF919F918F916D
:102860003F912F910F900FBE0F901F90189526E863
:10287000230F0296A11DB11DD2CF1F920F920FB64A
:102880000F9211240BB60F922F933F934F935F93A8
:102890006F937F938F939F93AF93BF93EF93FF9328
:1028A00088E295E00E94DD04FF91EF91BF91AF9126
:1028B0009F918F917F916F915F914F913F912F9158
:1028C0000F900BBE0F900FBE0F901F9018951F9288
:1028D0000F920FB60F9211240BB60F922F933F93C6
:1028E0004F935F936F937F938F939F93AF93BF9318
:1028F000EF93FF9388E295E00E945F04FF91EF91D0
:10290000BF91AF919F918F917F916F915F914F9107
:102910003F912F910F900BBE0F900FBE0F901F9005
:1029200018951F920F920FB60F9211240BB60F92AB
:102930002F933F934F935F936F937F938F939F93C7
:10294000AF93BF93EF93FF9385EC95E00E94DD0476
:10295000FF91EF91BF91AF919F918F917F916F9177
:102960005F914F913F912F910F900BBE0F900FBE33
:102970000F901F9018951F920F920FB60F9211246F
:102980000BB60F922F933F934F935F936F937F9369
:102990008F939F93AF93BF93EF93FF9385EC95E055
:1029A0000E945F04FF91EF91BF91AF919F918F9132
:1029B0007F916F915F914F913F912F910F900BBE3F
:1029C0000F900FBE0F901F9018951F920F920FB689
:1029D0000F9211240BB60F922F933F934F935F9357
:1029E0006F937F938F939F93AF93BF93EF93FF93D7
:1029F00082E696E00E94DD04FF91EF91BF91AF91D6
:102A00009F918F917F916F915F914F913F912F9106
:102A10000F900BBE0F900FBE0F901F9018951F9236
:102A20000F920FB60F9211240BB60F922F933F9374
:102A30004F935F936F937F938F939F93AF93BF93C6
:102A4000EF93FF9382E696E00E945F04FF91EF917F
:102A5000BF91AF919F918F917F916F915F914F91B6
:102A60003F912F910F900BBE0F900FBE0F901F90B4
:102A700018951F920F920FB60F9211240BB60F925A
:102A80002F933F934F935F936F937F938F939F9376
:102A9000AF93BF93EF93FF938FEF96E00E94DD0417
:102AA000FF91EF91BF91AF919F918F917F916F9126
:102AB0005F914F913F912F910F900BBE0F900FBEE2
:102AC0000F901F9018951F920F920FB60F9211241E
:102AD0000BB60F922F933F934F935F936F937F9318
:102AE0008F939F93AF93BF93EF93FF938FEF96E0F6
:102AF0000E945F04FF91EF91BF91AF919F918F91E1
:102B00007F916F915F914F913F912F910F900BBEED
:102B10000F900FBE0F901F9018951F920F920FB637
:102B20000F9211240F900FBE0F901F9018951F92B7
:102B30000F920FB60F9211240BB60F922F933F9363
:102B40004F935F936F937F938F939F93AF93BF93B5
:102B5000EF93FF938091B900887F803609F44DC0D0
:102B600008F040C0883209F4A9C028F5803109F482
:102B70009DC0C8F4882309F4FBC0883009F496C0CE
:102B8000FF91EF91BF91AF919F918F917F916F9145
:102B90005F914F913F912F910F900BBE0F900FBE01
:102BA0000F901F901895883109F488C0803241F742
:102BB0008093FC0414C0803409F49DC040F4803339
:102BC000B9F38833E9F68093FC0485ECB0C0803516
:102BD00009F485C0883509F496C0883489F60E94C6
:102BE000700ECECF883909F48CC038F5883729F0BB
:102BF00050F4883611F0803719F683E08093FE0494
:102C000010927C0457C0883809F47BC0803919F0D1
:102C1000803809F0B5CF80917C04803208F071C013
:102C2000E0917C0481E08E0F80937C048091BB0056
:102C3000F0E0E45AFB4F80833DC0803B39F0E0F484
:102C4000803A09F479C0883A09F09ACF84E08093F9
:102C5000FE041092590410925804E0915604F09129
:102C6000570419958091580481110FC081E0809319
:102C700058041092360409C0803C09F4A6CF883C61
:102C800009F4A3CF883B09F07BCFE091590481E0A0
:102C90008E0F80935904F0E0EA5CFB4F80818093B3
:102CA000BB00909159048091580429C08091D904A7
:102CB0008093BB0085EC8093BC0062CF9091FB04B5
:102CC0008091FA04981758F5E091FB0481E08E0F8B
:102CD0008093FB04F0E0E652FB4F8081E9CFE09166
:102CE000FB0481E08E0F8093FB048091BB00F0E039
:102CF000E652FB4F80839091FB048091FA04981771
:102D0000C8F285E8D8CFE091FB0481E08E0F809374
:102D1000FB048091BB00F0E0E652FB4F8083809182
:102D2000FD0481115CCF81E08093D80484EA809314
:102D3000BC001092FE0424CF85EC8093BC0010925E
:102D4000FE0480917C04803230F4E0917C04F0E059
:102D5000E45AFB4F108260917C0470E0E0915A04C9
:102D6000F0915B048CE594E0199510927C0408CFF7
:102D70001092FC0434CF1F920F920FB60F921124C1
:102D80000BB60F922F933F934F935F936F937F9365
:102D90008F939F93AF93BF93EF93FF9348E251E0DC
:102DA00064E271E090E080E00E94E309FF91EF911E
:102DB000BF91AF919F918F917F916F915F914F9153
:102DC0003F912F910F900BBE0F900FBE0F901F9051
:102DD00018951F920F920FB60F9211240BB60F92F7
:102DE0002F933F934F935F936F937F938F939F9313
:102DF000AF93BF93EF93FF9348EA50E064EA70E02B
:102E000083E090E00E94E309FF91EF91BF91AF91C1
:102E10009F918F917F916F915F914F913F912F91F2
:102E20000F900BBE0F900FBE0F901F9018951F9222
:102E30000F920FB60F9211240BB60F922F933F9360
:102E40004F935F936F937F938F939F93AF93BF93B2
:102E5000EF93FF9348E950E064E970E082E090E08E
:102E60000E94E309FF91EF91BF91AF919F918F91E4
:102E70007F916F915F914F913F912F910F900BBE7A
:102E80000F900FBE0F901F9018951F920F920FB6C4
:102E90000F9211240BB60F922F933F934F935F9392
:102EA0006F937F938F939F93AF93BF93EF93FF9312
:102EB00048E850E064E870E081E090E00E94E309B7
:102EC000FF91EF91BF91AF919F918F917F916F9102
:102ED0005F914F913F912F910F900BBE0F900FBEBE
:102EE0000F901F90189510922B0510922A0588EECE
:102EF00093E0A0E0B0E080932C0590932D05A09383
:102F00002E05B0932F052DE032E030932905209354
:102F1000280545E351E0509335054093340544E3DB
:102F200051E0509337054093360540E351E050930C
:102F300039054093380541E351E050933B054093F8
:102F40003A0542E351E050933D0540933C0546E38A
:102F500051E050933F0540933E0510924105109279
:102F6000420510924305109244051092C805109234
:102F7000C7058093C9059093CA05A093CB05B0936C
:102F8000CC053093C6052093C50545ED50E0509320
:102F9000D2054093D10544ED50E05093D4054093C1
:102FA000D30540ED50E05093D6054093D50541ED53
:102FB00050E05093D8054093D70542ED50E0509330
:102FC000DA054093D90546ED50E05093DC05409377
:102FD000DB051092DE051092DF051092E0051092DD
:102FE000E105109265061092640680936606909340
:102FF0006706A0936806B093690630936306209332
:1030000062064DEC50E050936F0640936E064CEC18
:1030100050E0509371064093700648EC50E0509396
:1030200073064093720649EC50E050937506409346
:1030300074064AEC50E050937706409376064EECC7
:1030400050E0509379064093780610927B061092D8
:103050007C0610927D0610927E0610920207109256
:1030600001078093030790930407A0930507B0938B
:103070000607309300072093FF0625EC30E03093DD
:103080000C0720930B0724EC30E030930E072093BD
:103090000D0720EC30E03093100720930F0721EC50
:1030A00030E0309312072093110722EC30E0309388
:1030B00014072093130726EC30E030931607209373
:1030C0001507109218071092190710921A071092FC
:1030D0001B072CE937E01092DD071092DC073093D4
:1030E000E0072093DF0740E450E05093E20740936D
:1030F000E1071092E3071092E4071092E60710929E
:10310000E5071092E7071092E9071092E80710927E
:10311000EB071092EA071092ED071092EC0710925D
:10312000EF071092EE071092F1071092F00710923D
:10313000F3071092F2071092F5071092F40710921D
:10314000FB071092FA071092FD071092FC071092ED
:10315000FF071092FE0710920108109200081092CB
:103160000F0810920E081092DE0710921C081092A1
:103170001E0810921D081092F10846EE51E050937F
:1031800003084093020840EF51E050930508409334
:1031900004084AEF51E0509307084093060844E0C2
:1031A00052E050930908409308084EE052E05093D3
:1031B0000B0840930A0848E152E050930D084093F1
:1031C0000C0842E252E0509311084093100843E289
:1031D00052E0509313084093120842E557E0509391
:1031E0001508409314083093F7072093F6074BE235
:1031F00054E050931708409316083093F907209332
:10320000F8072EE232E03093190820931808109244
:10321000F5081092F4088093F6089093F708A093AD
:10322000F808B093F9088FE192E09093F308809347
:10323000F208EFE8F9E02FEF48EB5BE080918E09B0
:103240008033B8F491E0980F90938E09808390E0DA
:10325000DC01AA0FBB1FA80FB91FA250B74F1296CF
:103260005C934E93119733968AE0EF31F80731F76C
:1032700008952083F8CF789484B5826084BD84B5A6
:10328000816084BD85B5826085BD85B5816085BD61
:1032900080916E00816080936E0010928100809119
:1032A00081008260809381008091810081608093A1
:1032B0008100809180008160809380008091B100C6
:1032C00084608093B1008091B00081608093B000F1
:1032D0008091910082608093910080919100816043
:1032E0008093910080919000816080939000809104
:1032F000A10082608093A1008091A10081608093F1
:10330000A1008091A00081608093A00080912101A4
:10331000826080932101809121018160809321014D
:103320008091200181608093200180917A008460E7
:1033300080937A0080917A00826080937A008091F5
:103340007A00816080937A0080917A00806880930F
:103350007A001092C10085E180931C0880911D08BD
:1033600090911E080E94B520C0911C08D0E0CE01AB
:1033700001960E94192090931E0880931D08FC015D
:10338000EC0FFD1F108212E0DC011C9325E011966A
:103390002C93AE014250510965E373E002960E94FE
:1033A0003E2185E99BE090938A04809389048AEC0E
:1033B0009AE090938804809387048DE99AE0909333
:1033C00086048093850488E79DE09093840480932D
:1033D000830488EA9EE0909382048093810480E2D3
:1033E0009DE09093800480937F048BE891E190931B
:1033F0008C0480938B0484E090E190938E048093FE
:103400008D04E0910F07F09110071083E0910F07F2
:10341000F09110071082E0910B07F0910C071082D9
:10342000E0910D07F0910E0780E18083109217075D
:10343000E0911307F091140786E08083E091110773
:10344000F0911207808180618083E0911107F091F3
:103450001207808188608083E0911107F091120744
:10346000808180688083E0911107F091120780814C
:103470008F7D80838091F10881114FC061E08DE0E4
:103480000E947A0362ED70E080E090E00E94F80311
:1034900061E08DE00E944C0368E270E080E090E023
:1034A0000E94F80360E08DE00E944C0362ED70E042
:1034B00080E090E00E94F80361E08DE00E944C0300
:1034C00068E270E080E090E00E94F80360E08DE048
:1034D0000E944C036AEF70E080E090E00E94F803E5
:1034E000C5E062ED70E080E090E00E94F80361E0EA
:1034F0008DE00E944C0368E270E080E090E00E9462
:10350000F80360E08DE00E944C03C15051F76DE775
:1035100070E080E090E00E94F8038FEF96E09093D7
:103520001B0880931A089093DD078093DC078CEDCD
:1035300097E00E9436028CE997E00E94DE060E9426
:103540000410D5E0DD24D39402E010E0EE24E394EF
:10355000F12C80919804882391F1C0908F04C2FCD3
:10356000E1C2C0E0C3FE06C083E00E942303892BB2
:1035700009F0C860C4FE06C084E00E942303892BC2
:1035800009F0C061C5FE06C085E00E942303892BB7
:1035900009F0C062C6FE06C086E00E942303892BA4
:1035A00009F0C064C7FE06C087E00E942303892B90
:1035B00009F0C06840E06C2F80E00E94350D8091DA
:1035C0009904882309F44AC0C0909004CC2DC1709E
:1035D000C0FE07C088E00E942303C1E0892B09F4E4
:1035E000C0E0C1FE06C089E00E942303892B09F0D8
:1035F000C260C2FE06C08AE00E942303892B09F044
:10360000C460C3FE06C08BE00E942303892B09F02F
:10361000C860C4FE06C08CE00E942303892B09F019
:10362000C061C5FE06C08DE00E942303892B09F00E
:10363000C062C6FE06C08EE00E942303892B09F0FB
:10364000C064C7FE06C08FE00E942303892B09F0E7
:10365000C06840E06C2F81E00E94350D80919A0493
:10366000882309F44AC0C0909104CC2DC170C0FEDB
:1036700007C080E10E942303C1E0892B09F4C0E068
:10368000C1FE06C081E10E942303892B09F0C260BC
:10369000C2FE06C082E10E942303892B09F0C460A8
:1036A000C3FE06C083E10E942303892B09F0C86092
:1036B000C4FE06C084E10E942303892B09F0C06187
:1036C000C5FE06C085E10E942303892B09F0C06274
:1036D000C6FE06C086E10E942303892B09F0C06460
:1036E000C7FE06C087E10E942303892B09F0C0684A
:1036F00040E06C2F82E00E94350D80919B0488236E
:1037000009F44AC0C0909204CC2DC170C0FE07C01D
:1037100088E10E942303C1E0892B09F4C0E0C1FEC7
:1037200006C089E10E942303892B09F0C260C2FE12
:1037300006C08AE10E942303892B09F0C460C3FEFE
:1037400006C08BE10E942303892B09F0C860C4FEE8
:1037500006C08CE10E942303892B09F0C061C5FEDD
:1037600006C08DE10E942303892B09F0C062C6FECA
:1037700006C08EE10E942303892B09F0C064C7FEB6
:1037800006C08FE10E942303892B09F0C06840E046
:103790006C2F83E00E94350D80919C04882309F4EE
:1037A0004AC0C0909304CC2DC170C0FE07C080E217
:1037B0000E942303C1E0892B09F4C0E0C1FE06C0CA
:1037C00081E20E942303892B09F0C260C2FE06C079
:1037D00082E20E942303892B09F0C460C3FE06C065
:1037E00083E20E942303892B09F0C860C4FE06C04F
:1037F00084E20E942303892B09F0C061C5FE06C044
:1038000085E20E942303892B09F0C062C6FE06C030
:1038100086E20E942303892B09F0C064C7FE06C01C
:1038200087E20E942303892B09F0C06840E06C2FD7
:1038300084E00E94350D80919D04882309F44AC0DC
:10384000C0909404CC2DC170C0FE07C088E20E94D5
:103850002303C1E0892B09F4C0E0C1FE06C089E260
:103860000E942303892B09F0C260C2FE06C08AE2CF
:103870000E942303892B09F0C460C3FE06C08BE2BB
:103880000E942303892B09F0C860C4FE06C08CE2A5
:103890000E942303892B09F0C061C5FE06C08DE29A
:1038A0000E942303892B09F0C062C6FE06C08EE287
:1038B0000E942303892B09F0C064C7FE06C08FE273
:1038C0000E942303892B09F0C06840E06C2F85E03B
:1038D0000E94350D80919E04882309F44AC0C0904F
:1038E0009504CC2DC170C0FE07C080E30E94230365
:1038F000C1E0892B09F4C0E0C1FE06C081E30E944B
:103900002303892B09F0C260C2FE06C082E30E9435
:103910002303892B09F0C460C3FE06C083E30E9421
:103920002303892B09F0C860C4FE06C084E30E940B
:103930002303892B09F0C061C5FE06C085E30E9400
:103940002303892B09F0C062C6FE06C086E30E94ED
:103950002303892B09F0C064C7FE06C087E30E94D9
:103960002303892B09F0C06840E06C2F86E00E9499
:10397000350D80919F04882309F44AC0C0909604B5
:10398000CC2DC170C0FE07C088E30E942303C1E0B4
:10399000892B09F4C0E0C1FE06C089E30E9423031D
:1039A000892B09F0C260C2FE06C08AE30E9423038D
:1039B000892B09F0C460C3FE06C08BE30E94230379
:1039C000892B09F0C860C4FE06C08CE30E94230363
:1039D000892B09F0C061C5FE06C08DE30E94230358
:1039E000892B09F0C062C6FE06C08EE30E94230345
:1039F000892B09F0C064C7FE06C08FE30E94230331
:103A0000892B09F0C06840E06C2F87E00E94350DDB
:103A10008091A0048823D1F1C0909704CC2DC1706F
:103A2000C0FE07C080E40E942303C1E0892B09F493
:103A3000C0E0C1FE06C081E40E942303892B09F087
:103A4000C260C2FE06C082E40E942303892B09F0F3
:103A5000C460C3FE06C083E40E942303892B09F0DF
:103A6000C860C4FE06C084E40E942303892B09F0C9
:103A7000C061C5FE06C085E40E942303892B09F0BE
:103A8000C06240E06C2F88E00E94350D80911A08DA
:103A900090911B08DC01ED91FC910084F185E02DF3
:103AA0001995892B09F4D7C180911A0890911B08A8
:103AB000DC01ED91FC910284F385E02D19959C01C8
:103AC0008F3F980719F3982F8091E707882309F40F
:103AD0009BC0973F09F087C01092E707A091DF07CE
:103AE000B091E0076C91613709F440C0693709F083
:103AF00064C0E0911408F0911508309739F2809174
:103B0000E8079091E90783309105A0F430E020E0C8
:103B100050E040E070E060E08091F6079091F70798
:103B20001995B4CF82E00E942303892B09F419CDA3
:103B3000C4E018CDBD016D5F7F4F03970E949D02C9
:103B4000BC016D5F7F4F80E00E946D02E091DF0756
:103B5000F091E0079F012D5F3F4F428150E061816E
:103B600070E0E0911408F0911508D6CF809110080C
:103B700090911108892B09F489CFBD016F5F7F4FA8
:103B80008091E8079091E90701970E949D02BC018E
:103B90006F5F7F4F80E00E946D026091DF07709140
:103BA000E0076F5F7F4FE0911008F091110880915E
:103BB000FC079091FD07199569CFE0911208F091EB
:103BC0001308309709F462CF9D012F5F3F4F40915A
:103BD000E8075091E907415051098091FE07909103
:103BE000FF07199553CF6091E8077091E907822F7D
:103BF0000E946D028091E8079091E90701969093E9
:103C0000E9078093E80742CF6091E5077091E607E6
:103C10006115710509F4B1C027FDAFC0615071098C
:103C20007093E6076093E507822F0E946D028091F2
:103C3000E5079091E607892B09F028CF8091E307EB
:103C4000882309F423CF803D09F483C040F48039F0
:103C500049F1803C09F469C01092E30717CF843F13
:103C6000E1F1853F09F44DC0803EB1F7E0910208D3
:103C7000F0910308309781F3A091DF07B091E0073E
:103C80004C9120E8429FC001112411964C91480F9D
:103C9000592F511D6091E4078091EA079091EB073D
:103CA0001995DACFE0910408F09105083097A1F258
:103CB000A091DF07B091E0074C9120E8429FC0013E
:103CC000112411964C91480F592F511D6091E40712
:103CD0008091EC079091ED07E3CFE0910A08F09115
:103CE0000B08309709F4B8CFA091DF07B091E00737
:103CF0004C9150E011966C918091F2079091F307EE
:103D0000CFCFE0910C08F0910D08309709F4A4CFC3
:103D1000A091DF07B091E0074C9150E011966C91B3
:103D20008091F4079091F507BBCFE0910608F091E0
:103D30000708309709F490CFA091DF07B091E00712
:103D40004C9150E06091E4078091EE079091EF076D
:103D5000A7CFE0910808F0910908309709F47CCFCB
:103D6000A091DF07B091E0074C9150E06091E4072B
:103D70008091F0079091F10793CF903F30F4822F1C
:103D80008F708093E407922F907F903FF1F190F431
:103D9000903CB1F150F4903909F078CE1093E607D9
:103DA0000093E5079093E30771CE903D49F1903E73
:103DB000A9F36CCE993F09F442C028F48CE0890F36
:103DC000823060F363CE9F3F09F060CE1092E60729
:103DD0001092E5071092E3071092E40790E080E06C
:103DE0002091E1073091E20782179307A8F4E09150
:103DF000DF07F091E007E80FF91F10820196F0CF7E
:103E0000F092E607E092E507CDCFD092E707109257
:103E1000E9071092E8073ACE1092E7071092E907F7
:103E20001092E807E0911808F091190880910008B5
:103E300090910108309709F429CE199527CEE09189
:103E40001608F0911708309709F420CE8091F807F2
:103E50009091F907F2CF8FB7F8948090D0049090AA
:103E6000D104A090D204B090D3048FBF8091CB0432
:103E70009091CC04A091CD04B091CE044091010268
:103E80005091020270E060E0881A990AAA0ABB0AFF
:103E9000481559056A057B0508F051C0840F951F28
:103EA000A61FB71F8093CB049093CC04A093CD049E
:103EB000B093CE048CE9A82E87E0B82ECAECC031AE
:103EC000C8F4F501ED57FF4F8081823099F480915D
:103ED000C9049091CA040C2E02C0959587950A9446
:103EE000E2F780FF07C08C2F0E94B603BC018C2F25
:103EF0000E943006CF5F8FEFA81AB80AC031F9F6DA
:103F00008091000287FD1BC0C0E02C2F30E0809123
:103F10000002082E000C990B8217930784F0D29FA1
:103F2000F001D39FF00D1124EF55FB4F6181728199
:103F30002481438180810E944910CF5FE6CF0E9497
:103F40006C0507CB052E97FB1EF400940E94B91F49
:103F500057FD07D00E94D41F07FC03D04EF40C94E9
:103F6000B91F50954095309521953F4F4F4F5F4F6A
:103F7000089590958095709561957F4F8F4F9F4FD5
:103F800008950E94F61FA59F900DB49F900DA49FC9
:103F9000800D911D11240895B7FF0C94C11F0E943C
:103FA000C11F821B930B0895A1E21A2EAA1BBB1BF3
:103FB000FD010DC0AA1FBB1FEE1FFF1FA217B307F5
:103FC000E407F50720F0A21BB30BE40BF50B661F0B
:103FD000771F881F991F1A9469F7609570958095CF
:103FE00090959B01AC01BD01CF010895A29FB00146
:103FF000B39FC001A39F700D811D1124911DB29F1D
:10400000700D811D1124911D0895991B79E004C044
:10401000991F961708F0961B881F7A95C9F7809507
:104020000895EE0FFF1F881F8BBF0790F691E02DBC
:1040300019940F931F93CF93DF938230910510F45F
:1040400082E090E0E091210AF091220A30E020E045
:10405000B0E0A0E0309799F42115310509F44AC089
:10406000281B390B24303105D8F58A819B816115D5
:10407000710589F1FB0193838283FE0111C04081A8
:1040800051810281138148175907E0F048175907F9
:1040900099F4109761F012960C93129713961C9353
:1040A0003296CF01DF91CF911F910F910895009328
:1040B000210A1093220AF4CF2115310551F042173D
:1040C000530738F0A901DB019A01BD01DF01F801B6
:1040D000C1CFEF01F9CF9093220A8093210ACDCF6F
:1040E000FE01E20FF31F819391932250310939832E
:1040F0002883D7CF20911F0A3091200A232B41F427
:1041000020910502309106023093200A20931F0A65
:1041100020910302309104022115310541F42DB79D
:104120003EB74091070250910802241B350BE091E5
:104130001F0AF091200AE217F307A0F42E1B3F0B91
:104140002817390778F0AC014E5F5F4F2417350709
:1041500048F04E0F5F1F5093200A40931F0A81932F
:1041600091939FCFF0E0E0E09CCFCF93DF93009757
:10417000E9F0FC01329713821282A091210AB091DA
:10418000220AED0130E020E01097A1F42081318176
:10419000820F931F20911F0A3091200A2817390798
:1041A00009F061C0F093200AE0931F0ADF91CF91DC
:1041B0000895EA01CE17DF07E8F54A815B819E0189
:1041C00041155105B1F7E901FB83EA834991599102
:1041D000C40FD51FEC17FD0761F480819181029611
:1041E000840F951FE90199838883828193819B8342
:1041F0008A83F0E0E0E012968D919C9113970097EE
:10420000B9F52D913C911197CD010296820F931F24
:1042100020911F0A3091200A2817390739F6309764
:1042200051F51092220A1092210AB093200AA0930D
:104230001F0ABCCFD383C28340815181840F951F55
:10424000C817D90761F44E5F5F4F88819981480F85
:10425000591F518340838A819B81938382832115D7
:10426000310509F0B0CFF093220AE093210A9ECFE6
:10427000FD01DC01C0CF13821282D7CFFB01DC012C
:104280004150504048F001900D920020C9F701C004
:0E4290001D9241505040E0F70895F894FFCF82
:10429E00FF13000000230A800000000000FF04321C
:1042AE000478044C05A90487049B04000000000652
:1042BE0009D9083509AF08D208BF08B0084D617892
:1042CE0020736572766F73206174746163686564C0
:1042DE0000556E6B6E6F776E2070696E206D6F6419
:1042EE0065004932433A20546F6F206D616E79201C
:1042FE0062797465732072656365697665640049D9
:10430E0032433A20546F6F20666577206279746568
:10431E00732072656365697665640031302D62695C
:10432E00742061646472657373696E67206E6F7456
:10433E0020737570706F7274656400746F6F206D8A
:10434E00616E792071756572696573002F7072697F
:10435E00766174652F7661722F666F6C6465727309
:10436E002F6C6A2F3766706C38335F7337777833FC
:10437E006436646A6C675F773279676D30303030DF
:10438E0067702F542F2E61726475696E6F494445A4
:10439E002D756E7361766564323032343131313958
:1043AE002D31353738332D316F376E7834372E390E
:1043BE00636A686A2F5374616E64617264466972CF
:1043CE006D6174612F5374616E64617264466972BB
:0A43DE006D6174612E696E6F0000BE
:00000001FF
