:100000000C94DA000C9402010C9402010C9402018D
:100010000C9402010C9402010C9402010C94020154
:100020000C9402010C94BE190C94C5160C94341750
:100030000C9402010C9402010C9402010C94020134
:100040000C9402010C94E71A0C9402010C94020126
:100050000C9402010C9402010C9402010C947B1686
:100060000C9402010C948C190C9466190C940201E6
:100070000C9402010C9402010C9402010C940201F4
:100080000C9402010C9402010C9402010C940201E4
:100090000C94C8190C9402010C9402010C940201F6
:1000A0000C9402010C9402010C940201080B000252
:1000B0000202000009040000010202000005240001
:1000C0001001052401010104240206052406000193
:1000D0000705810310004009040100020A00000026
:1000E00007050202400000070583024000000403E8
:1000F000090412010002EF02014041233780000190
:100100000102030141726475696E6F204C4C43001B
:1001100041726475696E6F204D6963726F000706E6
:1001200005040100080A0B0C0D0900000000240062
:1001300027002A002D0030000000000025002800C4
:100140002B002E00310000000000230026002900B3
:100150002C002F000404040404030405020202021C
:100160000403020202020606060606060404020250
:100170000204040408020110408040102040804026
:1001800080080204018040201002011080102040ED
:1001900040200000000200090F0000030401000CD1
:1001A000000000000000000000000000000000004F
:1001B0000000D61B11241FBECFEFDAE0DEBFCDBF9B
:1001C00012E0A0E0B1E0E8EAF7E402C005900D9289
:1001D000A634B107D9F726E0A6E4B2E001C01D922B
:1001E000AB36B207E1F710E0CAEDD0E004C02197CA
:1001F000FE010E947622C93DD107C9F70E940E1D5B
:100200000C94D2230C940000862FE0915C03F091B3
:100210005D03309711F0BA0109940895862FE0919B
:100220005A03F0915B03309711F0BA0109940895D5
:10023000862FE0915803F0915903309711F0BA01DD
:1002400009940895862FE0915603F0915703309753
:1002500011F0BA0109940895862FE0915403F091AA
:100260005503309711F0BA0109940895862FE09153
:100270005203F0915303309711F0BA010994089595
:100280000895862F642FE0915E03F0915F0330970D
:1002900011F0A90109940895E0916003F0916103C0
:1002A000309709F009940895CF93DF93FC01A08162
:1002B000B181109701F1EC01ED91FC911197019042
:1002C000F081E02D69EFCD01099588819981DC01EC
:1002D000ED91FC910190F081E02D62E0099588811B
:1002E0009981DC01ED91FC910190F081E02D65E0B8
:1002F000DF91CF910994DF91CF910895A0916A0584
:10030000B0916B05ED91FC9111970190F081E02D7A
:10031000682FCD0109941F93CF93DF93182FEB0122
:1003200080913105909132056817790760F48091CA
:100330002F0590913005C80FD91F188380E0DF91F9
:10034000CF911F910895E0915E05F0915F05309780
:1003500011F481E0F4CF81E080932E0580914A056D
:1003600090914B0509958091310590913205C81700
:10037000D90778F7DCCFCF93DF93EC01FB0130E0B6
:1003800020E0C901880F991F8C179D0778F44081E0
:10039000DB014D93BD011197918197959927979511
:1003A000942B9C932F5F3F4F3296EBCFC901DF9187
:1003B000CF910895FC018091AE03882311F13FB7DE
:1003C000F89482E08093E9002091F200822F90E07F
:1003D0001816190614F481E090E0882339F0289A61
:1003E00044E64093AD034091F1004083222339F06D
:1003F0002091F200211103C02BE62093E8003FBFBB
:1004000008958FEF9FEF08952FB7F89483E08093BE
:10041000E9009091E800892F807295FF04C09091C7
:10042000F20080E4891B2FBF08958091A5038111FC
:100430000DC082E08093A10384E08093A203109218
:10044000A4031092A30381E08093A50381EA93E0C3
:10045000089581508F3008F047C0E82FF0E0ED5C40
:10046000FD4F0C94762250025402420248024C0284
:1004700074027402740257025D02610265026B022B
:1004800074026F02809180008F77809380000895BE
:10049000809180008F7DF9CF80918000877FF5CF9C
:1004A00084B58F7784BD089584B58F7DFBCF80910F
:1004B00090008F77809390000895809190008F7DB9
:1004C000F9CF80919000877FF5CF8091C0008F7722
:1004D0008093C00008958091C0008F7DF9CF8091F6
:1004E000C200877F8093C2000895CF93DF93282FA7
:1004F00030E0F901EE56FE4F8491F901ED58FE4FC0
:10050000D491F901EC5AFE4FC491CC23A1F0811192
:100510000E942902EC2FF0E0EE0FFF1FEA5BFE4F76
:10052000A591B491EC91ED2381E090E009F480E095
:10053000DF91CF91089580E090E0FACF1F93CF93A1
:10054000DF93282F30E0F901EE56FE4F8491F90138
:10055000ED58FE4FD491F901EC5AFE4FC491CC23D3
:10056000A9F0162F81110E942902EC2FF0E0EE0F66
:10057000FF1FE85CFE4FA591B4918FB7F894EC9102
:10058000111108C0D095DE23DC938FBFDF91CF918E
:100590001F910895DE2BF8CFCF93DF9390E0FC01FD
:1005A000ED58FE4F24918C5A9E4FFC018491882374
:1005B000C9F090E0880F991FFC01E65DFE4FA59100
:1005C000B491FC01E85CFE4FC591D49161110DC05E
:1005D0009FB7F8948C91209582238C93888128234F
:1005E00028839FBFDF91CF910895623051F49FB768
:1005F000F8943C91822F809583238C93E8812E2B55
:10060000EFCF8FB7F894EC912E2B2C938FBFEACFBE
:10061000823108F08251E82FF0E0E25EFE4FE49173
:1006200090917B008E2F880F880F80729F7D892B81
:1006300080937B00E770E064E0937C0080917A0017
:10064000806480937A0080917A0086FDFCCF80914F
:1006500078009091790008953FB7F89480919D03B8
:1006600090919E03A0919F03B091A00326B5A89BF3
:1006700005C02F3F19F00196A11DB11D3FBFBA2F34
:10068000A92F982F8827BC01CD01620F711D811DF4
:10069000911D42E0660F771F881F991F4A95D1F779
:1006A00008958F929F92AF92BF92CF92DF92EF9276
:1006B000FF926B017C010E942C034B015C01C11471
:1006C000D104E104F104B9F00E942C0368197909FE
:1006D0008A099B09683E73408105910580F321E0FA
:1006E000C21AD108E108F10888EE880E83E0981E4E
:1006F000A11CB11CE4CFFF90EF90DF90CF90BF9092
:10070000AF909F908F900895009721F0805C9F4F4D
:100710000C945401089540914C0350914D03209145
:100720004A0330914B0342175307B4F49091E80009
:100730009570E1F39091E80092FD19C08093F1006B
:1007400080914C0390914D0301968F739927892BCB
:1007500019F48EEF8093E80080914C0390914D0343
:10076000019690934D0380934C0381E0089580E0BF
:100770000895DF92EF92FF920F931F93CF93DF9331
:10078000D82E8A01EB017B01E40EF51ECE15DF05A4
:1007900059F0D7FE12C0FE0184910E948B0321966E
:1007A0008111F4CF0FEF1FEFC801DF91CF911F919F
:1007B0000F91FF90EF90DF9008958881EECF0F9317
:1007C0001F93CF93DF931F92CDB7DEB782E089836B
:1007D00042E450E06CEA70E080E80E94B9030E94B5
:1007E0001502DC0112960D911C910115110589F07D
:1007F000D801ED91FC910280F381E02DBE016F5F85
:100800007F4FC801099597FD04C0F8010085118547
:10081000ECCF89810F90DF91CF911F910F910895B7
:10082000615030F02091F100FC0120830196F8CF57
:10083000289A84E68093AD030895AF92BF92CF9239
:10084000DF92EF92FF920F931F93CF93DF936C0190
:100850007B018B01040F151FEB015E01AE18BF0871
:10086000C017D10759F06991D601ED91FC91019023
:10087000F081E02DC6010995892B79F7C501DF913B
:10088000CF911F910F91FF90EF90DF90CF90BF908D
:10089000AF900895FC01538D448D252F30E0842FB7
:1008A00090E0821B930B541710F0CF960895019798
:1008B0000895FC01918D828D981761F0A28DAE0F85
:1008C000BF2FB11D5D968C91928D9F5F9F73928F0C
:1008D00090E008958FEF9FEF0895FC01918D828D38
:1008E000981731F0828DE80FF11D858D90E0089505
:1008F0008FEF9FEF0895FC01918D228D892F90E05D
:10090000805C9F4F821B91098F73992708958FEF09
:1009100093E00E947B0421E0892B09F420E0822FE0
:10092000089580E090E0892B29F00E9487048111CE
:100930000C9400000895FC01A48DA80FB92FB11DDF
:10094000A35ABF4F2C91848D90E001968F73992705
:10095000848FA689B7892C93A089B1898C918274E0
:100960008C93938D848D981306C00288F389E02DB3
:1009700080818F7D80830895EF92FF920F931F9364
:10098000CF93DF93EC0181E0888F9B8D8C8D981342
:1009900019C0E889F989808185FF14C09FB7F89450
:1009A000EE89FF896083E889F98980818274808378
:1009B0009FBF81E090E0DF91CF911F910F91FF9059
:1009C000EF900895F62E0B8D10E00F5F1F4F0F7301
:1009D0001127E02E8C8D8E110CC00FB607FCFACFBC
:1009E000E889F989808185FFF5CFCE010E949B04BB
:1009F000F1CFEB8DEC0FFD2FF11DE35AFF4FF0828D
:100A00009FB7F8940B8FEA89FB8980818062CFCFF2
:100A1000CF93DF93EC01888D8823B9F0AA89BB8935
:100A2000E889F9898C9185FD03C0808186FD0DC020
:100A30000FB607FCF7CF8C9185FFF2CF808185FF41
:100A4000EDCFCE010E949B04E9CFDF91CF910895B5
:100A50008F929F92AF92BF92CF92DF92EF92FF92CE
:100A60000F931F93CF93DF936C017B018A018091D9
:100A70000B01882309F45CC08091AE03882309F43C
:100A800057C08091500380FF05C08091E0008260D4
:100A90008093E000E801B12C8AEFA82E93E0892E24
:100AA0002AE3922E209711F4BB20D9F10E94040270
:100AB00081110AC0AA94AA20D9F161E070E080E017
:100AC00090E00E945103EECF8C171D0611F00CF040
:100AD0008C2F9FB7F8948092E9002091E80025FDC3
:100AE00002C09FBFDFCF282F30E0C21BD30BF7011E
:100AF000815020F041914093F100FACFE20EF31EB5
:100B0000BB2021F09092E800B12CEBCF8091E8005F
:100B100085FDE7CF9092E800BB24B394209709F3BA
:100B2000F3CF5D9A84E680934F03101611063CF0D4
:100B300081E090E0F6019383828310E000E0C80139
:100B4000DF91CF911F910F91FF90EF90DF90CF90A9
:100B5000BF90AF909F908F900895CF93DF931F9297
:100B6000CDB7DEB76983DC01ED91FC910280F381A2
:100B7000E02D41E050E0BE016F5F7F4F09950F907F
:100B8000DF91CF91089583E08093E9008091F20096
:100B9000882319F08AE38093E80008950E940402F4
:100BA00090E00895CF93DF931F92CDB7DEB7FC019D
:100BB0008485958597FD08C02FEF3FEF3587248703
:100BC0000F90DF91CF910895CE0101960E94DA0136
:100BD000019719F4898190E0F3CF8FEF9FEFF0CF69
:100BE0000F931F93CF93DF931F92CDB7DEB78C0186
:100BF000FC018485958597FF0BC0CE0101960E946C
:100C0000DA01019771F4898190E0F8019587848772
:100C1000F801848595850F90DF91CF911F910F91F9
:100C200008958FEF9FEFF1CFFC018485958597FDA7
:100C30000BC09FB7F89482E08093E9008091F200A6
:100C40009FBF90E0019608959FB7F89482E080934B
:100C5000E9008091F2009FBF90E008955F926F924B
:100C60007F928F929F92AF92BF92CF92DF92EF923C
:100C7000FF920F931F93CF93DF935C016901DA0119
:100C80005C90232B19F4CC24CA94DC2C8A013A0101
:100C9000660E771ED0E0C0E0F12CE12C87E0882EB4
:100CA000912CF50180819181D8016C910C2E01C0AD
:100CB000660F0A94EAF765296F77DC01ED91FC91E4
:100CC0000190F081E02D0995BFEFEB1AFB0AF801C6
:100CD000608170E0C4018C1B9D0B02C07595679507
:100CE0008A95E2F7562E2196C730D10558F1CE14D9
:100CF000DF0441F1D5018D919C91652D6F77DC0169
:100D0000ED91FC910190F081E02D0995BFEFEB1A78
:100D1000FB0A551C5524551C2797E6CFEC14FD04FF
:100D200008F4BFCFDF91CF911F910F91FF90EF900B
:100D3000DF90CF90BF90AF909F908F907F906F90FB
:100D40005F9008950F5F1F4F6016710639F7209767
:100D500049F3EC14FD0430F7F5018081918161E0E5
:100D600070E001C0660FCA95EAF761506521DC01A9
:100D7000ED91FC910190F081E02DDF91CF911F91D9
:100D80000F91FF90EF90DF90CF90BF90AF909F902A
:100D90008F907F906F905F9009941F93CF93DF9314
:100DA00000D0CDB7DEB7182F7A83698380912C05E8
:100DB00090912D050097C9F0DC01ED91FC91019017
:100DC000F081E02D1031B8F461157044A0F4612F6A
:100DD000606E099522E030E0AE014F5F5F4F62E048
:100DE00070E08CE295E00E942E060F900F90DF914C
:100DF000CF911F91089560EF099580912C059091F6
:100E00002D05DC01ED91FC910190F081E02D6FE664
:100E1000099580912C0590912D05DC01ED91FC91B7
:100E20000190F081E02D612F099522E030E0AE01C4
:100E30004F5F5F4F62E070E08CE295E00E942E060B
:100E400080912C0590912D05DC01ED91FC91019094
:100E5000F081E02D67EF0995C8CFEF92FF920F93D5
:100E60001F93CF93DF93C82F80912C0590912D0570
:100E70000097C9F17A018B01DC01ED91FC910190A1
:100E8000F081E02D60EF099580912C0590912D0562
:100E9000DC01ED91FC910190F081E02D6C2F099522
:100EA000E7010E0D1F1DC017D10759F030E020E0FB
:100EB000AE0161E070E08CE295E00E942E06219682
:100EC000F2CF80912C0590912D05DC01ED91FC91E4
:100ED0000190F081E02D67EFDF91CF911F910F918D
:100EE000FF90EF900994DF91CF911F910F91FF90A8
:100EF000EF900895CF92DF92EF92FF920F931F939E
:100F0000CF93DF93FC01E058FF4FE080EE2009F41F
:100F10005CC0EC01C05CDF4FA881B981109709F477
:100F200054C0FC01EF57FF4FC080D180F601118102
:100F30000081ED91FC9111970190F081E02D60EF1F
:100F4000CD01099588819981DC01ED91FC91019099
:100F5000F081E02D69E7099588819981DC01ED91A7
:100F6000FC910190F081E02D602F09958881998195
:100F7000DC01ED91FC910190F081E02D612F09954C
:100F8000F12C01E010E00F5F1F4FE016F10659F061
:100F900030E020E0A601400F511F61E070E0CE017B
:100FA0000E942E06F0CF88819981DC01ED91FC91A1
:100FB0000190F081E02D67EFDF91CF911F910F91AC
:100FC000FF90EF90DF90CF900994DF91CF911F9128
:100FD0000F91FF90EF90DF90CF900895009711F060
:100FE0000C947A07089520912303260F3327331F8B
:100FF00021323105ECF42091D503FC0190E080E032
:10100000243069F082E00895A09123032191AC017E
:101010004F5F5C4FA40FB52FB11D2C93019686171F
:1010200098F380912303680F6093230380E0089571
:1010300081E008951092D50381E08093D40310924B
:10104000AF0361E082E00E949E0261E083E00E94C3
:101050009E02E9EBF0E080818E7F808380818D7F2E
:10106000808388E48093B80085E48093BC00089571
:10107000CF93DF9391E0909300038823B9F0C09160
:10108000B800D091BA008091BC008A7B8093BC00EC
:1010900060E082E00E949E0260E083E00E949E0287
:1010A0000E941A08D093BA00C093B800DF91CF9184
:1010B00008958F929F92AF92BF92CF92DF92EF925C
:1010C000FF920F931F93CF93DF93D091FE03D13202
:1010D00008F0D7C0182FC091FD030E942C036B01AC
:1010E0007C018091D50381116BC082E08093D50390
:1010F0001093D4038FEF8093D3031092D203D09335
:10110000D103ADEDB3E0E1EBF3E080E0D81391C0A3
:101110001092B0038091B003CC0FC82BC093B003E2
:101120008091AF03813009F088C01092AF030E9414
:101130002C036B017C018091B0038093BB008091F4
:10114000D7039091D803A091D903B091DA03892BEA
:101150008A2B8B2BA1F00E942C030091D7031091B6
:10116000D8032091D9033091DA036C197D098E09D7
:101170009F09061717072807390708F442C080910E
:10118000BC0083FDD8CF85EC8093BC000E942C036B
:101190006B017C018091D503823009F450C08091AD
:1011A000D3038F3F09F46FC08091D303803209F4D9
:1011B0006CC08091D303803309F469C084E026C0F9
:1011C0008091D7039091D803A091D903B091DA030D
:1011D000892B8A2B8B2B09F484CF0E942C038090BF
:1011E000D7039090D803A090D903B090DA036C197C
:1011F0007D098E099F0986169706A806B90608F08C
:1012000070CF8091D6030E94380885E01092DC03ED
:101210001092FE031092DB03DF91CF911F910F918B
:10122000FF90EF90DF90CF90BF90AF909F908F9006
:1012300008959D9191938F5F69CF85EEA5CF8091A1
:10124000D7039091D803A091D903B091DA03892BE9
:101250008A2B8B2B09F49ECF0E942C030091D7037D
:101260001091D8032091D9033091DA036C197D09CC
:101270008E099F09061717072807390708F08ACF34
:10128000C0CF81E0C3CF80E0C1CF82E0BFCF83E099
:10129000BDCF089508950895E091FF028091FE0268
:1012A000E81730F4F0E0E252FD4F808190E00895BD
:1012B0008FEF9FEF08959091FF028091FE022FEF34
:1012C0003FEF981748F4E92FF0E0E252FD4F2081FC
:1012D00030E09F5F9093FF02C90108958091FE0264
:1012E0009091FF02891B990B0895CF92DF92EF92A4
:1012F000FF920F931F93CF93DF937C01CB018A0161
:101300002091DB03222389F0EB016B01C40ED51E73
:10131000CC15DD0569F06991D701ED91FC91019043
:10132000F081E02DC7010995F3CF642F0E94F307E8
:10133000C801DF91CF911F910F91FF90EF90DF9047
:10134000CF900895CF93DF931F92CDB7DEB7698317
:101350002091DB032223F9F02091FE03203258F084
:1013600021E030E0FC013383228390E080E00F90A5
:10137000DF91CF9108958091DC03E82FF0E0E352F4
:10138000FC4F998190838F5F8093DC038093FE03F1
:1013900081E090E0ECCF61E0CE0101960E94F3077E
:1013A000F7CF90E080E00895DF92EF92FF920F93E5
:1013B0001F93CF93DF93EC01D62E7A0189018881A8
:1013C0008C3008F067C061E08D2D0E94CC028881CE
:1013D000282F30E0F901EE0FFF1FE20FF31FE25E4E
:1013E000F94F9D2D9F736081607C692B608320E2A3
:1013F00032E02E193F0937FF02C02D5F3F4F359570
:10140000279535952795298320E639E0201B310B58
:1014100037FF02C02D5F3F4F3595279535952795AE
:101420002A832CE0622F0E946A22829FB00111243D
:1014300030E020E0AB01420F531FFA01EE0FFF1F17
:10144000E40FF51FE25EF94F908196FD16C02F5F05
:101450003F4F2C30310571F781110FC01092800081
:1014600082E0809381001092850010928400B19AEE
:1014700080916F00826080936F00E8818E2F90E0F2
:10148000FC01EE0FFF1FE80FF91FE25EF94F8081AC
:10149000806480838881DF91CF911F910F91FF90AD
:1014A000EF90DF9008952091DB023091DC028217EB
:1014B0009307F8F49C01220F331F280F391F8091E6
:1014C000D9029091DA02E091D802820F931FE80FBF
:1014D000F92FF11D6083E091D702E80FF92FF11D7C
:1014E00050832091D602820F911DFC01408380E041
:1014F000089581E008951092D5021092DC021092B6
:10150000DB02E5ECF2E0ADEBB2E0119211921D923C
:1015100082E0E53DF807C9F70895DC0170E0FB01C2
:10152000ED58FE4FE4911896EC9318976C5A7E4F45
:10153000FB018491E82FF0E0EE0FFF1FE85CFE4F07
:101540008591949115969C938E931497FB016491C9
:10155000E62FF0E0EE0FFF1FE65DFE4F85919491C0
:1015600017969C938E9316970895CF938C30B0F472
:1015700021E030E0082E02C0220F331F0A94E2F768
:101580004091920350919303672B51F4209530952D
:10159000242335233093930320939203CF9108950E
:1015A000242B352B30939303209392039091BC020C
:1015B0009111F4CFC82F0E940803BC018C2FCF914A
:1015C0000C94CD064F925F926F927F928F929F9272
:1015D000AF92BF92CF92DF92EF92FF920F931F9341
:1015E000CF93DF93843008F0A3C08F5FC82FCC0F58
:1015F000CC0FCC0F4C2ECF3110F05EE1452ED62F04
:1016000038EF532E5C0E852C912CC401880F991F46
:101610009C0124513B4F5901052DD12CC12C10E0C8
:10162000772473940415A8F5F601E80DF91DE15926
:10163000FA4F90819230B8F48D2F872166246394FD
:10164000811101C0612C7601EE0CFF1C913089F4F0
:10165000172931EAE30EF11CF501EE0DFF1D862D71
:1016600090E091838083770C0F5F8FEFC81AD80AC0
:10167000D9CF882371F3F701EF55FF4FEA0DFB1D1A
:1016800080819181019729F362E0802F0E94CC0232
:10169000E0CF10FF05C06D2F6170852D0E949E0266
:1016A00011FF06C06D2F627089EF8C0F0E949E02A1
:1016B00012FF06C06D2F64708AEF8C0F0E949E028D
:1016C00013FF06C06D2F68708BEF8C0F0E949E0277
:1016D00014FF06C06D2F60718CEF8C0F0E949E026C
:1016E00015FF06C06D2F60728DEF8C0F0E949E0259
:1016F00016FF06C06D2F60748EEF8C0F0E949E0245
:1017000017FF16C06D2F60788FEF8C0FDF91CF9190
:101710001F910F91FF90EF90DF90CF90BF90AF900F
:101720009F908F907F906F905F904F900C949E024F
:10173000DF91CF911F910F91FF90EF90DF90CF90AD
:10174000BF90AF909F908F907F906F905F904F90E1
:1017500008958F929F92AF92BF92CF92DF92EF92B5
:10176000FF920F931F93CF93DF93EB018E3108F01D
:1017700094C0082F10E0F801E159FA4F908193309E
:1017800009F498C0943009F088C0F801E756FD4F7D
:10179000C080D12C7601EE0CFF1C4B01603282E040
:1017A00078070CF03EC0F701EC0DFD1DED5BF94F25
:1017B0008181A8E88A2E912C881A910887FD93943C
:1017C000880C991C880C991C092C000CAA08BB08D1
:1017D000828128E532E0281B310987FD3395220FED
:1017E000331F220F331F032E000C440B550B2819F7
:1017F00039094A095B09DB01653B710514F0A4EB6B
:10180000B0E0B7FF02C0B0E0A0E00E94312224EBBC
:1018100030E040E050E00E940722820E931EA41E9A
:10182000B51EF701EC0DFD1DED5BF94F20812C304D
:1018300068F5318188E890E0831B910937FD939525
:10184000880F991F880F991F881699067CF032819E
:1018500088E592E0831B910937FD9395880F991FC6
:10186000880F991F881699060CF4C4010297880FF7
:10187000991F4FB7F89430E0F901EE0FFF1FE20F08
:10188000F31FE25EF94F928381834FBF000F111F58
:10189000F801E357FA4FD183C083DF91CF911F91B5
:1018A0000F91FF90EF90DF90CF90BF90AF909F90FF
:1018B0008F900895F82E83E0081759F08BEF800F72
:1018C000823038F087EF800F833018F08DE00813F6
:1018D000DDCF61E08F2D0E94CC02209729F460E0DB
:1018E0008F2D0E949E02D2CFCF3FD10511F461E02F
:1018F000F7CFF801EE56FE4FE491E150EF3008F0DB
:101900007CC0F0E0EA57F34F0C947622950C9A0CC9
:101910009F0CA90CB30CFD0CFD0CFD0CBD0CC70CF1
:10192000D10CDB0CE80CFD0CF00C84B5806884BD98
:10193000C7BDACCF84B5806284BDC8BDA7CF809140
:101940008000806880938000D0938900C0938800D5
:101950009DCF80918000806280938000D0938B0027
:10196000C0938A0093CF809180008860809380002C
:10197000D0938D00C0938C0089CF809190008068B7
:1019800080939000D0939900C09398007FCF80916E
:101990009000806280939000D0939B00C0939A0047
:1019A00075CF80919000886080939000D0939D00C7
:1019B000C0939C006BCF8091C00080688093C00072
:1019C0008091C0008F7B8093C000C093CF005ECF1A
:1019D0008091C00080628093C000C093D00056CF39
:1019E0008091C20088608093C2008091C2008B7F8A
:1019F0008093C200C093D20049CFC038D1050CF00B
:101A000076CF6DCF8E3180F4E82FF0E0DF01A15961
:101A1000BA4F9C91913041F4EE0FFF1FE357FA4FFC
:101A2000608371830C949E020895FF920F931F931D
:101A3000CF93DF9300D0CDB7DEB7082F10E0F801C9
:101A4000EE59FC4F9081F62EF92209541D4F411199
:101A500004C0F80190819F1511F12F2D30E03A83D9
:101A60002983A0912C05B0912D051097B1F0682F16
:101A70006F706069ED91FC9111970190F081E02DFC
:101A8000CD01099522E030E0AE014F5F5F4F62E08B
:101A900070E08CE295E00E942E06F801F0820F9033
:101AA0000F90DF91CF911F910F91FF9008950F93A9
:101AB0001F93CF93DF93843008F069C0282F30E064
:101AC000F901EA59FC4F6083672B09F460C0082FC5
:101AD0002E593C4FF9011081D82FDD0FDD0FDD0F9E
:101AE000C12FC17010FF07C08D2F0E947502C1E089
:101AF000892B09F4C0E011FF07C081E08D0F0E941F
:101B00007502892B09F0C26012FF07C082E08D0FB9
:101B10000E947502892B09F0C46013FF07C083E09F
:101B20008D0F0E947502892B09F0C86014FF07C051
:101B300084E08D0F0E947502892B09F0C06115FFAA
:101B400007C085E08D0F0E947502892B09F0C062E5
:101B5000D831A1F016FF07C086E08D0F0E947502F4
:101B6000892B09F0C064D73149F017FF07C087E01F
:101B70008D0F0E947502892B09F0C06841E06C2F1F
:101B8000802FDF91CF911F910F910C94150DDF9154
:101B9000CF911F910F910895A82FB0E0A756BD4F88
:101BA0009C91292F30E0F901EE0FFF1FE20FF31F88
:101BB000ED5BF94FE0812E2F30E0F901EE0FFF1FB2
:101BC000E20FF31FE25EF94F80818F7B808380916B
:101BD0009702981308C0992319F091509093970297
:101BE0008FEF8C9308958823D9F3E0919802EF5FEB
:101BF000E0939802F0E0EB5BFD4F9083F1CFFC01A6
:101C000001900020E9F73197BF01681B790BAC0107
:101C100081E70C942D074F925F926F927F928F9283
:101C20009F92AF92BF92FF920F931F93CF93DF9338
:101C3000F82E8B01D42FC22F6F3F760709F490C086
:101C400081E08093DB03F092FD031092DC0310929D
:101C5000FE038AEC95E00E94A2098C2F0E9459088D
:101C600080919502909196028230910538F0880F0C
:101C7000991F880F991F05970197F1F70E942C0370
:101C80004B015C018091D50381116CC0CD2FD13205
:101C900008F0C0E281E08093D5038093D4039FEFE6
:101CA0009093D3031092D2039C0F9093D10380930F
:101CB000B0039091B0038F2D880F892B8093B003D0
:101CC0008091AF03813009F0A1C01092AF030E9450
:101CD0002C034B015C018091B0038093BB00809189
:101CE000D7039091D803A091D903B091DA03892B3F
:101CF0008A2B8B2BA1F00E942C034090D70350908D
:101D0000D8036090D9037090DA03681979098A09B9
:101D10009B09461657066806790608F444C0809168
:101D2000BC0083FDD8CF85EC8093BC000E942C03BF
:101D30004B015C018091D503813009F469C0809129
:101D4000D2038C1710F4C091D203E1EBF3E0AEEDB7
:101D5000B2E080E08C1761F191919D938F5FFACF93
:101D600000E08CCF8091D7039091D803A091D90344
:101D7000B091DA03892B8A2B8B2B09F483CF0E9435
:101D80002C034090D7035090D8036090D9037090F3
:101D9000DA03681979098A099B0946165706680605
:101DA000790608F06FCF8091D6030E943808C0E012
:101DB0001092FF02C093FE022D2F30E08C2F90E096
:101DC000281739070CF046C082E591E00E94FF0D0C
:101DD000F09252020093530202E512E0AD2EB12CB4
:101DE000C801825592408A159B050CF041C00F5FD7
:101DF0001F4F9091FE028091FF029817C9F18AEC63
:101E000095E00E945B09F8018183EACF85EE8CCFD3
:101E10008091D7039091D803A091D903B091DA03B0
:101E2000892B8A2B8B2B09F485CF0E942C034090A1
:101E3000D7035090D8036090D9037090DA036819E3
:101E400079098A099B09461657066806790608F03B
:101E500071CFA9CF821793070CF0BACF8FE691E02C
:101E60000E94FF0DD091FE028091FF02D81BB0CFDF
:101E7000DE5F6D2F70E042E552E087E7DF91CF91A2
:101E80001F910F91FF90BF90AF909F908F907F9088
:101E90006F905F904F900C942D07CF93DF93DB01F1
:101EA000909197029C3078F530919802682F70E0FD
:101EB000FB01E756FD4F3323E1F0C32FD0E0CB5BAE
:101EC000DD4F88818083315030939802808123E0F8
:101ED000829FC00111248D5B994F1A161B0674F462
:101EE000141615065CF49A01AD01DF91CF910C94A4
:101EF000D40990839F5F90939702E8CF20E639E062
:101F000040E252E0F2CF8BE891E0DF91CF910C9468
:101F1000FF0DAF92BF92CF92DF92EF92FF920F939D
:101F20001F93CF93DF93C82ED12CE601C451DB4F12
:101F3000FE01ED57FF4F90819F3709F49BC07B0155
:101F4000182F963069F48091BB02882349F06630DF
:101F5000710509F437C11092BB028FEF80930C0119
:101F60001E3110F584E0E816F104F1F0F601E756B1
:101F7000FD4F80818C30C0F490E0FC01EE0FFF1F1C
:101F8000E80FF91FED5BF94FE0818E2F90E0FC0127
:101F9000EE0FFF1FE80FF91FE25EF94F808186FF09
:101FA00003C0812F0E94CC0D0EEE010F0C3028F5DE
:101FB00061E070E032E0E316F10411F070E060E0FF
:101FC000802F0E94B50AE12FE695E695E695F0E0B0
:101FD000EE59FC4F2081312F377081E090E001C035
:101FE000880F3A95EAF7E114F10421F03BE0E3169B
:101FF000F10419F5822B808302C01E3120F35601B3
:10200000AA0CBB1CF501E357FA4F118210828CE039
:10201000E816F10408F0C8C0F701EF5EFF4E0C941B
:1020200076222E105A10201071109210D410C81061
:10203000D410D410D4103A10451080958223DBCFF1
:102040000C30C0F460E0812F0E94CC02CD57DF4FEE
:1020500088818F3779F082E088830CC01E3150F47C
:1020600060E0812F0E94CC02CD57DF4F88818F37EF
:1020700009F01882DF91CF911F910F91FF90EF909F
:10208000DF90CF90BF90AF9008951E3198F762E037
:10209000812F0E94CC02CD57DF4F88818F3711F0FE
:1020A0008BE08883F501E357FA4F81E090E091835C
:1020B0008083E0CF1E31F0F6FE01ED57FF4F8081A7
:1020C000833021F460E0812F0E949E0261E0812F25
:1020D0000E94CC02CD57DF4F88818F3759F281E0C3
:1020E000BBCF133059F08BEF810F823038F087EF80
:1020F000810F833018F01D3009F0BCCF61E0812FD3
:102100000E94CC0261E0812F0E94CC0260E0812F0E
:102110000E949E02CD57DF4F88818F3709F4AACFE6
:1021200083E09ACF1E3108F0A5CFCD57DF4F8881CD
:102130008F3711F084E08883F601E756FD4F8081E8
:102140008F3FA9F090E0FC01EE0FFF1FE80FF91F91
:10215000ED5BF94FE0818E2F90E0FC01EE0FFF1F49
:10216000E80FF91FE25EF94F808186FD83CF4FEFC4
:102170005FEF6FEF7FEF812FDF91CF911F910F9175
:10218000FF90EF90DF90CF90BF90AF900C944D0FE9
:102190001250123008F06ECFCD57DF4F88818F3745
:1021A00009F468CF86E058CF8FE991E0DF91CF91B5
:1021B0001F910F91FF90EF90DF90CF90BF90AF9065
:1021C0000C94FF0D1E3108F4D1CEEECE0F931F9369
:1021D000CF93DF9381E08093BC028091BB02882380
:1021E00029F01092BB028FEF80930C01E6E6F3E03A
:1021F000C2E6D3E0A7EBB2E0119219921D9283E000
:10220000EA36F807C9F709E912E0C0E0DFEF8EEE21
:102210008C0F62E070E08C3010F061E070E08C2F89
:102220000E94890FF801D1938F01CF5FCE3179F7EA
:1022300010929303109292031092980210929702B8
:102240001092BC02DF91CF911F910F91089585EDFF
:102250008093BC008091D7039091D803A091D903BB
:10226000B091DA030796A11DB11D23E0B695A7959D
:10227000979587952A95D1F72091BC0024FD03C03E
:102280001092D50308954091D7035091D8036091DF
:10229000D9037091DA03452B462B472B69F300973E
:1022A000A105B10541F02AE22A95F1F700C0019796
:1022B000A109B109E1CF8091D6030C9438086F923F
:1022C0007F928F929F92AF92BF92CF92DF92EF92C6
:1022D000FF920F931F93CF93DF93EA018F3609F498
:1022E000F7C1162F803708F05CC0893609F47FC229
:1022F00090F4813509F48CC2DF91CF911F910F9139
:10230000FF90EF90DF90CF90BF90AF909F908F9015
:102310007F906F9008958B3609F405C28D3661F772
:10232000662351F3C88180EF0E947E018EE60E94F1
:102330007E018C2F0E947E01CE3108F047C2D0E092
:10234000FE01E159FA4F80810E947E01CC0FDD1F12
:102350008E0103571A4FF80180818F770E947E010A
:10236000F801808191819C012078232B39F0880F1E
:10237000892F881F990B8F770E947E01C357DA4FF0
:10238000888199819C012227307C232B09F41EC26D
:10239000990F880B990F982F881F8F770E947E01C5
:1023A00015C2863709F46BC008F04FC0803709F0BA
:1023B000A3CF653008F4A0CF18811E3108F09CCF60
:1023C0000981EA80FB80CC81E12FF0E0E756FD4FE8
:1023D00080818C30C0F490E0FC01EE0FFF1FE80F0D
:1023E000F91FED5BF94FE0818E2F90E0FC01EE0FBD
:1023F000FF1FE80FF91FE25EF94F808186FF03C0DF
:10240000812F0E94CC0D60E8C69FA00111244F0DC2
:10241000511D80E8E89EB0011124600F711D812FCD
:102420000E944D0F64E070E0812FDF91CF911F91EA
:102430000F91FF90EF90DF90CF90BF90AF909F9063
:102440008F907F906F900C94890F883709F401C1A9
:102450008A3709F051CF623008F44ECF898190E875
:10246000899F900111248881820F932F911D0097DD
:1024700009F42BC190930E0180930D013DCF9981FA
:1024800095FF12C080EB91E0DF91CF911F910F91EA
:10249000FF90EF90DF90CF90BF90AF909F908F9084
:1024A0007F906F900C94FF0D888131E096FB22277E
:1024B00020F923279871983099F1E0F491111CCFFD
:1024C0003093DB038093FD031092DC031092FE0334
:1024D00002E00117E8F4FE01E00FF11D618167954C
:1024E000662767958081680F8AEC95E00E94A209B3
:1024F0000E5FEFCF9031D9F1983109F0FDCE2091E8
:102500000C0112160CF460C08FEF80930C01F4CE16
:1025100081E00E94590883E191E00197F1F7ECCE48
:102520009A814B816630E1F430E8439FB001112479
:10253000690F711D4D814795442747959C81490F2F
:10254000DF91CF911F910F91FF90EF90DF90CF908F
:10255000BF90AF909F908F907F906F900C940B0ED8
:10256000479544274795490F6FEF7FEFE9CFE091FB
:102570000C01E7301CF080ED91E086CF3A819B8121
:102580006630D9F460E8969FA0011124430F511DD5
:102590009D819795992797953C81930FEF5FE093E5
:1025A0000C0135E0E302F0011124E659FC4F808371
:1025B00052834183938324839FCE97959927979540
:1025C000930F4FEF5FEFEACF90E0622F022E000CE7
:1025D000770B35E0492F50E06417750764F0349F9E
:1025E000F001359FF00D1124E659FC4F408148174A
:1025F00019F09F5FEFCF90E085E0492F50E064171E
:1026000075071CF19830F8F4FA0131968E9FD001CD
:102610008F9FB00D1124A659BC4F3C91849FF001AF
:10262000859FF00D1124E659FC4F308311964D9192
:102630005C9112975283418313963C911397338395
:1026400014963C9134839F5FD8CF215020930C0186
:1026500053CE623078F0898140E8849F9001112444
:102660008881820F932F911D009721F090939602FD
:10267000809395028091BB0281113ECEC0E08EEF27
:102680008C0F823028F466E070E08C2F0E94890F56
:10269000CF5FCE31A1F781E08093BB021092FF02A1
:1026A0001092FE021092DC031092FE030E941A08A0
:1026B00089E499E090932203809321038AE499E0CE
:1026C000909326038093250317CE81E090E0D2CE2D
:1026D000623008F411CE898190E0623091F02A8155
:1026E000E0E82E9F90011124822B932B633049F058
:1026F0002B8130E030E4239F302D22271124822BC0
:10270000932BBC018881DF91CF911F910F91FF9096
:10271000EF90DF90CF90BF90AF909F908F907F9081
:102720006F900C94A90B80EF0E947E018CE60E94B2
:102730007E01C0E080E00E947E0181E00E947E0177
:102740008BE00E947E0181E00E947E0181E00E9478
:102750007E0181E00E947E0181E50E947E0181E090
:102760000E947E018EEE8C0F8C3088F482E00E94F5
:102770007E018AE00E947E018BEF8C0F823048F050
:1027800087EF8C0F833028F0CD3049F402C0C3307E
:1027900099F783E00E947E0188E00E947E0184E038
:1027A0000E947E018EE00E947E018EEF8C0F8230AF
:1027B00030F486E00E947E0181E00E947E018FE776
:1027C0000E947E01CF5FCE3109F0B4CF87EFDF9159
:1027D000CF911F910F91FF90EF90DF90CF90BF901E
:1027E000AF909F908F907F906F900C947E0180EFC0
:1027F0000E947E018AE60E947E01CEEE8FE7CC30F9
:1028000008F48C2F0E947E01CF5FCC30B9F7DECF69
:10281000662309F471CD9881892F8F70833009F474
:102820003EC108F064C0813009F48EC1823009F0E5
:1028300063CD8091940281115FCD809193028111CB
:102840005BCD81E08093940280E019E09091D50205
:10285000891708F0B4C0282F30E0B90163547D4FC8
:10286000FB019081992309F4A6C0E091D902F0916F
:10287000DA02129FE001139FD00D1124CA52DA4FE1
:10288000AE81BF819C912885922B9C93AC81BD81A8
:10289000988528813981A901440F551F420F531F84
:1028A0000A80DB81C02D9E01220F331F2C0F3D1F9C
:1028B000E20FF31F3C91292F20952323932B3FB741
:1028C000F8944E0F5F1F4E175F0709F472C0C19155
:1028D000D8E09C9300C0C7FF2C93CC0F00C000C071
:1028E00000C008F42C9300C0DA9599F7ECCF84303F
:1028F00009F468C0853009F0FFCC9981292F2F7128
:1029000009F4ACC0392F3072732E81E080939302AA
:10291000022F000F020F10E0C091DB02D091DC0209
:10292000C21BD1096E01CC0CDD1CCC0EDD1EE0906B
:10293000D902F090DA024701800E911E492F4074AF
:10294000642E96FFB9C1C8010E947C225C010097E9
:1029500029F0A80170E060E00E94BC23CE01711054
:1029600002C090E080E0BC01660F771F680F791FFE
:102970006E0D7F1DA801C5010E94A1237110B3C176
:10298000A601B401C7010E94AA23662009F49EC1D2
:10299000CE01880F991F8C0F9D1FA801B5018E0DC8
:1029A0009F1D0E94A123C5010E941823109293022B
:1029B00055C03FBF7894FB0110828F5F47CF1092C4
:1029C00094029ACC80919302811196CCCB80D12C29
:1029D000F12CE12C7EE0CC0CDD1CEE1CFF1C7A956A
:1029E000D1F78C8190E0B0E0A0E0E5E1880F991F7D
:1029F000AA1FBB1FEA95D1F78C0D9D1DAE1DBF1DF3
:102A000029816C017D01C20ED11CE11CF11C8A815F
:102A100090E0B0E0A0E0F7E0880F991FAA1FBB1F6D
:102A2000FA95D1F7C80ED91EEA1EFB1E0091DB02F3
:102A30001091DC02D0E0C0E0C114D104E104F10443
:102A400021F5A801440F551F400F511F70E060E0B1
:102A50008091D9029091DA020E94BC234091D50264
:102A600050E061E070E08DEB92E0DF91CF911F913B
:102A70000F91FF90EF90DF90CF90BF90AF909F901D
:102A80008F907F906F900C94BC23C017D10731F3C7
:102A9000B701A601CE010E94530A2196F6CF80917C
:102AA0009302811129CC0A81F0E80F9FC001112403
:102AB0000981080F192F111D4D8150E070E060E071
:102AC0008EE0440F551F661F771F8A95D1F78E81C0
:102AD00090E0B0E0A0E025E1880F991FAA1FBB1F7E
:102AE0002A95D1F7840F951FA61FB71F2B81AC0124
:102AF000BD01420F511D611D711D8C8190E0B0E040
:102B0000A0E037E0880F991FAA1FBB1F3A95D1F7A5
:102B1000480F591F6A1F7B1FC8010E94530A40912A
:102B2000D502A5ECB2E090E080E0841708F0E4CB99
:102B3000FC012D913D91019602171307B0F7E35464
:102B4000FD4F81E08083D8CB913009F0D5CB633045
:102B500008F4D2CB009192020E947B0A002381F0FC
:102B6000B6EDCB2EB5E0DB2EF12C6F2DC6010E9409
:102B70008D0AF39429E0C20ED11C38E0F312F5CF90
:102B80006BEA169F112D11241695E5ECAE2EE2E0AE
:102B9000BE2EF6EDCF2EF5E0DF2E912C8824839407
:102BA000A2E07A2E011105C069816F71C6010E94F1
:102BB0008D0A898190E075E0959587957A95E1F782
:102BC0008130910509F467C08230910509F468C02D
:102BD000892B31F41092D7028092D8027092D602DB
:102BE000EB8040E8E49E700111248A81E80EF11C1C
:102BF000F601F182E08290E080E0992021F0F50179
:102C00003297808191819701280F391FF501219317
:102C100031935F01F601938382838091DB0290916F
:102C2000DC02E80EF91EF092DC02E092DB028091F9
:102C3000D5028F5F8093D5029394F9E0CF0ED11C1B
:102C400023961911AFCF8091D9029091DA020097A3
:102C500031F00E9418231092DC021092DB02E11482
:102C6000F10409F449CBE701CC0FDD1FCE0DDF1DC8
:102C7000CE010E947C229093DA028093D9020097C1
:102C8000B1F0AE0170E060E00E94BC23F092DC0283
:102C9000E092DB0231CB1092D8028092D7029ECF15
:102CA0001092D6028092D8027092D70299CF1092D9
:102CB000DC021092DB0220CB332309F461CEA601A3
:102CC000B701C4010E94AA23D0E0C0E0CE01880F62
:102CD000991F8C0F9D1FA80170E060E08E0D9F1D55
:102CE0000E94BC2363CEA601B701C4010E94AA239F
:102CF000D0E0C0E04DCE1F920F920FB60F9211247C
:102D00002F933F938F939F93AF93BF93809199039A
:102D100090919A03A0919B03B0919C0330919803EA
:102D200023E0230F2D3758F50196A11DB11D2093E7
:102D300098038093990390939A03A0939B03B09375
:102D40009C0380919D0390919E03A0919F03B0915D
:102D5000A0030196A11DB11D80939D0390939E0336
:102D6000A0939F03B093A003BF91AF919F918F91C8
:102D70003F912F910F900FBE0F901F90189526E84E
:102D8000230F0296A11DB11DD2CF1F920F920FB635
:102D90000F9211248F939F938091E1009091E10015
:102DA000937F9093E10083FF0FC01092E90091E0C0
:102DB0009093EB001092EC0092E39093ED00109250
:102DC000AE0398E09093F00082FF22C093E09093CE
:102DD000E9009091F200992319F09AE39093E800AA
:102DE00090914F03992341F090914F03915090930C
:102DF0004F03911101C05D989091AD03992341F06B
:102E00009091AD0391509093AD03911101C028981A
:102E100084FF18C08091E2008E7E81608093E20082
:102E20008091E1008F7E8093E100809150038E7E3F
:102E30008061809350039F918F910F900FBE0F90F0
:102E40001F90189580FFF7CF8091E2008E7E806101
:102E50008093E2008091E1008E7E8093E10080917A
:102E600050038E7E8160E5CF1F920F920FB60F92B6
:102E70001124CF92DF92EF92FF920F931F932F9323
:102E80003F934F935F936F937F938F939F93AF93F2
:102E9000BF93EF93FF93CF93DF93CDB7DEB76C97DC
:102EA000DEBFCDBF1092E9008091E80083FF25C00E
:102EB00068E0CE0145960E94100482EF8093E800FE
:102EC0008D8987FF39C09091E80090FFFCCF982F43
:102ED000907609F034C19E894F89588D2F89F88CDE
:102EE000911131C0803861F5809151038093F100D8
:102EF0001092F1008EEF8093E8006C960FB6F89474
:102F0000DEBF0FBECDBFDF91CF91FF91EF91BF919B
:102F1000AF919F918F917F916F915F914F913F9171
:102F20002F911F910F91FF90EF90DF90CF900F9016
:102F30000FBE0F901F9018959EEF9093E800C7CF9B
:102F40001092F100D5CF913059F48111D3CF413097
:102F5000510581F6809151038D7F80935103CACF33
:102F6000933049F48111C6CF4130510519F6809153
:102F700051038260F2CF953041F48091E80080FFE8
:102F8000FCCF20682093E300B5CF963009F0A9C0AC
:102F90000B8D1C8D22E01092E90010924D031092CF
:102FA0004C03F2122EC010924B0310924A030E945F
:102FB000DF031F8299E09983FA8291E09E8390EA71
:102FC00098879AEF998720914C0330914D03275FA2
:102FD0003F4F3C832B838D831092E90010924D0369
:102FE00010924C0310934B0300934A0349E050E0C6
:102FF000BE016F5F7F4F80E00E94B9030E94DF0334
:1030000079CF10934B0300934A030E941502DC0111
:1030100012960D911C910115110509F451C1D801A9
:10302000ED91FC910480F581E02DBE016B5E7F4F38
:10303000C8010995009709F03EC1F8010085118586
:10304000EACFF3E0FF120EC08F89882309F440C055
:10305000823061F440E86DE080E191E00E94A31BC2
:10306000811148CF81E28093EB0047CF813029F472
:1030700040E86BE084E091E0F1CF833099F70E9463
:103080001502DC011296ED90FC908E010F5F1F4F30
:103090006801E114F10479F0D701ED91FC9106800B
:1030A000F781E02DB801C7010995080F111DF7013F
:1030B000E084F184EECFD8011C92F601019000204B
:1030C000E9F73197BF016C197D0940E0C601C6CF11
:1030D0006EEE70E0FB01449150E080E80E94B9037D
:1030E00009CF973009F4BECF983021F481E0809366
:1030F000F10000CF993009F0FDCE837009F0B2CF16
:10310000E6E1F1E081E031E096E32191222371F0E4
:103110008093E9003093EB00DF0111972C9120930D
:10312000EC009093ED008F5F873079F78EE7809306
:10313000EA001092EA008F898093AE03DBCE8B8D7C
:103140009C8D1092E90010924D0310924C039093C5
:103150004B0380934A03898D811192C08E899D898A
:10316000913A49F4813209F07DCF47E050E064E0C4
:1031700071E080E0B3CF913209F074CF833269F40B
:103180008F89988DB0E0A0E08093000190930101B9
:10319000A0930201B0930301ADCE803269F4809117
:1031A000E80082FFFCCF67E084E091E00E94100419
:1031B0008BEF8093E8009ECE823209F09BCE8F8900
:1031C00080930B01EEEFFFE7859194918B3F9C4D2F
:1031D00051F1E0E0F8E08091040190910501A091A7
:1031E0000601B0910701803B9440A105B105F1F4BF
:1031F00080910B0180FD1AC0EE3F8AE0F80789F547
:1032000087E797E7918380838091600080934E03E6
:1032100088E19BE00FB6F894A895809360000FBEFC
:103220009093600067CEEEEFFAE0D5CF8081918178
:103230008737974709F05ECEA89580916000886136
:103240008093600080914E0380936000EE3F2AE0FF
:10325000F20789F08091FE0A9091FF0A91838083A2
:1032600049CE808191818737980751F29093FF0A68
:103270008093FE0AC5CF1092FF0A1092FE0A3ACE42
:103280000E941502DC0112960D911C910115110589
:1032900009F4E8CED801ED91FC910190F081E02D88
:1032A000BE016B5E7F4FC8010995811123CEF801E5
:1032B00000851185EBCF181619060CF41BCED2CE63
:1032C000F1E0FF12BECE62EF70E004CF1F920F92CA
:1032D0000FB60F9211242F933F934F935F936F93E9
:1032E0007F938F939F93AF93BF93EF93FF938FEF52
:1032F00093E00E949B04FF91EF91BF91AF919F914A
:103300008F917F916F915F914F913F912F910F908E
:103310000FBE0F901F9018951F920F920FB60F922D
:1033200011242F938F939F93EF93FF93E0910F04BA
:10333000F09110048081E0911504F091160482FD53
:103340001BC09081809118048F5F8F7320911904A6
:10335000821741F0E0911804F0E0E150FC4F958FA6
:1033600080931804FF91EF919F918F912F910F906F
:103370000FBE0F901F9018958081F4CF1F920F926F
:103380000FB60F9211240F900FBE0F901F9018953B
:103390001F920F920FB60F9211242F933F934F93CA
:1033A0005F936F937F938F939F93AF93BF93EF93AD
:1033B000FF938091B900887F803609F44AC0F0F508
:1033C000883209F4A7C018F5803109F49BC0B8F41D
:1033D000882309F4F9C0883009F494C0FF91EF9173
:1033E000BF91AF919F918F917F916F915F914F911D
:1033F0003F912F910F900FBE0F901F90189588311D
:1034000009F488C0803251F78093D30314C080340C
:1034100009F49DC040F48033B9F38833F9F6809302
:10342000D30385ECB0C0803509F485C0883509F434
:1034300096C0883499F60E942711D0CF883909F4B4
:103440008CC038F5883729F050F4883611F0803771
:1034500029F683E08093D5031092470357C088383C
:1034600009F47BC0803919F0803809F0B7CF80911A
:103470004703803208F071C0E091470381E08E0F6E
:10348000809347038091BB00F0E0E95DFC4F8083AF
:103490003DC0803B39F0E0F4803A09F479C0883AC5
:1034A00009F09CCF84E08093D503109224031092FE
:1034B0002303E0912103F0912203099580912303D6
:1034C00081110FC081E0809323031092010309C092
:1034D000803C09F4A6CF883C09F4A3CF883B09F0CF
:1034E0007DCFE091240381E08E0F80932403F0E0F0
:1034F000EF5FFC4F80818093BB009091240380910B
:10350000230329C08091B0038093BB0085EC809396
:10351000BC0064CF9091D2038091D103981758F5E5
:10352000E091D20381E08E0F8093D203F0E0EF545C
:10353000FC4F8081E9CFE091D20381E08E0F809330
:10354000D2038091BB00F0E0EF54FC4F8083909158
:10355000D2038091D1039817C8F285E8D8CFE091C3
:10356000D20381E08E0F8093D2038091BB00F0E004
:10357000EF54FC4F80838091D40381115CCF81E0B4
:103580008093AF0384EA8093BC001092D50326CFCA
:1035900085EC8093BC001092D50380914703803264
:1035A00030F4E0914703F0E0E95DFC4F1082609158
:1035B000470370E0E0912503F091260387E293E052
:1035C0000995109247030ACF1092D30334CF1F926C
:1035D0000F920FB60F9211242F933F934F935F9347
:1035E0006F937F938F939F93AF93BF93CF93DF930B
:1035F000EF93FF938091DD02C0914206D0E087FFF8
:1036000024C010928500109284008091DD028F5FAB
:103610008093DD028091DD02082E000C990B8C173F
:103620009D0724F48091DD028C30C4F180918400E8
:1036300090918500049680349C4908F47AC080916A
:10364000840090918500049676C08091DD02082E5A
:10365000000C990B8C179D07C4F6E091DD028E2FAC
:10366000EE0F990BFC01EE0FFF1FE80FF91FE25E52
:10367000F94F808186FFC9CFE091DD028E2FEE0FDA
:10368000990BFC01EE0FFF1FE80FF91FE25EF94FE7
:10369000808160E08F730E949E02B7CF20918400EA
:1036A00030918500E091DD028E2FEE0F990BFC0129
:1036B000EE0FFF1FE80FF91FE25EF94F8181928143
:1036C000820F931F9093890080938800E091DD0220
:1036D0008E2FEE0F990BFC01EE0FFF1FE80FF91F65
:1036E000E25EF94F808186FF11C0E091DD028E2FEE
:1036F000EE0F990BFC01EE0FFF1FE80FF91FE25EC2
:10370000F94F808161E08F730E949E02FF91EF91DB
:10371000DF91CF91BF91AF919F918F917F916F91E9
:103720005F914F913F912F910F900FBE0F901F907F
:10373000189580E49CE990938900809388008FEF2E
:103740008093DD02E3CFEF92FF920F931F93CF930D
:10375000DF93F82E192FE62E042F81E0860F880FB5
:103760000E948B0383E00E948B03CF2DD12FEC0EA0
:10377000FD2EF11CCE15DF05B9F007FF13C0FE01C9
:1037800084910E948B03182F80E00E948B03812379
:1037900021968111EFCFDF91CF911F910F91FF9073
:1037A000EF9008958881EDCF81E0F5CF109202046B
:1037B0001092010488EE93E0A0E0B0E0809303044F
:1037C00090930404A0930504B093060420E231E032
:1037D000309300042093FF032DEC30E030930C0471
:1037E00020930B042CEC30E030930E0420930D0456
:1037F00028EC30E03093100420930F0429EC30E0E3
:1038000030931204209311042AEC30E03093140416
:10381000209313042EEC30E030931604209315040B
:10382000109218041092190410921A0410921B049A
:1038300010929F0410929E048093A0049093A10480
:10384000A093A204B093A30422E331E030939D043B
:1038500020939C042FEF3FEF3093A9042093A804FA
:103860002CEE34E010922D0510922C05309330058B
:1038700020932F0540E450E05093320540933105EA
:1038800010923305109234051092360510923505CA
:1038900010923705109239051092380510923B05A9
:1038A00010923A0510923D0510923C0510923F058A
:1038B00010923E051092410510924005109243056A
:1038C00010924205109245051092440510924B0546
:1038D00010924A0510924D0510924C0510924F051A
:1038E00010924E05109251051092500510925F05EE
:1038F00010925E0510922E0510926C0510926E05C6
:1039000010926D051092C90544E051E050935305A3
:10391000409352054EE051E05093550540935405B5
:1039200048E151E0509357054093560542E251E07B
:1039300050935905409358054CE251E050935B0574
:1039400040935A0546E351E050935D0540935C0572
:1039500040E451E0509361054093600541E451E03B
:1039600050936305409362054EEE57E05093650512
:1039700040936405309347052093460544E853E09F
:103980005093670540936605309349052093480599
:103990002CE431E030936905209368051092CD0541
:1039A0001092CC058093CE059093CF05A093D005BF
:1039B000B093D10584E491E09093CB058093CA0540
:1039C000E6EDF5E08EE196E011821082138212821C
:1039D00039968E179F07C1F7E3E4F6E02FEF48EB27
:1039E0005BE0809142068C30B8F491E0980F9093A0
:1039F0004206808390E0DC01AA0FBB1FA80FB91F0D
:103A0000A25EB94F12965C934E931197339686E05F
:103A1000E736F80731F708952083F8CF789484B516
:103A2000826084BD84B5816084BD85B5826085BDBA
:103A300085B5816085BD80916E00816080936E0048
:103A4000109281008091810082608093810080913A
:103A500081008160809381008091800081608093EB
:103A6000800080919100826080939100809191000C
:103A7000816080939100809190008160809390009C
:103A80008091C10084608093C1008091C1008260F8
:103A90008093C1008091C10081608093C1008091BA
:103AA000C30081608093C3008091C00082608093D6
:103AB000C0008091C20081608093C20080917A0032
:103AC000846080937A0080917A00826080937A008B
:103AD00080917A00816080937A0080917A0080687A
:103AE00080937A001092AE0310925103109250030B
:103AF0008091D70081608093D70080EA8093D800BE
:103B000089B5806189BD89B5826089BD09B400FE2F
:103B1000FDCF61E070E080E090E00E945103809171
:103B2000D8008F7C80618093D8008091E000807FF6
:103B30008093E0008091E1008E7E8093E1008DE033
:103B40008093E200559A209A5D98289885E18093A9
:103B50006C0580916D0590916E050E941823C091AF
:103B60006C05D0E0CE0101960E947C2290936E05F8
:103B700080936D05FC01EC0FFD1F108222E0DC013B
:103B80002C9325E011962C93AE014250510962E32B
:103B900072E002960E94C32389EA9BE090935D0342
:103BA00080935C0382EE9AE090935B0380935A03C8
:103BB00085EB9AE0909359038093580387E59DE045
:103BC000909357038093560389E89FE090935503A1
:103BD0008093540382E09DE09093530380935203BB
:103BE0008FE591E190935F0380935E0386EE90E111
:103BF00090936103809360038FEF9FEF9093A904EC
:103C00008093A8048091C90581114FC061E08DE0C7
:103C10000E94CC0262ED70E080E090E00E945103CF
:103C200061E08DE00E949E0268E270E080E090E03A
:103C30000E94510360E08DE00E949E0262ED70E000
:103C400080E090E00E94510361E08DE00E949E02BE
:103C500068E270E080E090E00E94510360E08DE057
:103C60000E949E026AEF70E080E090E00E945103A3
:103C7000C5E062ED70E080E090E00E94510361E0F9
:103C80008DE00E949E0268E270E080E090E00E9479
:103C9000510360E08DE00E949E02C15051F76DE734
:103CA00070E080E090E00E9451038CE994E09093F2
:103CB0006B0580936A0590932D0580932C058CE20B
:103CC00095E00E9454018CEE94E00E947A07C09126
:103CD0000B016AE070E080E090E00E945103CC2389
:103CE000B1F30E94E6100E947B0AD5E000E010E0EC
:103CF000BB24B39492E0E92EF12CCC24C394D12CB4
:103D000080916603882309F44AC0A0906203CA2DFB
:103D1000C170A0FE07C080E00E947502C1E0892B3F
:103D200009F4C0E0A1FE06C081E00E947502892B63
:103D300009F0C260A2FE06C082E00E947502892BD3
:103D400009F0C460A3FE06C083E00E947502892BBF
:103D500009F0C860A4FE06C084E00E947502892BA9
:103D600009F0C061A5FE06C085E00E947502892B9E
:103D700009F0C062A6FE06C086E00E947502892B8B
:103D800009F0C064A7FE06C087E00E947502892B77
:103D900009F0C06840E06C2F80E00E94150D809112
:103DA0006703882309F44AC0A0906303CA2DC17039
:103DB000A0FE07C088E00E947502C1E0892B09F4CB
:103DC000C0E0A1FE06C089E00E947502892B09F0BF
:103DD000C260A2FE06C08AE00E947502892B09F02B
:103DE000C460A3FE06C08BE00E947502892B09F017
:103DF000C860A4FE06C08CE00E947502892B09F001
:103E0000C061A5FE06C08DE00E947502892B09F0F5
:103E1000C062A6FE06C08EE00E947502892B09F0E2
:103E2000C064A7FE06C08FE00E947502892B09F0CE
:103E3000C06840E06C2F81E00E94150D80916803FE
:103E4000882309F44AC0A0906403CA2DC170A0FE63
:103E500007C080E10E947502C1E0892B09F4C0E02F
:103E6000A1FE06C081E10E947502892B09F0C260A3
:103E7000A2FE06C082E10E947502892B09F0C4608F
:103E8000A3FE06C083E10E947502892B09F0C86079
:103E9000A4FE06C084E10E947502892B09F0C0616E
:103EA000A5FE06C085E10E947502892B09F0C0625B
:103EB000A6FE06C086E10E947502892B09F0C06447
:103EC000A7FE06C087E10E947502892B09F0C06831
:103ED00040E06C2F82E00E94150D809169038823D9
:103EE000D1F1A0906503CA2DC170A0FE07C088E182
:103EF0000E947502C1E0892B09F4C0E0A1FE06C052
:103F000089E10E947502892B09F0C260A2FE06C0F9
:103F10008AE10E947502892B09F0C460A3FE06C0E5
:103F20008BE10E947502892B09F0C860A4FE06C0CF
:103F30008CE10E947502892B09F0C061A5FE06C0C4
:103F40008DE10E947502892B09F0C06240E06C2F60
:103F500083E00E94150D80916A0590916B05DC014C
:103F6000ED91FC910084F185E02D0995892B09F4F0
:103F7000CEC180916A0590916B05DC01ED91FC91B9
:103F80000284F385E02D09959C018F3F980719F372
:103F9000982F80913705882309F492C0973F09F044
:103FA0007EC010923705A0912F05B09130056C911D
:103FB0006137C1F1693709F05CC0E0916405F091A7
:103FC0006505309741F2809138059091390583302D
:103FD000910560F430E020E050E040E070E060E007
:103FE00080914605909147050995B5CFBD016D5F5C
:103FF0007F4F03970E94BB01BC016D5F7F4F80E044
:104000000E948B01E0912F05F09130059F012D5FFB
:104010003F4F428150E0618170E0E0916405F09192
:104020006505DECF8091600590916105892B09F4CB
:1040300092CFBD016F5F7F4F809138059091390518
:1040400001970E94BB01BC016F5F7F4F80E00E941F
:104050008B0160912F05709130056F5F7F4FE0916C
:104060006005F091610580914C0590914D05099591
:1040700072CFE0916205F0916305309709F46BCF40
:104080009D012F5F3F4F40913805509139054150B8
:10409000510980914E0590914F0509955CCF609133
:1040A000380570913905822F0E948B018091380567
:1040B00090913905019690933905809338054BCF3F
:1040C00060913505709136056115710509F4B1C02F
:1040D00027FDAFC0615071097093360560933505B7
:1040E000822F0E948B018091350590913605892B96
:1040F00009F031CF80913305882309F42CCF803D1E
:1041000009F483C040F4803949F1803C09F469C066
:104110001092330520CF843FE1F1853F09F44DC073
:10412000803EB1F7E0915205F0915305309781F34D
:10413000A0912F05B09130054C9120E8429FC0011D
:10414000112411964C91480F592F511D609134053F
:1041500080913A0590913B050995DACFE09154059D
:10416000F09155053097A1F2A0912F05B09130053F
:104170004C9120E8429FC001112411964C91480FA8
:10418000592F511D6091340580913C0590913D055A
:10419000E3CFE0915A05F0915B05309709F4B8CF71
:1041A000A0912F05B09130054C9150E011966C9183
:1041B0008091420590914305CFCFE0915C05F0914D
:1041C0005D05309709F4A4CFA0912F05B09130057B
:1041D0004C9150E011966C91809144059091450569
:1041E000BBCFE0915605F0915705309709F490CF79
:1041F000A0912F05B09130054C9150E060913405AD
:1042000080913E0590913F05A7CFE0915805F09130
:104210005905309709F47CCFA0912F05B091300556
:104220004C9150E06091340580914005909141059A
:1042300093CF903F30F4822F8F7080933405922F6C
:10424000907F903FF1F190F4903CB1F150F49039AF
:1042500009F081CEF0923605E09235059093330552
:104260007ACE903D49F1903EA9F375CE993F09F47D
:1042700042C028F48CE0890F823060F36CCE9F3FFF
:1042800009F069CE1092360510923505109233056B
:104290001092340590E080E0209131053091320594
:1042A00082179307A8F4E0912F05F0913005E80FED
:1042B000F91F10820196F0CFD0923605C0923505D5
:1042C000CDCFB0923705109239051092380543CE04
:1042D000109237051092390510923805E091680563
:1042E000F09169058091500590915105309709F43E
:1042F00032CE099530CEE0916605F0916705309792
:1043000009F429CE8091480590914905F2CF8FB7E5
:10431000F8944090990350909A0360909B0370909A
:104320009C038FBF8091940390919503A091960375
:10433000B091970340910D0150910E0170E060E043
:10434000481A590A6A0A7B0A441555056605770515
:1043500008F051C0840F951FA61FB71F80939403C8
:1043600090939503A0939603B09397038CEE882EB9
:1043700084E0982ECEEECC30C8F4F401ED57FF4F18
:104380008081823099F480919203909193030C2E56
:1043900002C0959587950A94E2F780FF07C08C2F9D
:1043A0000E940803BC018C2F0E94CD06CF5F8FEFC7
:1043B000881A980ACC30F9F680910C0187FD1BC051
:1043C000C0E02C2F30E080910C01082E000C990BDE
:1043D0008217930784F0D29FF001D39FF00D112430
:1043E000E659FC4F618172812481438180810E9462
:1043F0000B0ECF5FE6CF0115110509F481CC0E94A9
:104400008704882309F47CCC0E94000079CC052E17
:1044100097FB1EF400940E941E2257FD07D00E94B5
:10442000392207FC03D04EF40C941E22509540957F
:10443000309521953F4F4F4F5F4F08959095809550
:10444000709561957F4F8F4F9F4F08950E945B221B
:10445000A59F900DB49F900DA49F800D911D1124D8
:104460000895B7FF0C9426220E942622821B930BEC
:104470000895A1E21A2EAA1BBB1BFD010DC0AA1FA5
:10448000BB1FEE1FFF1FA217B307E407F50720F0BD
:10449000A21BB30BE40BF50B661F771F881F991F38
:1044A0001A9469F760957095809590959B01AC0181
:1044B000BD01CF010895A29FB001B39FC001A39F8A
:1044C000700D811D1124911DB29F700D811D11244D
:1044D000911D0895991B79E004C0991F961708F063
:1044E000961B881F7A95C9F780950895EE0FFF1FD8
:1044F0000590F491E02D09940F931F93CF93DF93D0
:104500008230910510F482E090E0E0916906F0912C
:104510006A0630E020E0B0E0A0E0309799F4211581
:10452000310509F44AC0281B390B24303105D8F570
:104530008A819B816115710589F1FB0193838283D7
:10454000FE0111C040815181028113814817590732
:10455000E0F04817590799F4109761F012960C9300
:10456000129713961C933296CF01DF91CF911F9132
:104570000F9108950093690610936A06F4CF2115F0
:10458000310551F04217530738F0A901DB019A01B8
:10459000BD01DF01F801C1CFEF01F9CF90936A06A9
:1045A00080936906CDCFFE01E20FF31F81939193B3
:1045B0002250310939832883D7CF20916706309163
:1045C0006806232B41F420911101309112013093A0
:1045D00068062093670620910F0130911001211584
:1045E000310541F42DB73EB74091130150911401AC
:1045F000241B350BE0916706F0916806E217F3077C
:10460000A0F42E1B3F0B2817390778F0AC014E5F42
:104610005F4F2417350748F04E0F5F1F5093680611
:1046200040936706819391939FCFF0E0E0E09CCFA9
:10463000CF93DF930097E9F0FC0132971382128247
:10464000A0916906B0916A06ED0130E020E0109774
:10465000A1F420813181820F931F20916706309150
:1046600068062817390709F061C0F0936806E093DF
:104670006706DF91CF910895EA01CE17DF07E8F5CD
:104680004A815B819E0141155105B1F7E901FB8328
:10469000EA8349915991C40FD51FEC17FD0761F4C6
:1046A000808191810296840F951FE9019983888307
:1046B000828193819B838A83F0E0E0E012968D9162
:1046C0009C9113970097B9F52D913C911197CD01CD
:1046D0000296820F931F2091670630916806281773
:1046E000390739F6309751F510926A06109269062B
:1046F000B0936806A0936706BCCFD383C283408182
:104700005181840F951FC817D90761F44E5F5F4F21
:1047100088819981480F591F518340838A819B81E9
:10472000938382832115310509F0B0CFF0936A0697
:10473000E09369069ECFFD01DC01C0CF1382128297
:10474000D7CFFB01DC0102C001900D9241505040D7
:10475000D8F708956817790768F4FB01DC01E40FC6
:10476000F51FA40FB51F02C002900E924150504099
:10477000D8F708950C94A123DC0101C06D9341503A
:104780005040E0F70895FB01DC014150504048F0F3
:1047900001900D920020C9F701C01D924150504078
:0847A000E0F70895F894FFCF43
:1047A800FFFFFFFF00E1000000000000FF13000012
:1047B800006B06800000C18081000000000000003E
:1047C800BC041D044A0408057B0459046D04000058
:1047D8000000AD052805CE05C3051406D205F00571
:1047E80000000000A2097509D1094B096E095B098F
:1047F8004C094932433A20546F6F206D616E79201D
:1048080062797465732072656365697665640049C9
:1048180032433A20546F6F20666577206279746559
:1048280073207265636569766564004D61782073ED
:104838006572766F7320617474616368656400558E
:104848006E6B6E6F776E2070696E206D6F64650099
:1048580031302D6269742061646472657373696EA6
:1048680067206E6F7420737570706F727465640062
:10487800746F6F206D616E792071756572696573EB
:10488800002F55736572732F73616E6465722E62A3
:104898006F65722F446F63756D656E74732F7065E5
:1048A80072736F6E616C2F6D6963726F666C6F7770
:1048B8002F7061636B616765732F666C61736865E0
:1048C800722F5374616E646172644669726D6174AB
:1048D800612F5374616E646172644669726D6174AC
:0648E800612E696E6F00F5
:00000001FF
