:100000000C945D000C9485000C9485000C94C51331
:100010000C94C5130C94C5130C9485000C948500A6
:100020000C9485000C9485000C9485000C94EE14BF
:100030000C9485000C9485000C9485000C9485002C
:100040000C9423130C9485000C9493130C946D134F
:100050000C9485000C9485000C9485000C9485000C
:100060000C94CF130C94850000000000240027009E
:100070002A0000000000250028002B0004040404CE
:100080000404040402020202020203030303030342
:10009000010204081020408001020408102001021F
:1000A00004081020000000080002010000030407FB
:1000B0000000000000000000AA1511241FBECFEFB1
:1000C000D8E0DEBFCDBF12E0A0E0B1E0E4EDF8E3A0
:1000D00002C005900D92A232B107D9F725E0A2E245
:1000E000B2E001C01D92AE3BB207E1F710E0CDE5F2
:1000F000D0E004C02197FE010E940C1BCC35D10733
:10010000C9F70E94CA160C94681C0C940000862F34
:10011000E0912703F0912803309711F0BA01099478
:100120000895862FE0912503F0912603309711F072
:10013000BA0109940895862FE0912303F0912403D6
:10014000309711F0BA0109940895862FE0912103A8
:10015000F0912203309711F0BA0109940895862F87
:10016000E0911F03F0912003309711F0BA01099438
:100170000895862FE0911D03F0911E03309711F032
:10018000BA01099408950895862F642FE0912903F8
:10019000F0912A03309711F0A90109940895E09194
:1001A0002B03F0912C03309709F009940895CF9315
:1001B000DF93FC01A081B181109701F1EC01ED9179
:1001C000FC9111970190F081E02D69EFCD01099527
:1001D00088819981DC01ED91FC910190F081E02D05
:1001E00062E0099588819981DC01ED91FC91019093
:1001F000F081E02D65E0DF91CF910994DF91CF91FF
:100200000895A091D504B091D604ED91FC91119779
:100210000190F081E02D682FCD0109941F93CF93B9
:10022000DF93182FEB0180919C0490919D04681737
:10023000790760F480919A0490919B04C80FD91FAC
:10024000188380E0DF91CF911F910895E091C90458
:10025000F091CA04309711F481E0F4CF81E08093EB
:1002600099048091B5049091B604099580919C04FD
:1002700090919D04C817D90778F7DCCFCF93DF930F
:10028000EC01FB0130E020E0C901880F991F8C17B9
:100290009D0778F44081DB014D93BD011197918159
:1002A000979599279795942B9C932F5F3F4F329664
:1002B000EBCFC901DF91CF91089590E0FC01EC559F
:1002C000FF4F2491FC01E057FF4F3491FC01E458AB
:1002D000FF4FE491EE23C9F0222339F0233001F1DE
:1002E000A8F4213019F1223029F1F0E0EE0FFF1FC0
:1002F000EE58FF4FA591B4918FB7F894EC9161112E
:1003000026C030953E233C938FBF08952730A9F037
:100310002830C9F0243049F7809180008F7D03C0D8
:10032000809180008F7780938000DFCF84B58F77B6
:1003300084BDDBCF84B58F7DFBCF8091B0008F77FC
:100340008093B000D2CF8091B0008F7DF9CF3E2B4B
:10035000DACFCF93DF9390E0FC01E057FF4F249179
:1003600084589F4FFC0184918823C9F090E0880F46
:10037000991FFC01E859FF4FA591B491FC01EE587B
:10038000FF4FC591D49161110DC09FB7F8948C9126
:10039000209582238C938881282328839FBFDF9117
:1003A000CF910895623051F49FB7F8943C91822F19
:1003B000809583238C93E8812E2BEFCF8FB7F89411
:1003C000EC912E2B2C938FBFEACF8E3008F08E50FD
:1003D0008770806480937C0080917A008064809331
:1003E0007A0080917A0086FDFCCF80917800909110
:1003F000790008953FB7F894809166039091670360
:10040000A0916803B091690326B5A89B05C02F3F52
:1004100019F00196A11DB11D3FBFBA2FA92F982F2A
:100420008827BC01CD01620F711D811D911D42E025
:10043000660F771F881F991F4A95D1F708958F92ED
:100440009F92AF92BF92CF92DF92EF92FF926B0199
:100450007C010E94FA014B015C01C114D104E1044A
:10046000F104B9F00E94FA01681979098A099B0917
:10047000683E73408105910580F321E0C21AD108DE
:10048000E108F10888EE880E83E0981EA11CB11CDB
:10049000E4CFFF90EF90DF90CF90BF90AF909F9010
:1004A0008F900895009721F0805C9F4F0C94D700A7
:1004B0000895AF92BF92CF92DF92EF92FF920F9387
:1004C0001F93CF93DF936C017B018B01040F151FEA
:1004D000EB015E01AE18BF08C017D10759F0699152
:1004E000D601ED91FC910190F081E02DC6010995B6
:1004F000892B79F7C501DF91CF911F910F91FF9063
:10050000EF90DF90CF90BF90AF900895FC01538D96
:10051000448D252F30E0842F90E0821B930B5417DD
:1005200010F0CF96089501970895FC01918D828D6A
:10053000981761F0A28DAE0FBF2FB11D5D968C9103
:10054000928D9F5F9F73928F90E008958FEF9FEF42
:100550000895FC01918D828D981731F0828DE80FFE
:10056000F11D858D90E008958FEF9FEF0895FC01B8
:10057000918D228D892F90E0805C9F4F821B910985
:100580008F73992708958AEB93E00E94B70221E0C8
:10059000892B09F420E0822F089580E090E0892BD8
:1005A00029F00E94C30281110C9400000895FC01FF
:1005B000A48DA80FB92FB11DA35ABF4F2C91848DC4
:1005C00090E001968F739927848FA689B7892C9321
:1005D000A089B1898C91837080648C93938D848D74
:1005E000981306C00288F389E02D80818F7D808377
:1005F0000895EF92FF920F931F93CF93DF93EC0137
:1006000081E0888F9B8D8C8D98131AC0E889F989B9
:10061000808185FF15C09FB7F894EE89FF896083BC
:10062000E889F98980818370806480839FBF81E03D
:1006300090E0DF91CF911F910F91FF90EF9008957F
:10064000F62E0B8D10E00F5F1F4F0F731127E02E5A
:100650008C8D8E110CC00FB607FCFACFE889F98992
:10066000808185FFF5CFCE010E94D702F1CFEB8DBF
:10067000EC0FFD2FF11DE35AFF4FF0829FB7F89466
:100680000B8FEA89FB8980818062CFCFCF93DF9384
:10069000EC01888D8823B9F0AA89BB89E889F9899A
:1006A0008C9185FD03C0808186FD0DC00FB607FCCF
:1006B000F7CF8C9185FFF2CF808185FFEDCFCE0102
:1006C0000E94D702E9CFDF91CF9108955F926F9298
:1006D0007F928F929F92AF92BF92CF92DF92EF92D2
:1006E000FF920F931F93CF93DF935C016901DA01AF
:1006F0005C90232B19F4CC24CA94DC2C8A013A0197
:10070000660E771ED0E0C0E0F12CE12C87E0882E49
:10071000912CF50180819181D8016C910C2E01C042
:10072000660F0A94EAF765296F77DC01ED91FC9179
:100730000190F081E02D0995BFEFEB1AFB0AF8015B
:10074000608170E0C4018C1B9D0B02C0759567959C
:100750008A95E2F7562E2196C730D10558F1CE146E
:10076000DF0441F1D5018D919C91652D6F77DC01FE
:10077000ED91FC910190F081E02D0995BFEFEB1A0E
:10078000FB0A551C5524551C2797E6CFEC14FD0495
:1007900008F4BFCFDF91CF911F910F91FF90EF90A1
:1007A000DF90CF90BF90AF909F908F907F906F9091
:1007B0005F9008950F5F1F4F6016710639F72097FD
:1007C00049F3EC14FD0430F7F5018081918161E07B
:1007D00070E001C0660FCA95EAF761506521DC013F
:1007E000ED91FC910190F081E02DDF91CF911F916F
:1007F0000F91FF90EF90DF90CF90BF90AF909F90C0
:100800008F907F906F905F9009941F93CF93DF93A9
:1008100000D0CDB7DEB7182F7A8369838091970413
:10082000909198040097C9F0DC01ED91FC91019042
:10083000F081E02D1031B8F461157044A0F4612FFF
:10084000606E099522E030E0AE014F5F5F4F62E0DD
:1008500070E087E994E00E9466030F900F90DF91AB
:10086000CF911F91089560EF099580919704909121
:100870009804DC01ED91FC910190F081E02D6FE690
:1008800009958091970490919804DC01ED91FC9179
:100890000190F081E02D612F099522E030E0AE015A
:1008A0004F5F5F4F62E070E087E994E00E9466036B
:1008B0008091970490919804DC01ED91FC91019056
:1008C000F081E02D67EF0995C8CFEF92FF920F936B
:1008D0001F93CF93DF93C82F809197049091980432
:1008E0000097C9F17A018B01DC01ED91FC91019037
:1008F000F081E02D60EF0995809197049091980424
:10090000DC01ED91FC910190F081E02D6C2F0995B7
:10091000E7010E0D1F1DC017D10759F030E020E090
:10092000AE0161E070E087E994E00E9466032196E1
:10093000F2CF8091970490919804DC01ED91FC91A5
:100940000190F081E02D67EFDF91CF911F910F9122
:10095000FF90EF900994DF91CF911F910F91FF903D
:10096000EF900895CF92DF92EF92FF920F931F9333
:10097000CF93DF93FC01E058FF4FE080EE2009F4B5
:100980005CC0EC01C05CDF4FA881B981109709F40D
:1009900054C0FC01EF57FF4FC080D180F601118198
:1009A0000081ED91FC9111970190F081E02D60EFB5
:1009B000CD01099588819981DC01ED91FC9101902F
:1009C000F081E02D69E7099588819981DC01ED913D
:1009D000FC910190F081E02D602F0995888199812B
:1009E000DC01ED91FC910190F081E02D612F0995E2
:1009F000F12C01E010E00F5F1F4FE016F10659F0F7
:100A000030E020E0A601400F511F61E070E0CE0110
:100A10000E946603F0CF88819981DC01ED91FC9101
:100A20000190F081E02D67EFDF91CF911F910F9141
:100A3000FF90EF90DF90CF900994DF91CF911F91BD
:100A40000F91FF90EF90DF90CF900895009711F0F5
:100A50000C94B20408952091F602260F3327331F19
:100A600021323105ECF420919003FC0190E080E00C
:100A7000243069F082E00895A091F6022191AC0142
:100A80004C525D4FA40FB52FB11D2C9301968617C4
:100A900098F38091F602680F6093F60280E0089563
:100AA00081E008951092900381E080938F0310926B
:100AB0006A0361E082E10E945D0161E083E10E94DE
:100AC0005D01E9EBF0E080818E7F808380818D7F06
:100AD000808388E48093B80085E48093BC00089507
:100AE000CF93DF9391E09093D3028823B9F0C09124
:100AF000B800D091BA008091BC008A7B8093BC0082
:100B000060E082E10E945D0160E083E10E945D019E
:100B10000E945205D093BA00C093B800DF91CF91E4
:100B200008958F929F92AF92BF92CF92DF92EF92F1
:100B3000FF920F931F93CF93DF93D091B903D132DC
:100B400008F0D7C0182FC091B8030E94FA016B01BA
:100B50007C018091900381116BC082E080939003AF
:100B600010938F038FEF80938E0310928D03D09399
:100B70008C03A8E9B3E0ECE6F3E080E0D81391C081
:100B800010926B0380916B03CC0FC82BC0936B0347
:100B900080916A03813009F088C010926A030E9434
:100BA000FA016B017C0180916B038093BB00809103
:100BB000920390919303A0919403B0919503892B94
:100BC0008A2B8B2BA1F00E94FA01009192031091C5
:100BD000930320919403309195036C197D098E093C
:100BE0009F09061717072807390708F442C08091A4
:100BF000BC0083FDD8CF85EC8093BC000E94FA0135
:100C00006B017C0180919003823009F450C0809187
:100C10008E038F3F09F46FC080918E03803209F4F8
:100C20006CC080918E03803309F469C084E026C0D3
:100C30008091920390919303A0919403B0919503B6
:100C4000892B8A2B8B2B09F484CF0E94FA01809088
:100C5000920390909303A0909403B09095036C1925
:100C60007D098E099F0986169706A806B90608F021
:100C700070CF809191030E94700585E010929703D8
:100C80001092B90310929603DF91CF911F910F91AB
:100C9000FF90EF90DF90CF90BF90AF909F908F909C
:100CA00008959D9191938F5F69CF85EEA5CF809137
:100CB000920390919303A0919403B0919503892B93
:100CC0008A2B8B2B09F49ECF0E94FA01009192038C
:100CD0001091930320919403309195036C197D0931
:100CE0008E099F09061717072807390708F08ACFCA
:100CF000C0CF81E0C3CF80E0C1CF82E0BFCF83E02F
:100D0000BDCF089508950895E091D2028091D10257
:100D1000E81730F4F0E0EF54FD4F808190E0089543
:100D20008FEF9FEF08959091D2028091D1022FEF23
:100D30003FEF981748F4E92FF0E0EF54FD4F208182
:100D400030E09F5F9093D202C90108958091D10253
:100D50009091D202891B990B0895CF92DF92EF9266
:100D6000FF920F931F93CF93DF937C01CB018A01F6
:100D700020919603222389F0EB016B01C40ED51E4E
:100D8000CC15DD0569F06991D701ED91FC910190D9
:100D9000F081E02DC7010995F3CF642F0E942B0548
:100DA000C801DF91CF911F910F91FF90EF90DF90DD
:100DB000CF900895CF93DF931F92CDB7DEB76983AD
:100DC000209196032223F9F02091B903203258F0A4
:100DD00021E030E0FC013383228390E080E00F903B
:100DE000DF91CF91089580919703E82FF0E0E856C6
:100DF000FC4F998190838F5F809397038093B90311
:100E000081E090E0ECCF61E0CE0101960E942B05DD
:100E1000F7CF90E080E00895DF92EF92FF920F937A
:100E20001F93CF93DF93EC01D62E7A01890188813D
:100E30008C3008F067C061E08D2D0E94A901888187
:100E4000282F30E0F901EE0FFF1FE20FF31FEF58DC
:100E5000FA4F9D2D9F736081607C692B608320E237
:100E600032E02E193F0937FF02C02D5F3F4F359505
:100E7000279535952795298320E639E0201B310BEE
:100E800037FF02C02D5F3F4F359527953595279544
:100E90002A832CE0622F0E94001B829FB001112444
:100EA00030E020E0AB01420F531FFA01EE0FFF1FAD
:100EB000E40FF51FEF58FA4F908196FD16C02F5F93
:100EC0003F4F2C30310571F781110FC01092800017
:100ED00082E0809381001092850010928400B19A84
:100EE00080916F00826080936F00E8818E2F90E088
:100EF000FC01EE0FFF1FE80FF91FEF58FA4F80813A
:100F0000806480838881DF91CF911F910F91FF9042
:100F1000EF90DF9008952091AE023091AF028217DA
:100F20009307F8F49C01220F331F280F391F80917B
:100F3000AC029091AD02E091AB02820F931FE80FDB
:100F4000F92FF11D6083E091AA02E80FF92FF11D3E
:100F500050832091A902820F911DFC01408380E003
:100F6000089581E008951092A8021092AF021092A5
:100F7000AE02E8E9F2E0A0E9B2E0119211921D920E
:100F800082E0E83AF807C9F70895DC0170E0FB0158
:100F9000E057FF4FE4911896EC93189764587F4FF1
:100FA000FB018491E82FF0E0EE0FFF1FEE58FF4F9A
:100FB0008591949115969C938E931497FB0164915F
:100FC000E62FF0E0EE0FFF1FE859FF4F8591949157
:100FD00017969C938E9316970895CF938830B0F40C
:100FE00021E030E0082E02C0220F331F0A94E2F7FE
:100FF00040915B0350915C03672B51F42095309531
:101000002423352330935C0320935B03CF91089511
:10101000242B352B30935C0320935B0390918F023C
:101020009111F4CFC82F0E94E501BC018C2FCF9104
:101030000C9405045F926F927F928F929F92AF9271
:10104000BF92CF92DF92EF92FF920F931F93CF93B5
:10105000DF93833008F061C0D1E0D80FDD0FDD0FE2
:10106000DD0F5D2ED73110F046E1542EC62F082F2C
:10107000D8508D2E912CC401880F991F9C01295A9C
:101080003B4F5901D12CC12C10E077247394D51516
:10109000C8F58EEF8D0F8231F8F4F601E80DF91DD9
:1010A000E652FB4F90819230B8F48C2F8721662452
:1010B0006394811101C0612C7601EE0CFF1C91300C
:1010C00089F4172939E9E30EF11CF501EE0DFF1D36
:1010D000862D90E091838083770CDF5F8FEFC81AB5
:1010E000D80AD5CF882371F3F701E756FF4FEA0DF1
:1010F000FB1D80819181019729F362E08D2F0E9471
:10110000A901E0CF011119C0F8948BB16C2F6827A9
:101110006C7F612368276BB97894DF91CF911F9121
:101120000F91FF90EF90DF90CF90BF90AF909F9086
:101130008F907F906F905F9008950130D1F4C1231C
:10114000F89495B1812F8F73809589239C2F9F737D
:10115000892B85B988B1612F629566956695637014
:1011600060956823C295C695C695C370C62BC8B94D
:10117000D3CF1F70F89498B1812F880F880F809576
:101180008923C123CC0FCC0FC82BF1CF8F929F9214
:10119000AF92BF92CF92DF92EF92FF920F931F9385
:1011A000CF93DF93EB01863108F098C0082F10E051
:1011B000F801E652FB4F9081933009F49CC09430C3
:1011C00009F08CC08250823108F081C0F801EB58E0
:1011D000FD4FC080D12C7601EE0CFF1C4B0160321C
:1011E00082E078070CF03EC0F701EC0DFD1DEA56D9
:1011F000FA4F8181A8E88A2E912C881A910887FDE0
:101200009394880C991C880C991C092C000CAA0832
:10121000BB08828128E532E0281B310987FD339520
:10122000220F331F220F331F032E000C440B550BCC
:10123000281939094A095B09DB01653B710514F07E
:10124000A4EBB0E0B7FF02C0B0E0A0E00E94C71A74
:1012500024EB30E040E050E00E949D1A820E931E85
:10126000A41EB51EF701EC0DFD1DEA56FA4F2081B4
:101270002C3068F5318188E890E0831B910937FDB7
:101280009395880F991F880F991F881699067CF0EF
:10129000328188E592E0831B910937FD9395880F91
:1012A000991F880F991F881699060CF4C40102979C
:1012B000880F991F4FB7F89430E0F901EE0FFF1F28
:1012C000E20FF31FEF58FA4F928381834FBF000F55
:1012D000111FF801E051FB4FD183C083DF91CF9103
:1012E0001F910F91FF90EF90DF90CF90BF90AF9044
:1012F0009F908F9008957B01D82F833041F08BEF22
:10130000800F823020F087EF800F833058F461E047
:101310008D2F0E94A901E114F10461F460E08D2F8A
:101320000E945D01000F111FF801E051FB4FF18297
:10133000E082D4CF8FEFE816F10411F461E0EFCF33
:10134000F801EC55FF4FE491E33021F148F4E1302E
:10135000B9F0E230D1F080E8E816F1047CF7DECF96
:10136000E73011F1E83041F1E430A9F780918000D5
:10137000806280938000F0928B00E0928A00D2CF4E
:1013800084B5806884BDE7BCCDCF84B5806284BD60
:10139000E8BCC8CF80918000806880938000F09284
:1013A0008900E0928800BECF8091B0008068809371
:1013B000B000E092B300B6CF8091B000806280931D
:1013C000B000E092B400AECF9EEF980F923180F45F
:1013D000E82FF0E0DF01A652BB4F9C91913041F421
:1013E000EE0FFF1FE051FB4F608371830C945D0192
:1013F0000895FF920F931F93CF93DF9300D0CDB743
:10140000DEB7082F10E0F801E35DFC4F9081F62E67
:10141000F92205571D4F411104C0F80190819F1515
:1014200011F12F2D30E03A832983A0919704B091D8
:1014300098041097B1F0682F6F706069ED91FC917E
:1014400011970190F081E02DCD01099522E030E067
:10145000AE014F5F5F4F62E070E087E994E00E9469
:101460006603F801F0820F900F90DF91CF911F91EA
:101470000F91FF900895833040F5282F30E0F90157
:10148000E05DFC4F6083672B01F1235D3C4FF90168
:101490006081811106C099B19C7F692341E00C9461
:1014A000F909813049F493B126B19F73F0E42F9F7D
:1014B00090011124922BF1CF26B130E0359527957C
:1014C000359527952F706223E9CF0895A82FB0E0B6
:1014D000AB58BD4F9C91292F30E0F901EE0FFF1F53
:1014E000E20FF31FEA56FA4FE0812E2F30E0F901A8
:1014F000EE0FFF1FE20FF31FEF58FA4F80818F7B33
:10150000808380917302981308C0992319F0915039
:10151000909373028FEF8C9308958823D9F3E09111
:101520007402EF5FE0937402F0E0EF5DFD4F908393
:10153000F1CFFC0101900020E9F73197BF01681B52
:10154000790BAC0181E70C9465044F925F926F9226
:101550007F928F929F92AF92BF92FF920F931F93B1
:10156000CF93DF93F82E8B01D42FC22F6F3F7607D6
:1015700009F490C081E080939603F092B803109232
:1015800097031092B9038DE195E00E94DA068C2F43
:101590000E949105809171029091720282309105B2
:1015A00038F0880F991F880F991F05970197F1F759
:1015B0000E94FA014B015C018091900381116CC083
:1015C000CD2FD13208F0C0E281E080939003809368
:1015D0008F039FEF90938E0310928D039C0F909337
:1015E0008C0380936B0390916B038F2D880F892B55
:1015F00080936B0380916A03813009F0A1C010923F
:101600006A030E94FA014B015C0180916B03809395
:10161000BB008091920390919303A0919403B091A9
:101620009503892B8A2B8B2BA1F00E94FA01409005
:1016300092035090930360909403709095036819FF
:1016400079098A099B09461657066806790608F43F
:1016500044C08091BC0083FDD8CF85EC8093BC0052
:101660000E94FA014B015C0180919003813009F4E2
:1016700069C080918D038C1710F4C0918D03ECE646
:10168000F3E0A1EBB2E080E08C1761F191919D93C2
:101690008F5FFACF00E08CCF8091920390919303FB
:1016A000A0919403B0919503892B8A2B8B2B09F47D
:1016B00083CF0E94FA014090920350909303609070
:1016C000940370909503681979098A099B09461655
:1016D00057066806790608F06FCF809191030E9443
:1016E0007005C0E01092D202C093D1022D2F30E0DD
:1016F0008C2F90E0281739070CF046C08DE291E05E
:101700000E94990AF0922E0200932F020EE212E03C
:10171000AD2EB12CC8018E5292408A159B050CF05B
:1017200041C00F5F1F4F9091D1028091D202981754
:10173000C9F18DE195E00E949306F8018183EACF1B
:1017400085EE8CCF8091920390919303A0919403A6
:10175000B0919503892B8A2B8B2B09F485CF0E949E
:10176000FA0140909203509093036090940370901C
:101770009503681979098A099B0946165706680670
:10178000790608F071CFA9CF821793070CF0BACF72
:101790008AE491E00E94990AD091D1028091D2020C
:1017A000D81BB0CFDE5F6D2F70E04EE252E087E7CE
:1017B000DF91CF911F910F91FF90BF90AF909F90BD
:1017C0008F907F906F905F904F900C946504CF93B3
:1017D000DF93DB01909173029C3078F530917402B5
:1017E000682F70E0FB01EB58FD4F3323E1F0C32F6E
:1017F000D0E0CF5DDD4F888180833150309374021B
:10180000808123E0829FC00111248A569A4F1A16C4
:101810001B0674F4141615065CF49A01AD01DF91F1
:10182000CF910C940C0790839F5F90937302E8CF45
:1018300020E639E040E252E0F2CF86E691E0DF9127
:10184000CF910C94990A9F92AF92BF92CF92DF9260
:10185000EF92FF920F931F93CF93DF93C82ED12C5B
:10186000E601C95ADB4FFE01ED57FF4F90819F37CC
:1018700009F49FC0963061F490918E02992341F053
:101880006630710529F010928E029FEF909300014F
:101890007B01182F0EEF080F023108F56430710537
:1018A000F1F0F601EB58FD4F80818C30C0F490E0F0
:1018B000FC01EE0FFF1FE80FF91FEA56FA4FE08117
:1018C0008E2F90E0FC01EE0FFF1FE80FF91FEF587D
:1018D000FA4F808186FF03C0812F0E94660A52EF73
:1018E000952E910E87E0891558F061E070E032E0A6
:1018F000E316F10411F070E060E0892D0E94ED071D
:101900000231C8F4E12FE695E695E695F0E0E35D57
:10191000FC4F2081312F377081E090E001C0880FAB
:101920003A95EAF7E114F10421F03BE0E316F10403
:1019300001F5822B80835601AA0CBB1CF501E051F6
:10194000FB4F118210828CE0E816F10408F0CBC046
:10195000F701E355F34F0C940C1BCD0CFA0CBC0CA7
:10196000110D300D730D670D730D730D730DD90CC3
:10197000E50C80958223DECF37E03915D0F00231B7
:1019800020F460E0812F0E94A901CD57DF4F8881AC
:101990008F3779F082E088830CC0023150F460E028
:1019A000812F0E94A901CD57DF4F88818F3709F021
:1019B0001882DF91CF911F910F91FF90EF90DF90F0
:1019C000CF90BF90AF909F900895023190F762E062
:1019D000812F0E94A901CD57DF4F88818F3711F0E9
:1019E0008BE08883F501E051FB4F81E090E091832B
:1019F0008083DFCF0231E8F6FE01ED57FF4F808193
:101A0000833021F460E0812F0E945D0161E0812F2D
:101A10000E94A901CD57DF4F88818F3751F281E0B5
:101A2000BACF133049F08BEF810F823028F087EF67
:101A3000810F833008F0BDCF61E0812F0E94A901A2
:101A400061E0812F0E94A90160E0812F0E945D0169
:101A5000CD57DF4F88818F3709F4ABCF83E09BCF21
:101A6000023108F0A6CFCD57DF4F88818F3711F0B4
:101A700084E08883F601EB58FD4F80818F3FA9F009
:101A800090E0FC01EE0FFF1FE80FF91FEA56FA4F36
:101A9000E0818E2F90E0FC01EE0FFF1FE80FF91F91
:101AA000EF58FA4F808186FD84CF4FEF5FEF6FEFE5
:101AB0007FEF812FDF91CF911F910F91FF90EF90DA
:101AC000DF90CF90BF90AF909F900C94E70B125196
:101AD000123008F06ECFCD57DF4F88818F3709F471
:101AE00068CF86E058CF8AE791E0DF91CF911F91D0
:101AF0000F91FF90EF90DF90CF90BF90AF909F90AD
:101B00000C94990A0F931F93CF93DF9381E08093F6
:101B10008F0280918E02882329F010928E028FEF1F
:101B2000809300011092300310922D0310928B02CB
:101B30001092310310922E0310928C0210923203F5
:101B400010922F0310928D0205E712E0C0E0DFEF44
:101B500082EF8C0F62E070E0883030F08EEF8C0FF7
:101B6000823128F461E070E08C2F0E94230CF80190
:101B7000D1938F01CF5FC63159F710925C03109259
:101B80005B03109274021092730210928F02DF9125
:101B9000CF911F910F91089585ED8093BC008091A6
:101BA000920390919303A0919403B09195030796AB
:101BB000A11DB11D23E0B695A795979587952A9508
:101BC000D1F72091BC0024FD03C01092900308952A
:101BD0004091920350919303609194037091950307
:101BE000452B462B472B69F30097A105B10541F022
:101BF0002AE22A95F1F700C00197A109B109E1CFC6
:101C0000809191030C9470056F927F928F929F92B6
:101C1000AF92BF92CF92DF92EF92FF920F931F93FA
:101C2000CF93DF93EA018F3609F4F9C1162F80377D
:101C300008F05CC0893609F483C290F4813509F458
:101C400090C2DF91CF911F910F91FF90EF90DF90A5
:101C5000CF90BF90AF909F908F907F906F9008959E
:101C60008B3609F407C28D3661F7662351F3C881BC
:101C700080EF0E9401018EE60E9401018C2F0E94DC
:101C80000101C63108F04BC2D0E0FE01E652FB4F25
:101C900080810E940101CC0FDD1F8E0100511B4F7E
:101CA000F80180818F770E940101F8018081918184
:101CB0009C012078232B39F0880F892F881F990BDE
:101CC0008F770E940101C051DB4F888199819C016F
:101CD0002227307C232B09F422C2990F880B990FFD
:101CE000982F881F8F770E94010119C2863709F447
:101CF0006DC008F051C0803709F0A3CF653008F4FB
:101D0000A0CF18818EEF810F823108F09ACF098120
:101D1000EA80FB80CC81E12FF0E0EB58FD4F808121
:101D20008C30C0F490E0FC01EE0FFF1FE80FF91FAC
:101D3000EA56FA4FE0818E2F90E0FC01EE0FFF1F74
:101D4000E80FF91FEF58FA4F808186FF03C0812FFB
:101D50000E94660A60E8C69FA00111244F0D511D24
:101D600080E8E89EB0011124600F711D812F0E9450
:101D7000E70B64E070E0812FDF91CF911F910F910D
:101D8000FF90EF90DF90CF90BF90AF909F908F909B
:101D90007F906F900C94230C883709F401C18A3727
:101DA00009F04FCF623008F44CCF898190E8899FC9
:101DB000900111248881820F932F911D009709F4BF
:101DC0002BC190930201809301013BCF998195FF34
:101DD00012C08BE891E0DF91CF911F910F91FF909E
:101DE000EF90DF90CF90BF90AF909F908F907F90BB
:101DF0006F900C94990A888131E096FB222720F994
:101E000023279871983099F1E0F491111ACF30930B
:101E100096038093B803109297031092B90302E0DF
:101E20000117E8F4FE01E00FF11D61816795662757
:101E300067958081680F8DE195E00E94DA060E5F5C
:101E4000EFCF9031D9F1983109F0FBCE209100010C
:101E500012160CF460C08FEF80930001F2CE81E087
:101E60000E94910583E191E00197F1F7EACE9A8112
:101E70004B816630E1F430E8439FB0011124690FD3
:101E8000711D4D814795442747959C81490FDF91EE
:101E9000CF911F910F91FF90EF90DF90CF90BF9067
:101EA000AF909F908F907F906F900C94A50A47956C
:101EB00044274795490F6FEF7FEFE9CFE09100018D
:101EC000E7301CF08BEA91E086CF3A819B81663047
:101ED000D9F460E8969FA0011124430F511D9D8104
:101EE0009795992797953C81930FEF5FE0930001B9
:101EF00035E0E302F0011124ED5CFC4F8083528356
:101F00004183938324839DCE979599279795930F2B
:101F10004FEF5FEFEACF90E0622F022E000C770BBD
:101F200035E0492F50E06417750764F0349FF001E5
:101F3000359FF00D1124ED5CFC4F4081481719F0DE
:101F40009F5FEFCF90E085E0492F50E06417750761
:101F50001CF19830F8F4FA0131968E9FD0018F9FD2
:101F6000B00D1124AD5CBC4F3C91849FF001859F66
:101F7000F00D1124ED5CFC4F308311964D915C9176
:101F800012975283418313963C911397338314968F
:101F90003C9134839F5FD8CF21502093000151CED4
:101FA000623078F0898140E8849F90011124888113
:101FB000820F932F911D009721F0909372028093CE
:101FC000710280918E0281113CCEC0E08EEE8C0FAA
:101FD000823028F466E070E08C2F0E94230CCF5FE3
:101FE000C631A1F781E080938E021092D202109246
:101FF000D102109297031092B9030E94520581E812
:1020000096E09093F5028093F40282E896E0909334
:10201000F9028093F80215CE81E090E0D2CE6230D2
:1020200008F40FCE898190E0623091F02A81E0E8D7
:102030002E9F90011124822B932B633049F02B812A
:1020400030E030E4239F302D22271124822B932B64
:10205000BC018881DF91CF911F910F91FF90EF908C
:10206000DF90CF90BF90AF909F908F907F906F90B8
:102070000C94C60880EF0E9401018CE60E940101C9
:10208000CEEF84EF8C0F883050F582E00E94010182
:102090008AE00E9401018DEF8C0F823010F189EFF0
:1020A0008C0F833020F51DC0C23158F780E00E94AC
:1020B000010181E00E9401018BE00E94010181E0A9
:1020C0000E94010181E00E94010181E00E94010162
:1020D00081E50E94010181E00E940101D2CFC1305F
:1020E000D1F683E00E94010188E00E940101C23123
:1020F00030F484E00E9401018EE00E94010180EF33
:102100008C0F823030F486E00E94010181E00E9451
:1021100001018FE70E940101CF5FC43129F687EFEB
:10212000DF91CF911F910F91FF90EF90DF90CF90B3
:10213000BF90AF909F908F907F906F900C94010113
:1021400080EF0E9401018AE60E940101C2EF8FE741
:10215000C83008F48C2F0E940101CF5FC830B9F756
:10216000DECF662309F46DCD9881892F8F7083307F
:1021700009F42EC108F064C0813009F47EC18230B8
:1021800009F05FCD8091700281115BCD80916F026B
:10219000811157CD81E08093700280E019E0909129
:1021A000A802891708F0A4C0282F30E0B9016057B1
:1021B0007D4FFB019081992309F496C0E091AC0218
:1021C000F091AD02129FE001139FD00D1124C75D65
:1021D000DA4FAE81BF819C912885922B9C93AC8174
:1021E000BD81988528813981A901440F551F420F6F
:1021F000531F0A80DB81C02D9E01220F331F2C0F3D
:102200003D1FE20FF31F3C91292F20952323932B91
:102210003FB7F8944E0F5F1F4E175F0709F462C077
:10222000C191D8E09C9300C0C7FF2C93CC0F00C095
:1022300000C000C008F42C9300C0DA9599F7ECCFE9
:10224000843009F458C0853009F0FBCC9981292FDE
:102250002F7109F49CC0392F3072732E81E0809366
:102260006F02022F000F020F10E0C091AE02D0915A
:10227000AF02C21BD1096E01CC0CDD1CCC0EDD1EE1
:10228000E090AC02F090AD024701800E911E492F04
:102290004074642E96FFA9C1C8010E94121B5C0104
:1022A000009729F0A80170E060E00E94521CCE0166
:1022B000711002C090E080E0BC01660F771F680FCC
:1022C000791F6E0D7F1DA801C5010E94371C772064
:1022D00009F4A1C1A601B701C4010E94401CD0E0CD
:1022E000C0E0A0C13FBF7894FB0110828F5F57CF41
:1022F00010927002A6CC80916F028111A2CCCB808B
:10230000D12CF12CE12C7EE0CC0CDD1CEE1CFF1C52
:102310007A95D1F78C8190E0B0E0A0E0E5E1880FFC
:10232000991FAA1FBB1FEA95D1F78C0D9D1DAE1DED
:10233000BF1D29816C017D01C20ED11CE11CF11C65
:102340008A8190E0B0E0A0E0F7E0880F991FAA1F13
:10235000BB1FFA95D1F7C80ED91EEA1EFB1E0091CD
:10236000AE021091AF02D0E0C0E0C114D104E1048C
:10237000F10421F5A801440F551F400F511F70E0D3
:1023800060E08091AC029091AD020E94521C40919D
:10239000A80250E061E070E080E992E0DF91CF9127
:1023A0001F910F91FF90EF90DF90CF90BF90AF9073
:1023B0009F908F907F906F900C94521CC017D10704
:1023C00031F3B701A601CE010E948B072196F6CF0B
:1023D00080916F02811135CC0A81F0E80F9FC00116
:1023E00011240981080F192F111D4D8150E070E053
:1023F00060E08EE0440F551F661F771F8A95D1F766
:102400008E8190E0B0E0A0E025E1880F991FAA1F1F
:10241000BB1F2A95D1F7840F951FA61FB71F2B81CD
:10242000AC01BD01420F511D611D711D8C8190E0F9
:10243000B0E0A0E037E0880F991FAA1FBB1F3A95B4
:10244000D1F7480F591F6A1F7B1FC8010E948B07D5
:102450004091A802A8E9B2E090E080E0841708F07B
:10246000F0CBFC012D913D91019602171307B0F7B7
:10247000E057FD4F81E08083E4CB913009F0E1CB60
:10248000633008F4DECB00916E020E94B307002394
:1024900081F0B9E2CB2EB5E0DB2EF12C6F2DC60119
:1024A0000E94C507F39429E0C20ED11C38E0F31254
:1024B000F5CF6BEA169F112D11241695E8E9AE2E83
:1024C000E2E0BE2EF9E2CF2EF5E0DF2E912C88243B
:1024D0008394A2E07A2E011105C069816F71C60153
:1024E0000E94C507898190E075E0959587957A955A
:1024F000E1F78130910509F467C08230910509F454
:1025000068C0892B31F41092AA028092AB027092BB
:10251000A902EB8040E8E49E700111248A81E80E54
:10252000F11CF601F182E08290E080E0992021F038
:10253000F5013297808191819701280F391FF501AC
:10254000219331935F01F601938382838091AE02E0
:102550009091AF02E80EF91EF092AF02E092AE0247
:102560008091A8028F5F8093A8029394F9E0CF0E28
:10257000D11C23961911AFCF8091AC029091AD027E
:10258000009731F00E94AE1B1092AF021092AE0283
:10259000E114F10409F455CBE701CC0FDD1FCE0D9A
:1025A000DF1DCE010E94121B9093AD028093AC02FE
:1025B0000097B1F0AE0170E060E00E94521CF09212
:1025C000AF02E092AE023DCB1092AB028092AA0223
:1025D0009ECF1092A9028092AB027092AA0299CF6C
:1025E0001092AF021092AE022CCB3323A1F0A601C1
:1025F000B701C4010E94401CD0E0C0E0CE01880FAA
:10260000991F8C0F9D1FA80170E060E08E0D9F1D2B
:102610000E94521C15C0A601B401C7010E94401CB3
:10262000662061F3CE01880F991F8C0F9D1FA801B2
:10263000B5018E0D9F1D0E94371CC5010E94AE1B67
:1026400010926F02A4CE1F920F920FB60F92112418
:102650002F933F938F939F93AF93BF938091620388
:1026600090916303A0916403B0916503309161037D
:1026700023E0230F2D3758F50196A11DB11D20939E
:1026800061038093620390936303A0936403B09308
:1026900065038091660390916703A0916803B091F0
:1026A00069030196A11DB11D809366039093670392
:1026B000A0936803B0936903BF91AF919F918F91ED
:1026C0003F912F910F900FBE0F901F90189526E805
:1026D000230F0296A11DB11DD2CF1F920F920FB6EC
:1026E0000F9211242F933F934F935F936F937F9398
:1026F0008F939F93AF93BF93EF93FF938AEB93E0F6
:102700000E94D702FF91EF91BF91AF919F918F915E
:102710007F916F915F914F913F912F910F900FBEDD
:102720000F901F9018951F920F920FB60F921124C1
:102730002F938F939F93EF93FF93E091CA03F091B0
:10274000CB038081E091D003F091D10382FD1BC0C7
:1027500090818091D3038F5F8F732091D403821770
:1027600041F0E091D303F0E0E654FC4F958F809365
:10277000D303FF91EF919F918F912F910F900FBEF7
:102780000F901F9018958081F4CF1F920F920FB673
:102790000F9211240F900FBE0F901F9018951F924B
:1027A0000F920FB60F9211242F933F934F935F9385
:1027B0006F937F938F939F93AF93BF93EF93FF9309
:1027C0008091B900887F803609F44AC0F0F58832DC
:1027D00009F4A7C018F5803109F49BC0B8F4882328
:1027E00009F4F9C0883009F494C0FF91EF91BF91CA
:1027F000AF919F918F917F916F915F914F913F9199
:102800002F910F900FBE0F901F901895883109F4EB
:1028100088C0803251F780938E0314C0803409F44D
:102820009DC040F48033B9F38833F9F680938E036A
:1028300085ECB0C0803509F485C0883509F496C0B0
:10284000883499F60E94CC0DD0CF883909F48CC019
:1028500038F5883729F050F4883611F0803729F69A
:1028600083E08093900310921A0357C0883809F4CC
:102870007BC0803919F0803809F0B7CF80911A03F6
:10288000803208F071C0E0911A0381E08E0F8093CE
:102890001A038091BB00F0E0E650FD4F80833DC0FD
:1028A000803B39F0E0F4803A09F479C0883A09F0C5
:1028B0009CCF84E0809390031092F7021092F6026E
:1028C000E091F402F091F50209958091F6028111F0
:1028D0000FC081E08093F6021092D40209C0803CC0
:1028E00009F4A6CF883C09F4A3CF883B09F07DCF3B
:1028F000E091F70281E08E0F8093F702F0E0EC5256
:10290000FD4F80818093BB009091F7028091F60289
:1029100029C080916B038093BB0085EC8093BC0041
:1029200064CF90918D0380918C03981758F5E091B6
:102930008D0381E08E0F80938D03F0E0E459FC4F0E
:102940008081E9CFE0918D0381E08E0F80938D032C
:102950008091BB00F0E0E459FC4F808390918D039F
:1029600080918C039817C8F285E8D8CFE0918D0349
:1029700081E08E0F80938D038091BB00F0E0E459DD
:10298000FC4F808380918F0381115CCF81E0809325
:102990006A0384EA8093BC001092900326CF85ECF2
:1029A0008093BC001092900380911A03803230F41F
:1029B000E0911A03F0E0E650FD4F108260911A0397
:1029C00070E0E091F802F091F9028AEF92E0099547
:1029D00010921A030ACF10928E0334CF1F920F92D7
:1029E0000FB60F9211242F933F934F935F936F93E2
:1029F0007F938F939F93AF93BF93CF93DF93EF9387
:102A0000FF938091B002C0919505D0E087FF24C06C
:102A100010928500109284008091B0028F5F8093A5
:102A2000B0028091B002082E000C990B8C179D0704
:102A300024F48091B0028C30C4F180918400909194
:102A40008500049680349C4908F47AC08091840003
:102A500090918500049676C08091B002082E000CFB
:102A6000990B8C179D07C4F6E091B0028E2FEE0FE4
:102A7000990BFC01EE0FFF1FE80FF91FEF58FA4FFB
:102A8000808186FFC9CFE091B0028E2FEE0F990BA7
:102A9000FC01EE0FFF1FE80FF91FEF58FA4F80817E
:102AA00060E08F730E945D01B7CF20918400309168
:102AB0008500E091B0028E2FEE0F990BFC01EE0F16
:102AC000FF1FE80FF91FEF58FA4F81819281820FA3
:102AD000931F9093890080938800E091B0028E2F1D
:102AE000EE0F990BFC01EE0FFF1FE80FF91FEF58D7
:102AF000FA4F808186FF11C0E091B0028E2FEE0F59
:102B0000990BFC01EE0FFF1FE80FF91FEF58FA4F6A
:102B1000808161E08F730E945D01FF91EF91DF91F1
:102B2000CF91BF91AF919F918F917F916F915F9165
:102B30004F913F912F910F900FBE0F901F901895BE
:102B400080E49CE990938900809388008FEF8093C4
:102B5000B002E3CF1092BD031092BC0348EE53E0E5
:102B600060E070E04093BE035093BF036093C003E6
:102B70007093C1038DE091E09093BB038093BA03FF
:102B800085EC90E09093C7038093C60384EC90E0BB
:102B90009093C9038093C80380EC90E09093CB039B
:102BA0008093CA0381EC90E09093CD038093CC0393
:102BB00082EC90E09093CF038093CE0386EC90E07C
:102BC0009093D1038093D0031092D3031092D40337
:102BD0001092D5031092D60387E594E010929804E2
:102BE0001092970490939B0480939A0420E430E021
:102BF00030939D0420939C0410929E0410929F0495
:102C00001092A1041092A0041092A2041092A404A5
:102C10001092A3041092A6041092A5041092A80486
:102C20001092A7041092AA041092A9041092AC0466
:102C30001092AB041092AE041092AD041092B00446
:102C40001092AF041092B6041092B5041092B8041A
:102C50001092B7041092BA041092B9041092BC04F6
:102C60001092BB041092CA041092C90410929904E5
:102C70001092D7041092D9041092D80410921C0517
:102C800027E830E03093BE042093BD0421E930E012
:102C90003093C0042093BF042BE930E03093C2048A
:102CA0002093C10425EA30E03093C4042093C30488
:102CB0002FEA30E03093C6042093C50429EB30E0BE
:102CC0003093C8042093C70423EC30E03093CC0445
:102CD0002093CB0424EC30E03093CE042093CD0439
:102CE00026E235E03093D0042093CF049093B204D1
:102CF0008093B10422E532E03093D2042093D104D2
:102D00009093B4048093B3048FEC90E09093D40438
:102D10008093D3041092200510921F054093210543
:102D20005093220560932305709324058FE191E071
:102D300090931E0580931D05E9E2F5E081E795E09B
:102D4000118210821382128239968E179F07C1F763
:102D5000E6E9F5E02FEF48EB5BE0809195058C30DC
:102D6000B8F491E0980F90939505808390E0DC0192
:102D7000AA0FBB1FA80FB91FAF58BA4F12965C938A
:102D80004E931197339685E0EA3BF80731F70895A3
:102D90002083F8CF789484B5826084BD84B5816047
:102DA00084BD85B5826085BD85B5816085BD809116
:102DB0006E00816080936E0010928100809181008E
:102DC0008260809381008091810081608093810086
:102DD000809180008160809380008091B100846048
:102DE0008093B1008091B00081608093B0008091A9
:102DF0007A00846080937A0080917A008260809368
:102E00007A0080917A00816080937A0080917A00C4
:102E1000806880937A001092C10085E18093D70486
:102E20008091D8049091D9040E94AE1BC091D70420
:102E3000D0E0CE0101960E94121B9093D90480939A
:102E4000D804FC01EC0FFD1F108212E0DC011C9382
:102E500025E011962C93AE01425051096DE072E0CD
:102E600002960E94591C86EC98E090932803809368
:102E700027038AE198E090932603809325038DEE43
:102E800097E090932403809323038BE39AE090933D
:102E900022038093210383E29CE09093200380939C
:102EA0001F0384EE99E090931E0380931D0384E03A
:102EB0009EE090932A038093290382E89DE09093FB
:102EC0002C0380932B03E091CA03F091CB03108372
:102ED000E091CA03F091CB031082E091C603F09118
:102EE000C7031082E091C803F091C90380E1808399
:102EF0001092D203E091CE03F091CF0386E080835D
:102F0000E091CC03F091CD03808180618083E091DA
:102F1000CC03F091CD03808188608083E091CC0365
:102F2000F091CD03808180688083E091CC03F091A3
:102F3000CD0380818F7D808380911C0581114FC0DE
:102F400061E08DE00E94A90162ED70E080E090E018
:102F50000E941F0261E08DE00E945D0168E270E066
:102F600080E090E00E941F0260E08DE00E945D0121
:102F700062ED70E080E090E00E941F0261E08DE071
:102F80000E945D0168E270E080E090E00E941F0214
:102F900060E08DE00E945D016AEF70E080E090E00B
:102FA0000E941F02C5E062ED70E080E090E00E94A8
:102FB0001F0261E08DE00E945D0168E270E080E048
:102FC00090E00E941F0260E08DE00E945D01C15010
:102FD00051F76DE770E080E090E00E941F028AEBFD
:102FE00093E09093D6048093D504909398048093B3
:102FF000970487E994E00E94D70087E594E00E9457
:10300000B2040E94820D0E94B30725E0D22EC0E0D8
:10301000D0E0CC24C39402E010E0EE24E394F12C41
:1030200080913003882349F069B180912D03682392
:103030006C7F40E080E00E94F90980913103882391
:1030400079F063B186B16F73B0E48B9FC001112436
:10305000682B80912E03682340E081E00E94F909EB
:1030600080913203882359F066B180912F038F70CD
:1030700066956695682340E082E00E94F909809198
:10308000D5049091D604DC01ED91FC910084F1858A
:10309000E02D0995892B09F4CEC18091D50490913A
:1030A000D604DC01ED91FC910284F385E02D0995B5
:1030B0009C018F3F980719F3982F8091A2048823D1
:1030C00009F492C0973F09F07EC01092A204A0912B
:1030D0009A04B0919B046C916137C1F1693709F092
:1030E0005CC0E091CF04F091D004309741F2809120
:1030F000A3049091A4048330910560F430E020E0B3
:1031000050E040E070E060E08091B1049091B20442
:103110000995B5CFBD016D5F7F4F03970E943E01BA
:10312000BC016D5F7F4F80E00E940E01E0919A0428
:10313000F0919B049F012D5F3F4F428150E06181E0
:1031400070E0E091CF04F091D004DECF8091CB0409
:103150009091CC04892B09F492CFBD016F5F7F4F12
:103160008091A3049091A40401970E943E01BC01A8
:103170006F5F7F4F80E00E940E0160919A04709112
:103180009B046F5F7F4FE091CB04F091CC04809162
:10319000B7049091B804099572CFE091CD04F091F5
:1031A000CE04309709F46BCF9D012F5F3F4F4091C4
:1031B000A3045091A404415051098091B904909105
:1031C000BA0409955CCF6091A3047091A404822F86
:1031D0000E940E018091A3049091A4040196909303
:1031E000A4048093A3044BCF6091A0047091A10428
:1031F0006115710509F4B1C027FDAFC061507109B7
:103200007093A1046093A004822F0E940E0180910C
:10321000A0049091A104892B09F031CF80919E04E4
:10322000882309F42CCF803D09F483C040F4803911
:1032300049F1803C09F469C010929E0420CF843F7C
:10324000E1F1853F09F44DC0803EB1F7E091BD0446
:10325000F091BE04309781F3A0919A04B0919B0441
:103260004C9120E8429FC001112411964C91480FC7
:10327000592F511D60919F048091A5049091A6043F
:103280000995DACFE091BF04F091C0043097A1F224
:10329000A0919A04B0919B044C9120E8429FC001F8
:1032A000112411964C91480F592F511D60919F0484
:1032B0008091A7049091A804E3CFE091C504F09118
:1032C000C604309709F4B8CFA0919A04B0919B043A
:1032D0004C9150E011966C918091AD049091AE04A8
:1032E000CFCFE091C704F091C804309709F4A4CF80
:1032F000A0919A04B0919B044C9150E011966C916E
:103300008091AF049091B004BBCFE091C104F091E3
:10331000C204309709F490CFA0919A04B0919B0415
:103320004C9150E060919F048091A9049091AA046F
:10333000A7CFE091C304F091C404309709F47CCF87
:10334000A0919A04B0919B044C9150E060919F042D
:103350008091AB049091AC0493CF903F30F4822FD6
:103360008F7080939F04922F907F903FF1F190F4A3
:10337000903CB1F150F4903909F081CE1093A10442
:103380000093A00490939E047ACE903D49F1903E24
:10339000A9F375CE993F09F442C028F48CE0890F57
:1033A000823060F36CCE9F3F09F069CE1092A10489
:1033B0001092A00410929E0410929F0490E080E06E
:1033C00020919C0430919D0482179307A8F4E0910A
:1033D0009A04F0919B04E80FF91F10820196F0CF38
:1033E000F092A104E092A004CDCFC092A20410926A
:1033F000A4041092A30443CE1092A2041092A40439
:103400001092A304E091D304F091D4048091BB0402
:103410009091BC04309709F432CE099530CEE091FA
:10342000D104F091D204309709F429CE8091B304ED
:103430009091B404F2CF8FB7F8948090620390908B
:103440006303A0906403B09065038FBF80915D0318
:1034500090915E03A0915F03B091600340910101E0
:103460005091020170E060E0881A990AAA0ABB0A2A
:10347000481559056A057B0508F054C0840F951F4F
:10348000A61FB71F80935D0390935E03A0935F0315
:10349000B093600387E5882E84E0982E92EFB92ED2
:1034A00087E08B15C8F0F401ED57FF4F8081823023
:1034B00099F480915B0390915C030B2C02C095956D
:1034C00087950A94E2F780FF07C08B2D0E94E501E3
:1034D000BC018B2D0E940504B394AFEF8A1A9A0A9F
:1034E000B8E0BB12DDCF8091000187FD1BC0B12C7D
:1034F0002B2D30E080910001082E000C990B8217D3
:10350000930784F0D29EF001D39EF00D1124ED5C60
:10351000FC4F618172812481438180810E94A50AD0
:10352000B394E6CF209709F47BCD0E94C302882391
:1035300009F476CD0E94000073CD052E97FB1EF492
:1035400000940E94B41A57FD07D00E94CF1A07FCBE
:1035500003D04EF40C94B41A5095409530952195B3
:103560003F4F4F4F5F4F08959095809570956195AF
:103570007F4F8F4F9F4F08950E94F11AA59F900D86
:10358000B49F900DA49F800D911D11240895B7FF45
:103590000C94BC1A0E94BC1A821B930B0895A1E2E2
:1035A0001A2EAA1BBB1BFD010DC0AA1FBB1FEE1FBD
:1035B000FF1FA217B307E407F50720F0A21BB30B08
:1035C000E40BF50B661F771F881F991F1A9469F784
:1035D00060957095809590959B01AC01BD01CF01E0
:1035E0000895A29FB001B39FC001A39F700D811DDC
:1035F0001124911DB29F700D811D1124911D0895FC
:10360000991B79E004C0991F961708F0961B881F34
:103610007A95C9F780950895EE0FFF1F0590F491F4
:10362000E02D09940F931F93CF93DF938230910580
:1036300010F482E090E0E091BC05F091BD0530E02F
:1036400020E0B0E0A0E0309799F42115310509F4AD
:103650004AC0281B390B24303105D8F58A819B815B
:103660006115710589F1FB0193838283FE0111C00D
:10367000408151810281138148175907E0F04817B2
:10368000590799F4109761F012960C9312971396BC
:103690001C933296CF01DF91CF911F910F91089526
:1036A0000093BC051093BD05F4CF2115310551F0F1
:1036B0004217530738F0A901DB019A01BD01DF0170
:1036C000F801C1CFEF01F9CF9093BD058093BC0500
:1036D000CDCFFE01E20FF31F819391932250310968
:1036E00039832883D7CF2091BA053091BB05232B8E
:1036F00041F420910501309106013093BB052093E0
:10370000BA0520910301309104012115310541F4DE
:103710002DB73EB74091070150910801241B350B8E
:10372000E091BA05F091BB05E217F307A0F42E1B58
:103730003F0B2817390778F0AC014E5F5F4F241715
:10374000350748F04E0F5F1F5093BB054093BA05F5
:10375000819391939FCFF0E0E0E09CCFCF93DF93F4
:103760000097E9F0FC01329713821282A091BC0508
:10377000B091BD05ED0130E020E01097A1F420816B
:103780003181820F931F2091BA053091BB05281714
:10379000390709F061C0F093BB05E093BA05DF91EA
:1037A000CF910895EA01CE17DF07E8F54A815B81E2
:1037B0009E0141155105B1F7E901FB83EA83499167
:1037C0005991C40FD51FEC17FD0761F480819181D9
:1037D0000296840F951FE9019983888382819381E2
:1037E0009B838A83F0E0E0E012968D919C91139781
:1037F0000097B9F52D913C911197CD010296820F5A
:10380000931F2091BA053091BB052817390739F667
:10381000309751F51092BD051092BC05B093BB05D1
:10382000A093BA05BCCFD383C28340815181840F5A
:10383000951FC817D90761F44E5F5F4F8881998142
:10384000480F591F518340838A819B8193838283D0
:103850002115310509F0B0CFF093BD05E093BC050B
:103860009ECFFD01DC01C0CF13821282D7CFFB01B6
:10387000DC0102C001900D9241505040D8F70895EC
:103880006817790768F4FB01DC01E40FF51FA40F4A
:10389000B51F02C002900E9241505040D8F70895D3
:1038A0000C94371CDC0101C06D9341505040E0F78F
:1038B0000895FB01DC014150504048F001900D9209
:1038C0000020C9F701C01D9241505040E0F7089513
:0438D000F894FFCF9A
:1038D400FF13000000BE05800000000000F902593B
:1038E4000286024603B7029502A90200000000DA2C
:1038F40006AD0609078306A60693068406493243E5
:103904003A20546F6F206D616E792062797465730B
:10391400207265636569766564004932433A2054D0
:103924006F6F2066657720627974657320726563B2
:103934006569766564004D617820736572766F738E
:1039440020617474616368656400556E6B6E6F7793
:103954006E2070696E206D6F64650031302D626970
:10396400742061646472657373696E67206E6F742A
:1039740020737570706F7274656400746F6F206D5E
:10398400616E792071756572696573002F55736571
:1039940072732F73616E6465722E626F65722F4449
:1039A4006F63756D656E74732F706572736F6E617E
:1039B4006C2F6D6963726F666C6F772F7061636BC8
:1039C400616765732F666C61736865722F537461E8
:1039D4006E646172644669726D6174612F537461BF
:1039E4006E646172644669726D6174612E696E6F92
:0239F4000000D1
:00000001FF
